{
  "contractName": "DAO",
  "abi": [
    {
      "inputs": [
        {
          "internalType": "string",
          "name": "_name",
          "type": "string"
        },
        {
          "internalType": "string",
          "name": "_description",
          "type": "string"
        },
        {
          "internalType": "address",
          "name": "_initiator",
          "type": "address"
        }
      ],
      "stateMutability": "nonpayable",
      "type": "constructor"
    },
    {
      "inputs": [],
      "name": "description",
      "outputs": [
        {
          "internalType": "string",
          "name": "",
          "type": "string"
        }
      ],
      "stateMutability": "view",
      "type": "function"
    },
    {
      "inputs": [
        {
          "internalType": "uint256",
          "name": "",
          "type": "uint256"
        }
      ],
      "name": "members",
      "outputs": [
        {
          "internalType": "address",
          "name": "",
          "type": "address"
        }
      ],
      "stateMutability": "view",
      "type": "function"
    },
    {
      "inputs": [],
      "name": "membersCount",
      "outputs": [
        {
          "internalType": "uint256",
          "name": "",
          "type": "uint256"
        }
      ],
      "stateMutability": "view",
      "type": "function"
    },
    {
      "inputs": [],
      "name": "name",
      "outputs": [
        {
          "internalType": "string",
          "name": "",
          "type": "string"
        }
      ],
      "stateMutability": "view",
      "type": "function"
    },
    {
      "inputs": [],
      "name": "proposalCount",
      "outputs": [
        {
          "internalType": "uint256",
          "name": "",
          "type": "uint256"
        }
      ],
      "stateMutability": "view",
      "type": "function"
    },
    {
      "inputs": [
        {
          "internalType": "uint256",
          "name": "",
          "type": "uint256"
        }
      ],
      "name": "proposals",
      "outputs": [
        {
          "internalType": "uint256",
          "name": "id",
          "type": "uint256"
        },
        {
          "internalType": "address",
          "name": "initiator",
          "type": "address"
        },
        {
          "internalType": "string",
          "name": "title",
          "type": "string"
        },
        {
          "internalType": "string",
          "name": "description",
          "type": "string"
        },
        {
          "internalType": "uint256",
          "name": "votesFor",
          "type": "uint256"
        },
        {
          "internalType": "uint256",
          "name": "votesAgainst",
          "type": "uint256"
        },
        {
          "internalType": "bool",
          "name": "executed",
          "type": "bool"
        },
        {
          "internalType": "uint256",
          "name": "amount",
          "type": "uint256"
        },
        {
          "internalType": "address payable",
          "name": "beneficiary",
          "type": "address"
        }
      ],
      "stateMutability": "view",
      "type": "function"
    },
    {
      "inputs": [
        {
          "internalType": "address",
          "name": "_member",
          "type": "address"
        }
      ],
      "name": "addMember",
      "outputs": [],
      "stateMutability": "nonpayable",
      "type": "function"
    },
    {
      "inputs": [
        {
          "internalType": "address",
          "name": "_initiator",
          "type": "address"
        },
        {
          "internalType": "string",
          "name": "_title",
          "type": "string"
        },
        {
          "internalType": "string",
          "name": "_description",
          "type": "string"
        },
        {
          "internalType": "address",
          "name": "beneficiary",
          "type": "address"
        }
      ],
      "name": "createProposal",
      "outputs": [],
      "stateMutability": "nonpayable",
      "type": "function"
    },
    {
      "inputs": [],
      "name": "getProposals",
      "outputs": [
        {
          "components": [
            {
              "internalType": "uint256",
              "name": "id",
              "type": "uint256"
            },
            {
              "internalType": "address",
              "name": "initiator",
              "type": "address"
            },
            {
              "internalType": "string",
              "name": "title",
              "type": "string"
            },
            {
              "internalType": "string",
              "name": "description",
              "type": "string"
            },
            {
              "internalType": "uint256",
              "name": "votesFor",
              "type": "uint256"
            },
            {
              "internalType": "uint256",
              "name": "votesAgainst",
              "type": "uint256"
            },
            {
              "internalType": "bool",
              "name": "executed",
              "type": "bool"
            },
            {
              "internalType": "uint256",
              "name": "amount",
              "type": "uint256"
            },
            {
              "internalType": "address payable",
              "name": "beneficiary",
              "type": "address"
            }
          ],
          "internalType": "struct DAO.Proposal[]",
          "name": "",
          "type": "tuple[]"
        }
      ],
      "stateMutability": "view",
      "type": "function"
    },
    {
      "inputs": [
        {
          "internalType": "uint256",
          "name": "_proposalId",
          "type": "uint256"
        },
        {
          "internalType": "bool",
          "name": "choice",
          "type": "bool"
        }
      ],
      "name": "vote",
      "outputs": [],
      "stateMutability": "payable",
      "type": "function"
    },
    {
      "inputs": [
        {
          "internalType": "uint256",
          "name": "proposalId",
          "type": "uint256"
        }
      ],
      "name": "getVotesOf",
      "outputs": [
        {
          "components": [
            {
              "internalType": "address",
              "name": "voter",
              "type": "address"
            },
            {
              "internalType": "uint256",
              "name": "timestamp",
              "type": "uint256"
            },
            {
              "internalType": "bool",
              "name": "choice",
              "type": "bool"
            }
          ],
          "internalType": "struct DAO.VotedStruct[]",
          "name": "",
          "type": "tuple[]"
        }
      ],
      "stateMutability": "view",
      "type": "function"
    },
    {
      "inputs": [
        {
          "internalType": "address",
          "name": "_member",
          "type": "address"
        }
      ],
      "name": "isMember",
      "outputs": [
        {
          "internalType": "bool",
          "name": "",
          "type": "bool"
        }
      ],
      "stateMutability": "view",
      "type": "function"
    }
  ],
  "bytecode": "0x60806040523480156200001157600080fd5b506040516200220138038062002201833981810160405281019062000037919062000234565b82600090805190602001906200004f929190620000ef565b50816001908051906020019062000068929190620000ef565b506002819080600181540180825580915050600190039060005260206000200160009091909190916101000a81548173ffffffffffffffffffffffffffffffffffffffff021916908373ffffffffffffffffffffffffffffffffffffffff16021790555060036000815480929190620000e1906200040d565b919050555050505062000527565b828054620000fd90620003a1565b90600052602060002090601f0160209004810192826200012157600085556200016d565b82601f106200013c57805160ff19168380011785556200016d565b828001600101855582156200016d579182015b828111156200016c5782518255916020019190600101906200014f565b5b5090506200017c919062000180565b5090565b5b808211156200019b57600081600090555060010162000181565b5090565b6000620001b6620001b084620002f7565b620002ce565b905082815260208101848484011115620001d557620001d4620004ed565b5b620001e28482856200036b565b509392505050565b600081519050620001fb816200050d565b92915050565b600082601f830112620002195762000218620004e8565b5b81516200022b8482602086016200019f565b91505092915050565b60008060006060848603121562000250576200024f620004f7565b5b600084015167ffffffffffffffff811115620002715762000270620004f2565b5b6200027f8682870162000201565b935050602084015167ffffffffffffffff811115620002a357620002a2620004f2565b5b620002b18682870162000201565b9250506040620002c486828701620001ea565b9150509250925092565b6000620002da620002ed565b9050620002e88282620003d7565b919050565b6000604051905090565b600067ffffffffffffffff821115620003155762000314620004b9565b5b6200032082620004fc565b9050602081019050919050565b60006200033a8262000341565b9050919050565b600073ffffffffffffffffffffffffffffffffffffffff82169050919050565b6000819050919050565b60005b838110156200038b5780820151818401526020810190506200036e565b838111156200039b576000848401525b50505050565b60006002820490506001821680620003ba57607f821691505b60208210811415620003d157620003d06200048a565b5b50919050565b620003e282620004fc565b810181811067ffffffffffffffff82111715620004045762000403620004b9565b5b80604052505050565b60006200041a8262000361565b91507fffffffffffffffffffffffffffffffffffffffffffffffffffffffffffffffff82141562000450576200044f6200045b565b5b600182019050919050565b7f4e487b7100000000000000000000000000000000000000000000000000000000600052601160045260246000fd5b7f4e487b7100000000000000000000000000000000000000000000000000000000600052602260045260246000fd5b7f4e487b7100000000000000000000000000000000000000000000000000000000600052604160045260246000fd5b600080fd5b600080fd5b600080fd5b600080fd5b6000601f19601f8301169050919050565b62000518816200032d565b81146200052457600080fd5b50565b611cca80620005376000396000f3fe6080604052600436106100a75760003560e01c80637284e416116100645780637284e416146101ec578063a230c52414610217578063c9d27afe14610254578063ca6d56dc14610270578063d23f135014610299578063da35c664146102c2576100a7565b8063013cf08b146100ac57806306fdde03146100f1578063297f9af01461011c5780635daf08ca1461014757806362564c481461018457806369a136dc146101af575b600080fd5b3480156100b857600080fd5b506100d360048036038101906100ce91906112bb565b6102ed565b6040516100e89998979695949392919061179f565b60405180910390f35b3480156100fd57600080fd5b50610106610498565b6040516101139190611702565b60405180910390f35b34801561012857600080fd5b50610131610526565b60405161013e9190611784565b60405180910390f35b34801561015357600080fd5b5061016e600480360381019061016991906112bb565b61052c565b60405161017b9190611688565b60405180910390f35b34801561019057600080fd5b5061019961056b565b6040516101a691906116a3565b60405180910390f35b3480156101bb57600080fd5b506101d660048036038101906101d191906112bb565b610845565b6040516101e391906116c5565b60405180910390f35b3480156101f857600080fd5b50610201610932565b60405161020e9190611702565b60405180910390f35b34801561022357600080fd5b5061023e600480360381019061023991906111ef565b6109c0565b60405161024b91906116e7565b60405180910390f35b61026e600480360381019061026991906112e8565b610a6c565b005b34801561027c57600080fd5b50610297600480360381019061029291906111ef565b610de4565b005b3480156102a557600080fd5b506102c060048036038101906102bb919061121c565b610e62565b005b3480156102ce57600080fd5b506102d761101d565b6040516102e49190611784565b60405180910390f35b60046020528060005260406000206000915090508060000154908060010160009054906101000a900473ffffffffffffffffffffffffffffffffffffffff169080600201805461033c90611a21565b80601f016020809104026020016040519081016040528092919081815260200182805461036890611a21565b80156103b55780601f1061038a576101008083540402835291602001916103b5565b820191906000526020600020905b81548152906001019060200180831161039857829003601f168201915b5050505050908060030180546103ca90611a21565b80601f01602080910402602001604051908101604052809291908181526020018280546103f690611a21565b80156104435780601f1061041857610100808354040283529160200191610443565b820191906000526020600020905b81548152906001019060200180831161042657829003601f168201915b5050505050908060040154908060050154908060060160009054906101000a900460ff16908060070154908060080160009054906101000a900473ffffffffffffffffffffffffffffffffffffffff16905089565b600080546104a590611a21565b80601f01602080910402602001604051908101604052809291908181526020018280546104d190611a21565b801561051e5780601f106104f35761010080835404028352916020019161051e565b820191906000526020600020905b81548152906001019060200180831161050157829003601f168201915b505050505081565b60035481565b6002818154811061053c57600080fd5b906000526020600020016000915054906101000a900473ffffffffffffffffffffffffffffffffffffffff1681565b6060600060055467ffffffffffffffff81111561058b5761058a611b5a565b5b6040519080825280602002602001820160405280156105c457816020015b6105b1611023565b8152602001906001900390816105a95790505b50905060005b60055481101561083d5760006004600083815260200190815260200160002090508060405180610120016040529081600082015481526020016001820160009054906101000a900473ffffffffffffffffffffffffffffffffffffffff1673ffffffffffffffffffffffffffffffffffffffff1673ffffffffffffffffffffffffffffffffffffffff16815260200160028201805461066890611a21565b80601f016020809104026020016040519081016040528092919081815260200182805461069490611a21565b80156106e15780601f106106b6576101008083540402835291602001916106e1565b820191906000526020600020905b8154815290600101906020018083116106c457829003601f168201915b505050505081526020016003820180546106fa90611a21565b80601f016020809104026020016040519081016040528092919081815260200182805461072690611a21565b80156107735780601f1061074857610100808354040283529160200191610773565b820191906000526020600020905b81548152906001019060200180831161075657829003601f168201915b5050505050815260200160048201548152602001600582015481526020016006820160009054906101000a900460ff16151515158152602001600782015481526020016008820160009054906101000a900473ffffffffffffffffffffffffffffffffffffffff1673ffffffffffffffffffffffffffffffffffffffff1673ffffffffffffffffffffffffffffffffffffffff168152505083838151811061081e5761081d611b2b565b5b602002602001018190525050808061083590611a84565b9150506105ca565b508091505090565b606060076000838152602001908152602001600020805480602002602001604051908101604052809291908181526020016000905b8282101561092757838290600052602060002090600302016040518060600160405290816000820160009054906101000a900473ffffffffffffffffffffffffffffffffffffffff1673ffffffffffffffffffffffffffffffffffffffff1673ffffffffffffffffffffffffffffffffffffffff168152602001600182015481526020016002820160009054906101000a900460ff1615151515815250508152602001906001019061087a565b505050509050919050565b6001805461093f90611a21565b80601f016020809104026020016040519081016040528092919081815260200182805461096b90611a21565b80156109b85780601f1061098d576101008083540402835291602001916109b8565b820191906000526020600020905b81548152906001019060200180831161099b57829003601f168201915b505050505081565b600080600090505b600354811015610a61578273ffffffffffffffffffffffffffffffffffffffff16600282815481106109fd576109fc611b2b565b5b9060005260206000200160009054906101000a900473ffffffffffffffffffffffffffffffffffffffff1673ffffffffffffffffffffffffffffffffffffffff161415610a4e576001915050610a67565b8080610a5990611a84565b9150506109c8565b50600090505b919050565b610a75336109c0565b610ab4576040517f08c379a0000000000000000000000000000000000000000000000000000000008152600401610aab90611744565b60405180910390fd5b60006004600084815260200190815260200160002090508060060160009054906101000a900460ff1615610b1d576040517f08c379a0000000000000000000000000000000000000000000000000000000008152600401610b1490611764565b60405180910390fd5b6000600660003373ffffffffffffffffffffffffffffffffffffffff1673ffffffffffffffffffffffffffffffffffffffff168152602001908152602001600020805480602002602001604051908101604052809291908181526020018280548015610ba857602002820191906000526020600020905b815481526020019060010190808311610b94575b5050505050905060005b8151811015610c2f57818181518110610bce57610bcd611b2b565b5b602002602001015183600001541415610c1c576040517f08c379a0000000000000000000000000000000000000000000000000000000008152600401610c1390611724565b60405180910390fd5b8080610c2790611a84565b915050610bb2565b506000341115610c7357816004016000815480929190610c4e90611a84565b919050555034826007016000828254610c67919061192f565b92505081905550610c8e565b816005016000815480929190610c8890611a84565b91905055505b600660003373ffffffffffffffffffffffffffffffffffffffff1673ffffffffffffffffffffffffffffffffffffffff16815260200190815260200160002082600001549080600181540180825580915050600190039060005260206000200160009091909190915055600760008360000154815260200190815260200160002060405180606001604052803373ffffffffffffffffffffffffffffffffffffffff168152602001428152602001851515815250908060018154018082558091505060019003906000526020600020906003020160009091909190915060008201518160000160006101000a81548173ffffffffffffffffffffffffffffffffffffffff021916908373ffffffffffffffffffffffffffffffffffffffff1602179055506020820151816001015560408201518160020160006101000a81548160ff021916908315150217905550505050505050565b6002819080600181540180825580915050600190039060005260206000200160009091909190916101000a81548173ffffffffffffffffffffffffffffffffffffffff021916908373ffffffffffffffffffffffffffffffffffffffff16021790555060036000815480929190610e5a90611a84565b919050555050565b60405180610120016040528060055481526020018573ffffffffffffffffffffffffffffffffffffffff1681526020018481526020018381526020016000815260200160008152602001600015158152602001600081526020018273ffffffffffffffffffffffffffffffffffffffff168152506004600060055481526020019081526020016000206000820151816000015560208201518160010160006101000a81548173ffffffffffffffffffffffffffffffffffffffff021916908373ffffffffffffffffffffffffffffffffffffffff1602179055506040820151816002019080519060200190610f5892919061109d565b506060820151816003019080519060200190610f7592919061109d565b506080820151816004015560a0820151816005015560c08201518160060160006101000a81548160ff02191690831515021790555060e082015181600701556101008201518160080160006101000a81548173ffffffffffffffffffffffffffffffffffffffff021916908373ffffffffffffffffffffffffffffffffffffffff1602179055509050506005600081548092919061101290611a84565b919050555050505050565b60055481565b60405180610120016040528060008152602001600073ffffffffffffffffffffffffffffffffffffffff1681526020016060815260200160608152602001600081526020016000815260200160001515815260200160008152602001600073ffffffffffffffffffffffffffffffffffffffff1681525090565b8280546110a990611a21565b90600052602060002090601f0160209004810192826110cb5760008555611112565b82601f106110e457805160ff1916838001178555611112565b82800160010185558215611112579182015b828111156111115782518255916020019190600101906110f6565b5b50905061111f9190611123565b5090565b5b8082111561113c576000816000905550600101611124565b5090565b600061115361114e8461185f565b61183a565b90508281526020810184848401111561116f5761116e611b8e565b5b61117a8482856119df565b509392505050565b60008135905061119181611c4f565b92915050565b6000813590506111a681611c66565b92915050565b600082601f8301126111c1576111c0611b89565b5b81356111d1848260208601611140565b91505092915050565b6000813590506111e981611c7d565b92915050565b60006020828403121561120557611204611b98565b5b600061121384828501611182565b91505092915050565b6000806000806080858703121561123657611235611b98565b5b600061124487828801611182565b945050602085013567ffffffffffffffff81111561126557611264611b93565b5b611271878288016111ac565b935050604085013567ffffffffffffffff81111561129257611291611b93565b5b61129e878288016111ac565b92505060606112af87828801611182565b91505092959194509250565b6000602082840312156112d1576112d0611b98565b5b60006112df848285016111da565b91505092915050565b600080604083850312156112ff576112fe611b98565b5b600061130d858286016111da565b925050602061131e85828601611197565b9150509250929050565b6000611334838361155c565b905092915050565b60006113488383611628565b60608301905092915050565b61135d81611997565b82525050565b61136c81611997565b82525050565b61137b81611985565b82525050565b61138a81611985565b82525050565b600061139b826118b0565b6113a581856118eb565b9350836020820285016113b785611890565b8060005b858110156113f357848403895281516113d48582611328565b94506113df836118d1565b925060208a019950506001810190506113bb565b50829750879550505050505092915050565b6000611410826118bb565b61141a81856118fc565b9350611425836118a0565b8060005b8381101561145657815161143d888261133c565b9750611448836118de565b925050600181019050611429565b5085935050505092915050565b61146c816119a9565b82525050565b61147b816119a9565b82525050565b600061148c826118c6565b611496818561190d565b93506114a68185602086016119ee565b6114af81611b9d565b840191505092915050565b60006114c5826118c6565b6114cf818561191e565b93506114df8185602086016119ee565b6114e881611b9d565b840191505092915050565b600061150060198361191e565b915061150b82611bae565b602082019050919050565b600061152360158361191e565b915061152e82611bd7565b602082019050919050565b600061154660228361191e565b915061155182611c00565b604082019050919050565b600061012083016000830151611575600086018261166a565b5060208301516115886020860182611372565b50604083015184820360408601526115a08282611481565b915050606083015184820360608601526115ba8282611481565b91505060808301516115cf608086018261166a565b5060a08301516115e260a086018261166a565b5060c08301516115f560c0860182611463565b5060e083015161160860e086018261166a565b5061010083015161161d610100860182611354565b508091505092915050565b60608201600082015161163e6000850182611372565b506020820151611651602085018261166a565b5060408201516116646040850182611463565b50505050565b611673816119d5565b82525050565b611682816119d5565b82525050565b600060208201905061169d6000830184611381565b92915050565b600060208201905081810360008301526116bd8184611390565b905092915050565b600060208201905081810360008301526116df8184611405565b905092915050565b60006020820190506116fc6000830184611472565b92915050565b6000602082019050818103600083015261171c81846114ba565b905092915050565b6000602082019050818103600083015261173d816114f3565b9050919050565b6000602082019050818103600083015261175d81611516565b9050919050565b6000602082019050818103600083015261177d81611539565b9050919050565b60006020820190506117996000830184611679565b92915050565b6000610120820190506117b5600083018c611679565b6117c2602083018b611381565b81810360408301526117d4818a6114ba565b905081810360608301526117e881896114ba565b90506117f76080830188611679565b61180460a0830187611679565b61181160c0830186611472565b61181e60e0830185611679565b61182c610100830184611363565b9a9950505050505050505050565b6000611844611855565b90506118508282611a53565b919050565b6000604051905090565b600067ffffffffffffffff82111561187a57611879611b5a565b5b61188382611b9d565b9050602081019050919050565b6000819050602082019050919050565b6000819050602082019050919050565b600081519050919050565b600081519050919050565b600081519050919050565b6000602082019050919050565b6000602082019050919050565b600082825260208201905092915050565b600082825260208201905092915050565b600082825260208201905092915050565b600082825260208201905092915050565b600061193a826119d5565b9150611945836119d5565b9250827fffffffffffffffffffffffffffffffffffffffffffffffffffffffffffffffff0382111561197a57611979611acd565b5b828201905092915050565b6000611990826119b5565b9050919050565b60006119a2826119b5565b9050919050565b60008115159050919050565b600073ffffffffffffffffffffffffffffffffffffffff82169050919050565b6000819050919050565b82818337600083830152505050565b60005b83811015611a0c5780820151818401526020810190506119f1565b83811115611a1b576000848401525b50505050565b60006002820490506001821680611a3957607f821691505b60208210811415611a4d57611a4c611afc565b5b50919050565b611a5c82611b9d565b810181811067ffffffffffffffff82111715611a7b57611a7a611b5a565b5b80604052505050565b6000611a8f826119d5565b91507fffffffffffffffffffffffffffffffffffffffffffffffffffffffffffffffff821415611ac257611ac1611acd565b5b600182019050919050565b7f4e487b7100000000000000000000000000000000000000000000000000000000600052601160045260246000fd5b7f4e487b7100000000000000000000000000000000000000000000000000000000600052602260045260246000fd5b7f4e487b7100000000000000000000000000000000000000000000000000000000600052603260045260246000fd5b7f4e487b7100000000000000000000000000000000000000000000000000000000600052604160045260246000fd5b600080fd5b600080fd5b600080fd5b600080fd5b6000601f19601f8301169050919050565b7f446f75626c6520766f74696e67206e6f7420616c6c6f77656400000000000000600082015250565b7f4f6e6c79206d656d626572732063616e20766f74650000000000000000000000600082015250565b7f50726f706f73616c2068617320616c7265616479206265656e2065786563757460008201527f6564000000000000000000000000000000000000000000000000000000000000602082015250565b611c5881611985565b8114611c6357600080fd5b50565b611c6f816119a9565b8114611c7a57600080fd5b50565b611c86816119d5565b8114611c9157600080fd5b5056fea26469706673582212208c41822406367fe04be5e90ce3a0bbfdb85dd2139bcb203d1f707189e85fd68a64736f6c63430008070033",
  "immutableReferences": {},
  "source": "// SPDX-License-Identifier: MIT\npragma solidity ^0.8.7;\n\ncontract DAO {\n    struct Proposal {\n        uint256 id;\n        address initiator;\n        string title;\n        string description;\n        uint256 votesFor;\n        uint256 votesAgainst;\n        bool executed;\n        uint256 amount;\n        address payable beneficiary;\n    }\n    struct VotedStruct {\n        address voter;\n        uint256 timestamp;\n        bool choice;\n    }\n\n    string public name;\n    string public description;\n    address[] public members;\n    uint256 public membersCount;\n\n    mapping(uint256 => Proposal) public proposals;\n    uint256 public proposalCount;\n    mapping(address => uint256[]) private stakeholderVotes;\n    mapping(uint256 => VotedStruct[]) private votedOn;\n\n    constructor(string memory _name, string memory _description, address _initiator) {\n        name = _name;\n        description = _description;\n        members.push(_initiator);\n        membersCount++;\n    }\n\n    function addMember(address _member) public {\n        members.push(_member);\n        membersCount++;\n    }\n\n    function createProposal(\n        address _initiator,\n        string memory _title,\n        string memory _description,\n        address beneficiary\n    ) public {\n        proposals[proposalCount] = Proposal(\n            proposalCount,\n            _initiator,\n            _title,\n            _description,\n            0,\n            0,\n            false,\n            0,\n            payable(beneficiary)\n        );\n        proposalCount++;\n    }\n\n    function getProposals() public view returns (Proposal[] memory) {\n        Proposal[] memory daoProposals = new Proposal[](proposalCount);\n\n        for (uint256 i = 0; i < proposalCount; i++) {\n            Proposal storage proposal = proposals[i];\n            daoProposals[i] = proposal;\n        }\n\n        return daoProposals;\n    }\n\n    function vote(uint256 _proposalId, bool choice) payable public {\n        require(isMember(msg.sender), \"Only members can vote\");\n        Proposal storage proposal = proposals[_proposalId];\n        require(!proposal.executed, \"Proposal has already been executed\");\n        uint256[] memory tempVotes = stakeholderVotes[msg.sender];\n        for (uint256 v = 0; v < tempVotes.length; v++) {\n            if (proposal.id == tempVotes[v])\n                revert(\"Double voting not allowed\");\n        }\n\n        if (msg.value > 0) {\n            proposal.votesFor++;\n            proposal.amount += msg.value;\n        } else {\n            proposal.votesAgainst++;\n        }\n        stakeholderVotes[msg.sender].push(proposal.id);\n        votedOn[proposal.id].push(\n            VotedStruct(\n                msg.sender,\n                block.timestamp,\n                choice\n            )\n        );\n    }\n\n    function getVotesOf(uint256 proposalId)\n        external\n        view\n        returns (VotedStruct[] memory)\n    {\n        return votedOn[proposalId];\n    }\n\n    function isMember(address _member) public view returns (bool) {\n        for (uint256 i = 0; i < membersCount; i++) {\n            if (members[i] == _member) {\n                return true;\n            }\n        }\n        return false;\n    }\n\n//    function executeProposal(uint256 _proposalId) public {\n//        Proposal storage proposal = proposals[_proposalId];\n//        require(!proposal.executed, \"Proposal has already been executed\");\n//        require(proposal.votesFor >= quorum, \"Proposal does not have enough support\");\n//\n//        proposal.executed = true;\n//        // execute proposal code here\n    // }\n}\n",
  "sourcePath": "/Users/ilyatorch/AragonProjects/dominionDAOV2/src/contracts/DAO.sol",
  "compiler": {
    "name": "solc",
    "version": "0.8.7+commit.e28d00a7.Emscripten.clang"
  },
  "schemaVersion": "3.4.10",
  "updatedAt": "2023-10-02T18:30:12.888Z",
  "devdoc": {
    "kind": "dev",
    "methods": {},
    "version": 1
  },
  "userdoc": {
    "kind": "user",
    "methods": {},
    "version": 1
  }
}