{
  "contractName": "DAO",
  "abi": [
    {
      "inputs": [
        {
          "internalType": "string",
          "name": "_name",
          "type": "string"
        },
        {
          "internalType": "address",
          "name": "_initiator",
          "type": "address"
        }
      ],
      "stateMutability": "nonpayable",
      "type": "constructor"
    },
    {
      "inputs": [
        {
          "internalType": "uint256",
          "name": "",
          "type": "uint256"
        }
      ],
      "name": "members",
      "outputs": [
        {
          "internalType": "address",
          "name": "",
          "type": "address"
        }
      ],
      "stateMutability": "view",
      "type": "function"
    },
    {
      "inputs": [],
      "name": "membersCount",
      "outputs": [
        {
          "internalType": "uint256",
          "name": "",
          "type": "uint256"
        }
      ],
      "stateMutability": "view",
      "type": "function"
    },
    {
      "inputs": [],
      "name": "name",
      "outputs": [
        {
          "internalType": "string",
          "name": "",
          "type": "string"
        }
      ],
      "stateMutability": "view",
      "type": "function"
    },
    {
      "inputs": [],
      "name": "proposalCount",
      "outputs": [
        {
          "internalType": "uint256",
          "name": "",
          "type": "uint256"
        }
      ],
      "stateMutability": "view",
      "type": "function"
    },
    {
      "inputs": [
        {
          "internalType": "uint256",
          "name": "",
          "type": "uint256"
        }
      ],
      "name": "proposals",
      "outputs": [
        {
          "internalType": "uint256",
          "name": "id",
          "type": "uint256"
        },
        {
          "internalType": "address",
          "name": "initiator",
          "type": "address"
        },
        {
          "internalType": "string",
          "name": "title",
          "type": "string"
        },
        {
          "internalType": "string",
          "name": "description",
          "type": "string"
        },
        {
          "internalType": "uint256",
          "name": "votesFor",
          "type": "uint256"
        },
        {
          "internalType": "uint256",
          "name": "votesAgainst",
          "type": "uint256"
        },
        {
          "internalType": "bool",
          "name": "executed",
          "type": "bool"
        },
        {
          "internalType": "uint256",
          "name": "amount",
          "type": "uint256"
        },
        {
          "internalType": "address payable",
          "name": "beneficiary",
          "type": "address"
        }
      ],
      "stateMutability": "view",
      "type": "function"
    },
    {
      "inputs": [
        {
          "internalType": "address",
          "name": "_member",
          "type": "address"
        }
      ],
      "name": "addMember",
      "outputs": [],
      "stateMutability": "nonpayable",
      "type": "function"
    },
    {
      "inputs": [
        {
          "internalType": "address",
          "name": "_initiator",
          "type": "address"
        },
        {
          "internalType": "string",
          "name": "_title",
          "type": "string"
        },
        {
          "internalType": "string",
          "name": "_description",
          "type": "string"
        },
        {
          "internalType": "address",
          "name": "beneficiary",
          "type": "address"
        }
      ],
      "name": "createProposal",
      "outputs": [],
      "stateMutability": "nonpayable",
      "type": "function"
    },
    {
      "inputs": [],
      "name": "getProposals",
      "outputs": [
        {
          "components": [
            {
              "internalType": "uint256",
              "name": "id",
              "type": "uint256"
            },
            {
              "internalType": "address",
              "name": "initiator",
              "type": "address"
            },
            {
              "internalType": "string",
              "name": "title",
              "type": "string"
            },
            {
              "internalType": "string",
              "name": "description",
              "type": "string"
            },
            {
              "internalType": "uint256",
              "name": "votesFor",
              "type": "uint256"
            },
            {
              "internalType": "uint256",
              "name": "votesAgainst",
              "type": "uint256"
            },
            {
              "internalType": "bool",
              "name": "executed",
              "type": "bool"
            },
            {
              "internalType": "uint256",
              "name": "amount",
              "type": "uint256"
            },
            {
              "internalType": "address payable",
              "name": "beneficiary",
              "type": "address"
            }
          ],
          "internalType": "struct DAO.Proposal[]",
          "name": "",
          "type": "tuple[]"
        }
      ],
      "stateMutability": "view",
      "type": "function"
    },
    {
      "inputs": [
        {
          "internalType": "uint256",
          "name": "_proposalId",
          "type": "uint256"
        },
        {
          "internalType": "bool",
          "name": "choice",
          "type": "bool"
        }
      ],
      "name": "vote",
      "outputs": [],
      "stateMutability": "payable",
      "type": "function"
    },
    {
      "inputs": [
        {
          "internalType": "uint256",
          "name": "proposalId",
          "type": "uint256"
        }
      ],
      "name": "getVotesOf",
      "outputs": [
        {
          "components": [
            {
              "internalType": "address",
              "name": "voter",
              "type": "address"
            },
            {
              "internalType": "uint256",
              "name": "timestamp",
              "type": "uint256"
            },
            {
              "internalType": "bool",
              "name": "choice",
              "type": "bool"
            }
          ],
          "internalType": "struct DAO.VotedStruct[]",
          "name": "",
          "type": "tuple[]"
        }
      ],
      "stateMutability": "view",
      "type": "function"
    },
    {
      "inputs": [
        {
          "internalType": "address",
          "name": "_member",
          "type": "address"
        }
      ],
      "name": "isMember",
      "outputs": [
        {
          "internalType": "bool",
          "name": "",
          "type": "bool"
        }
      ],
      "stateMutability": "view",
      "type": "function"
    }
  ],
  "bytecode": "0x60806040523480156200001157600080fd5b50604051620020ef380380620020ef83398181016040528101906200003791906200021a565b81600090805190602001906200004f929190620000d5565b506001819080600181540180825580915050600190039060005260206000200160009091909190916101000a81548173ffffffffffffffffffffffffffffffffffffffff021916908373ffffffffffffffffffffffffffffffffffffffff16021790555060026000815480929190620000c890620003bf565b91905055505050620004d9565b828054620000e39062000353565b90600052602060002090601f01602090048101928262000107576000855562000153565b82601f106200012257805160ff191683800117855562000153565b8280016001018555821562000153579182015b828111156200015257825182559160200191906001019062000135565b5b50905062000162919062000166565b5090565b5b808211156200018157600081600090555060010162000167565b5090565b60006200019c6200019684620002a9565b62000280565b905082815260208101848484011115620001bb57620001ba6200049f565b5b620001c88482856200031d565b509392505050565b600081519050620001e181620004bf565b92915050565b600082601f830112620001ff57620001fe6200049a565b5b81516200021184826020860162000185565b91505092915050565b60008060408385031215620002345762000233620004a9565b5b600083015167ffffffffffffffff811115620002555762000254620004a4565b5b6200026385828601620001e7565b92505060206200027685828601620001d0565b9150509250929050565b60006200028c6200029f565b90506200029a828262000389565b919050565b6000604051905090565b600067ffffffffffffffff821115620002c757620002c66200046b565b5b620002d282620004ae565b9050602081019050919050565b6000620002ec82620002f3565b9050919050565b600073ffffffffffffffffffffffffffffffffffffffff82169050919050565b6000819050919050565b60005b838110156200033d57808201518184015260208101905062000320565b838111156200034d576000848401525b50505050565b600060028204905060018216806200036c57607f821691505b602082108114156200038357620003826200043c565b5b50919050565b6200039482620004ae565b810181811067ffffffffffffffff82111715620003b657620003b56200046b565b5b80604052505050565b6000620003cc8262000313565b91507fffffffffffffffffffffffffffffffffffffffffffffffffffffffffffffffff8214156200040257620004016200040d565b5b600182019050919050565b7f4e487b7100000000000000000000000000000000000000000000000000000000600052601160045260246000fd5b7f4e487b7100000000000000000000000000000000000000000000000000000000600052602260045260246000fd5b7f4e487b7100000000000000000000000000000000000000000000000000000000600052604160045260246000fd5b600080fd5b600080fd5b600080fd5b600080fd5b6000601f19601f8301169050919050565b620004ca81620002df565b8114620004d657600080fd5b50565b611c0680620004e96000396000f3fe60806040526004361061009c5760003560e01c806369a136dc1161006457806369a136dc146101a4578063a230c524146101e1578063c9d27afe1461021e578063ca6d56dc1461023a578063d23f135014610263578063da35c6641461028c5761009c565b8063013cf08b146100a157806306fdde03146100e6578063297f9af0146101115780635daf08ca1461013c57806362564c4814610179575b600080fd5b3480156100ad57600080fd5b506100c860048036038101906100c391906111f7565b6102b7565b6040516100dd999897969594939291906116db565b60405180910390f35b3480156100f257600080fd5b506100fb610462565b604051610108919061163e565b60405180910390f35b34801561011d57600080fd5b506101266104f0565b60405161013391906116c0565b60405180910390f35b34801561014857600080fd5b50610163600480360381019061015e91906111f7565b6104f6565b60405161017091906115c4565b60405180910390f35b34801561018557600080fd5b5061018e610535565b60405161019b91906115df565b60405180910390f35b3480156101b057600080fd5b506101cb60048036038101906101c691906111f7565b61080f565b6040516101d89190611601565b60405180910390f35b3480156101ed57600080fd5b506102086004803603810190610203919061112b565b6108fc565b6040516102159190611623565b60405180910390f35b61023860048036038101906102339190611224565b6109a8565b005b34801561024657600080fd5b50610261600480360381019061025c919061112b565b610d20565b005b34801561026f57600080fd5b5061028a60048036038101906102859190611158565b610d9e565b005b34801561029857600080fd5b506102a1610f59565b6040516102ae91906116c0565b60405180910390f35b60036020528060005260406000206000915090508060000154908060010160009054906101000a900473ffffffffffffffffffffffffffffffffffffffff16908060020180546103069061195d565b80601f01602080910402602001604051908101604052809291908181526020018280546103329061195d565b801561037f5780601f106103545761010080835404028352916020019161037f565b820191906000526020600020905b81548152906001019060200180831161036257829003601f168201915b5050505050908060030180546103949061195d565b80601f01602080910402602001604051908101604052809291908181526020018280546103c09061195d565b801561040d5780601f106103e25761010080835404028352916020019161040d565b820191906000526020600020905b8154815290600101906020018083116103f057829003601f168201915b5050505050908060040154908060050154908060060160009054906101000a900460ff16908060070154908060080160009054906101000a900473ffffffffffffffffffffffffffffffffffffffff16905089565b6000805461046f9061195d565b80601f016020809104026020016040519081016040528092919081815260200182805461049b9061195d565b80156104e85780601f106104bd576101008083540402835291602001916104e8565b820191906000526020600020905b8154815290600101906020018083116104cb57829003601f168201915b505050505081565b60025481565b6001818154811061050657600080fd5b906000526020600020016000915054906101000a900473ffffffffffffffffffffffffffffffffffffffff1681565b6060600060045467ffffffffffffffff81111561055557610554611a96565b5b60405190808252806020026020018201604052801561058e57816020015b61057b610f5f565b8152602001906001900390816105735790505b50905060005b6004548110156108075760006003600083815260200190815260200160002090508060405180610120016040529081600082015481526020016001820160009054906101000a900473ffffffffffffffffffffffffffffffffffffffff1673ffffffffffffffffffffffffffffffffffffffff1673ffffffffffffffffffffffffffffffffffffffff1681526020016002820180546106329061195d565b80601f016020809104026020016040519081016040528092919081815260200182805461065e9061195d565b80156106ab5780601f10610680576101008083540402835291602001916106ab565b820191906000526020600020905b81548152906001019060200180831161068e57829003601f168201915b505050505081526020016003820180546106c49061195d565b80601f01602080910402602001604051908101604052809291908181526020018280546106f09061195d565b801561073d5780601f106107125761010080835404028352916020019161073d565b820191906000526020600020905b81548152906001019060200180831161072057829003601f168201915b5050505050815260200160048201548152602001600582015481526020016006820160009054906101000a900460ff16151515158152602001600782015481526020016008820160009054906101000a900473ffffffffffffffffffffffffffffffffffffffff1673ffffffffffffffffffffffffffffffffffffffff1673ffffffffffffffffffffffffffffffffffffffff16815250508383815181106107e8576107e7611a67565b5b60200260200101819052505080806107ff906119c0565b915050610594565b508091505090565b606060066000838152602001908152602001600020805480602002602001604051908101604052809291908181526020016000905b828210156108f157838290600052602060002090600302016040518060600160405290816000820160009054906101000a900473ffffffffffffffffffffffffffffffffffffffff1673ffffffffffffffffffffffffffffffffffffffff1673ffffffffffffffffffffffffffffffffffffffff168152602001600182015481526020016002820160009054906101000a900460ff16151515158152505081526020019060010190610844565b505050509050919050565b600080600090505b60025481101561099d578273ffffffffffffffffffffffffffffffffffffffff166001828154811061093957610938611a67565b5b9060005260206000200160009054906101000a900473ffffffffffffffffffffffffffffffffffffffff1673ffffffffffffffffffffffffffffffffffffffff16141561098a5760019150506109a3565b8080610995906119c0565b915050610904565b50600090505b919050565b6109b1336108fc565b6109f0576040517f08c379a00000000000000000000000000000000000000000000000000000000081526004016109e790611680565b60405180910390fd5b60006003600084815260200190815260200160002090508060060160009054906101000a900460ff1615610a59576040517f08c379a0000000000000000000000000000000000000000000000000000000008152600401610a50906116a0565b60405180910390fd5b6000600560003373ffffffffffffffffffffffffffffffffffffffff1673ffffffffffffffffffffffffffffffffffffffff168152602001908152602001600020805480602002602001604051908101604052809291908181526020018280548015610ae457602002820191906000526020600020905b815481526020019060010190808311610ad0575b5050505050905060005b8151811015610b6b57818181518110610b0a57610b09611a67565b5b602002602001015183600001541415610b58576040517f08c379a0000000000000000000000000000000000000000000000000000000008152600401610b4f90611660565b60405180910390fd5b8080610b63906119c0565b915050610aee565b506000341115610baf57816004016000815480929190610b8a906119c0565b919050555034826007016000828254610ba3919061186b565b92505081905550610bca565b816005016000815480929190610bc4906119c0565b91905055505b600560003373ffffffffffffffffffffffffffffffffffffffff1673ffffffffffffffffffffffffffffffffffffffff16815260200190815260200160002082600001549080600181540180825580915050600190039060005260206000200160009091909190915055600660008360000154815260200190815260200160002060405180606001604052803373ffffffffffffffffffffffffffffffffffffffff168152602001428152602001851515815250908060018154018082558091505060019003906000526020600020906003020160009091909190915060008201518160000160006101000a81548173ffffffffffffffffffffffffffffffffffffffff021916908373ffffffffffffffffffffffffffffffffffffffff1602179055506020820151816001015560408201518160020160006101000a81548160ff021916908315150217905550505050505050565b6001819080600181540180825580915050600190039060005260206000200160009091909190916101000a81548173ffffffffffffffffffffffffffffffffffffffff021916908373ffffffffffffffffffffffffffffffffffffffff16021790555060026000815480929190610d96906119c0565b919050555050565b60405180610120016040528060045481526020018573ffffffffffffffffffffffffffffffffffffffff1681526020018481526020018381526020016000815260200160008152602001600015158152602001600081526020018273ffffffffffffffffffffffffffffffffffffffff168152506003600060045481526020019081526020016000206000820151816000015560208201518160010160006101000a81548173ffffffffffffffffffffffffffffffffffffffff021916908373ffffffffffffffffffffffffffffffffffffffff1602179055506040820151816002019080519060200190610e94929190610fd9565b506060820151816003019080519060200190610eb1929190610fd9565b506080820151816004015560a0820151816005015560c08201518160060160006101000a81548160ff02191690831515021790555060e082015181600701556101008201518160080160006101000a81548173ffffffffffffffffffffffffffffffffffffffff021916908373ffffffffffffffffffffffffffffffffffffffff16021790555090505060046000815480929190610f4e906119c0565b919050555050505050565b60045481565b60405180610120016040528060008152602001600073ffffffffffffffffffffffffffffffffffffffff1681526020016060815260200160608152602001600081526020016000815260200160001515815260200160008152602001600073ffffffffffffffffffffffffffffffffffffffff1681525090565b828054610fe59061195d565b90600052602060002090601f016020900481019282611007576000855561104e565b82601f1061102057805160ff191683800117855561104e565b8280016001018555821561104e579182015b8281111561104d578251825591602001919060010190611032565b5b50905061105b919061105f565b5090565b5b80821115611078576000816000905550600101611060565b5090565b600061108f61108a8461179b565b611776565b9050828152602081018484840111156110ab576110aa611aca565b5b6110b684828561191b565b509392505050565b6000813590506110cd81611b8b565b92915050565b6000813590506110e281611ba2565b92915050565b600082601f8301126110fd576110fc611ac5565b5b813561110d84826020860161107c565b91505092915050565b60008135905061112581611bb9565b92915050565b60006020828403121561114157611140611ad4565b5b600061114f848285016110be565b91505092915050565b6000806000806080858703121561117257611171611ad4565b5b6000611180878288016110be565b945050602085013567ffffffffffffffff8111156111a1576111a0611acf565b5b6111ad878288016110e8565b935050604085013567ffffffffffffffff8111156111ce576111cd611acf565b5b6111da878288016110e8565b92505060606111eb878288016110be565b91505092959194509250565b60006020828403121561120d5761120c611ad4565b5b600061121b84828501611116565b91505092915050565b6000806040838503121561123b5761123a611ad4565b5b600061124985828601611116565b925050602061125a858286016110d3565b9150509250929050565b60006112708383611498565b905092915050565b60006112848383611564565b60608301905092915050565b611299816118d3565b82525050565b6112a8816118d3565b82525050565b6112b7816118c1565b82525050565b6112c6816118c1565b82525050565b60006112d7826117ec565b6112e18185611827565b9350836020820285016112f3856117cc565b8060005b8581101561132f57848403895281516113108582611264565b945061131b8361180d565b925060208a019950506001810190506112f7565b50829750879550505050505092915050565b600061134c826117f7565b6113568185611838565b9350611361836117dc565b8060005b838110156113925781516113798882611278565b97506113848361181a565b925050600181019050611365565b5085935050505092915050565b6113a8816118e5565b82525050565b6113b7816118e5565b82525050565b60006113c882611802565b6113d28185611849565b93506113e281856020860161192a565b6113eb81611ad9565b840191505092915050565b600061140182611802565b61140b818561185a565b935061141b81856020860161192a565b61142481611ad9565b840191505092915050565b600061143c60198361185a565b915061144782611aea565b602082019050919050565b600061145f60158361185a565b915061146a82611b13565b602082019050919050565b600061148260228361185a565b915061148d82611b3c565b604082019050919050565b6000610120830160008301516114b160008601826115a6565b5060208301516114c460208601826112ae565b50604083015184820360408601526114dc82826113bd565b915050606083015184820360608601526114f682826113bd565b915050608083015161150b60808601826115a6565b5060a083015161151e60a08601826115a6565b5060c083015161153160c086018261139f565b5060e083015161154460e08601826115a6565b50610100830151611559610100860182611290565b508091505092915050565b60608201600082015161157a60008501826112ae565b50602082015161158d60208501826115a6565b5060408201516115a0604085018261139f565b50505050565b6115af81611911565b82525050565b6115be81611911565b82525050565b60006020820190506115d960008301846112bd565b92915050565b600060208201905081810360008301526115f981846112cc565b905092915050565b6000602082019050818103600083015261161b8184611341565b905092915050565b600060208201905061163860008301846113ae565b92915050565b6000602082019050818103600083015261165881846113f6565b905092915050565b600060208201905081810360008301526116798161142f565b9050919050565b6000602082019050818103600083015261169981611452565b9050919050565b600060208201905081810360008301526116b981611475565b9050919050565b60006020820190506116d560008301846115b5565b92915050565b6000610120820190506116f1600083018c6115b5565b6116fe602083018b6112bd565b8181036040830152611710818a6113f6565b9050818103606083015261172481896113f6565b905061173360808301886115b5565b61174060a08301876115b5565b61174d60c08301866113ae565b61175a60e08301856115b5565b61176861010083018461129f565b9a9950505050505050505050565b6000611780611791565b905061178c828261198f565b919050565b6000604051905090565b600067ffffffffffffffff8211156117b6576117b5611a96565b5b6117bf82611ad9565b9050602081019050919050565b6000819050602082019050919050565b6000819050602082019050919050565b600081519050919050565b600081519050919050565b600081519050919050565b6000602082019050919050565b6000602082019050919050565b600082825260208201905092915050565b600082825260208201905092915050565b600082825260208201905092915050565b600082825260208201905092915050565b600061187682611911565b915061188183611911565b9250827fffffffffffffffffffffffffffffffffffffffffffffffffffffffffffffffff038211156118b6576118b5611a09565b5b828201905092915050565b60006118cc826118f1565b9050919050565b60006118de826118f1565b9050919050565b60008115159050919050565b600073ffffffffffffffffffffffffffffffffffffffff82169050919050565b6000819050919050565b82818337600083830152505050565b60005b8381101561194857808201518184015260208101905061192d565b83811115611957576000848401525b50505050565b6000600282049050600182168061197557607f821691505b6020821081141561198957611988611a38565b5b50919050565b61199882611ad9565b810181811067ffffffffffffffff821117156119b7576119b6611a96565b5b80604052505050565b60006119cb82611911565b91507fffffffffffffffffffffffffffffffffffffffffffffffffffffffffffffffff8214156119fe576119fd611a09565b5b600182019050919050565b7f4e487b7100000000000000000000000000000000000000000000000000000000600052601160045260246000fd5b7f4e487b7100000000000000000000000000000000000000000000000000000000600052602260045260246000fd5b7f4e487b7100000000000000000000000000000000000000000000000000000000600052603260045260246000fd5b7f4e487b7100000000000000000000000000000000000000000000000000000000600052604160045260246000fd5b600080fd5b600080fd5b600080fd5b600080fd5b6000601f19601f8301169050919050565b7f446f75626c6520766f74696e67206e6f7420616c6c6f77656400000000000000600082015250565b7f4f6e6c79206d656d626572732063616e20766f74650000000000000000000000600082015250565b7f50726f706f73616c2068617320616c7265616479206265656e2065786563757460008201527f6564000000000000000000000000000000000000000000000000000000000000602082015250565b611b94816118c1565b8114611b9f57600080fd5b50565b611bab816118e5565b8114611bb657600080fd5b50565b611bc281611911565b8114611bcd57600080fd5b5056fea26469706673582212201687af85542f7af6be9c17d69972f10abaa81223ebb851d629f4dcf1a328e33f64736f6c63430008070033",
  "immutableReferences": {},
  "source": "// SPDX-License-Identifier: MIT\npragma solidity ^0.8.7;\n\ncontract DAO {\n    struct Proposal {\n        uint256 id;\n        address initiator;\n        string title;\n        string description;\n        uint256 votesFor;\n        uint256 votesAgainst;\n        bool executed;\n        uint256 amount;\n        address payable beneficiary;\n    }\n    struct VotedStruct {\n        address voter;\n        uint256 timestamp;\n        bool choice;\n    }\n\n    string public name;\n    address[] public members;\n    uint256 public membersCount;\n\n    mapping(uint256 => Proposal) public proposals;\n    uint256 public proposalCount;\n    mapping(address => uint256[]) private stakeholderVotes;\n    mapping(uint256 => VotedStruct[]) private votedOn;\n\n    constructor(string memory _name, address _initiator) {\n        name = _name;\n        members.push(_initiator);\n        membersCount++;\n    }\n\n    function addMember(address _member) public {\n        members.push(_member);\n        membersCount++;\n    }\n\n    function createProposal(\n        address _initiator,\n        string memory _title,\n        string memory _description,\n        address beneficiary\n    ) public {\n        proposals[proposalCount] = Proposal(\n            proposalCount,\n            _initiator,\n            _title,\n            _description,\n            0,\n            0,\n            false,\n            0,\n            payable(beneficiary)\n        );\n        proposalCount++;\n    }\n\n    function getProposals() public view returns (Proposal[] memory) {\n        Proposal[] memory daoProposals = new Proposal[](proposalCount);\n\n        for (uint256 i = 0; i < proposalCount; i++) {\n            Proposal storage proposal = proposals[i];\n            daoProposals[i] = proposal;\n        }\n\n        return daoProposals;\n    }\n\n    function vote(uint256 _proposalId, bool choice) payable public {\n        require(isMember(msg.sender), \"Only members can vote\");\n        Proposal storage proposal = proposals[_proposalId];\n        require(!proposal.executed, \"Proposal has already been executed\");\n        uint256[] memory tempVotes = stakeholderVotes[msg.sender];\n        for (uint256 v = 0; v < tempVotes.length; v++) {\n            if (proposal.id == tempVotes[v])\n                revert(\"Double voting not allowed\");\n        }\n\n        if (msg.value > 0) {\n            proposal.votesFor++;\n            proposal.amount += msg.value;\n        } else {\n            proposal.votesAgainst++;\n        }\n        stakeholderVotes[msg.sender].push(proposal.id);\n        votedOn[proposal.id].push(\n            VotedStruct(\n                msg.sender,\n                block.timestamp,\n                choice\n            )\n        );\n    }\n\n    function getVotesOf(uint256 proposalId)\n        external\n        view\n        returns (VotedStruct[] memory)\n    {\n        return votedOn[proposalId];\n    }\n\n    function isMember(address _member) public view returns (bool) {\n        for (uint256 i = 0; i < membersCount; i++) {\n            if (members[i] == _member) {\n                return true;\n            }\n        }\n        return false;\n    }\n\n//    function executeProposal(uint256 _proposalId) public {\n//        Proposal storage proposal = proposals[_proposalId];\n//        require(!proposal.executed, \"Proposal has already been executed\");\n//        require(proposal.votesFor >= quorum, \"Proposal does not have enough support\");\n//\n//        proposal.executed = true;\n//        // execute proposal code here\n    // }\n}\n",
  "sourcePath": "/Users/ilyatorch/AragonProjects/dominionDAOV2/src/contracts/DAO.sol",
  "compiler": {
    "name": "solc",
    "version": "0.8.7+commit.e28d00a7.Emscripten.clang"
  },
  "schemaVersion": "3.4.10",
  "updatedAt": "2023-05-04T15:32:28.634Z",
  "devdoc": {
    "kind": "dev",
    "methods": {},
    "version": 1
  },
  "userdoc": {
    "kind": "user",
    "methods": {},
    "version": 1
  }
}