{
  "contractName": "DAO",
  "abi": [
    {
      "inputs": [
        {
          "internalType": "string",
          "name": "_name",
          "type": "string"
        },
        {
          "internalType": "string",
          "name": "_description",
          "type": "string"
        },
        {
          "internalType": "string",
          "name": "_scope",
          "type": "string"
        },
        {
          "internalType": "address",
          "name": "_initiator",
          "type": "address"
        },
        {
          "internalType": "string",
          "name": "_start",
          "type": "string"
        },
        {
          "internalType": "string",
          "name": "_end",
          "type": "string"
        }
      ],
      "stateMutability": "nonpayable",
      "type": "constructor"
    },
    {
      "inputs": [],
      "name": "avatar",
      "outputs": [
        {
          "internalType": "string",
          "name": "",
          "type": "string"
        }
      ],
      "stateMutability": "view",
      "type": "function"
    },
    {
      "inputs": [],
      "name": "description",
      "outputs": [
        {
          "internalType": "string",
          "name": "",
          "type": "string"
        }
      ],
      "stateMutability": "view",
      "type": "function"
    },
    {
      "inputs": [
        {
          "internalType": "uint256",
          "name": "",
          "type": "uint256"
        }
      ],
      "name": "members",
      "outputs": [
        {
          "internalType": "address",
          "name": "",
          "type": "address"
        }
      ],
      "stateMutability": "view",
      "type": "function"
    },
    {
      "inputs": [],
      "name": "membersCount",
      "outputs": [
        {
          "internalType": "uint256",
          "name": "",
          "type": "uint256"
        }
      ],
      "stateMutability": "view",
      "type": "function"
    },
    {
      "inputs": [],
      "name": "name",
      "outputs": [
        {
          "internalType": "string",
          "name": "",
          "type": "string"
        }
      ],
      "stateMutability": "view",
      "type": "function"
    },
    {
      "inputs": [],
      "name": "proposalCount",
      "outputs": [
        {
          "internalType": "uint256",
          "name": "",
          "type": "uint256"
        }
      ],
      "stateMutability": "view",
      "type": "function"
    },
    {
      "inputs": [
        {
          "internalType": "uint256",
          "name": "",
          "type": "uint256"
        }
      ],
      "name": "proposals",
      "outputs": [
        {
          "internalType": "uint256",
          "name": "id",
          "type": "uint256"
        },
        {
          "internalType": "address",
          "name": "initiator",
          "type": "address"
        },
        {
          "internalType": "string",
          "name": "title",
          "type": "string"
        },
        {
          "internalType": "string",
          "name": "description",
          "type": "string"
        },
        {
          "internalType": "uint256",
          "name": "votesFor",
          "type": "uint256"
        },
        {
          "internalType": "uint256",
          "name": "votesAgainst",
          "type": "uint256"
        },
        {
          "internalType": "bool",
          "name": "executed",
          "type": "bool"
        },
        {
          "internalType": "uint256",
          "name": "amount",
          "type": "uint256"
        },
        {
          "internalType": "address payable",
          "name": "beneficiary",
          "type": "address"
        },
        {
          "internalType": "string",
          "name": "start",
          "type": "string"
        },
        {
          "internalType": "string",
          "name": "end",
          "type": "string"
        },
        {
          "internalType": "uint256",
          "name": "state",
          "type": "uint256"
        }
      ],
      "stateMutability": "view",
      "type": "function"
    },
    {
      "inputs": [],
      "name": "scope",
      "outputs": [
        {
          "internalType": "string",
          "name": "",
          "type": "string"
        }
      ],
      "stateMutability": "view",
      "type": "function"
    },
    {
      "inputs": [
        {
          "internalType": "address",
          "name": "_member",
          "type": "address"
        }
      ],
      "name": "addMember",
      "outputs": [],
      "stateMutability": "nonpayable",
      "type": "function"
    },
    {
      "inputs": [
        {
          "internalType": "address",
          "name": "_initiator",
          "type": "address"
        },
        {
          "internalType": "string",
          "name": "_title",
          "type": "string"
        },
        {
          "internalType": "string",
          "name": "_description",
          "type": "string"
        },
        {
          "internalType": "address",
          "name": "beneficiary",
          "type": "address"
        },
        {
          "internalType": "string",
          "name": "_start",
          "type": "string"
        },
        {
          "internalType": "string",
          "name": "_end",
          "type": "string"
        },
        {
          "internalType": "bool",
          "name": "_executed",
          "type": "bool"
        }
      ],
      "name": "createProposal",
      "outputs": [],
      "stateMutability": "nonpayable",
      "type": "function"
    },
    {
      "inputs": [],
      "name": "getProposals",
      "outputs": [
        {
          "components": [
            {
              "internalType": "uint256",
              "name": "id",
              "type": "uint256"
            },
            {
              "internalType": "address",
              "name": "initiator",
              "type": "address"
            },
            {
              "internalType": "string",
              "name": "title",
              "type": "string"
            },
            {
              "internalType": "string",
              "name": "description",
              "type": "string"
            },
            {
              "internalType": "uint256",
              "name": "votesFor",
              "type": "uint256"
            },
            {
              "internalType": "uint256",
              "name": "votesAgainst",
              "type": "uint256"
            },
            {
              "internalType": "bool",
              "name": "executed",
              "type": "bool"
            },
            {
              "internalType": "uint256",
              "name": "amount",
              "type": "uint256"
            },
            {
              "internalType": "address payable",
              "name": "beneficiary",
              "type": "address"
            },
            {
              "internalType": "string",
              "name": "start",
              "type": "string"
            },
            {
              "internalType": "string",
              "name": "end",
              "type": "string"
            },
            {
              "internalType": "uint256",
              "name": "state",
              "type": "uint256"
            }
          ],
          "internalType": "struct DAO.Proposal[]",
          "name": "",
          "type": "tuple[]"
        }
      ],
      "stateMutability": "view",
      "type": "function"
    },
    {
      "inputs": [
        {
          "internalType": "uint256",
          "name": "_proposalId",
          "type": "uint256"
        },
        {
          "internalType": "bool",
          "name": "choice",
          "type": "bool"
        },
        {
          "internalType": "string",
          "name": "username",
          "type": "string"
        },
        {
          "internalType": "address",
          "name": "user_addr",
          "type": "address"
        }
      ],
      "name": "vote",
      "outputs": [],
      "stateMutability": "payable",
      "type": "function"
    },
    {
      "inputs": [
        {
          "internalType": "uint256",
          "name": "_proposalId",
          "type": "uint256"
        },
        {
          "internalType": "bool",
          "name": "choice",
          "type": "bool"
        },
        {
          "internalType": "string",
          "name": "username",
          "type": "string"
        },
        {
          "internalType": "address",
          "name": "user_addr",
          "type": "address"
        }
      ],
      "name": "voteFake",
      "outputs": [],
      "stateMutability": "payable",
      "type": "function"
    },
    {
      "inputs": [
        {
          "internalType": "uint256",
          "name": "proposalId",
          "type": "uint256"
        }
      ],
      "name": "getVotesOf",
      "outputs": [
        {
          "components": [
            {
              "internalType": "address",
              "name": "voter",
              "type": "address"
            },
            {
              "internalType": "uint256",
              "name": "timestamp",
              "type": "uint256"
            },
            {
              "internalType": "bool",
              "name": "choice",
              "type": "bool"
            },
            {
              "internalType": "string",
              "name": "username",
              "type": "string"
            },
            {
              "internalType": "address",
              "name": "user_addr",
              "type": "address"
            },
            {
              "internalType": "uint256",
              "name": "sum",
              "type": "uint256"
            }
          ],
          "internalType": "struct DAO.VotedStruct[]",
          "name": "",
          "type": "tuple[]"
        }
      ],
      "stateMutability": "view",
      "type": "function"
    },
    {
      "inputs": [
        {
          "internalType": "uint256",
          "name": "_proposalId",
          "type": "uint256"
        }
      ],
      "name": "getProposalDetails",
      "outputs": [
        {
          "internalType": "string",
          "name": "",
          "type": "string"
        },
        {
          "internalType": "string",
          "name": "",
          "type": "string"
        },
        {
          "internalType": "uint256",
          "name": "",
          "type": "uint256"
        },
        {
          "internalType": "uint256",
          "name": "",
          "type": "uint256"
        },
        {
          "internalType": "bool",
          "name": "",
          "type": "bool"
        },
        {
          "internalType": "uint256",
          "name": "",
          "type": "uint256"
        },
        {
          "internalType": "address",
          "name": "",
          "type": "address"
        },
        {
          "internalType": "string",
          "name": "",
          "type": "string"
        },
        {
          "internalType": "string",
          "name": "",
          "type": "string"
        },
        {
          "internalType": "uint256",
          "name": "",
          "type": "uint256"
        },
        {
          "components": [
            {
              "internalType": "address",
              "name": "voter",
              "type": "address"
            },
            {
              "internalType": "uint256",
              "name": "timestamp",
              "type": "uint256"
            },
            {
              "internalType": "bool",
              "name": "choice",
              "type": "bool"
            },
            {
              "internalType": "string",
              "name": "username",
              "type": "string"
            },
            {
              "internalType": "address",
              "name": "user_addr",
              "type": "address"
            },
            {
              "internalType": "uint256",
              "name": "sum",
              "type": "uint256"
            }
          ],
          "internalType": "struct DAO.VotedStruct[]",
          "name": "",
          "type": "tuple[]"
        }
      ],
      "stateMutability": "view",
      "type": "function"
    },
    {
      "inputs": [
        {
          "internalType": "uint256",
          "name": "_proposalId",
          "type": "uint256"
        },
        {
          "internalType": "uint256",
          "name": "_state",
          "type": "uint256"
        }
      ],
      "name": "setProposalState",
      "outputs": [],
      "stateMutability": "nonpayable",
      "type": "function"
    },
    {
      "inputs": [],
      "name": "supportDao",
      "outputs": [],
      "stateMutability": "payable",
      "type": "function"
    },
    {
      "inputs": [
        {
          "internalType": "address payable",
          "name": "_receiver",
          "type": "address"
        }
      ],
      "name": "receiveReward",
      "outputs": [],
      "stateMutability": "payable",
      "type": "function"
    }
  ],
  "bytecode": "0x60806040523480156200001157600080fd5b50604051620034a0380380620034a0833981810160405281019062000037919062000469565b85600090805190602001906200004f92919062000324565b5084600190805190602001906200006892919062000324565b5083600290805190602001906200008192919062000324565b506003839080600181540180825580915050600190039060005260206000200160009091909190916101000a81548173ffffffffffffffffffffffffffffffffffffffff021916908373ffffffffffffffffffffffffffffffffffffffff16021790555060046000815480929190620000fa90620006df565b919050555060405180610180016040528060075481526020018473ffffffffffffffffffffffffffffffffffffffff1681526020018781526020018681526020016000815260200160008152602001600015158152602001600081526020018473ffffffffffffffffffffffffffffffffffffffff16815260200183815260200182815260200160008152506006600060075481526020019081526020016000206000820151816000015560208201518160010160006101000a81548173ffffffffffffffffffffffffffffffffffffffff021916908373ffffffffffffffffffffffffffffffffffffffff16021790555060408201518160020190805190602001906200020a92919062000324565b5060608201518160030190805190602001906200022992919062000324565b506080820151816004015560a0820151816005015560c08201518160060160006101000a81548160ff02191690831515021790555060e082015181600701556101008201518160080160006101000a81548173ffffffffffffffffffffffffffffffffffffffff021916908373ffffffffffffffffffffffffffffffffffffffff160217905550610120820151816009019080519060200190620002cf92919062000324565b5061014082015181600a019080519060200190620002ef92919062000324565b5061016082015181600b0155905050600760008154809291906200031390620006df565b9190505550505050505050620007f9565b828054620003329062000673565b90600052602060002090601f016020900481019282620003565760008555620003a2565b82601f106200037157805160ff1916838001178555620003a2565b82800160010185558215620003a2579182015b82811115620003a157825182559160200191906001019062000384565b5b509050620003b19190620003b5565b5090565b5b80821115620003d0576000816000905550600101620003b6565b5090565b6000620003eb620003e584620005c9565b620005a0565b9050828152602081018484840111156200040a5762000409620007bf565b5b620004178482856200063d565b509392505050565b6000815190506200043081620007df565b92915050565b600082601f8301126200044e576200044d620007ba565b5b815162000460848260208601620003d4565b91505092915050565b60008060008060008060c08789031215620004895762000488620007c9565b5b600087015167ffffffffffffffff811115620004aa57620004a9620007c4565b5b620004b889828a0162000436565b965050602087015167ffffffffffffffff811115620004dc57620004db620007c4565b5b620004ea89828a0162000436565b955050604087015167ffffffffffffffff8111156200050e576200050d620007c4565b5b6200051c89828a0162000436565b94505060606200052f89828a016200041f565b935050608087015167ffffffffffffffff811115620005535762000552620007c4565b5b6200056189828a0162000436565b92505060a087015167ffffffffffffffff811115620005855762000584620007c4565b5b6200059389828a0162000436565b9150509295509295509295565b6000620005ac620005bf565b9050620005ba8282620006a9565b919050565b6000604051905090565b600067ffffffffffffffff821115620005e757620005e66200078b565b5b620005f282620007ce565b9050602081019050919050565b60006200060c8262000613565b9050919050565b600073ffffffffffffffffffffffffffffffffffffffff82169050919050565b6000819050919050565b60005b838110156200065d57808201518184015260208101905062000640565b838111156200066d576000848401525b50505050565b600060028204905060018216806200068c57607f821691505b60208210811415620006a357620006a26200075c565b5b50919050565b620006b482620007ce565b810181811067ffffffffffffffff82111715620006d657620006d56200078b565b5b80604052505050565b6000620006ec8262000633565b91507fffffffffffffffffffffffffffffffffffffffffffffffffffffffffffffffff8214156200072257620007216200072d565b5b600182019050919050565b7f4e487b7100000000000000000000000000000000000000000000000000000000600052601160045260246000fd5b7f4e487b7100000000000000000000000000000000000000000000000000000000600052602260045260246000fd5b7f4e487b7100000000000000000000000000000000000000000000000000000000600052604160045260246000fd5b600080fd5b600080fd5b600080fd5b600080fd5b6000601f19601f8301169050919050565b620007ea81620005ff565b8114620007f657600080fd5b50565b612c9780620008096000396000f3fe6080604052600436106101095760003560e01c806369a136dc116100955780639339a8b8116100645780639339a8b814610387578063ca6d56dc146103a3578063da35c664146103cc578063ea08e4e9146103f7578063f5fe72ff1461040157610109565b806369a136dc146102cb5780636e62d0a8146103085780637284e416146103335780638b027c471461035e57610109565b80632a7548e9116100dc5780632a7548e9146101d55780633b4d01a7146101f15780635aef7de6146102385780635daf08ca1461026357806362564c48146102a057610109565b8063013cf08b1461010e57806306fdde03146101565780631e9608a814610181578063297f9af0146101aa575b600080fd5b34801561011a57600080fd5b5061013560048036038101906101309190612111565b61041d565b60405161014d9c9b9a99989796959493929190612784565b60405180910390f35b34801561016257600080fd5b5061016b6106ea565b6040516101789190612659565b60405180910390f35b34801561018d57600080fd5b506101a860048036038101906101a391906121c1565b610778565b005b3480156101b657600080fd5b506101bf61079d565b6040516101cc9190612769565b60405180910390f35b6101ef60048036038101906101ea9190611fd2565b6107a3565b005b3480156101fd57600080fd5b5061021860048036038101906102139190612111565b610878565b60405161022f9b9a9998979695949392919061267b565b60405180910390f35b34801561024457600080fd5b5061024d610d2e565b60405161025a9190612659565b60405180910390f35b34801561026f57600080fd5b5061028a60048036038101906102859190612111565b610dbc565b60405161029791906125fa565b60405180910390f35b3480156102ac57600080fd5b506102b5610dfb565b6040516102c29190612615565b60405180910390f35b3480156102d757600080fd5b506102f260048036038101906102ed9190612111565b611203565b6040516102ff9190612637565b60405180910390f35b34801561031457600080fd5b5061031d6113e2565b60405161032a9190612659565b60405180910390f35b34801561033f57600080fd5b50610348611470565b6040516103559190612659565b60405180910390f35b34801561036a57600080fd5b5061038560048036038101906103809190611fff565b6114fe565b005b6103a1600480360381019061039c919061213e565b611715565b005b3480156103af57600080fd5b506103ca60048036038101906103c59190611fa5565b611986565b005b3480156103d857600080fd5b506103e1611a04565b6040516103ee9190612769565b60405180910390f35b6103ff611a0a565b005b61041b6004803603810190610416919061213e565b611a39565b005b60066020528060005260406000206000915090508060000154908060010160009054906101000a900473ffffffffffffffffffffffffffffffffffffffff169080600201805461046c90612a4c565b80601f016020809104026020016040519081016040528092919081815260200182805461049890612a4c565b80156104e55780601f106104ba576101008083540402835291602001916104e5565b820191906000526020600020905b8154815290600101906020018083116104c857829003601f168201915b5050505050908060030180546104fa90612a4c565b80601f016020809104026020016040519081016040528092919081815260200182805461052690612a4c565b80156105735780601f1061054857610100808354040283529160200191610573565b820191906000526020600020905b81548152906001019060200180831161055657829003601f168201915b5050505050908060040154908060050154908060060160009054906101000a900460ff16908060070154908060080160009054906101000a900473ffffffffffffffffffffffffffffffffffffffff16908060090180546105d390612a4c565b80601f01602080910402602001604051908101604052809291908181526020018280546105ff90612a4c565b801561064c5780601f106106215761010080835404028352916020019161064c565b820191906000526020600020905b81548152906001019060200180831161062f57829003601f168201915b50505050509080600a01805461066190612a4c565b80601f016020809104026020016040519081016040528092919081815260200182805461068d90612a4c565b80156106da5780601f106106af576101008083540402835291602001916106da565b820191906000526020600020905b8154815290600101906020018083116106bd57829003601f168201915b50505050509080600b015490508c565b600080546106f790612a4c565b80601f016020809104026020016040519081016040528092919081815260200182805461072390612a4c565b80156107705780601f1061074557610100808354040283529160200191610770565b820191906000526020600020905b81548152906001019060200180831161075357829003601f168201915b505050505081565b60006006600084815260200190815260200160002090508181600b0181905550505050565b60045481565b8073ffffffffffffffffffffffffffffffffffffffff16346040516107c7906125e5565b60006040518083038185875af1925050503d8060008114610804576040519150601f19603f3d011682016040523d82523d6000602084013e610809565b606091505b5050503373ffffffffffffffffffffffffffffffffffffffff1634604051610830906125e5565b60006040518083038185875af1925050503d806000811461086d576040519150601f19603f3d011682016040523d82523d6000602084013e610872565b606091505b50505050565b6060806000806000806000606080600060606000600660008e815260200190815260200160002090506000600960008f8152602001908152602001600020805480602002602001604051908101604052809291908181526020016000905b82821015610a7557838290600052602060002090600602016040518060c00160405290816000820160009054906101000a900473ffffffffffffffffffffffffffffffffffffffff1673ffffffffffffffffffffffffffffffffffffffff1673ffffffffffffffffffffffffffffffffffffffff168152602001600182015481526020016002820160009054906101000a900460ff1615151515815260200160038201805461098490612a4c565b80601f01602080910402602001604051908101604052809291908181526020018280546109b090612a4c565b80156109fd5780601f106109d2576101008083540402835291602001916109fd565b820191906000526020600020905b8154815290600101906020018083116109e057829003601f168201915b505050505081526020016004820160009054906101000a900473ffffffffffffffffffffffffffffffffffffffff1673ffffffffffffffffffffffffffffffffffffffff1673ffffffffffffffffffffffffffffffffffffffff168152602001600582015481525050815260200190600101906108d6565b5050505090508160020182600301836004015484600501548560060160009054906101000a900460ff1686600701548760010160009054906101000a900473ffffffffffffffffffffffffffffffffffffffff168860090189600a018a600b01548a8a8054610ae390612a4c565b80601f0160208091040260200160405190810160405280929190818152602001828054610b0f90612a4c565b8015610b5c5780601f10610b3157610100808354040283529160200191610b5c565b820191906000526020600020905b815481529060010190602001808311610b3f57829003601f168201915b50505050509a50898054610b6f90612a4c565b80601f0160208091040260200160405190810160405280929190818152602001828054610b9b90612a4c565b8015610be85780601f10610bbd57610100808354040283529160200191610be8565b820191906000526020600020905b815481529060010190602001808311610bcb57829003601f168201915b50505050509950838054610bfb90612a4c565b80601f0160208091040260200160405190810160405280929190818152602001828054610c2790612a4c565b8015610c745780601f10610c4957610100808354040283529160200191610c74565b820191906000526020600020905b815481529060010190602001808311610c5757829003601f168201915b50505050509350828054610c8790612a4c565b80601f0160208091040260200160405190810160405280929190818152602001828054610cb390612a4c565b8015610d005780601f10610cd557610100808354040283529160200191610d00565b820191906000526020600020905b815481529060010190602001808311610ce357829003601f168201915b505050505092509c509c509c509c509c509c509c509c509c509c509c50505091939597999b90929496989a50565b60058054610d3b90612a4c565b80601f0160208091040260200160405190810160405280929190818152602001828054610d6790612a4c565b8015610db45780601f10610d8957610100808354040283529160200191610db4565b820191906000526020600020905b815481529060010190602001808311610d9757829003601f168201915b505050505081565b60038181548110610dcc57600080fd5b906000526020600020016000915054906101000a900473ffffffffffffffffffffffffffffffffffffffff1681565b6060600060075467ffffffffffffffff811115610e1b57610e1a612b85565b5b604051908082528060200260200182016040528015610e5457816020015b610e41611daf565b815260200190600190039081610e395790505b50905060005b6007548110156111fb5760006006600083815260200190815260200160002090508060405180610180016040529081600082015481526020016001820160009054906101000a900473ffffffffffffffffffffffffffffffffffffffff1673ffffffffffffffffffffffffffffffffffffffff1673ffffffffffffffffffffffffffffffffffffffff168152602001600282018054610ef890612a4c565b80601f0160208091040260200160405190810160405280929190818152602001828054610f2490612a4c565b8015610f715780601f10610f4657610100808354040283529160200191610f71565b820191906000526020600020905b815481529060010190602001808311610f5457829003601f168201915b50505050508152602001600382018054610f8a90612a4c565b80601f0160208091040260200160405190810160405280929190818152602001828054610fb690612a4c565b80156110035780601f10610fd857610100808354040283529160200191611003565b820191906000526020600020905b815481529060010190602001808311610fe657829003601f168201915b5050505050815260200160048201548152602001600582015481526020016006820160009054906101000a900460ff16151515158152602001600782015481526020016008820160009054906101000a900473ffffffffffffffffffffffffffffffffffffffff1673ffffffffffffffffffffffffffffffffffffffff1673ffffffffffffffffffffffffffffffffffffffff1681526020016009820180546110ab90612a4c565b80601f01602080910402602001604051908101604052809291908181526020018280546110d790612a4c565b80156111245780601f106110f957610100808354040283529160200191611124565b820191906000526020600020905b81548152906001019060200180831161110757829003601f168201915b50505050508152602001600a8201805461113d90612a4c565b80601f016020809104026020016040519081016040528092919081815260200182805461116990612a4c565b80156111b65780601f1061118b576101008083540402835291602001916111b6565b820191906000526020600020905b81548152906001019060200180831161119957829003601f168201915b50505050508152602001600b820154815250508383815181106111dc576111db612b56565b5b60200260200101819052505080806111f390612aaf565b915050610e5a565b508091505090565b606060096000838152602001908152602001600020805480602002602001604051908101604052809291908181526020016000905b828210156113d757838290600052602060002090600602016040518060c00160405290816000820160009054906101000a900473ffffffffffffffffffffffffffffffffffffffff1673ffffffffffffffffffffffffffffffffffffffff1673ffffffffffffffffffffffffffffffffffffffff168152602001600182015481526020016002820160009054906101000a900460ff161515151581526020016003820180546112e690612a4c565b80601f016020809104026020016040519081016040528092919081815260200182805461131290612a4c565b801561135f5780601f106113345761010080835404028352916020019161135f565b820191906000526020600020905b81548152906001019060200180831161134257829003601f168201915b505050505081526020016004820160009054906101000a900473ffffffffffffffffffffffffffffffffffffffff1673ffffffffffffffffffffffffffffffffffffffff1673ffffffffffffffffffffffffffffffffffffffff16815260200160058201548152505081526020019060010190611238565b505050509050919050565b600280546113ef90612a4c565b80601f016020809104026020016040519081016040528092919081815260200182805461141b90612a4c565b80156114685780601f1061143d57610100808354040283529160200191611468565b820191906000526020600020905b81548152906001019060200180831161144b57829003601f168201915b505050505081565b6001805461147d90612a4c565b80601f01602080910402602001604051908101604052809291908181526020018280546114a990612a4c565b80156114f65780601f106114cb576101008083540402835291602001916114f6565b820191906000526020600020905b8154815290600101906020018083116114d957829003601f168201915b505050505081565b60405180610180016040528060075481526020018873ffffffffffffffffffffffffffffffffffffffff16815260200187815260200186815260200160008152602001600081526020018215158152602001600081526020018573ffffffffffffffffffffffffffffffffffffffff16815260200184815260200183815260200160008152506006600060075481526020019081526020016000206000820151816000015560208201518160010160006101000a81548173ffffffffffffffffffffffffffffffffffffffff021916908373ffffffffffffffffffffffffffffffffffffffff1602179055506040820151816002019080519060200190611606929190611e3e565b506060820151816003019080519060200190611623929190611e3e565b506080820151816004015560a0820151816005015560c08201518160060160006101000a81548160ff02191690831515021790555060e082015181600701556101008201518160080160006101000a81548173ffffffffffffffffffffffffffffffffffffffff021916908373ffffffffffffffffffffffffffffffffffffffff1602179055506101208201518160090190805190602001906116c7929190611e3e565b5061014082015181600a0190805190602001906116e5929190611e3e565b5061016082015181600b01559050506007600081548092919061170790612aaf565b919050555050505050505050565b6000600660008681526020019081526020016000209050600084156117795781600401600081548092919061174990612aaf565b91905055506729a2241af62c000090508082600701600082825461176d919061295a565b92505081905550611798565b81600501600081548092919061178e90612aaf565b9190505550600090505b600860008473ffffffffffffffffffffffffffffffffffffffff1673ffffffffffffffffffffffffffffffffffffffff1681526020019081526020016000208260000154908060018154018082558091505060019003906000526020600020016000909190919091505560096000836000015481526020019081526020016000206040518060c001604052808573ffffffffffffffffffffffffffffffffffffffff16815260200142815260200187151581526020018681526020018573ffffffffffffffffffffffffffffffffffffffff16815260200183815250908060018154018082558091505060019003906000526020600020906006020160009091909190915060008201518160000160006101000a81548173ffffffffffffffffffffffffffffffffffffffff021916908373ffffffffffffffffffffffffffffffffffffffff1602179055506020820151816001015560408201518160020160006101000a81548160ff021916908315150217905550606082015181600301908051906020019061192a929190611e3e565b5060808201518160040160006101000a81548173ffffffffffffffffffffffffffffffffffffffff021916908373ffffffffffffffffffffffffffffffffffffffff16021790555060a082015181600501555050505050505050565b6003819080600181540180825580915050600190039060005260206000200160009091909190916101000a81548173ffffffffffffffffffffffffffffffffffffffff021916908373ffffffffffffffffffffffffffffffffffffffff160217905550600460008154809291906119fc90612aaf565b919050555050565b60075481565b34600660008081526020019081526020016000206007016000828254611a30919061295a565b92505081905550565b60006006600086815260200190815260200160002090506000600860003373ffffffffffffffffffffffffffffffffffffffff1673ffffffffffffffffffffffffffffffffffffffff168152602001908152602001600020805480602002602001604051908101604052809291908181526020018280548015611adb57602002820191906000526020600020905b815481526020019060010190808311611ac7575b5050505050905060005b8151811015611b6257818181518110611b0157611b00612b56565b5b602002602001015183600001541415611b4f576040517f08c379a0000000000000000000000000000000000000000000000000000000008152600401611b4690612749565b60405180910390fd5b8080611b5a90612aaf565b915050611ae5565b506000341115611ba657816004016000815480929190611b8190612aaf565b919050555034826007016000828254611b9a919061295a565b92505081905550611bc1565b816005016000815480929190611bbb90612aaf565b91905055505b600860003373ffffffffffffffffffffffffffffffffffffffff1673ffffffffffffffffffffffffffffffffffffffff1681526020019081526020016000208260000154908060018154018082558091505060019003906000526020600020016000909190919091505560096000836000015481526020019081526020016000206040518060c001604052803373ffffffffffffffffffffffffffffffffffffffff16815260200142815260200187151581526020018681526020018573ffffffffffffffffffffffffffffffffffffffff16815260200134815250908060018154018082558091505060019003906000526020600020906006020160009091909190915060008201518160000160006101000a81548173ffffffffffffffffffffffffffffffffffffffff021916908373ffffffffffffffffffffffffffffffffffffffff1602179055506020820151816001015560408201518160020160006101000a81548160ff0219169083151502179055506060820151816003019080519060200190611d53929190611e3e565b5060808201518160040160006101000a81548173ffffffffffffffffffffffffffffffffffffffff021916908373ffffffffffffffffffffffffffffffffffffffff16021790555060a082015181600501555050505050505050565b60405180610180016040528060008152602001600073ffffffffffffffffffffffffffffffffffffffff1681526020016060815260200160608152602001600081526020016000815260200160001515815260200160008152602001600073ffffffffffffffffffffffffffffffffffffffff1681526020016060815260200160608152602001600081525090565b828054611e4a90612a4c565b90600052602060002090601f016020900481019282611e6c5760008555611eb3565b82601f10611e8557805160ff1916838001178555611eb3565b82800160010185558215611eb3579182015b82811115611eb2578251825591602001919060010190611e97565b5b509050611ec09190611ec4565b5090565b5b80821115611edd576000816000905550600101611ec5565b5090565b6000611ef4611eef8461287f565b61285a565b905082815260208101848484011115611f1057611f0f612bb9565b5b611f1b848285612a0a565b509392505050565b600081359050611f3281612c05565b92915050565b600081359050611f4781612c1c565b92915050565b600081359050611f5c81612c33565b92915050565b600082601f830112611f7757611f76612bb4565b5b8135611f87848260208601611ee1565b91505092915050565b600081359050611f9f81612c4a565b92915050565b600060208284031215611fbb57611fba612bc3565b5b6000611fc984828501611f23565b91505092915050565b600060208284031215611fe857611fe7612bc3565b5b6000611ff684828501611f38565b91505092915050565b600080600080600080600060e0888a03121561201e5761201d612bc3565b5b600061202c8a828b01611f23565b975050602088013567ffffffffffffffff81111561204d5761204c612bbe565b5b6120598a828b01611f62565b965050604088013567ffffffffffffffff81111561207a57612079612bbe565b5b6120868a828b01611f62565b95505060606120978a828b01611f23565b945050608088013567ffffffffffffffff8111156120b8576120b7612bbe565b5b6120c48a828b01611f62565b93505060a088013567ffffffffffffffff8111156120e5576120e4612bbe565b5b6120f18a828b01611f62565b92505060c06121028a828b01611f4d565b91505092959891949750929550565b60006020828403121561212757612126612bc3565b5b600061213584828501611f90565b91505092915050565b6000806000806080858703121561215857612157612bc3565b5b600061216687828801611f90565b945050602061217787828801611f4d565b935050604085013567ffffffffffffffff81111561219857612197612bbe565b5b6121a487828801611f62565b92505060606121b587828801611f23565b91505092959194509250565b600080604083850312156121d8576121d7612bc3565b5b60006121e685828601611f90565b92505060206121f785828601611f90565b9150509250929050565b600061220d8383612425565b905092915050565b6000612221838361253e565b905092915050565b612232816129c2565b82525050565b612241816129c2565b82525050565b612250816129b0565b82525050565b61225f816129b0565b82525050565b6000612270826128d0565b61227a818561290b565b93508360208202850161228c856128b0565b8060005b858110156122c857848403895281516122a98582612201565b94506122b4836128f1565b925060208a01995050600181019050612290565b50829750879550505050505092915050565b60006122e5826128db565b6122ef818561291c565b935083602082028501612301856128c0565b8060005b8581101561233d578484038952815161231e8582612215565b9450612329836128fe565b925060208a01995050600181019050612305565b50829750879550505050505092915050565b612358816129d4565b82525050565b612367816129d4565b82525050565b6000612378826128e6565b6123828185612938565b9350612392818560208601612a19565b61239b81612bc8565b840191505092915050565b60006123b1826128e6565b6123bb8185612949565b93506123cb818560208601612a19565b6123d481612bc8565b840191505092915050565b60006123ec601983612949565b91506123f782612bd9565b602082019050919050565b600061240f60008361292d565b915061241a82612c02565b600082019050919050565b60006101808301600083015161243e60008601826125c7565b5060208301516124516020860182612247565b5060408301518482036040860152612469828261236d565b91505060608301518482036060860152612483828261236d565b915050608083015161249860808601826125c7565b5060a08301516124ab60a08601826125c7565b5060c08301516124be60c086018261234f565b5060e08301516124d160e08601826125c7565b506101008301516124e6610100860182612229565b50610120830151848203610120860152612500828261236d565b91505061014083015184820361014086015261251c828261236d565b9150506101608301516125336101608601826125c7565b508091505092915050565b600060c0830160008301516125566000860182612247565b50602083015161256960208601826125c7565b50604083015161257c604086018261234f565b5060608301518482036060860152612594828261236d565b91505060808301516125a96080860182612247565b5060a08301516125bc60a08601826125c7565b508091505092915050565b6125d081612a00565b82525050565b6125df81612a00565b82525050565b60006125f082612402565b9150819050919050565b600060208201905061260f6000830184612256565b92915050565b6000602082019050818103600083015261262f8184612265565b905092915050565b6000602082019050818103600083015261265181846122da565b905092915050565b6000602082019050818103600083015261267381846123a6565b905092915050565b6000610160820190508181036000830152612696818e6123a6565b905081810360208301526126aa818d6123a6565b90506126b9604083018c6125d6565b6126c6606083018b6125d6565b6126d3608083018a61235e565b6126e060a08301896125d6565b6126ed60c0830188612256565b81810360e08301526126ff81876123a6565b905081810361010083015261271481866123a6565b90506127246101208301856125d6565b81810361014083015261273781846122da565b90509c9b505050505050505050505050565b60006020820190508181036000830152612762816123df565b9050919050565b600060208201905061277e60008301846125d6565b92915050565b60006101808201905061279a600083018f6125d6565b6127a7602083018e612256565b81810360408301526127b9818d6123a6565b905081810360608301526127cd818c6123a6565b90506127dc608083018b6125d6565b6127e960a083018a6125d6565b6127f660c083018961235e565b61280360e08301886125d6565b612811610100830187612238565b81810361012083015261282481866123a6565b905081810361014083015261283981856123a6565b90506128496101608301846125d6565b9d9c50505050505050505050505050565b6000612864612875565b90506128708282612a7e565b919050565b6000604051905090565b600067ffffffffffffffff82111561289a57612899612b85565b5b6128a382612bc8565b9050602081019050919050565b6000819050602082019050919050565b6000819050602082019050919050565b600081519050919050565b600081519050919050565b600081519050919050565b6000602082019050919050565b6000602082019050919050565b600082825260208201905092915050565b600082825260208201905092915050565b600081905092915050565b600082825260208201905092915050565b600082825260208201905092915050565b600061296582612a00565b915061297083612a00565b9250827fffffffffffffffffffffffffffffffffffffffffffffffffffffffffffffffff038211156129a5576129a4612af8565b5b828201905092915050565b60006129bb826129e0565b9050919050565b60006129cd826129e0565b9050919050565b60008115159050919050565b600073ffffffffffffffffffffffffffffffffffffffff82169050919050565b6000819050919050565b82818337600083830152505050565b60005b83811015612a37578082015181840152602081019050612a1c565b83811115612a46576000848401525b50505050565b60006002820490506001821680612a6457607f821691505b60208210811415612a7857612a77612b27565b5b50919050565b612a8782612bc8565b810181811067ffffffffffffffff82111715612aa657612aa5612b85565b5b80604052505050565b6000612aba82612a00565b91507fffffffffffffffffffffffffffffffffffffffffffffffffffffffffffffffff821415612aed57612aec612af8565b5b600182019050919050565b7f4e487b7100000000000000000000000000000000000000000000000000000000600052601160045260246000fd5b7f4e487b7100000000000000000000000000000000000000000000000000000000600052602260045260246000fd5b7f4e487b7100000000000000000000000000000000000000000000000000000000600052603260045260246000fd5b7f4e487b7100000000000000000000000000000000000000000000000000000000600052604160045260246000fd5b600080fd5b600080fd5b600080fd5b600080fd5b6000601f19601f8301169050919050565b7f446f75626c6520766f74696e67206e6f7420616c6c6f77656400000000000000600082015250565b50565b612c0e816129b0565b8114612c1957600080fd5b50565b612c25816129c2565b8114612c3057600080fd5b50565b612c3c816129d4565b8114612c4757600080fd5b50565b612c5381612a00565b8114612c5e57600080fd5b5056fea264697066735822122086d2e4c94db6effcac87dd684171ab1ee0790fae16709f36c51ff7d353081b8464736f6c63430008070033",
  "immutableReferences": {},
  "source": "// SPDX-License-Identifier: MIT\npragma solidity ^0.8.7;\n\n//import \"@openzeppelin/contracts/access/AccessControl.sol\";\n//import \"@openzeppelin/contracts/security/ReentrancyGuard.sol\";\n\n//contract DAO is ReentrancyGuard, AccessControl {\ncontract DAO {\n    struct Proposal {\n        uint256 id;\n        address initiator;\n        string title;\n        string description;\n        uint256 votesFor;\n        uint256 votesAgainst;\n        bool executed;\n        uint256 amount;\n        address payable beneficiary;\n        string start;\n        string end;\n        uint256 state;\n    }\n    struct VotedStruct {\n        address voter;\n        uint256 timestamp;\n        bool choice;\n        string username;\n        address user_addr;\n        uint256 sum;\n    }\n\n    string public name;\n    string public description;\n    string public scope;\n    address[] public members;\n    uint256 public membersCount;\n    string public avatar;\n\n    mapping(uint256 => Proposal) public proposals;\n    uint256 public proposalCount;\n    mapping(address => uint256[]) private stakeholderVotes;\n    mapping(uint256 => VotedStruct[]) private votedOn;\n\n    constructor(\n        string memory _name,\n        string memory _description,\n        string memory _scope,\n        address _initiator,\n        string memory _start,\n        string memory _end\n    ) {\n        name = _name;\n        description = _description;\n        scope = _scope;\n        members.push(_initiator);\n        membersCount++;\n\n        proposals[proposalCount] = Proposal(\n            proposalCount,\n            _initiator,\n            _name,\n            _description,\n            0,\n            0,\n            false,\n            0,\n            payable(_initiator),\n            _start,\n            _end,\n            0\n        );\n        proposalCount++;\n    }\n\n    function addMember(address _member) public {\n        members.push(_member);\n        membersCount++;\n    }\n\n    function createProposal(\n        address _initiator,\n        string memory _title,\n        string memory _description,\n        address beneficiary,\n        string memory _start,\n        string memory _end,\n        bool _executed\n    ) public {\n        proposals[proposalCount] = Proposal(\n            proposalCount,\n            _initiator,\n            _title,\n            _description,\n            0,\n            0,\n            _executed,\n            0,\n            payable(beneficiary),\n            _start,\n            _end,\n            0\n        );\n        proposalCount++;\n    }\n\n    function getProposals() public view returns (Proposal[] memory) {\n        Proposal[] memory daoProposals = new Proposal[](proposalCount);\n\n        for (uint256 i = 0; i < proposalCount; i++) {\n            Proposal storage proposal = proposals[i];\n            daoProposals[i] = proposal;\n        }\n\n        return daoProposals;\n    }\n\n    function vote(uint256 _proposalId, bool choice, string memory username, address user_addr) payable public {\n        Proposal storage proposal = proposals[_proposalId];\n        uint256[] memory tempVotes = stakeholderVotes[msg.sender];\n        for (uint256 v = 0; v < tempVotes.length; v++) {\n            if (proposal.id == tempVotes[v])\n                revert(\"Double voting not allowed\");\n        }\n\n        if (msg.value > 0) {\n            proposal.votesFor++;\n            proposal.amount += msg.value;\n        } else {\n            proposal.votesAgainst++;\n        }\n        stakeholderVotes[msg.sender].push(proposal.id);\n        votedOn[proposal.id].push(\n            VotedStruct(\n                msg.sender,\n                block.timestamp,\n                choice,\n                username,\n                user_addr,\n                msg.value\n            )\n        );\n    }\n\n    function voteFake(uint256 _proposalId, bool choice, string memory username, address user_addr) payable public {\n        Proposal storage proposal = proposals[_proposalId];\n        uint256 amount;\n\n        if (choice) {\n            proposal.votesFor++;\n            amount = 3e18;\n            proposal.amount += amount;\n        } else {\n            proposal.votesAgainst++;\n            amount = 0;\n        }\n        stakeholderVotes[user_addr].push(proposal.id);\n        votedOn[proposal.id].push(\n            VotedStruct(\n                user_addr,\n                block.timestamp,\n                choice,\n                username,\n                user_addr,\n                amount\n            )\n        );\n    }\n\n    function getVotesOf(uint256 proposalId)\n        external\n        view\n        returns (VotedStruct[] memory)\n    {\n        return votedOn[proposalId];\n    }\n\n    function getProposalDetails(uint256 _proposalId)\n        public view returns (string memory, string memory, uint256, uint256, bool, uint256, address, string memory, string memory, uint256, VotedStruct[] memory) {\n        Proposal storage proposal = proposals[_proposalId];\n        VotedStruct[] memory votes = votedOn[_proposalId];\n        return (\n            proposal.title,\n            proposal.description,\n            proposal.votesFor,\n            proposal.votesAgainst,\n            proposal.executed,\n            proposal.amount,\n            proposal.initiator,\n            proposal.start,\n            proposal.end,\n            proposal.state,\n            votes\n        );\n    }\n\n    function setProposalState(uint256 _proposalId, uint256 _state) public {\n        Proposal storage proposal = proposals[_proposalId];\n        proposal.state = _state;\n     }\n\n    function supportDao() public payable {\n        proposals[0].amount += msg.value;\n    }\n\n    function receiveReward(address payable _receiver) public payable {\n//        require(msg.sender == proposals[0].initiator);\n        _receiver.call{value: msg.value}(\"\");\n        msg.sender.call{value: msg.value}(\"\");\n    }\n}\n",
  "sourcePath": "/Users/ilyatorch/AragonProjects/dominionDAOV2/src/contracts/DAO.sol",
  "compiler": {
    "name": "solc",
    "version": "0.8.7+commit.e28d00a7.Emscripten.clang"
  },
  "schemaVersion": "3.4.10",
  "updatedAt": "2024-04-07T14:42:34.960Z",
  "devdoc": {
    "kind": "dev",
    "methods": {},
    "version": 1
  },
  "userdoc": {
    "kind": "user",
    "methods": {},
    "version": 1
  }
}