{
  "contractName": "DAO",
  "abi": [
    {
      "inputs": [
        {
          "internalType": "string",
          "name": "_name",
          "type": "string"
        },
        {
          "internalType": "address",
          "name": "_initiator",
          "type": "address"
        }
      ],
      "stateMutability": "nonpayable",
      "type": "constructor"
    },
    {
      "inputs": [
        {
          "internalType": "uint256",
          "name": "",
          "type": "uint256"
        }
      ],
      "name": "members",
      "outputs": [
        {
          "internalType": "address",
          "name": "",
          "type": "address"
        }
      ],
      "stateMutability": "view",
      "type": "function"
    },
    {
      "inputs": [],
      "name": "membersCount",
      "outputs": [
        {
          "internalType": "uint256",
          "name": "",
          "type": "uint256"
        }
      ],
      "stateMutability": "view",
      "type": "function"
    },
    {
      "inputs": [],
      "name": "name",
      "outputs": [
        {
          "internalType": "string",
          "name": "",
          "type": "string"
        }
      ],
      "stateMutability": "view",
      "type": "function"
    },
    {
      "inputs": [],
      "name": "proposalCount",
      "outputs": [
        {
          "internalType": "uint256",
          "name": "",
          "type": "uint256"
        }
      ],
      "stateMutability": "view",
      "type": "function"
    },
    {
      "inputs": [
        {
          "internalType": "uint256",
          "name": "",
          "type": "uint256"
        }
      ],
      "name": "proposals",
      "outputs": [
        {
          "internalType": "address",
          "name": "initiator",
          "type": "address"
        },
        {
          "internalType": "string",
          "name": "title",
          "type": "string"
        },
        {
          "internalType": "string",
          "name": "description",
          "type": "string"
        },
        {
          "internalType": "uint256",
          "name": "votesFor",
          "type": "uint256"
        },
        {
          "internalType": "uint256",
          "name": "votesAgainst",
          "type": "uint256"
        },
        {
          "internalType": "bool",
          "name": "executed",
          "type": "bool"
        }
      ],
      "stateMutability": "view",
      "type": "function"
    },
    {
      "inputs": [
        {
          "internalType": "address",
          "name": "_member",
          "type": "address"
        }
      ],
      "name": "addMember",
      "outputs": [],
      "stateMutability": "nonpayable",
      "type": "function"
    },
    {
      "inputs": [
        {
          "internalType": "address",
          "name": "_initiator",
          "type": "address"
        },
        {
          "internalType": "string",
          "name": "_title",
          "type": "string"
        },
        {
          "internalType": "string",
          "name": "_description",
          "type": "string"
        }
      ],
      "name": "createProposal",
      "outputs": [],
      "stateMutability": "nonpayable",
      "type": "function"
    },
    {
      "inputs": [],
      "name": "getProposals",
      "outputs": [
        {
          "components": [
            {
              "internalType": "address",
              "name": "initiator",
              "type": "address"
            },
            {
              "internalType": "string",
              "name": "title",
              "type": "string"
            },
            {
              "internalType": "string",
              "name": "description",
              "type": "string"
            },
            {
              "internalType": "uint256",
              "name": "votesFor",
              "type": "uint256"
            },
            {
              "internalType": "uint256",
              "name": "votesAgainst",
              "type": "uint256"
            },
            {
              "internalType": "bool",
              "name": "executed",
              "type": "bool"
            }
          ],
          "internalType": "struct DAO.Proposal[]",
          "name": "",
          "type": "tuple[]"
        }
      ],
      "stateMutability": "view",
      "type": "function"
    }
  ],
  "bytecode": "0x60806040523480156200001157600080fd5b50604051620015713803806200157183398181016040528101906200003791906200021a565b81600090805190602001906200004f929190620000d5565b506001819080600181540180825580915050600190039060005260206000200160009091909190916101000a81548173ffffffffffffffffffffffffffffffffffffffff021916908373ffffffffffffffffffffffffffffffffffffffff16021790555060026000815480929190620000c890620003bf565b91905055505050620004d9565b828054620000e39062000353565b90600052602060002090601f01602090048101928262000107576000855562000153565b82601f106200012257805160ff191683800117855562000153565b8280016001018555821562000153579182015b828111156200015257825182559160200191906001019062000135565b5b50905062000162919062000166565b5090565b5b808211156200018157600081600090555060010162000167565b5090565b60006200019c6200019684620002a9565b62000280565b905082815260208101848484011115620001bb57620001ba6200049f565b5b620001c88482856200031d565b509392505050565b600081519050620001e181620004bf565b92915050565b600082601f830112620001ff57620001fe6200049a565b5b81516200021184826020860162000185565b91505092915050565b60008060408385031215620002345762000233620004a9565b5b600083015167ffffffffffffffff811115620002555762000254620004a4565b5b6200026385828601620001e7565b92505060206200027685828601620001d0565b9150509250929050565b60006200028c6200029f565b90506200029a828262000389565b919050565b6000604051905090565b600067ffffffffffffffff821115620002c757620002c66200046b565b5b620002d282620004ae565b9050602081019050919050565b6000620002ec82620002f3565b9050919050565b600073ffffffffffffffffffffffffffffffffffffffff82169050919050565b6000819050919050565b60005b838110156200033d57808201518184015260208101905062000320565b838111156200034d576000848401525b50505050565b600060028204905060018216806200036c57607f821691505b602082108114156200038357620003826200043c565b5b50919050565b6200039482620004ae565b810181811067ffffffffffffffff82111715620003b657620003b56200046b565b5b80604052505050565b6000620003cc8262000313565b91507fffffffffffffffffffffffffffffffffffffffffffffffffffffffffffffffff8214156200040257620004016200040d565b5b600182019050919050565b7f4e487b7100000000000000000000000000000000000000000000000000000000600052601160045260246000fd5b7f4e487b7100000000000000000000000000000000000000000000000000000000600052602260045260246000fd5b7f4e487b7100000000000000000000000000000000000000000000000000000000600052604160045260246000fd5b600080fd5b600080fd5b600080fd5b600080fd5b6000601f19601f8301169050919050565b620004ca81620002df565b8114620004d657600080fd5b50565b61108880620004e96000396000f3fe608060405234801561001057600080fd5b50600436106100885760003560e01c806362564c481161005b57806362564c481461012e578063ca57fc2d1461014c578063ca6d56dc14610168578063da35c6641461018457610088565b8063013cf08b1461008d57806306fdde03146100c2578063297f9af0146100e05780635daf08ca146100fe575b600080fd5b6100a760048036038101906100a29190610a56565b6101a2565b6040516100b996959493929190610c83565b60405180910390f35b6100ca61031b565b6040516100d79190610d14565b60405180910390f35b6100e86103a9565b6040516100f59190610d36565b60405180910390f35b61011860048036038101906101139190610a56565b6103af565b6040516101259190610c68565b60405180910390f35b6101366103ee565b6040516101439190610cf2565b60405180910390f35b610166600480360381019061016191906109cb565b61065d565b005b610182600480360381019061017d919061099e565b61078f565b005b61018c61080d565b6040516101999190610d36565b60405180910390f35b60036020528060005260406000206000915090508060000160009054906101000a900473ffffffffffffffffffffffffffffffffffffffff16908060010180546101eb90610e97565b80601f016020809104026020016040519081016040528092919081815260200182805461021790610e97565b80156102645780601f1061023957610100808354040283529160200191610264565b820191906000526020600020905b81548152906001019060200180831161024757829003601f168201915b50505050509080600201805461027990610e97565b80601f01602080910402602001604051908101604052809291908181526020018280546102a590610e97565b80156102f25780601f106102c7576101008083540402835291602001916102f2565b820191906000526020600020905b8154815290600101906020018083116102d557829003601f168201915b5050505050908060030154908060040154908060050160009054906101000a900460ff16905086565b6000805461032890610e97565b80601f016020809104026020016040519081016040528092919081815260200182805461035490610e97565b80156103a15780601f10610376576101008083540402835291602001916103a1565b820191906000526020600020905b81548152906001019060200180831161038457829003601f168201915b505050505081565b60025481565b600181815481106103bf57600080fd5b906000526020600020016000915054906101000a900473ffffffffffffffffffffffffffffffffffffffff1681565b6060600060045467ffffffffffffffff81111561040e5761040d610fd0565b5b60405190808252806020026020018201604052801561044757816020015b610434610813565b81526020019060019003908161042c5790505b50905060005b600454811015610655576000600360008381526020019081526020016000209050806040518060c00160405290816000820160009054906101000a900473ffffffffffffffffffffffffffffffffffffffff1673ffffffffffffffffffffffffffffffffffffffff1673ffffffffffffffffffffffffffffffffffffffff1681526020016001820180546104e090610e97565b80601f016020809104026020016040519081016040528092919081815260200182805461050c90610e97565b80156105595780601f1061052e57610100808354040283529160200191610559565b820191906000526020600020905b81548152906001019060200180831161053c57829003601f168201915b5050505050815260200160028201805461057290610e97565b80601f016020809104026020016040519081016040528092919081815260200182805461059e90610e97565b80156105eb5780601f106105c0576101008083540402835291602001916105eb565b820191906000526020600020905b8154815290600101906020018083116105ce57829003601f168201915b5050505050815260200160038201548152602001600482015481526020016005820160009054906101000a900460ff16151515158152505083838151811061063657610635610fa1565b5b602002602001018190525050808061064d90610efa565b91505061044d565b508091505090565b6040518060c001604052808473ffffffffffffffffffffffffffffffffffffffff16815260200183815260200182815260200160008152602001600081526020016000151581525060036000600454815260200190815260200160002060008201518160000160006101000a81548173ffffffffffffffffffffffffffffffffffffffff021916908373ffffffffffffffffffffffffffffffffffffffff160217905550602082015181600101908051906020019061071d929190610861565b50604082015181600201908051906020019061073a929190610861565b50606082015181600301556080820151816004015560a08201518160050160006101000a81548160ff0219169083151502179055509050506004600081548092919061078590610efa565b9190505550505050565b6001819080600181540180825580915050600190039060005260206000200160009091909190916101000a81548173ffffffffffffffffffffffffffffffffffffffff021916908373ffffffffffffffffffffffffffffffffffffffff1602179055506002600081548092919061080590610efa565b919050555050565b60045481565b6040518060c00160405280600073ffffffffffffffffffffffffffffffffffffffff168152602001606081526020016060815260200160008152602001600081526020016000151581525090565b82805461086d90610e97565b90600052602060002090601f01602090048101928261088f57600085556108d6565b82601f106108a857805160ff19168380011785556108d6565b828001600101855582156108d6579182015b828111156108d55782518255916020019190600101906108ba565b5b5090506108e391906108e7565b5090565b5b808211156109005760008160009055506001016108e8565b5090565b600061091761091284610d76565b610d51565b90508281526020810184848401111561093357610932611004565b5b61093e848285610e55565b509392505050565b60008135905061095581611024565b92915050565b600082601f8301126109705761096f610fff565b5b8135610980848260208601610904565b91505092915050565b6000813590506109988161103b565b92915050565b6000602082840312156109b4576109b361100e565b5b60006109c284828501610946565b91505092915050565b6000806000606084860312156109e4576109e361100e565b5b60006109f286828701610946565b935050602084013567ffffffffffffffff811115610a1357610a12611009565b5b610a1f8682870161095b565b925050604084013567ffffffffffffffff811115610a4057610a3f611009565b5b610a4c8682870161095b565b9150509250925092565b600060208284031215610a6c57610a6b61100e565b5b6000610a7a84828501610989565b91505092915050565b6000610a8f8383610bba565b905092915050565b610aa081610e0d565b82525050565b610aaf81610e0d565b82525050565b6000610ac082610db7565b610aca8185610dda565b935083602082028501610adc85610da7565b8060005b85811015610b185784840389528151610af98582610a83565b9450610b0483610dcd565b925060208a01995050600181019050610ae0565b50829750879550505050505092915050565b610b3381610e1f565b82525050565b610b4281610e1f565b82525050565b6000610b5382610dc2565b610b5d8185610deb565b9350610b6d818560208601610e64565b610b7681611013565b840191505092915050565b6000610b8c82610dc2565b610b968185610dfc565b9350610ba6818560208601610e64565b610baf81611013565b840191505092915050565b600060c083016000830151610bd26000860182610a97565b5060208301518482036020860152610bea8282610b48565b91505060408301518482036040860152610c048282610b48565b9150506060830151610c196060860182610c4a565b506080830151610c2c6080860182610c4a565b5060a0830151610c3f60a0860182610b2a565b508091505092915050565b610c5381610e4b565b82525050565b610c6281610e4b565b82525050565b6000602082019050610c7d6000830184610aa6565b92915050565b600060c082019050610c986000830189610aa6565b8181036020830152610caa8188610b81565b90508181036040830152610cbe8187610b81565b9050610ccd6060830186610c59565b610cda6080830185610c59565b610ce760a0830184610b39565b979650505050505050565b60006020820190508181036000830152610d0c8184610ab5565b905092915050565b60006020820190508181036000830152610d2e8184610b81565b905092915050565b6000602082019050610d4b6000830184610c59565b92915050565b6000610d5b610d6c565b9050610d678282610ec9565b919050565b6000604051905090565b600067ffffffffffffffff821115610d9157610d90610fd0565b5b610d9a82611013565b9050602081019050919050565b6000819050602082019050919050565b600081519050919050565b600081519050919050565b6000602082019050919050565b600082825260208201905092915050565b600082825260208201905092915050565b600082825260208201905092915050565b6000610e1882610e2b565b9050919050565b60008115159050919050565b600073ffffffffffffffffffffffffffffffffffffffff82169050919050565b6000819050919050565b82818337600083830152505050565b60005b83811015610e82578082015181840152602081019050610e67565b83811115610e91576000848401525b50505050565b60006002820490506001821680610eaf57607f821691505b60208210811415610ec357610ec2610f72565b5b50919050565b610ed282611013565b810181811067ffffffffffffffff82111715610ef157610ef0610fd0565b5b80604052505050565b6000610f0582610e4b565b91507fffffffffffffffffffffffffffffffffffffffffffffffffffffffffffffffff821415610f3857610f37610f43565b5b600182019050919050565b7f4e487b7100000000000000000000000000000000000000000000000000000000600052601160045260246000fd5b7f4e487b7100000000000000000000000000000000000000000000000000000000600052602260045260246000fd5b7f4e487b7100000000000000000000000000000000000000000000000000000000600052603260045260246000fd5b7f4e487b7100000000000000000000000000000000000000000000000000000000600052604160045260246000fd5b600080fd5b600080fd5b600080fd5b600080fd5b6000601f19601f8301169050919050565b61102d81610e0d565b811461103857600080fd5b50565b61104481610e4b565b811461104f57600080fd5b5056fea264697066735822122012db688c05cf878213d3478df8e13ee4516181b0a4078a748bc5def7ab5965a664736f6c63430008070033",
  "immutableReferences": {},
  "source": "// SPDX-License-Identifier: MIT\npragma solidity ^0.8.7;\n\ncontract DAO {\n    struct Proposal {\n        address initiator;\n        string title;\n        string description;\n        uint256 votesFor;\n        uint256 votesAgainst;\n        bool executed;\n    }\n\n    string public name;\n    address[] public members;\n    uint256 public membersCount;\n\n    mapping(uint256 => Proposal) public proposals;\n    uint256 public proposalCount;\n\n    constructor(string memory _name, address _initiator) {\n        name = _name;\n        members.push(_initiator);\n        membersCount++;\n    }\n\n    function addMember(address _member) public {\n        members.push(_member);\n        membersCount++;\n    }\n\n    function createProposal(\n        address _initiator,\n        string memory _title,\n        string memory _description\n    ) public {\n        proposals[proposalCount] = Proposal(\n            _initiator,\n            _title,\n            _description,\n            0,\n            0,\n            false\n        );\n        proposalCount++;\n    }\n\n    function getProposals() public view returns (Proposal[] memory) {\n        Proposal[] memory daoProposals = new Proposal[](proposalCount);\n\n        for (uint256 i = 0; i < proposalCount; i++) {\n            Proposal storage proposal = proposals[i];\n            daoProposals[i] = proposal;\n        }\n\n        return daoProposals;\n    }\n\n//    function vote(uint256 _proposalId, bool _inSupport) public {\n//        require(membersMap[msg.sender], \"Only members can vote\");\n//        Proposal storage proposal = proposals[_proposalId];\n//        require(!proposal.executed, \"Proposal has already been executed\");\n//\n//        if (_inSupport) {\n//            proposal.votesFor++;\n//        } else {\n//            proposal.votesAgainst++;\n//        }\n//    }\n\n//    function executeProposal(uint256 _proposalId) public {\n//        Proposal storage proposal = proposals[_proposalId];\n//        require(!proposal.executed, \"Proposal has already been executed\");\n//        require(proposal.votesFor >= quorum, \"Proposal does not have enough support\");\n//\n//        proposal.executed = true;\n//        // execute proposal code here\n    // }\n}\n//\n//contract MultipleDAOs {\n//    mapping(address => DAO) public daos;\n//\n//    function createDAO(uint256 _quorum) public {\n//        DAO newDAO = new DAO(_quorum);\n//        daos[address(newDAO)] = newDAO;\n//    }\n//\n//    function addMember(address _dao, address _member) public {\n//        DAO dao = daos[_dao];\n//        dao.addMember(_member);\n//    }\n//\n//    function createProposal(address _dao, string memory _description) public {\n//        DAO dao = daos[_dao];\n//        dao.createProposal(_description);\n//    }\n//\n//    function vote(address _dao, uint256 _proposalId, bool _inSupport) public {\n//        DAO dao = daos[_dao];\n//        dao.vote(_proposalId, _inSupport);\n//    }\n//\n//    function executeProposal(address _dao, uint256 _proposalId) public {\n//        DAO dao = daos[_dao];\n//        dao.executeProposal(_proposalId);\n//    }\n// }\n",
  "sourcePath": "/Users/ilyatorch/AragonProjects/dominionDAOV2/src/contracts/DAO.sol",
  "compiler": {
    "name": "solc",
    "version": "0.8.7+commit.e28d00a7.Emscripten.clang"
  },
  "schemaVersion": "3.4.10",
  "updatedAt": "2023-04-02T09:56:04.415Z",
  "devdoc": {
    "kind": "dev",
    "methods": {},
    "version": 1
  },
  "userdoc": {
    "kind": "user",
    "methods": {},
    "version": 1
  }
}