{
  "contractName": "DAO",
  "abi": [
    {
      "inputs": [
        {
          "internalType": "string",
          "name": "_name",
          "type": "string"
        },
        {
          "internalType": "string",
          "name": "_description",
          "type": "string"
        },
        {
          "internalType": "string",
          "name": "_scope",
          "type": "string"
        },
        {
          "internalType": "address",
          "name": "_initiator",
          "type": "address"
        },
        {
          "internalType": "string",
          "name": "_start",
          "type": "string"
        },
        {
          "internalType": "string",
          "name": "_end",
          "type": "string"
        }
      ],
      "stateMutability": "nonpayable",
      "type": "constructor"
    },
    {
      "inputs": [],
      "name": "avatar",
      "outputs": [
        {
          "internalType": "string",
          "name": "",
          "type": "string"
        }
      ],
      "stateMutability": "view",
      "type": "function"
    },
    {
      "inputs": [],
      "name": "description",
      "outputs": [
        {
          "internalType": "string",
          "name": "",
          "type": "string"
        }
      ],
      "stateMutability": "view",
      "type": "function"
    },
    {
      "inputs": [
        {
          "internalType": "uint256",
          "name": "",
          "type": "uint256"
        }
      ],
      "name": "members",
      "outputs": [
        {
          "internalType": "address",
          "name": "",
          "type": "address"
        }
      ],
      "stateMutability": "view",
      "type": "function"
    },
    {
      "inputs": [],
      "name": "membersCount",
      "outputs": [
        {
          "internalType": "uint256",
          "name": "",
          "type": "uint256"
        }
      ],
      "stateMutability": "view",
      "type": "function"
    },
    {
      "inputs": [],
      "name": "name",
      "outputs": [
        {
          "internalType": "string",
          "name": "",
          "type": "string"
        }
      ],
      "stateMutability": "view",
      "type": "function"
    },
    {
      "inputs": [],
      "name": "proposalCount",
      "outputs": [
        {
          "internalType": "uint256",
          "name": "",
          "type": "uint256"
        }
      ],
      "stateMutability": "view",
      "type": "function"
    },
    {
      "inputs": [
        {
          "internalType": "uint256",
          "name": "",
          "type": "uint256"
        }
      ],
      "name": "proposals",
      "outputs": [
        {
          "internalType": "uint256",
          "name": "id",
          "type": "uint256"
        },
        {
          "internalType": "address",
          "name": "initiator",
          "type": "address"
        },
        {
          "internalType": "string",
          "name": "title",
          "type": "string"
        },
        {
          "internalType": "string",
          "name": "description",
          "type": "string"
        },
        {
          "internalType": "uint256",
          "name": "votesFor",
          "type": "uint256"
        },
        {
          "internalType": "uint256",
          "name": "votesAgainst",
          "type": "uint256"
        },
        {
          "internalType": "bool",
          "name": "executed",
          "type": "bool"
        },
        {
          "internalType": "uint256",
          "name": "amount",
          "type": "uint256"
        },
        {
          "internalType": "address payable",
          "name": "beneficiary",
          "type": "address"
        },
        {
          "internalType": "string",
          "name": "start",
          "type": "string"
        },
        {
          "internalType": "string",
          "name": "end",
          "type": "string"
        },
        {
          "internalType": "uint256",
          "name": "state",
          "type": "uint256"
        }
      ],
      "stateMutability": "view",
      "type": "function"
    },
    {
      "inputs": [],
      "name": "scope",
      "outputs": [
        {
          "internalType": "string",
          "name": "",
          "type": "string"
        }
      ],
      "stateMutability": "view",
      "type": "function"
    },
    {
      "inputs": [
        {
          "internalType": "address",
          "name": "_member",
          "type": "address"
        }
      ],
      "name": "addMember",
      "outputs": [],
      "stateMutability": "nonpayable",
      "type": "function"
    },
    {
      "inputs": [
        {
          "internalType": "address",
          "name": "_initiator",
          "type": "address"
        },
        {
          "internalType": "string",
          "name": "_title",
          "type": "string"
        },
        {
          "internalType": "string",
          "name": "_description",
          "type": "string"
        },
        {
          "internalType": "address",
          "name": "beneficiary",
          "type": "address"
        },
        {
          "internalType": "string",
          "name": "_start",
          "type": "string"
        },
        {
          "internalType": "string",
          "name": "_end",
          "type": "string"
        },
        {
          "internalType": "bool",
          "name": "_executed",
          "type": "bool"
        }
      ],
      "name": "createProposal",
      "outputs": [],
      "stateMutability": "nonpayable",
      "type": "function"
    },
    {
      "inputs": [],
      "name": "getProposals",
      "outputs": [
        {
          "components": [
            {
              "internalType": "uint256",
              "name": "id",
              "type": "uint256"
            },
            {
              "internalType": "address",
              "name": "initiator",
              "type": "address"
            },
            {
              "internalType": "string",
              "name": "title",
              "type": "string"
            },
            {
              "internalType": "string",
              "name": "description",
              "type": "string"
            },
            {
              "internalType": "uint256",
              "name": "votesFor",
              "type": "uint256"
            },
            {
              "internalType": "uint256",
              "name": "votesAgainst",
              "type": "uint256"
            },
            {
              "internalType": "bool",
              "name": "executed",
              "type": "bool"
            },
            {
              "internalType": "uint256",
              "name": "amount",
              "type": "uint256"
            },
            {
              "internalType": "address payable",
              "name": "beneficiary",
              "type": "address"
            },
            {
              "internalType": "string",
              "name": "start",
              "type": "string"
            },
            {
              "internalType": "string",
              "name": "end",
              "type": "string"
            },
            {
              "internalType": "uint256",
              "name": "state",
              "type": "uint256"
            }
          ],
          "internalType": "struct DAO.Proposal[]",
          "name": "",
          "type": "tuple[]"
        }
      ],
      "stateMutability": "view",
      "type": "function"
    },
    {
      "inputs": [
        {
          "internalType": "uint256",
          "name": "_proposalId",
          "type": "uint256"
        },
        {
          "internalType": "bool",
          "name": "choice",
          "type": "bool"
        },
        {
          "internalType": "string",
          "name": "username",
          "type": "string"
        },
        {
          "internalType": "address",
          "name": "user_addr",
          "type": "address"
        }
      ],
      "name": "vote",
      "outputs": [],
      "stateMutability": "payable",
      "type": "function"
    },
    {
      "inputs": [
        {
          "internalType": "uint256",
          "name": "_proposalId",
          "type": "uint256"
        },
        {
          "internalType": "bool",
          "name": "choice",
          "type": "bool"
        },
        {
          "internalType": "string",
          "name": "username",
          "type": "string"
        },
        {
          "internalType": "address",
          "name": "user_addr",
          "type": "address"
        }
      ],
      "name": "voteFake",
      "outputs": [],
      "stateMutability": "payable",
      "type": "function"
    },
    {
      "inputs": [
        {
          "internalType": "uint256",
          "name": "proposalId",
          "type": "uint256"
        }
      ],
      "name": "getVotesOf",
      "outputs": [
        {
          "components": [
            {
              "internalType": "address",
              "name": "voter",
              "type": "address"
            },
            {
              "internalType": "uint256",
              "name": "timestamp",
              "type": "uint256"
            },
            {
              "internalType": "bool",
              "name": "choice",
              "type": "bool"
            },
            {
              "internalType": "string",
              "name": "username",
              "type": "string"
            },
            {
              "internalType": "address",
              "name": "user_addr",
              "type": "address"
            },
            {
              "internalType": "uint256",
              "name": "sum",
              "type": "uint256"
            }
          ],
          "internalType": "struct DAO.VotedStruct[]",
          "name": "",
          "type": "tuple[]"
        }
      ],
      "stateMutability": "view",
      "type": "function"
    },
    {
      "inputs": [
        {
          "internalType": "address",
          "name": "_member",
          "type": "address"
        }
      ],
      "name": "isMember",
      "outputs": [
        {
          "internalType": "bool",
          "name": "",
          "type": "bool"
        }
      ],
      "stateMutability": "view",
      "type": "function"
    },
    {
      "inputs": [
        {
          "internalType": "uint256",
          "name": "_proposalId",
          "type": "uint256"
        }
      ],
      "name": "getProposalDetails",
      "outputs": [
        {
          "internalType": "string",
          "name": "",
          "type": "string"
        },
        {
          "internalType": "string",
          "name": "",
          "type": "string"
        },
        {
          "internalType": "uint256",
          "name": "",
          "type": "uint256"
        },
        {
          "internalType": "uint256",
          "name": "",
          "type": "uint256"
        },
        {
          "internalType": "bool",
          "name": "",
          "type": "bool"
        },
        {
          "internalType": "uint256",
          "name": "",
          "type": "uint256"
        },
        {
          "internalType": "address",
          "name": "",
          "type": "address"
        },
        {
          "internalType": "string",
          "name": "",
          "type": "string"
        },
        {
          "internalType": "string",
          "name": "",
          "type": "string"
        },
        {
          "internalType": "uint256",
          "name": "",
          "type": "uint256"
        },
        {
          "components": [
            {
              "internalType": "address",
              "name": "voter",
              "type": "address"
            },
            {
              "internalType": "uint256",
              "name": "timestamp",
              "type": "uint256"
            },
            {
              "internalType": "bool",
              "name": "choice",
              "type": "bool"
            },
            {
              "internalType": "string",
              "name": "username",
              "type": "string"
            },
            {
              "internalType": "address",
              "name": "user_addr",
              "type": "address"
            },
            {
              "internalType": "uint256",
              "name": "sum",
              "type": "uint256"
            }
          ],
          "internalType": "struct DAO.VotedStruct[]",
          "name": "",
          "type": "tuple[]"
        }
      ],
      "stateMutability": "view",
      "type": "function"
    },
    {
      "inputs": [
        {
          "internalType": "uint256",
          "name": "_proposalId",
          "type": "uint256"
        },
        {
          "internalType": "uint256",
          "name": "_state",
          "type": "uint256"
        }
      ],
      "name": "setProposalState",
      "outputs": [],
      "stateMutability": "nonpayable",
      "type": "function"
    },
    {
      "inputs": [],
      "name": "supportDao",
      "outputs": [],
      "stateMutability": "payable",
      "type": "function"
    },
    {
      "inputs": [
        {
          "internalType": "address",
          "name": "receiver",
          "type": "address"
        }
      ],
      "name": "closeProposal",
      "outputs": [],
      "stateMutability": "payable",
      "type": "function"
    }
  ],
  "bytecode": "0x60806040523480156200001157600080fd5b506040516200349138038062003491833981810160405281019062000037919062000469565b85600090805190602001906200004f92919062000324565b5084600190805190602001906200006892919062000324565b5083600290805190602001906200008192919062000324565b506003839080600181540180825580915050600190039060005260206000200160009091909190916101000a81548173ffffffffffffffffffffffffffffffffffffffff021916908373ffffffffffffffffffffffffffffffffffffffff16021790555060046000815480929190620000fa90620006df565b919050555060405180610180016040528060075481526020018473ffffffffffffffffffffffffffffffffffffffff1681526020018781526020018681526020016000815260200160008152602001600015158152602001600081526020018473ffffffffffffffffffffffffffffffffffffffff16815260200183815260200182815260200160008152506006600060075481526020019081526020016000206000820151816000015560208201518160010160006101000a81548173ffffffffffffffffffffffffffffffffffffffff021916908373ffffffffffffffffffffffffffffffffffffffff16021790555060408201518160020190805190602001906200020a92919062000324565b5060608201518160030190805190602001906200022992919062000324565b506080820151816004015560a0820151816005015560c08201518160060160006101000a81548160ff02191690831515021790555060e082015181600701556101008201518160080160006101000a81548173ffffffffffffffffffffffffffffffffffffffff021916908373ffffffffffffffffffffffffffffffffffffffff160217905550610120820151816009019080519060200190620002cf92919062000324565b5061014082015181600a019080519060200190620002ef92919062000324565b5061016082015181600b0155905050600760008154809291906200031390620006df565b9190505550505050505050620007f9565b828054620003329062000673565b90600052602060002090601f016020900481019282620003565760008555620003a2565b82601f106200037157805160ff1916838001178555620003a2565b82800160010185558215620003a2579182015b82811115620003a157825182559160200191906001019062000384565b5b509050620003b19190620003b5565b5090565b5b80821115620003d0576000816000905550600101620003b6565b5090565b6000620003eb620003e584620005c9565b620005a0565b9050828152602081018484840111156200040a5762000409620007bf565b5b620004178482856200063d565b509392505050565b6000815190506200043081620007df565b92915050565b600082601f8301126200044e576200044d620007ba565b5b815162000460848260208601620003d4565b91505092915050565b60008060008060008060c08789031215620004895762000488620007c9565b5b600087015167ffffffffffffffff811115620004aa57620004a9620007c4565b5b620004b889828a0162000436565b965050602087015167ffffffffffffffff811115620004dc57620004db620007c4565b5b620004ea89828a0162000436565b955050604087015167ffffffffffffffff8111156200050e576200050d620007c4565b5b6200051c89828a0162000436565b94505060606200052f89828a016200041f565b935050608087015167ffffffffffffffff811115620005535762000552620007c4565b5b6200056189828a0162000436565b92505060a087015167ffffffffffffffff811115620005855762000584620007c4565b5b6200059389828a0162000436565b9150509295509295509295565b6000620005ac620005bf565b9050620005ba8282620006a9565b919050565b6000604051905090565b600067ffffffffffffffff821115620005e757620005e66200078b565b5b620005f282620007ce565b9050602081019050919050565b60006200060c8262000613565b9050919050565b600073ffffffffffffffffffffffffffffffffffffffff82169050919050565b6000819050919050565b60005b838110156200065d57808201518184015260208101905062000640565b838111156200066d576000848401525b50505050565b600060028204905060018216806200068c57607f821691505b60208210811415620006a357620006a26200075c565b5b50919050565b620006b482620007ce565b810181811067ffffffffffffffff82111715620006d657620006d56200078b565b5b80604052505050565b6000620006ec8262000633565b91507fffffffffffffffffffffffffffffffffffffffffffffffffffffffffffffffff8214156200072257620007216200072d565b5b600182019050919050565b7f4e487b7100000000000000000000000000000000000000000000000000000000600052601160045260246000fd5b7f4e487b7100000000000000000000000000000000000000000000000000000000600052602260045260246000fd5b7f4e487b7100000000000000000000000000000000000000000000000000000000600052604160045260246000fd5b600080fd5b600080fd5b600080fd5b600080fd5b6000601f19601f8301169050919050565b620007ea81620005ff565b8114620007f657600080fd5b50565b612c8880620008096000396000f3fe6080604052600436106101145760003560e01c80636e62d0a8116100a0578063a508bff411610064578063a508bff4146103cf578063ca6d56dc146103eb578063da35c66414610414578063ea08e4e91461043f578063f5fe72ff1461044957610114565b80636e62d0a8146102f75780637284e416146103225780638b027c471461034d5780639339a8b814610376578063a230c5241461039257610114565b80633b4d01a7116100e75780633b4d01a7146101e05780635aef7de6146102275780635daf08ca1461025257806362564c481461028f57806369a136dc146102ba57610114565b8063013cf08b1461011957806306fdde03146101615780631e9608a81461018c578063297f9af0146101b5575b600080fd5b34801561012557600080fd5b50610140600480360381019061013b9190612144565b610465565b6040516101589c9b9a9998979695949392919061279a565b60405180910390f35b34801561016d57600080fd5b50610176610732565b604051610183919061266f565b60405180910390f35b34801561019857600080fd5b506101b360048036038101906101ae91906121f4565b6107c0565b005b3480156101c157600080fd5b506101ca6107e5565b6040516101d7919061277f565b60405180910390f35b3480156101ec57600080fd5b5061020760048036038101906102029190612144565b6107eb565b60405161021e9b9a99989796959493929190612691565b60405180910390f35b34801561023357600080fd5b5061023c610ca1565b604051610249919061266f565b60405180910390f35b34801561025e57600080fd5b5061027960048036038101906102749190612144565b610d2f565b60405161028691906125f5565b60405180910390f35b34801561029b57600080fd5b506102a4610d6e565b6040516102b19190612610565b60405180910390f35b3480156102c657600080fd5b506102e160048036038101906102dc9190612144565b611176565b6040516102ee9190612632565b60405180910390f35b34801561030357600080fd5b5061030c611355565b604051610319919061266f565b60405180910390f35b34801561032e57600080fd5b506103376113e3565b604051610344919061266f565b60405180910390f35b34801561035957600080fd5b50610374600480360381019061036f9190612032565b611471565b005b610390600480360381019061038b9190612171565b611688565b005b34801561039e57600080fd5b506103b960048036038101906103b49190612005565b6118f9565b6040516103c69190612654565b60405180910390f35b6103e960048036038101906103e49190612005565b6119a5565b005b3480156103f757600080fd5b50610412600480360381019061040d9190612005565b6119fb565b005b34801561042057600080fd5b50610429611a79565b604051610436919061277f565b60405180910390f35b610447611a7f565b005b610463600480360381019061045e9190612171565b611aae565b005b60066020528060005260406000206000915090508060000154908060010160009054906101000a900473ffffffffffffffffffffffffffffffffffffffff16908060020180546104b490612a57565b80601f01602080910402602001604051908101604052809291908181526020018280546104e090612a57565b801561052d5780601f106105025761010080835404028352916020019161052d565b820191906000526020600020905b81548152906001019060200180831161051057829003601f168201915b50505050509080600301805461054290612a57565b80601f016020809104026020016040519081016040528092919081815260200182805461056e90612a57565b80156105bb5780601f10610590576101008083540402835291602001916105bb565b820191906000526020600020905b81548152906001019060200180831161059e57829003601f168201915b5050505050908060040154908060050154908060060160009054906101000a900460ff16908060070154908060080160009054906101000a900473ffffffffffffffffffffffffffffffffffffffff169080600901805461061b90612a57565b80601f016020809104026020016040519081016040528092919081815260200182805461064790612a57565b80156106945780601f1061066957610100808354040283529160200191610694565b820191906000526020600020905b81548152906001019060200180831161067757829003601f168201915b50505050509080600a0180546106a990612a57565b80601f01602080910402602001604051908101604052809291908181526020018280546106d590612a57565b80156107225780601f106106f757610100808354040283529160200191610722565b820191906000526020600020905b81548152906001019060200180831161070557829003601f168201915b50505050509080600b015490508c565b6000805461073f90612a57565b80601f016020809104026020016040519081016040528092919081815260200182805461076b90612a57565b80156107b85780601f1061078d576101008083540402835291602001916107b8565b820191906000526020600020905b81548152906001019060200180831161079b57829003601f168201915b505050505081565b60006006600084815260200190815260200160002090508181600b0181905550505050565b60045481565b6060806000806000806000606080600060606000600660008e815260200190815260200160002090506000600960008f8152602001908152602001600020805480602002602001604051908101604052809291908181526020016000905b828210156109e857838290600052602060002090600602016040518060c00160405290816000820160009054906101000a900473ffffffffffffffffffffffffffffffffffffffff1673ffffffffffffffffffffffffffffffffffffffff1673ffffffffffffffffffffffffffffffffffffffff168152602001600182015481526020016002820160009054906101000a900460ff161515151581526020016003820180546108f790612a57565b80601f016020809104026020016040519081016040528092919081815260200182805461092390612a57565b80156109705780601f1061094557610100808354040283529160200191610970565b820191906000526020600020905b81548152906001019060200180831161095357829003601f168201915b505050505081526020016004820160009054906101000a900473ffffffffffffffffffffffffffffffffffffffff1673ffffffffffffffffffffffffffffffffffffffff1673ffffffffffffffffffffffffffffffffffffffff16815260200160058201548152505081526020019060010190610849565b5050505090508160020182600301836004015484600501548560060160009054906101000a900460ff1686600701548760010160009054906101000a900473ffffffffffffffffffffffffffffffffffffffff168860090189600a018a600b01548a8a8054610a5690612a57565b80601f0160208091040260200160405190810160405280929190818152602001828054610a8290612a57565b8015610acf5780601f10610aa457610100808354040283529160200191610acf565b820191906000526020600020905b815481529060010190602001808311610ab257829003601f168201915b50505050509a50898054610ae290612a57565b80601f0160208091040260200160405190810160405280929190818152602001828054610b0e90612a57565b8015610b5b5780601f10610b3057610100808354040283529160200191610b5b565b820191906000526020600020905b815481529060010190602001808311610b3e57829003601f168201915b50505050509950838054610b6e90612a57565b80601f0160208091040260200160405190810160405280929190818152602001828054610b9a90612a57565b8015610be75780601f10610bbc57610100808354040283529160200191610be7565b820191906000526020600020905b815481529060010190602001808311610bca57829003601f168201915b50505050509350828054610bfa90612a57565b80601f0160208091040260200160405190810160405280929190818152602001828054610c2690612a57565b8015610c735780601f10610c4857610100808354040283529160200191610c73565b820191906000526020600020905b815481529060010190602001808311610c5657829003601f168201915b505050505092509c509c509c509c509c509c509c509c509c509c509c50505091939597999b90929496989a50565b60058054610cae90612a57565b80601f0160208091040260200160405190810160405280929190818152602001828054610cda90612a57565b8015610d275780601f10610cfc57610100808354040283529160200191610d27565b820191906000526020600020905b815481529060010190602001808311610d0a57829003601f168201915b505050505081565b60038181548110610d3f57600080fd5b906000526020600020016000915054906101000a900473ffffffffffffffffffffffffffffffffffffffff1681565b6060600060075467ffffffffffffffff811115610d8e57610d8d612b90565b5b604051908082528060200260200182016040528015610dc757816020015b610db4611e24565b815260200190600190039081610dac5790505b50905060005b60075481101561116e5760006006600083815260200190815260200160002090508060405180610180016040529081600082015481526020016001820160009054906101000a900473ffffffffffffffffffffffffffffffffffffffff1673ffffffffffffffffffffffffffffffffffffffff1673ffffffffffffffffffffffffffffffffffffffff168152602001600282018054610e6b90612a57565b80601f0160208091040260200160405190810160405280929190818152602001828054610e9790612a57565b8015610ee45780601f10610eb957610100808354040283529160200191610ee4565b820191906000526020600020905b815481529060010190602001808311610ec757829003601f168201915b50505050508152602001600382018054610efd90612a57565b80601f0160208091040260200160405190810160405280929190818152602001828054610f2990612a57565b8015610f765780601f10610f4b57610100808354040283529160200191610f76565b820191906000526020600020905b815481529060010190602001808311610f5957829003601f168201915b5050505050815260200160048201548152602001600582015481526020016006820160009054906101000a900460ff16151515158152602001600782015481526020016008820160009054906101000a900473ffffffffffffffffffffffffffffffffffffffff1673ffffffffffffffffffffffffffffffffffffffff1673ffffffffffffffffffffffffffffffffffffffff16815260200160098201805461101e90612a57565b80601f016020809104026020016040519081016040528092919081815260200182805461104a90612a57565b80156110975780601f1061106c57610100808354040283529160200191611097565b820191906000526020600020905b81548152906001019060200180831161107a57829003601f168201915b50505050508152602001600a820180546110b090612a57565b80601f01602080910402602001604051908101604052809291908181526020018280546110dc90612a57565b80156111295780601f106110fe57610100808354040283529160200191611129565b820191906000526020600020905b81548152906001019060200180831161110c57829003601f168201915b50505050508152602001600b8201548152505083838151811061114f5761114e612b61565b5b602002602001018190525050808061116690612aba565b915050610dcd565b508091505090565b606060096000838152602001908152602001600020805480602002602001604051908101604052809291908181526020016000905b8282101561134a57838290600052602060002090600602016040518060c00160405290816000820160009054906101000a900473ffffffffffffffffffffffffffffffffffffffff1673ffffffffffffffffffffffffffffffffffffffff1673ffffffffffffffffffffffffffffffffffffffff168152602001600182015481526020016002820160009054906101000a900460ff1615151515815260200160038201805461125990612a57565b80601f016020809104026020016040519081016040528092919081815260200182805461128590612a57565b80156112d25780601f106112a7576101008083540402835291602001916112d2565b820191906000526020600020905b8154815290600101906020018083116112b557829003601f168201915b505050505081526020016004820160009054906101000a900473ffffffffffffffffffffffffffffffffffffffff1673ffffffffffffffffffffffffffffffffffffffff1673ffffffffffffffffffffffffffffffffffffffff168152602001600582015481525050815260200190600101906111ab565b505050509050919050565b6002805461136290612a57565b80601f016020809104026020016040519081016040528092919081815260200182805461138e90612a57565b80156113db5780601f106113b0576101008083540402835291602001916113db565b820191906000526020600020905b8154815290600101906020018083116113be57829003601f168201915b505050505081565b600180546113f090612a57565b80601f016020809104026020016040519081016040528092919081815260200182805461141c90612a57565b80156114695780601f1061143e57610100808354040283529160200191611469565b820191906000526020600020905b81548152906001019060200180831161144c57829003601f168201915b505050505081565b60405180610180016040528060075481526020018873ffffffffffffffffffffffffffffffffffffffff16815260200187815260200186815260200160008152602001600081526020018215158152602001600081526020018573ffffffffffffffffffffffffffffffffffffffff16815260200184815260200183815260200160008152506006600060075481526020019081526020016000206000820151816000015560208201518160010160006101000a81548173ffffffffffffffffffffffffffffffffffffffff021916908373ffffffffffffffffffffffffffffffffffffffff1602179055506040820151816002019080519060200190611579929190611eb3565b506060820151816003019080519060200190611596929190611eb3565b506080820151816004015560a0820151816005015560c08201518160060160006101000a81548160ff02191690831515021790555060e082015181600701556101008201518160080160006101000a81548173ffffffffffffffffffffffffffffffffffffffff021916908373ffffffffffffffffffffffffffffffffffffffff16021790555061012082015181600901908051906020019061163a929190611eb3565b5061014082015181600a019080519060200190611658929190611eb3565b5061016082015181600b01559050506007600081548092919061167a90612aba565b919050555050505050505050565b6000600660008681526020019081526020016000209050600084156116ec578160040160008154809291906116bc90612aba565b91905055506729a2241af62c00009050808260070160008282546116e09190612965565b9250508190555061170b565b81600501600081548092919061170190612aba565b9190505550600090505b600860008473ffffffffffffffffffffffffffffffffffffffff1673ffffffffffffffffffffffffffffffffffffffff1681526020019081526020016000208260000154908060018154018082558091505060019003906000526020600020016000909190919091505560096000836000015481526020019081526020016000206040518060c001604052808573ffffffffffffffffffffffffffffffffffffffff16815260200142815260200187151581526020018681526020018573ffffffffffffffffffffffffffffffffffffffff16815260200183815250908060018154018082558091505060019003906000526020600020906006020160009091909190915060008201518160000160006101000a81548173ffffffffffffffffffffffffffffffffffffffff021916908373ffffffffffffffffffffffffffffffffffffffff1602179055506020820151816001015560408201518160020160006101000a81548160ff021916908315150217905550606082015181600301908051906020019061189d929190611eb3565b5060808201518160040160006101000a81548173ffffffffffffffffffffffffffffffffffffffff021916908373ffffffffffffffffffffffffffffffffffffffff16021790555060a082015181600501555050505050505050565b600080600090505b60045481101561199a578273ffffffffffffffffffffffffffffffffffffffff166003828154811061193657611935612b61565b5b9060005260206000200160009054906101000a900473ffffffffffffffffffffffffffffffffffffffff1673ffffffffffffffffffffffffffffffffffffffff1614156119875760019150506119a0565b808061199290612aba565b915050611901565b50600090505b919050565b8073ffffffffffffffffffffffffffffffffffffffff166108fc479081150290604051600060405180830381858888f193505050501580156119eb573d6000803e3d6000fd5b506119f8600060056107c0565b50565b6003819080600181540180825580915050600190039060005260206000200160009091909190916101000a81548173ffffffffffffffffffffffffffffffffffffffff021916908373ffffffffffffffffffffffffffffffffffffffff16021790555060046000815480929190611a7190612aba565b919050555050565b60075481565b34600660008081526020019081526020016000206007016000828254611aa59190612965565b92505081905550565b60006006600086815260200190815260200160002090506000600860003373ffffffffffffffffffffffffffffffffffffffff1673ffffffffffffffffffffffffffffffffffffffff168152602001908152602001600020805480602002602001604051908101604052809291908181526020018280548015611b5057602002820191906000526020600020905b815481526020019060010190808311611b3c575b5050505050905060005b8151811015611bd757818181518110611b7657611b75612b61565b5b602002602001015183600001541415611bc4576040517f08c379a0000000000000000000000000000000000000000000000000000000008152600401611bbb9061275f565b60405180910390fd5b8080611bcf90612aba565b915050611b5a565b506000341115611c1b57816004016000815480929190611bf690612aba565b919050555034826007016000828254611c0f9190612965565b92505081905550611c36565b816005016000815480929190611c3090612aba565b91905055505b600860003373ffffffffffffffffffffffffffffffffffffffff1673ffffffffffffffffffffffffffffffffffffffff1681526020019081526020016000208260000154908060018154018082558091505060019003906000526020600020016000909190919091505560096000836000015481526020019081526020016000206040518060c001604052803373ffffffffffffffffffffffffffffffffffffffff16815260200142815260200187151581526020018681526020018573ffffffffffffffffffffffffffffffffffffffff16815260200134815250908060018154018082558091505060019003906000526020600020906006020160009091909190915060008201518160000160006101000a81548173ffffffffffffffffffffffffffffffffffffffff021916908373ffffffffffffffffffffffffffffffffffffffff1602179055506020820151816001015560408201518160020160006101000a81548160ff0219169083151502179055506060820151816003019080519060200190611dc8929190611eb3565b5060808201518160040160006101000a81548173ffffffffffffffffffffffffffffffffffffffff021916908373ffffffffffffffffffffffffffffffffffffffff16021790555060a082015181600501555050505050505050565b60405180610180016040528060008152602001600073ffffffffffffffffffffffffffffffffffffffff1681526020016060815260200160608152602001600081526020016000815260200160001515815260200160008152602001600073ffffffffffffffffffffffffffffffffffffffff1681526020016060815260200160608152602001600081525090565b828054611ebf90612a57565b90600052602060002090601f016020900481019282611ee15760008555611f28565b82601f10611efa57805160ff1916838001178555611f28565b82800160010185558215611f28579182015b82811115611f27578251825591602001919060010190611f0c565b5b509050611f359190611f39565b5090565b5b80821115611f52576000816000905550600101611f3a565b5090565b6000611f69611f6484612895565b612870565b905082815260208101848484011115611f8557611f84612bc4565b5b611f90848285612a15565b509392505050565b600081359050611fa781612c0d565b92915050565b600081359050611fbc81612c24565b92915050565b600082601f830112611fd757611fd6612bbf565b5b8135611fe7848260208601611f56565b91505092915050565b600081359050611fff81612c3b565b92915050565b60006020828403121561201b5761201a612bce565b5b600061202984828501611f98565b91505092915050565b600080600080600080600060e0888a03121561205157612050612bce565b5b600061205f8a828b01611f98565b975050602088013567ffffffffffffffff8111156120805761207f612bc9565b5b61208c8a828b01611fc2565b965050604088013567ffffffffffffffff8111156120ad576120ac612bc9565b5b6120b98a828b01611fc2565b95505060606120ca8a828b01611f98565b945050608088013567ffffffffffffffff8111156120eb576120ea612bc9565b5b6120f78a828b01611fc2565b93505060a088013567ffffffffffffffff81111561211857612117612bc9565b5b6121248a828b01611fc2565b92505060c06121358a828b01611fad565b91505092959891949750929550565b60006020828403121561215a57612159612bce565b5b600061216884828501611ff0565b91505092915050565b6000806000806080858703121561218b5761218a612bce565b5b600061219987828801611ff0565b94505060206121aa87828801611fad565b935050604085013567ffffffffffffffff8111156121cb576121ca612bc9565b5b6121d787828801611fc2565b92505060606121e887828801611f98565b91505092959194509250565b6000806040838503121561220b5761220a612bce565b5b600061221985828601611ff0565b925050602061222a85828601611ff0565b9150509250929050565b60006122408383612435565b905092915050565b6000612254838361254e565b905092915050565b612265816129cd565b82525050565b612274816129cd565b82525050565b612283816129bb565b82525050565b612292816129bb565b82525050565b60006122a3826128e6565b6122ad8185612921565b9350836020820285016122bf856128c6565b8060005b858110156122fb57848403895281516122dc8582612234565b94506122e783612907565b925060208a019950506001810190506122c3565b50829750879550505050505092915050565b6000612318826128f1565b6123228185612932565b935083602082028501612334856128d6565b8060005b8581101561237057848403895281516123518582612248565b945061235c83612914565b925060208a01995050600181019050612338565b50829750879550505050505092915050565b61238b816129df565b82525050565b61239a816129df565b82525050565b60006123ab826128fc565b6123b58185612943565b93506123c5818560208601612a24565b6123ce81612bd3565b840191505092915050565b60006123e4826128fc565b6123ee8185612954565b93506123fe818560208601612a24565b61240781612bd3565b840191505092915050565b600061241f601983612954565b915061242a82612be4565b602082019050919050565b60006101808301600083015161244e60008601826125d7565b506020830151612461602086018261227a565b506040830151848203604086015261247982826123a0565b9150506060830151848203606086015261249382826123a0565b91505060808301516124a860808601826125d7565b5060a08301516124bb60a08601826125d7565b5060c08301516124ce60c0860182612382565b5060e08301516124e160e08601826125d7565b506101008301516124f661010086018261225c565b5061012083015184820361012086015261251082826123a0565b91505061014083015184820361014086015261252c82826123a0565b9150506101608301516125436101608601826125d7565b508091505092915050565b600060c083016000830151612566600086018261227a565b50602083015161257960208601826125d7565b50604083015161258c6040860182612382565b50606083015184820360608601526125a482826123a0565b91505060808301516125b9608086018261227a565b5060a08301516125cc60a08601826125d7565b508091505092915050565b6125e081612a0b565b82525050565b6125ef81612a0b565b82525050565b600060208201905061260a6000830184612289565b92915050565b6000602082019050818103600083015261262a8184612298565b905092915050565b6000602082019050818103600083015261264c818461230d565b905092915050565b60006020820190506126696000830184612391565b92915050565b6000602082019050818103600083015261268981846123d9565b905092915050565b60006101608201905081810360008301526126ac818e6123d9565b905081810360208301526126c0818d6123d9565b90506126cf604083018c6125e6565b6126dc606083018b6125e6565b6126e9608083018a612391565b6126f660a08301896125e6565b61270360c0830188612289565b81810360e083015261271581876123d9565b905081810361010083015261272a81866123d9565b905061273a6101208301856125e6565b81810361014083015261274d818461230d565b90509c9b505050505050505050505050565b6000602082019050818103600083015261277881612412565b9050919050565b600060208201905061279460008301846125e6565b92915050565b6000610180820190506127b0600083018f6125e6565b6127bd602083018e612289565b81810360408301526127cf818d6123d9565b905081810360608301526127e3818c6123d9565b90506127f2608083018b6125e6565b6127ff60a083018a6125e6565b61280c60c0830189612391565b61281960e08301886125e6565b61282761010083018761226b565b81810361012083015261283a81866123d9565b905081810361014083015261284f81856123d9565b905061285f6101608301846125e6565b9d9c50505050505050505050505050565b600061287a61288b565b90506128868282612a89565b919050565b6000604051905090565b600067ffffffffffffffff8211156128b0576128af612b90565b5b6128b982612bd3565b9050602081019050919050565b6000819050602082019050919050565b6000819050602082019050919050565b600081519050919050565b600081519050919050565b600081519050919050565b6000602082019050919050565b6000602082019050919050565b600082825260208201905092915050565b600082825260208201905092915050565b600082825260208201905092915050565b600082825260208201905092915050565b600061297082612a0b565b915061297b83612a0b565b9250827fffffffffffffffffffffffffffffffffffffffffffffffffffffffffffffffff038211156129b0576129af612b03565b5b828201905092915050565b60006129c6826129eb565b9050919050565b60006129d8826129eb565b9050919050565b60008115159050919050565b600073ffffffffffffffffffffffffffffffffffffffff82169050919050565b6000819050919050565b82818337600083830152505050565b60005b83811015612a42578082015181840152602081019050612a27565b83811115612a51576000848401525b50505050565b60006002820490506001821680612a6f57607f821691505b60208210811415612a8357612a82612b32565b5b50919050565b612a9282612bd3565b810181811067ffffffffffffffff82111715612ab157612ab0612b90565b5b80604052505050565b6000612ac582612a0b565b91507fffffffffffffffffffffffffffffffffffffffffffffffffffffffffffffffff821415612af857612af7612b03565b5b600182019050919050565b7f4e487b7100000000000000000000000000000000000000000000000000000000600052601160045260246000fd5b7f4e487b7100000000000000000000000000000000000000000000000000000000600052602260045260246000fd5b7f4e487b7100000000000000000000000000000000000000000000000000000000600052603260045260246000fd5b7f4e487b7100000000000000000000000000000000000000000000000000000000600052604160045260246000fd5b600080fd5b600080fd5b600080fd5b600080fd5b6000601f19601f8301169050919050565b7f446f75626c6520766f74696e67206e6f7420616c6c6f77656400000000000000600082015250565b612c16816129bb565b8114612c2157600080fd5b50565b612c2d816129df565b8114612c3857600080fd5b50565b612c4481612a0b565b8114612c4f57600080fd5b5056fea264697066735822122032fb840db7c2695174bcec47699ce407369461308d7e182740227a7c7839648c64736f6c63430008070033",
  "immutableReferences": {},
  "source": "// SPDX-License-Identifier: MIT\npragma solidity ^0.8.7;\n\ncontract DAO {\n    struct Proposal {\n        uint256 id;\n        address initiator;\n        string title;\n        string description;\n        uint256 votesFor;\n        uint256 votesAgainst;\n        bool executed;\n        uint256 amount;\n        address payable beneficiary;\n        string start;\n        string end;\n        uint256 state;\n    }\n    struct VotedStruct {\n        address voter;\n        uint256 timestamp;\n        bool choice;\n        string username;\n        address user_addr;\n        uint256 sum;\n    }\n\n    string public name;\n    string public description;\n    string public scope;\n    address[] public members;\n    uint256 public membersCount;\n    string public avatar;\n\n    mapping(uint256 => Proposal) public proposals;\n    uint256 public proposalCount;\n    mapping(address => uint256[]) private stakeholderVotes;\n    mapping(uint256 => VotedStruct[]) private votedOn;\n\n    constructor(\n        string memory _name,\n        string memory _description,\n        string memory _scope,\n        address _initiator,\n        string memory _start,\n        string memory _end\n    ) {\n        name = _name;\n        description = _description;\n        scope = _scope;\n        members.push(_initiator);\n        membersCount++;\n\n        proposals[proposalCount] = Proposal(\n            proposalCount,\n            _initiator,\n            _name,\n            _description,\n            0,\n            0,\n            false,\n            0,\n            payable(_initiator),\n            _start,\n            _end,\n            0\n        );\n        proposalCount++;\n    }\n\n    function addMember(address _member) public {\n        members.push(_member);\n        membersCount++;\n    }\n\n    function createProposal(\n        address _initiator,\n        string memory _title,\n        string memory _description,\n        address beneficiary,\n        string memory _start,\n        string memory _end,\n        bool _executed\n    ) public {\n        proposals[proposalCount] = Proposal(\n            proposalCount,\n            _initiator,\n            _title,\n            _description,\n            0,\n            0,\n            _executed,\n            0,\n            payable(beneficiary),\n            _start,\n            _end,\n            0\n        );\n        proposalCount++;\n    }\n\n    function getProposals() public view returns (Proposal[] memory) {\n        Proposal[] memory daoProposals = new Proposal[](proposalCount);\n\n        for (uint256 i = 0; i < proposalCount; i++) {\n            Proposal storage proposal = proposals[i];\n            daoProposals[i] = proposal;\n        }\n\n        return daoProposals;\n    }\n\n    function vote(uint256 _proposalId, bool choice, string memory username, address user_addr) payable public {\n        Proposal storage proposal = proposals[_proposalId];\n        uint256[] memory tempVotes = stakeholderVotes[msg.sender];\n        for (uint256 v = 0; v < tempVotes.length; v++) {\n            if (proposal.id == tempVotes[v])\n                revert(\"Double voting not allowed\");\n        }\n\n        if (msg.value > 0) {\n            proposal.votesFor++;\n            proposal.amount += msg.value;\n        } else {\n            proposal.votesAgainst++;\n        }\n        stakeholderVotes[msg.sender].push(proposal.id);\n        votedOn[proposal.id].push(\n            VotedStruct(\n                msg.sender,\n                block.timestamp,\n                choice,\n                username,\n                user_addr,\n                msg.value\n            )\n        );\n    }\n\n    function voteFake(uint256 _proposalId, bool choice, string memory username, address user_addr) payable public {\n        Proposal storage proposal = proposals[_proposalId];\n        uint256 amount;\n\n        if (choice) {\n            proposal.votesFor++;\n            amount = 3e18;\n            proposal.amount += amount;\n        } else {\n            proposal.votesAgainst++;\n            amount = 0;\n        }\n        stakeholderVotes[user_addr].push(proposal.id);\n        votedOn[proposal.id].push(\n            VotedStruct(\n                user_addr,\n                block.timestamp,\n                choice,\n                username,\n                user_addr,\n                amount\n            )\n        );\n    }\n\n    function getVotesOf(uint256 proposalId)\n        external\n        view\n        returns (VotedStruct[] memory)\n    {\n        return votedOn[proposalId];\n    }\n\n    function isMember(address _member) public view returns (bool) {\n        for (uint256 i = 0; i < membersCount; i++) {\n            if (members[i] == _member) {\n                return true;\n            }\n        }\n        return false;\n    }\n\n    function getProposalDetails(uint256 _proposalId)\n        public view returns (string memory, string memory, uint256, uint256, bool, uint256, address, string memory, string memory, uint256, VotedStruct[] memory) {\n        Proposal storage proposal = proposals[_proposalId];\n        VotedStruct[] memory votes = votedOn[_proposalId];\n        return (\n            proposal.title,\n            proposal.description,\n            proposal.votesFor,\n            proposal.votesAgainst,\n            proposal.executed,\n            proposal.amount,\n            proposal.initiator,\n            proposal.start,\n            proposal.end,\n            proposal.state,\n            votes\n        );\n    }\n\n    function setProposalState(uint256 _proposalId, uint256 _state) public {\n        Proposal storage proposal = proposals[_proposalId];\n        proposal.state = _state;\n     }\n\n    function supportDao() public payable {\n        proposals[0].amount += msg.value;\n  }\n\n\n    function closeProposal(address receiver) public payable {\n//        require(msg.sender == proposals[0].initiator);\n\n        payable(receiver).transfer(address(this).balance);\n\n        setProposalState(0, 5); // 5 means proposal is finished\n  }\n\n\n//    function executeProposal(uint256 _proposalId) public {\n//        Proposal storage proposal = proposals[_proposalId];\n//        require(!proposal.executed, \"Proposal has already been executed\");\n//        require(proposal.votesFor >= quorum, \"Proposal does not have enough support\");\n//\n//        proposal.executed = true;\n//        // execute proposal code here\n//     }\n}\n",
  "sourcePath": "/Users/ilyatorch/AragonProjects/dominionDAOV2/src/contracts/DAO.sol",
  "compiler": {
    "name": "solc",
    "version": "0.8.7+commit.e28d00a7.Emscripten.clang"
  },
  "schemaVersion": "3.4.10",
  "updatedAt": "2024-03-30T16:41:00.493Z",
  "devdoc": {
    "kind": "dev",
    "methods": {},
    "version": 1
  },
  "userdoc": {
    "kind": "user",
    "methods": {},
    "version": 1
  }
}