{
  "contractName": "DAO",
  "abi": [
    {
      "inputs": [
        {
          "internalType": "string",
          "name": "_name",
          "type": "string"
        },
        {
          "internalType": "address",
          "name": "_initiator",
          "type": "address"
        }
      ],
      "stateMutability": "nonpayable",
      "type": "constructor"
    },
    {
      "inputs": [
        {
          "internalType": "uint256",
          "name": "",
          "type": "uint256"
        }
      ],
      "name": "members",
      "outputs": [
        {
          "internalType": "address",
          "name": "",
          "type": "address"
        }
      ],
      "stateMutability": "view",
      "type": "function"
    },
    {
      "inputs": [],
      "name": "membersCount",
      "outputs": [
        {
          "internalType": "uint256",
          "name": "",
          "type": "uint256"
        }
      ],
      "stateMutability": "view",
      "type": "function"
    },
    {
      "inputs": [],
      "name": "name",
      "outputs": [
        {
          "internalType": "string",
          "name": "",
          "type": "string"
        }
      ],
      "stateMutability": "view",
      "type": "function"
    },
    {
      "inputs": [],
      "name": "proposalCount",
      "outputs": [
        {
          "internalType": "uint256",
          "name": "",
          "type": "uint256"
        }
      ],
      "stateMutability": "view",
      "type": "function"
    },
    {
      "inputs": [
        {
          "internalType": "uint256",
          "name": "",
          "type": "uint256"
        }
      ],
      "name": "proposals",
      "outputs": [
        {
          "internalType": "uint256",
          "name": "id",
          "type": "uint256"
        },
        {
          "internalType": "address",
          "name": "initiator",
          "type": "address"
        },
        {
          "internalType": "string",
          "name": "title",
          "type": "string"
        },
        {
          "internalType": "string",
          "name": "description",
          "type": "string"
        },
        {
          "internalType": "uint256",
          "name": "votesFor",
          "type": "uint256"
        },
        {
          "internalType": "uint256",
          "name": "votesAgainst",
          "type": "uint256"
        },
        {
          "internalType": "bool",
          "name": "executed",
          "type": "bool"
        }
      ],
      "stateMutability": "view",
      "type": "function"
    },
    {
      "inputs": [
        {
          "internalType": "address",
          "name": "_member",
          "type": "address"
        }
      ],
      "name": "addMember",
      "outputs": [],
      "stateMutability": "nonpayable",
      "type": "function"
    },
    {
      "inputs": [
        {
          "internalType": "address",
          "name": "_initiator",
          "type": "address"
        },
        {
          "internalType": "string",
          "name": "_title",
          "type": "string"
        },
        {
          "internalType": "string",
          "name": "_description",
          "type": "string"
        }
      ],
      "name": "createProposal",
      "outputs": [],
      "stateMutability": "nonpayable",
      "type": "function"
    },
    {
      "inputs": [],
      "name": "getProposals",
      "outputs": [
        {
          "components": [
            {
              "internalType": "uint256",
              "name": "id",
              "type": "uint256"
            },
            {
              "internalType": "address",
              "name": "initiator",
              "type": "address"
            },
            {
              "internalType": "string",
              "name": "title",
              "type": "string"
            },
            {
              "internalType": "string",
              "name": "description",
              "type": "string"
            },
            {
              "internalType": "uint256",
              "name": "votesFor",
              "type": "uint256"
            },
            {
              "internalType": "uint256",
              "name": "votesAgainst",
              "type": "uint256"
            },
            {
              "internalType": "bool",
              "name": "executed",
              "type": "bool"
            }
          ],
          "internalType": "struct DAO.Proposal[]",
          "name": "",
          "type": "tuple[]"
        }
      ],
      "stateMutability": "view",
      "type": "function"
    },
    {
      "inputs": [
        {
          "internalType": "uint256",
          "name": "_proposalId",
          "type": "uint256"
        },
        {
          "internalType": "bool",
          "name": "choice",
          "type": "bool"
        }
      ],
      "name": "vote",
      "outputs": [],
      "stateMutability": "nonpayable",
      "type": "function"
    },
    {
      "inputs": [
        {
          "internalType": "uint256",
          "name": "proposalId",
          "type": "uint256"
        }
      ],
      "name": "getVotesOf",
      "outputs": [
        {
          "components": [
            {
              "internalType": "address",
              "name": "voter",
              "type": "address"
            },
            {
              "internalType": "uint256",
              "name": "timestamp",
              "type": "uint256"
            },
            {
              "internalType": "bool",
              "name": "choice",
              "type": "bool"
            }
          ],
          "internalType": "struct DAO.VotedStruct[]",
          "name": "",
          "type": "tuple[]"
        }
      ],
      "stateMutability": "view",
      "type": "function"
    },
    {
      "inputs": [
        {
          "internalType": "address",
          "name": "_member",
          "type": "address"
        }
      ],
      "name": "isMember",
      "outputs": [
        {
          "internalType": "bool",
          "name": "",
          "type": "bool"
        }
      ],
      "stateMutability": "view",
      "type": "function"
    }
  ],
  "bytecode": "0x60806040523480156200001157600080fd5b5060405162001e5038038062001e5083398181016040528101906200003791906200021a565b81600090805190602001906200004f929190620000d5565b506001819080600181540180825580915050600190039060005260206000200160009091909190916101000a81548173ffffffffffffffffffffffffffffffffffffffff021916908373ffffffffffffffffffffffffffffffffffffffff16021790555060026000815480929190620000c890620003bf565b91905055505050620004d9565b828054620000e39062000353565b90600052602060002090601f01602090048101928262000107576000855562000153565b82601f106200012257805160ff191683800117855562000153565b8280016001018555821562000153579182015b828111156200015257825182559160200191906001019062000135565b5b50905062000162919062000166565b5090565b5b808211156200018157600081600090555060010162000167565b5090565b60006200019c6200019684620002a9565b62000280565b905082815260208101848484011115620001bb57620001ba6200049f565b5b620001c88482856200031d565b509392505050565b600081519050620001e181620004bf565b92915050565b600082601f830112620001ff57620001fe6200049a565b5b81516200021184826020860162000185565b91505092915050565b60008060408385031215620002345762000233620004a9565b5b600083015167ffffffffffffffff811115620002555762000254620004a4565b5b6200026385828601620001e7565b92505060206200027685828601620001d0565b9150509250929050565b60006200028c6200029f565b90506200029a828262000389565b919050565b6000604051905090565b600067ffffffffffffffff821115620002c757620002c66200046b565b5b620002d282620004ae565b9050602081019050919050565b6000620002ec82620002f3565b9050919050565b600073ffffffffffffffffffffffffffffffffffffffff82169050919050565b6000819050919050565b60005b838110156200033d57808201518184015260208101905062000320565b838111156200034d576000848401525b50505050565b600060028204905060018216806200036c57607f821691505b602082108114156200038357620003826200043c565b5b50919050565b6200039482620004ae565b810181811067ffffffffffffffff82111715620003b657620003b56200046b565b5b80604052505050565b6000620003cc8262000313565b91507fffffffffffffffffffffffffffffffffffffffffffffffffffffffffffffffff8214156200040257620004016200040d565b5b600182019050919050565b7f4e487b7100000000000000000000000000000000000000000000000000000000600052601160045260246000fd5b7f4e487b7100000000000000000000000000000000000000000000000000000000600052602260045260246000fd5b7f4e487b7100000000000000000000000000000000000000000000000000000000600052604160045260246000fd5b600080fd5b600080fd5b600080fd5b600080fd5b6000601f19601f8301169050919050565b620004ca81620002df565b8114620004d657600080fd5b50565b61196780620004e96000396000f3fe608060405234801561001057600080fd5b50600436106100a95760003560e01c806369a136dc1161007157806369a136dc1461016e578063a230c5241461019e578063c9d27afe146101ce578063ca57fc2d146101ea578063ca6d56dc14610206578063da35c66414610222576100a9565b8063013cf08b146100ae57806306fdde03146100e4578063297f9af0146101025780635daf08ca1461012057806362564c4814610150575b600080fd5b6100c860048036038101906100c39190611025565b610240565b6040516100db97969594939291906114c2565b60405180910390f35b6100ec6103bf565b6040516100f99190611425565b60405180910390f35b61010a61044d565b60405161011791906114a7565b60405180910390f35b61013a60048036038101906101359190611025565b610453565b60405161014791906113ab565b60405180910390f35b610158610492565b60405161016591906113c6565b60405180910390f35b61018860048036038101906101839190611025565b61070b565b60405161019591906113e8565b60405180910390f35b6101b860048036038101906101b39190610f6d565b6107f8565b6040516101c5919061140a565b60405180910390f35b6101e860048036038101906101e39190611052565b6108a4565b005b61020460048036038101906101ff9190610f9a565b610bfe565b005b610220600480360381019061021b9190610f6d565b610d42565b005b61022a610dc0565b60405161023791906114a7565b60405180910390f35b60036020528060005260406000206000915090508060000154908060010160009054906101000a900473ffffffffffffffffffffffffffffffffffffffff169080600201805461028f906116be565b80601f01602080910402602001604051908101604052809291908181526020018280546102bb906116be565b80156103085780601f106102dd57610100808354040283529160200191610308565b820191906000526020600020905b8154815290600101906020018083116102eb57829003601f168201915b50505050509080600301805461031d906116be565b80601f0160208091040260200160405190810160405280929190818152602001828054610349906116be565b80156103965780601f1061036b57610100808354040283529160200191610396565b820191906000526020600020905b81548152906001019060200180831161037957829003601f168201915b5050505050908060040154908060050154908060060160009054906101000a900460ff16905087565b600080546103cc906116be565b80601f01602080910402602001604051908101604052809291908181526020018280546103f8906116be565b80156104455780601f1061041a57610100808354040283529160200191610445565b820191906000526020600020905b81548152906001019060200180831161042857829003601f168201915b505050505081565b60025481565b6001818154811061046357600080fd5b906000526020600020016000915054906101000a900473ffffffffffffffffffffffffffffffffffffffff1681565b6060600060045467ffffffffffffffff8111156104b2576104b16117f7565b5b6040519080825280602002602001820160405280156104eb57816020015b6104d8610dc6565b8152602001906001900390816104d05790505b50905060005b600454811015610703576000600360008381526020019081526020016000209050806040518060e0016040529081600082015481526020016001820160009054906101000a900473ffffffffffffffffffffffffffffffffffffffff1673ffffffffffffffffffffffffffffffffffffffff1673ffffffffffffffffffffffffffffffffffffffff16815260200160028201805461058e906116be565b80601f01602080910402602001604051908101604052809291908181526020018280546105ba906116be565b80156106075780601f106105dc57610100808354040283529160200191610607565b820191906000526020600020905b8154815290600101906020018083116105ea57829003601f168201915b50505050508152602001600382018054610620906116be565b80601f016020809104026020016040519081016040528092919081815260200182805461064c906116be565b80156106995780601f1061066e57610100808354040283529160200191610699565b820191906000526020600020905b81548152906001019060200180831161067c57829003601f168201915b5050505050815260200160048201548152602001600582015481526020016006820160009054906101000a900460ff1615151515815250508383815181106106e4576106e36117c8565b5b60200260200101819052505080806106fb90611721565b9150506104f1565b508091505090565b606060066000838152602001908152602001600020805480602002602001604051908101604052809291908181526020016000905b828210156107ed57838290600052602060002090600302016040518060600160405290816000820160009054906101000a900473ffffffffffffffffffffffffffffffffffffffff1673ffffffffffffffffffffffffffffffffffffffff1673ffffffffffffffffffffffffffffffffffffffff168152602001600182015481526020016002820160009054906101000a900460ff16151515158152505081526020019060010190610740565b505050509050919050565b600080600090505b600254811015610899578273ffffffffffffffffffffffffffffffffffffffff1660018281548110610835576108346117c8565b5b9060005260206000200160009054906101000a900473ffffffffffffffffffffffffffffffffffffffff1673ffffffffffffffffffffffffffffffffffffffff16141561088657600191505061089f565b808061089190611721565b915050610800565b50600090505b919050565b6108ad336107f8565b6108ec576040517f08c379a00000000000000000000000000000000000000000000000000000000081526004016108e390611467565b60405180910390fd5b60006003600084815260200190815260200160002090508060060160009054906101000a900460ff1615610955576040517f08c379a000000000000000000000000000000000000000000000000000000000815260040161094c90611487565b60405180910390fd5b6000600560003373ffffffffffffffffffffffffffffffffffffffff1673ffffffffffffffffffffffffffffffffffffffff1681526020019081526020016000208054806020026020016040519081016040528092919081815260200182805480156109e057602002820191906000526020600020905b8154815260200190600101908083116109cc575b5050505050905060005b8151811015610a6757818181518110610a0657610a056117c8565b5b602002602001015183600001541415610a54576040517f08c379a0000000000000000000000000000000000000000000000000000000008152600401610a4b90611447565b60405180910390fd5b8080610a5f90611721565b9150506109ea565b508215610a8d57816004016000815480929190610a8390611721565b9190505550610aa8565b816005016000815480929190610aa290611721565b91905055505b600560003373ffffffffffffffffffffffffffffffffffffffff1673ffffffffffffffffffffffffffffffffffffffff16815260200190815260200160002082600001549080600181540180825580915050600190039060005260206000200160009091909190915055600660008360000154815260200190815260200160002060405180606001604052803373ffffffffffffffffffffffffffffffffffffffff168152602001428152602001851515815250908060018154018082558091505060019003906000526020600020906003020160009091909190915060008201518160000160006101000a81548173ffffffffffffffffffffffffffffffffffffffff021916908373ffffffffffffffffffffffffffffffffffffffff1602179055506020820151816001015560408201518160020160006101000a81548160ff021916908315150217905550505050505050565b6040518060e0016040528060045481526020018473ffffffffffffffffffffffffffffffffffffffff1681526020018381526020018281526020016000815260200160008152602001600015158152506003600060045481526020019081526020016000206000820151816000015560208201518160010160006101000a81548173ffffffffffffffffffffffffffffffffffffffff021916908373ffffffffffffffffffffffffffffffffffffffff1602179055506040820151816002019080519060200190610cd0929190610e1b565b506060820151816003019080519060200190610ced929190610e1b565b506080820151816004015560a0820151816005015560c08201518160060160006101000a81548160ff02191690831515021790555090505060046000815480929190610d3890611721565b9190505550505050565b6001819080600181540180825580915050600190039060005260206000200160009091909190916101000a81548173ffffffffffffffffffffffffffffffffffffffff021916908373ffffffffffffffffffffffffffffffffffffffff16021790555060026000815480929190610db890611721565b919050555050565b60045481565b6040518060e0016040528060008152602001600073ffffffffffffffffffffffffffffffffffffffff168152602001606081526020016060815260200160008152602001600081526020016000151581525090565b828054610e27906116be565b90600052602060002090601f016020900481019282610e495760008555610e90565b82601f10610e6257805160ff1916838001178555610e90565b82800160010185558215610e90579182015b82811115610e8f578251825591602001919060010190610e74565b5b509050610e9d9190610ea1565b5090565b5b80821115610eba576000816000905550600101610ea2565b5090565b6000610ed1610ecc84611564565b61153f565b905082815260208101848484011115610eed57610eec61182b565b5b610ef884828561167c565b509392505050565b600081359050610f0f816118ec565b92915050565b600081359050610f2481611903565b92915050565b600082601f830112610f3f57610f3e611826565b5b8135610f4f848260208601610ebe565b91505092915050565b600081359050610f678161191a565b92915050565b600060208284031215610f8357610f82611835565b5b6000610f9184828501610f00565b91505092915050565b600080600060608486031215610fb357610fb2611835565b5b6000610fc186828701610f00565b935050602084013567ffffffffffffffff811115610fe257610fe1611830565b5b610fee86828701610f2a565b925050604084013567ffffffffffffffff81111561100f5761100e611830565b5b61101b86828701610f2a565b9150509250925092565b60006020828403121561103b5761103a611835565b5b600061104984828501610f58565b91505092915050565b6000806040838503121561106957611068611835565b5b600061107785828601610f58565b925050602061108885828601610f15565b9150509250929050565b600061109e83836112a8565b905092915050565b60006110b2838361134b565b60608301905092915050565b6110c781611634565b82525050565b6110d681611634565b82525050565b60006110e7826115b5565b6110f181856115f0565b93508360208202850161110385611595565b8060005b8581101561113f57848403895281516111208582611092565b945061112b836115d6565b925060208a01995050600181019050611107565b50829750879550505050505092915050565b600061115c826115c0565b6111668185611601565b9350611171836115a5565b8060005b838110156111a257815161118988826110a6565b9750611194836115e3565b925050600181019050611175565b5085935050505092915050565b6111b881611646565b82525050565b6111c781611646565b82525050565b60006111d8826115cb565b6111e28185611612565b93506111f281856020860161168b565b6111fb8161183a565b840191505092915050565b6000611211826115cb565b61121b8185611623565b935061122b81856020860161168b565b6112348161183a565b840191505092915050565b600061124c601983611623565b91506112578261184b565b602082019050919050565b600061126f601583611623565b915061127a82611874565b602082019050919050565b6000611292602283611623565b915061129d8261189d565b604082019050919050565b600060e0830160008301516112c0600086018261138d565b5060208301516112d360208601826110be565b50604083015184820360408601526112eb82826111cd565b9150506060830151848203606086015261130582826111cd565b915050608083015161131a608086018261138d565b5060a083015161132d60a086018261138d565b5060c083015161134060c08601826111af565b508091505092915050565b60608201600082015161136160008501826110be565b506020820151611374602085018261138d565b50604082015161138760408501826111af565b50505050565b61139681611672565b82525050565b6113a581611672565b82525050565b60006020820190506113c060008301846110cd565b92915050565b600060208201905081810360008301526113e081846110dc565b905092915050565b600060208201905081810360008301526114028184611151565b905092915050565b600060208201905061141f60008301846111be565b92915050565b6000602082019050818103600083015261143f8184611206565b905092915050565b600060208201905081810360008301526114608161123f565b9050919050565b6000602082019050818103600083015261148081611262565b9050919050565b600060208201905081810360008301526114a081611285565b9050919050565b60006020820190506114bc600083018461139c565b92915050565b600060e0820190506114d7600083018a61139c565b6114e460208301896110cd565b81810360408301526114f68188611206565b9050818103606083015261150a8187611206565b9050611519608083018661139c565b61152660a083018561139c565b61153360c08301846111be565b98975050505050505050565b600061154961155a565b905061155582826116f0565b919050565b6000604051905090565b600067ffffffffffffffff82111561157f5761157e6117f7565b5b6115888261183a565b9050602081019050919050565b6000819050602082019050919050565b6000819050602082019050919050565b600081519050919050565b600081519050919050565b600081519050919050565b6000602082019050919050565b6000602082019050919050565b600082825260208201905092915050565b600082825260208201905092915050565b600082825260208201905092915050565b600082825260208201905092915050565b600061163f82611652565b9050919050565b60008115159050919050565b600073ffffffffffffffffffffffffffffffffffffffff82169050919050565b6000819050919050565b82818337600083830152505050565b60005b838110156116a957808201518184015260208101905061168e565b838111156116b8576000848401525b50505050565b600060028204905060018216806116d657607f821691505b602082108114156116ea576116e9611799565b5b50919050565b6116f98261183a565b810181811067ffffffffffffffff82111715611718576117176117f7565b5b80604052505050565b600061172c82611672565b91507fffffffffffffffffffffffffffffffffffffffffffffffffffffffffffffffff82141561175f5761175e61176a565b5b600182019050919050565b7f4e487b7100000000000000000000000000000000000000000000000000000000600052601160045260246000fd5b7f4e487b7100000000000000000000000000000000000000000000000000000000600052602260045260246000fd5b7f4e487b7100000000000000000000000000000000000000000000000000000000600052603260045260246000fd5b7f4e487b7100000000000000000000000000000000000000000000000000000000600052604160045260246000fd5b600080fd5b600080fd5b600080fd5b600080fd5b6000601f19601f8301169050919050565b7f446f75626c6520766f74696e67206e6f7420616c6c6f77656400000000000000600082015250565b7f4f6e6c79206d656d626572732063616e20766f74650000000000000000000000600082015250565b7f50726f706f73616c2068617320616c7265616479206265656e2065786563757460008201527f6564000000000000000000000000000000000000000000000000000000000000602082015250565b6118f581611634565b811461190057600080fd5b50565b61190c81611646565b811461191757600080fd5b50565b61192381611672565b811461192e57600080fd5b5056fea264697066735822122052321d80edd15d7401500a844a503b553402753c5ece17d9f63b72a41d9e883064736f6c63430008070033",
  "immutableReferences": {},
  "source": "// SPDX-License-Identifier: MIT\npragma solidity ^0.8.7;\n\ncontract DAO {\n    struct Proposal {\n        uint256 id;\n        address initiator;\n        string title;\n        string description;\n        uint256 votesFor;\n        uint256 votesAgainst;\n        bool executed;\n    }\n    struct VotedStruct {\n        address voter;\n        uint256 timestamp;\n        bool choice;\n    }\n\n    string public name;\n    address[] public members;\n    uint256 public membersCount;\n\n    mapping(uint256 => Proposal) public proposals;\n    uint256 public proposalCount;\n    mapping(address => uint256[]) private stakeholderVotes;\n    mapping(uint256 => VotedStruct[]) private votedOn;\n\n    constructor(string memory _name, address _initiator) {\n        name = _name;\n        members.push(_initiator);\n        membersCount++;\n    }\n\n    function addMember(address _member) public {\n        members.push(_member);\n        membersCount++;\n    }\n\n    function createProposal(\n        address _initiator,\n        string memory _title,\n        string memory _description\n    ) public {\n        proposals[proposalCount] = Proposal(\n            proposalCount,\n            _initiator,\n            _title,\n            _description,\n            0,\n            0,\n            false\n        );\n        proposalCount++;\n    }\n\n    function getProposals() public view returns (Proposal[] memory) {\n        Proposal[] memory daoProposals = new Proposal[](proposalCount);\n\n        for (uint256 i = 0; i < proposalCount; i++) {\n            Proposal storage proposal = proposals[i];\n            daoProposals[i] = proposal;\n        }\n\n        return daoProposals;\n    }\n\n    function vote(uint256 _proposalId, bool choice) public {\n        require(isMember(msg.sender), \"Only members can vote\");\n        Proposal storage proposal = proposals[_proposalId];\n        require(!proposal.executed, \"Proposal has already been executed\");\n        uint256[] memory tempVotes = stakeholderVotes[msg.sender];\n        for (uint256 v = 0; v < tempVotes.length; v++) {\n            if (proposal.id == tempVotes[v])\n                revert(\"Double voting not allowed\");\n        }\n\n        if (choice) {\n            proposal.votesFor++;\n        } else {\n            proposal.votesAgainst++;\n        }\n        stakeholderVotes[msg.sender].push(proposal.id);\n        votedOn[proposal.id].push(\n            VotedStruct(\n                msg.sender,\n                block.timestamp,\n                choice\n            )\n        );\n    }\n\n    function getVotesOf(uint256 proposalId)\n        external\n        view\n        returns (VotedStruct[] memory)\n    {\n        return votedOn[proposalId];\n    }\n\n    function isMember(address _member) public view returns (bool) {\n        for (uint256 i = 0; i < membersCount; i++) {\n            if (members[i] == _member) {\n                return true;\n            }\n        }\n        return false;\n    }\n\n//    function executeProposal(uint256 _proposalId) public {\n//        Proposal storage proposal = proposals[_proposalId];\n//        require(!proposal.executed, \"Proposal has already been executed\");\n//        require(proposal.votesFor >= quorum, \"Proposal does not have enough support\");\n//\n//        proposal.executed = true;\n//        // execute proposal code here\n    // }\n}\n//\n//contract MultipleDAOs {\n//    mapping(address => DAO) public daos;\n//\n//    function createDAO(uint256 _quorum) public {\n//        DAO newDAO = new DAO(_quorum);\n//        daos[address(newDAO)] = newDAO;\n//    }\n//\n//    function addMember(address _dao, address _member) public {\n//        DAO dao = daos[_dao];\n//        dao.addMember(_member);\n//    }\n//\n//    function createProposal(address _dao, string memory _description) public {\n//        DAO dao = daos[_dao];\n//        dao.createProposal(_description);\n//    }\n//\n//    function vote(address _dao, uint256 _proposalId, bool _inSupport) public {\n//        DAO dao = daos[_dao];\n//        dao.vote(_proposalId, _inSupport);\n//    }\n//\n//    function executeProposal(address _dao, uint256 _proposalId) public {\n//        DAO dao = daos[_dao];\n//        dao.executeProposal(_proposalId);\n//    }\n// }\n",
  "sourcePath": "/Users/ilyatorch/AragonProjects/dominionDAOV2/src/contracts/DAO.sol",
  "compiler": {
    "name": "solc",
    "version": "0.8.7+commit.e28d00a7.Emscripten.clang"
  },
  "schemaVersion": "3.4.10",
  "updatedAt": "2023-04-03T14:29:07.535Z",
  "devdoc": {
    "kind": "dev",
    "methods": {},
    "version": 1
  },
  "userdoc": {
    "kind": "user",
    "methods": {},
    "version": 1
  }
}