{
  "contractName": "DAO",
  "abi": [
    {
      "inputs": [
        {
          "internalType": "string",
          "name": "_name",
          "type": "string"
        },
        {
          "internalType": "string",
          "name": "_description",
          "type": "string"
        },
        {
          "internalType": "string",
          "name": "_scope",
          "type": "string"
        },
        {
          "internalType": "address",
          "name": "_initiator",
          "type": "address"
        }
      ],
      "stateMutability": "nonpayable",
      "type": "constructor"
    },
    {
      "inputs": [],
      "name": "avatar",
      "outputs": [
        {
          "internalType": "string",
          "name": "",
          "type": "string"
        }
      ],
      "stateMutability": "view",
      "type": "function"
    },
    {
      "inputs": [],
      "name": "description",
      "outputs": [
        {
          "internalType": "string",
          "name": "",
          "type": "string"
        }
      ],
      "stateMutability": "view",
      "type": "function"
    },
    {
      "inputs": [
        {
          "internalType": "uint256",
          "name": "",
          "type": "uint256"
        }
      ],
      "name": "members",
      "outputs": [
        {
          "internalType": "address",
          "name": "",
          "type": "address"
        }
      ],
      "stateMutability": "view",
      "type": "function"
    },
    {
      "inputs": [],
      "name": "membersCount",
      "outputs": [
        {
          "internalType": "uint256",
          "name": "",
          "type": "uint256"
        }
      ],
      "stateMutability": "view",
      "type": "function"
    },
    {
      "inputs": [],
      "name": "name",
      "outputs": [
        {
          "internalType": "string",
          "name": "",
          "type": "string"
        }
      ],
      "stateMutability": "view",
      "type": "function"
    },
    {
      "inputs": [],
      "name": "proposalCount",
      "outputs": [
        {
          "internalType": "uint256",
          "name": "",
          "type": "uint256"
        }
      ],
      "stateMutability": "view",
      "type": "function"
    },
    {
      "inputs": [
        {
          "internalType": "uint256",
          "name": "",
          "type": "uint256"
        }
      ],
      "name": "proposals",
      "outputs": [
        {
          "internalType": "uint256",
          "name": "id",
          "type": "uint256"
        },
        {
          "internalType": "address",
          "name": "initiator",
          "type": "address"
        },
        {
          "internalType": "string",
          "name": "title",
          "type": "string"
        },
        {
          "internalType": "string",
          "name": "description",
          "type": "string"
        },
        {
          "internalType": "uint256",
          "name": "votesFor",
          "type": "uint256"
        },
        {
          "internalType": "uint256",
          "name": "votesAgainst",
          "type": "uint256"
        },
        {
          "internalType": "bool",
          "name": "executed",
          "type": "bool"
        },
        {
          "internalType": "uint256",
          "name": "amount",
          "type": "uint256"
        },
        {
          "internalType": "address payable",
          "name": "beneficiary",
          "type": "address"
        },
        {
          "internalType": "string",
          "name": "start",
          "type": "string"
        },
        {
          "internalType": "string",
          "name": "end",
          "type": "string"
        }
      ],
      "stateMutability": "view",
      "type": "function"
    },
    {
      "inputs": [],
      "name": "scope",
      "outputs": [
        {
          "internalType": "string",
          "name": "",
          "type": "string"
        }
      ],
      "stateMutability": "view",
      "type": "function"
    },
    {
      "inputs": [
        {
          "internalType": "address",
          "name": "_member",
          "type": "address"
        }
      ],
      "name": "addMember",
      "outputs": [],
      "stateMutability": "nonpayable",
      "type": "function"
    },
    {
      "inputs": [
        {
          "internalType": "address",
          "name": "_initiator",
          "type": "address"
        },
        {
          "internalType": "string",
          "name": "_title",
          "type": "string"
        },
        {
          "internalType": "string",
          "name": "_description",
          "type": "string"
        },
        {
          "internalType": "address",
          "name": "beneficiary",
          "type": "address"
        },
        {
          "internalType": "string",
          "name": "_start",
          "type": "string"
        },
        {
          "internalType": "string",
          "name": "_end",
          "type": "string"
        },
        {
          "internalType": "bool",
          "name": "_executed",
          "type": "bool"
        }
      ],
      "name": "createProposal",
      "outputs": [],
      "stateMutability": "nonpayable",
      "type": "function"
    },
    {
      "inputs": [],
      "name": "getProposals",
      "outputs": [
        {
          "components": [
            {
              "internalType": "uint256",
              "name": "id",
              "type": "uint256"
            },
            {
              "internalType": "address",
              "name": "initiator",
              "type": "address"
            },
            {
              "internalType": "string",
              "name": "title",
              "type": "string"
            },
            {
              "internalType": "string",
              "name": "description",
              "type": "string"
            },
            {
              "internalType": "uint256",
              "name": "votesFor",
              "type": "uint256"
            },
            {
              "internalType": "uint256",
              "name": "votesAgainst",
              "type": "uint256"
            },
            {
              "internalType": "bool",
              "name": "executed",
              "type": "bool"
            },
            {
              "internalType": "uint256",
              "name": "amount",
              "type": "uint256"
            },
            {
              "internalType": "address payable",
              "name": "beneficiary",
              "type": "address"
            },
            {
              "internalType": "string",
              "name": "start",
              "type": "string"
            },
            {
              "internalType": "string",
              "name": "end",
              "type": "string"
            }
          ],
          "internalType": "struct DAO.Proposal[]",
          "name": "",
          "type": "tuple[]"
        }
      ],
      "stateMutability": "view",
      "type": "function"
    },
    {
      "inputs": [
        {
          "internalType": "uint256",
          "name": "_proposalId",
          "type": "uint256"
        },
        {
          "internalType": "bool",
          "name": "choice",
          "type": "bool"
        },
        {
          "internalType": "string",
          "name": "username",
          "type": "string"
        },
        {
          "internalType": "address",
          "name": "user_addr",
          "type": "address"
        }
      ],
      "name": "vote",
      "outputs": [],
      "stateMutability": "payable",
      "type": "function"
    },
    {
      "inputs": [
        {
          "internalType": "uint256",
          "name": "_proposalId",
          "type": "uint256"
        },
        {
          "internalType": "bool",
          "name": "choice",
          "type": "bool"
        },
        {
          "internalType": "string",
          "name": "username",
          "type": "string"
        },
        {
          "internalType": "address",
          "name": "user_addr",
          "type": "address"
        }
      ],
      "name": "voteFake",
      "outputs": [],
      "stateMutability": "payable",
      "type": "function"
    },
    {
      "inputs": [
        {
          "internalType": "uint256",
          "name": "proposalId",
          "type": "uint256"
        }
      ],
      "name": "getVotesOf",
      "outputs": [
        {
          "components": [
            {
              "internalType": "address",
              "name": "voter",
              "type": "address"
            },
            {
              "internalType": "uint256",
              "name": "timestamp",
              "type": "uint256"
            },
            {
              "internalType": "bool",
              "name": "choice",
              "type": "bool"
            },
            {
              "internalType": "string",
              "name": "username",
              "type": "string"
            },
            {
              "internalType": "address",
              "name": "user_addr",
              "type": "address"
            },
            {
              "internalType": "uint256",
              "name": "sum",
              "type": "uint256"
            }
          ],
          "internalType": "struct DAO.VotedStruct[]",
          "name": "",
          "type": "tuple[]"
        }
      ],
      "stateMutability": "view",
      "type": "function"
    },
    {
      "inputs": [
        {
          "internalType": "address",
          "name": "_member",
          "type": "address"
        }
      ],
      "name": "isMember",
      "outputs": [
        {
          "internalType": "bool",
          "name": "",
          "type": "bool"
        }
      ],
      "stateMutability": "view",
      "type": "function"
    },
    {
      "inputs": [
        {
          "internalType": "uint256",
          "name": "_proposalId",
          "type": "uint256"
        }
      ],
      "name": "getProposalDetails",
      "outputs": [
        {
          "internalType": "string",
          "name": "",
          "type": "string"
        },
        {
          "internalType": "string",
          "name": "",
          "type": "string"
        },
        {
          "internalType": "uint256",
          "name": "",
          "type": "uint256"
        },
        {
          "internalType": "uint256",
          "name": "",
          "type": "uint256"
        },
        {
          "internalType": "bool",
          "name": "",
          "type": "bool"
        },
        {
          "internalType": "uint256",
          "name": "",
          "type": "uint256"
        },
        {
          "internalType": "address",
          "name": "",
          "type": "address"
        },
        {
          "internalType": "string",
          "name": "",
          "type": "string"
        },
        {
          "internalType": "string",
          "name": "",
          "type": "string"
        },
        {
          "components": [
            {
              "internalType": "address",
              "name": "voter",
              "type": "address"
            },
            {
              "internalType": "uint256",
              "name": "timestamp",
              "type": "uint256"
            },
            {
              "internalType": "bool",
              "name": "choice",
              "type": "bool"
            },
            {
              "internalType": "string",
              "name": "username",
              "type": "string"
            },
            {
              "internalType": "address",
              "name": "user_addr",
              "type": "address"
            },
            {
              "internalType": "uint256",
              "name": "sum",
              "type": "uint256"
            }
          ],
          "internalType": "struct DAO.VotedStruct[]",
          "name": "",
          "type": "tuple[]"
        }
      ],
      "stateMutability": "view",
      "type": "function"
    }
  ],
  "bytecode": "0x60806040523480156200001157600080fd5b506040516200304b3803806200304b83398181016040528101906200003791906200024e565b83600090805190602001906200004f92919062000109565b5082600190805190602001906200006892919062000109565b5081600290805190602001906200008192919062000109565b506003819080600181540180825580915050600190039060005260206000200160009091909190916101000a81548173ffffffffffffffffffffffffffffffffffffffff021916908373ffffffffffffffffffffffffffffffffffffffff16021790555060046000815480929190620000fa906200045c565b91905055505050505062000576565b8280546200011790620003f0565b90600052602060002090601f0160209004810192826200013b576000855562000187565b82601f106200015657805160ff191683800117855562000187565b8280016001018555821562000187579182015b828111156200018657825182559160200191906001019062000169565b5b5090506200019691906200019a565b5090565b5b80821115620001b55760008160009055506001016200019b565b5090565b6000620001d0620001ca8462000346565b6200031d565b905082815260208101848484011115620001ef57620001ee6200053c565b5b620001fc848285620003ba565b509392505050565b60008151905062000215816200055c565b92915050565b600082601f83011262000233576200023262000537565b5b815162000245848260208601620001b9565b91505092915050565b600080600080608085870312156200026b576200026a62000546565b5b600085015167ffffffffffffffff8111156200028c576200028b62000541565b5b6200029a878288016200021b565b945050602085015167ffffffffffffffff811115620002be57620002bd62000541565b5b620002cc878288016200021b565b935050604085015167ffffffffffffffff811115620002f057620002ef62000541565b5b620002fe878288016200021b565b9250506060620003118782880162000204565b91505092959194509250565b6000620003296200033c565b905062000337828262000426565b919050565b6000604051905090565b600067ffffffffffffffff82111562000364576200036362000508565b5b6200036f826200054b565b9050602081019050919050565b6000620003898262000390565b9050919050565b600073ffffffffffffffffffffffffffffffffffffffff82169050919050565b6000819050919050565b60005b83811015620003da578082015181840152602081019050620003bd565b83811115620003ea576000848401525b50505050565b600060028204905060018216806200040957607f821691505b6020821081141562000420576200041f620004d9565b5b50919050565b62000431826200054b565b810181811067ffffffffffffffff8211171562000453576200045262000508565b5b80604052505050565b60006200046982620003b0565b91507fffffffffffffffffffffffffffffffffffffffffffffffffffffffffffffffff8214156200049f576200049e620004aa565b5b600182019050919050565b7f4e487b7100000000000000000000000000000000000000000000000000000000600052601160045260246000fd5b7f4e487b7100000000000000000000000000000000000000000000000000000000600052602260045260246000fd5b7f4e487b7100000000000000000000000000000000000000000000000000000000600052604160045260246000fd5b600080fd5b600080fd5b600080fd5b600080fd5b6000601f19601f8301169050919050565b62000567816200037c565b81146200057357600080fd5b50565b612ac580620005866000396000f3fe6080604052600436106100f35760003560e01c80636e62d0a81161008a578063a230c52411610059578063a230c52414610346578063ca6d56dc14610383578063da35c664146103ac578063f5fe72ff146103d7576100f3565b80636e62d0a8146102ab5780637284e416146102d65780638b027c47146103015780639339a8b81461032a576100f3565b80635aef7de6116100c65780635aef7de6146101db5780635daf08ca1461020657806362564c481461024357806369a136dc1461026e576100f3565b8063013cf08b146100f857806306fdde031461013f578063297f9af01461016a5780633b4d01a714610195575b600080fd5b34801561010457600080fd5b5061011f600480360381019061011a9190611ff4565b6103f3565b6040516101369b9a999897969594939291906125e6565b60405180910390f35b34801561014b57600080fd5b506101546106ba565b60405161016191906124ca565b60405180910390f35b34801561017657600080fd5b5061017f610748565b60405161018c91906125cb565b60405180910390f35b3480156101a157600080fd5b506101bc60048036038101906101b79190611ff4565b61074e565b6040516101d29a999897969594939291906124ec565b60405180910390f35b3480156101e757600080fd5b506101f0610bf9565b6040516101fd91906124ca565b60405180910390f35b34801561021257600080fd5b5061022d60048036038101906102289190611ff4565b610c87565b60405161023a9190612450565b60405180910390f35b34801561024f57600080fd5b50610258610cc6565b604051610265919061246b565b60405180910390f35b34801561027a57600080fd5b5061029560048036038101906102909190611ff4565b6110c4565b6040516102a2919061248d565b60405180910390f35b3480156102b757600080fd5b506102c06112a3565b6040516102cd91906124ca565b60405180910390f35b3480156102e257600080fd5b506102eb611331565b6040516102f891906124ca565b60405180910390f35b34801561030d57600080fd5b5061032860048036038101906103239190611ee2565b6113bf565b005b610344600480360381019061033f9190612021565b6115c4565b005b34801561035257600080fd5b5061036d60048036038101906103689190611eb5565b611835565b60405161037a91906124af565b60405180910390f35b34801561038f57600080fd5b506103aa60048036038101906103a59190611eb5565b6118e1565b005b3480156103b857600080fd5b506103c161195f565b6040516103ce91906125cb565b60405180910390f35b6103f160048036038101906103ec9190612021565b611965565b005b60066020528060005260406000206000915090508060000154908060010160009054906101000a900473ffffffffffffffffffffffffffffffffffffffff169080600201805461044290612894565b80601f016020809104026020016040519081016040528092919081815260200182805461046e90612894565b80156104bb5780601f10610490576101008083540402835291602001916104bb565b820191906000526020600020905b81548152906001019060200180831161049e57829003601f168201915b5050505050908060030180546104d090612894565b80601f01602080910402602001604051908101604052809291908181526020018280546104fc90612894565b80156105495780601f1061051e57610100808354040283529160200191610549565b820191906000526020600020905b81548152906001019060200180831161052c57829003601f168201915b5050505050908060040154908060050154908060060160009054906101000a900460ff16908060070154908060080160009054906101000a900473ffffffffffffffffffffffffffffffffffffffff16908060090180546105a990612894565b80601f01602080910402602001604051908101604052809291908181526020018280546105d590612894565b80156106225780601f106105f757610100808354040283529160200191610622565b820191906000526020600020905b81548152906001019060200180831161060557829003601f168201915b50505050509080600a01805461063790612894565b80601f016020809104026020016040519081016040528092919081815260200182805461066390612894565b80156106b05780601f10610685576101008083540402835291602001916106b0565b820191906000526020600020905b81548152906001019060200180831161069357829003601f168201915b505050505090508b565b600080546106c790612894565b80601f01602080910402602001604051908101604052809291908181526020018280546106f390612894565b80156107405780601f1061071557610100808354040283529160200191610740565b820191906000526020600020905b81548152906001019060200180831161072357829003601f168201915b505050505081565b60045481565b606080600080600080600060608060606000600660008d815260200190815260200160002090506000600960008e8152602001908152602001600020805480602002602001604051908101604052809291908181526020016000905b8282101561094957838290600052602060002090600602016040518060c00160405290816000820160009054906101000a900473ffffffffffffffffffffffffffffffffffffffff1673ffffffffffffffffffffffffffffffffffffffff1673ffffffffffffffffffffffffffffffffffffffff168152602001600182015481526020016002820160009054906101000a900460ff1615151515815260200160038201805461085890612894565b80601f016020809104026020016040519081016040528092919081815260200182805461088490612894565b80156108d15780601f106108a6576101008083540402835291602001916108d1565b820191906000526020600020905b8154815290600101906020018083116108b457829003601f168201915b505050505081526020016004820160009054906101000a900473ffffffffffffffffffffffffffffffffffffffff1673ffffffffffffffffffffffffffffffffffffffff1673ffffffffffffffffffffffffffffffffffffffff168152602001600582015481525050815260200190600101906107aa565b5050505090508160020182600301836004015484600501548560060160009054906101000a900460ff1686600701548760010160009054906101000a900473ffffffffffffffffffffffffffffffffffffffff168860090189600a01898980546109b290612894565b80601f01602080910402602001604051908101604052809291908181526020018280546109de90612894565b8015610a2b5780601f10610a0057610100808354040283529160200191610a2b565b820191906000526020600020905b815481529060010190602001808311610a0e57829003601f168201915b50505050509950888054610a3e90612894565b80601f0160208091040260200160405190810160405280929190818152602001828054610a6a90612894565b8015610ab75780601f10610a8c57610100808354040283529160200191610ab7565b820191906000526020600020905b815481529060010190602001808311610a9a57829003601f168201915b50505050509850828054610aca90612894565b80601f0160208091040260200160405190810160405280929190818152602001828054610af690612894565b8015610b435780601f10610b1857610100808354040283529160200191610b43565b820191906000526020600020905b815481529060010190602001808311610b2657829003601f168201915b50505050509250818054610b5690612894565b80601f0160208091040260200160405190810160405280929190818152602001828054610b8290612894565b8015610bcf5780601f10610ba457610100808354040283529160200191610bcf565b820191906000526020600020905b815481529060010190602001808311610bb257829003601f168201915b505050505091509b509b509b509b509b509b509b509b509b509b5050509193959799509193959799565b60058054610c0690612894565b80601f0160208091040260200160405190810160405280929190818152602001828054610c3290612894565b8015610c7f5780601f10610c5457610100808354040283529160200191610c7f565b820191906000526020600020905b815481529060010190602001808311610c6257829003601f168201915b505050505081565b60038181548110610c9757600080fd5b906000526020600020016000915054906101000a900473ffffffffffffffffffffffffffffffffffffffff1681565b6060600060075467ffffffffffffffff811115610ce657610ce56129cd565b5b604051908082528060200260200182016040528015610d1f57816020015b610d0c611cdb565b815260200190600190039081610d045790505b50905060005b6007548110156110bc5760006006600083815260200190815260200160002090508060405180610160016040529081600082015481526020016001820160009054906101000a900473ffffffffffffffffffffffffffffffffffffffff1673ffffffffffffffffffffffffffffffffffffffff1673ffffffffffffffffffffffffffffffffffffffff168152602001600282018054610dc390612894565b80601f0160208091040260200160405190810160405280929190818152602001828054610def90612894565b8015610e3c5780601f10610e1157610100808354040283529160200191610e3c565b820191906000526020600020905b815481529060010190602001808311610e1f57829003601f168201915b50505050508152602001600382018054610e5590612894565b80601f0160208091040260200160405190810160405280929190818152602001828054610e8190612894565b8015610ece5780601f10610ea357610100808354040283529160200191610ece565b820191906000526020600020905b815481529060010190602001808311610eb157829003601f168201915b5050505050815260200160048201548152602001600582015481526020016006820160009054906101000a900460ff16151515158152602001600782015481526020016008820160009054906101000a900473ffffffffffffffffffffffffffffffffffffffff1673ffffffffffffffffffffffffffffffffffffffff1673ffffffffffffffffffffffffffffffffffffffff168152602001600982018054610f7690612894565b80601f0160208091040260200160405190810160405280929190818152602001828054610fa290612894565b8015610fef5780601f10610fc457610100808354040283529160200191610fef565b820191906000526020600020905b815481529060010190602001808311610fd257829003601f168201915b50505050508152602001600a8201805461100890612894565b80601f016020809104026020016040519081016040528092919081815260200182805461103490612894565b80156110815780601f1061105657610100808354040283529160200191611081565b820191906000526020600020905b81548152906001019060200180831161106457829003601f168201915b50505050508152505083838151811061109d5761109c61299e565b5b60200260200101819052505080806110b4906128f7565b915050610d25565b508091505090565b606060096000838152602001908152602001600020805480602002602001604051908101604052809291908181526020016000905b8282101561129857838290600052602060002090600602016040518060c00160405290816000820160009054906101000a900473ffffffffffffffffffffffffffffffffffffffff1673ffffffffffffffffffffffffffffffffffffffff1673ffffffffffffffffffffffffffffffffffffffff168152602001600182015481526020016002820160009054906101000a900460ff161515151581526020016003820180546111a790612894565b80601f01602080910402602001604051908101604052809291908181526020018280546111d390612894565b80156112205780601f106111f557610100808354040283529160200191611220565b820191906000526020600020905b81548152906001019060200180831161120357829003601f168201915b505050505081526020016004820160009054906101000a900473ffffffffffffffffffffffffffffffffffffffff1673ffffffffffffffffffffffffffffffffffffffff1673ffffffffffffffffffffffffffffffffffffffff168152602001600582015481525050815260200190600101906110f9565b505050509050919050565b600280546112b090612894565b80601f01602080910402602001604051908101604052809291908181526020018280546112dc90612894565b80156113295780601f106112fe57610100808354040283529160200191611329565b820191906000526020600020905b81548152906001019060200180831161130c57829003601f168201915b505050505081565b6001805461133e90612894565b80601f016020809104026020016040519081016040528092919081815260200182805461136a90612894565b80156113b75780601f1061138c576101008083540402835291602001916113b7565b820191906000526020600020905b81548152906001019060200180831161139a57829003601f168201915b505050505081565b60405180610160016040528060075481526020018873ffffffffffffffffffffffffffffffffffffffff16815260200187815260200186815260200160008152602001600081526020018215158152602001600081526020018573ffffffffffffffffffffffffffffffffffffffff168152602001848152602001838152506006600060075481526020019081526020016000206000820151816000015560208201518160010160006101000a81548173ffffffffffffffffffffffffffffffffffffffff021916908373ffffffffffffffffffffffffffffffffffffffff16021790555060408201518160020190805190602001906114c0929190611d63565b5060608201518160030190805190602001906114dd929190611d63565b506080820151816004015560a0820151816005015560c08201518160060160006101000a81548160ff02191690831515021790555060e082015181600701556101008201518160080160006101000a81548173ffffffffffffffffffffffffffffffffffffffff021916908373ffffffffffffffffffffffffffffffffffffffff160217905550610120820151816009019080519060200190611581929190611d63565b5061014082015181600a01908051906020019061159f929190611d63565b50905050600760008154809291906115b6906128f7565b919050555050505050505050565b600060066000868152602001908152602001600020905060008415611628578160040160008154809291906115f8906128f7565b91905055506729a2241af62c000090508082600701600082825461161c91906127a2565b92505081905550611647565b81600501600081548092919061163d906128f7565b9190505550600090505b600860008473ffffffffffffffffffffffffffffffffffffffff1673ffffffffffffffffffffffffffffffffffffffff1681526020019081526020016000208260000154908060018154018082558091505060019003906000526020600020016000909190919091505560096000836000015481526020019081526020016000206040518060c001604052808573ffffffffffffffffffffffffffffffffffffffff16815260200142815260200187151581526020018681526020018573ffffffffffffffffffffffffffffffffffffffff16815260200183815250908060018154018082558091505060019003906000526020600020906006020160009091909190915060008201518160000160006101000a81548173ffffffffffffffffffffffffffffffffffffffff021916908373ffffffffffffffffffffffffffffffffffffffff1602179055506020820151816001015560408201518160020160006101000a81548160ff02191690831515021790555060608201518160030190805190602001906117d9929190611d63565b5060808201518160040160006101000a81548173ffffffffffffffffffffffffffffffffffffffff021916908373ffffffffffffffffffffffffffffffffffffffff16021790555060a082015181600501555050505050505050565b600080600090505b6004548110156118d6578273ffffffffffffffffffffffffffffffffffffffff16600382815481106118725761187161299e565b5b9060005260206000200160009054906101000a900473ffffffffffffffffffffffffffffffffffffffff1673ffffffffffffffffffffffffffffffffffffffff1614156118c35760019150506118dc565b80806118ce906128f7565b91505061183d565b50600090505b919050565b6003819080600181540180825580915050600190039060005260206000200160009091909190916101000a81548173ffffffffffffffffffffffffffffffffffffffff021916908373ffffffffffffffffffffffffffffffffffffffff16021790555060046000815480929190611957906128f7565b919050555050565b60075481565b60006006600086815260200190815260200160002090506000600860003373ffffffffffffffffffffffffffffffffffffffff1673ffffffffffffffffffffffffffffffffffffffff168152602001908152602001600020805480602002602001604051908101604052809291908181526020018280548015611a0757602002820191906000526020600020905b8154815260200190600101908083116119f3575b5050505050905060005b8151811015611a8e57818181518110611a2d57611a2c61299e565b5b602002602001015183600001541415611a7b576040517f08c379a0000000000000000000000000000000000000000000000000000000008152600401611a72906125ab565b60405180910390fd5b8080611a86906128f7565b915050611a11565b506000341115611ad257816004016000815480929190611aad906128f7565b919050555034826007016000828254611ac691906127a2565b92505081905550611aed565b816005016000815480929190611ae7906128f7565b91905055505b600860003373ffffffffffffffffffffffffffffffffffffffff1673ffffffffffffffffffffffffffffffffffffffff1681526020019081526020016000208260000154908060018154018082558091505060019003906000526020600020016000909190919091505560096000836000015481526020019081526020016000206040518060c001604052803373ffffffffffffffffffffffffffffffffffffffff16815260200142815260200187151581526020018681526020018573ffffffffffffffffffffffffffffffffffffffff16815260200134815250908060018154018082558091505060019003906000526020600020906006020160009091909190915060008201518160000160006101000a81548173ffffffffffffffffffffffffffffffffffffffff021916908373ffffffffffffffffffffffffffffffffffffffff1602179055506020820151816001015560408201518160020160006101000a81548160ff0219169083151502179055506060820151816003019080519060200190611c7f929190611d63565b5060808201518160040160006101000a81548173ffffffffffffffffffffffffffffffffffffffff021916908373ffffffffffffffffffffffffffffffffffffffff16021790555060a082015181600501555050505050505050565b60405180610160016040528060008152602001600073ffffffffffffffffffffffffffffffffffffffff1681526020016060815260200160608152602001600081526020016000815260200160001515815260200160008152602001600073ffffffffffffffffffffffffffffffffffffffff16815260200160608152602001606081525090565b828054611d6f90612894565b90600052602060002090601f016020900481019282611d915760008555611dd8565b82601f10611daa57805160ff1916838001178555611dd8565b82800160010185558215611dd8579182015b82811115611dd7578251825591602001919060010190611dbc565b5b509050611de59190611de9565b5090565b5b80821115611e02576000816000905550600101611dea565b5090565b6000611e19611e14846126d2565b6126ad565b905082815260208101848484011115611e3557611e34612a01565b5b611e40848285612852565b509392505050565b600081359050611e5781612a4a565b92915050565b600081359050611e6c81612a61565b92915050565b600082601f830112611e8757611e866129fc565b5b8135611e97848260208601611e06565b91505092915050565b600081359050611eaf81612a78565b92915050565b600060208284031215611ecb57611eca612a0b565b5b6000611ed984828501611e48565b91505092915050565b600080600080600080600060e0888a031215611f0157611f00612a0b565b5b6000611f0f8a828b01611e48565b975050602088013567ffffffffffffffff811115611f3057611f2f612a06565b5b611f3c8a828b01611e72565b965050604088013567ffffffffffffffff811115611f5d57611f5c612a06565b5b611f698a828b01611e72565b9550506060611f7a8a828b01611e48565b945050608088013567ffffffffffffffff811115611f9b57611f9a612a06565b5b611fa78a828b01611e72565b93505060a088013567ffffffffffffffff811115611fc857611fc7612a06565b5b611fd48a828b01611e72565b92505060c0611fe58a828b01611e5d565b91505092959891949750929550565b60006020828403121561200a57612009612a0b565b5b600061201884828501611ea0565b91505092915050565b6000806000806080858703121561203b5761203a612a0b565b5b600061204987828801611ea0565b945050602061205a87828801611e5d565b935050604085013567ffffffffffffffff81111561207b5761207a612a06565b5b61208787828801611e72565b925050606061209887828801611e48565b91505092959194509250565b60006120b083836122a5565b905092915050565b60006120c483836123a9565b905092915050565b6120d58161280a565b82525050565b6120e48161280a565b82525050565b6120f3816127f8565b82525050565b612102816127f8565b82525050565b600061211382612723565b61211d818561275e565b93508360208202850161212f85612703565b8060005b8581101561216b578484038952815161214c85826120a4565b945061215783612744565b925060208a01995050600181019050612133565b50829750879550505050505092915050565b60006121888261272e565b612192818561276f565b9350836020820285016121a485612713565b8060005b858110156121e057848403895281516121c185826120b8565b94506121cc83612751565b925060208a019950506001810190506121a8565b50829750879550505050505092915050565b6121fb8161281c565b82525050565b61220a8161281c565b82525050565b600061221b82612739565b6122258185612780565b9350612235818560208601612861565b61223e81612a10565b840191505092915050565b600061225482612739565b61225e8185612791565b935061226e818560208601612861565b61227781612a10565b840191505092915050565b600061228f601983612791565b915061229a82612a21565b602082019050919050565b6000610160830160008301516122be6000860182612432565b5060208301516122d160208601826120ea565b50604083015184820360408601526122e98282612210565b915050606083015184820360608601526123038282612210565b91505060808301516123186080860182612432565b5060a083015161232b60a0860182612432565b5060c083015161233e60c08601826121f2565b5060e083015161235160e0860182612432565b506101008301516123666101008601826120cc565b506101208301518482036101208601526123808282612210565b91505061014083015184820361014086015261239c8282612210565b9150508091505092915050565b600060c0830160008301516123c160008601826120ea565b5060208301516123d46020860182612432565b5060408301516123e760408601826121f2565b50606083015184820360608601526123ff8282612210565b915050608083015161241460808601826120ea565b5060a083015161242760a0860182612432565b508091505092915050565b61243b81612848565b82525050565b61244a81612848565b82525050565b600060208201905061246560008301846120f9565b92915050565b600060208201905081810360008301526124858184612108565b905092915050565b600060208201905081810360008301526124a7818461217d565b905092915050565b60006020820190506124c46000830184612201565b92915050565b600060208201905081810360008301526124e48184612249565b905092915050565b6000610140820190508181036000830152612507818d612249565b9050818103602083015261251b818c612249565b905061252a604083018b612441565b612537606083018a612441565b6125446080830189612201565b61255160a0830188612441565b61255e60c08301876120f9565b81810360e08301526125708186612249565b90508181036101008301526125858185612249565b905081810361012083015261259a818461217d565b90509b9a5050505050505050505050565b600060208201905081810360008301526125c481612282565b9050919050565b60006020820190506125e06000830184612441565b92915050565b6000610160820190506125fc600083018e612441565b612609602083018d6120f9565b818103604083015261261b818c612249565b9050818103606083015261262f818b612249565b905061263e608083018a612441565b61264b60a0830189612441565b61265860c0830188612201565b61266560e0830187612441565b6126736101008301866120db565b8181036101208301526126868185612249565b905081810361014083015261269b8184612249565b90509c9b505050505050505050505050565b60006126b76126c8565b90506126c382826128c6565b919050565b6000604051905090565b600067ffffffffffffffff8211156126ed576126ec6129cd565b5b6126f682612a10565b9050602081019050919050565b6000819050602082019050919050565b6000819050602082019050919050565b600081519050919050565b600081519050919050565b600081519050919050565b6000602082019050919050565b6000602082019050919050565b600082825260208201905092915050565b600082825260208201905092915050565b600082825260208201905092915050565b600082825260208201905092915050565b60006127ad82612848565b91506127b883612848565b9250827fffffffffffffffffffffffffffffffffffffffffffffffffffffffffffffffff038211156127ed576127ec612940565b5b828201905092915050565b600061280382612828565b9050919050565b600061281582612828565b9050919050565b60008115159050919050565b600073ffffffffffffffffffffffffffffffffffffffff82169050919050565b6000819050919050565b82818337600083830152505050565b60005b8381101561287f578082015181840152602081019050612864565b8381111561288e576000848401525b50505050565b600060028204905060018216806128ac57607f821691505b602082108114156128c0576128bf61296f565b5b50919050565b6128cf82612a10565b810181811067ffffffffffffffff821117156128ee576128ed6129cd565b5b80604052505050565b600061290282612848565b91507fffffffffffffffffffffffffffffffffffffffffffffffffffffffffffffffff82141561293557612934612940565b5b600182019050919050565b7f4e487b7100000000000000000000000000000000000000000000000000000000600052601160045260246000fd5b7f4e487b7100000000000000000000000000000000000000000000000000000000600052602260045260246000fd5b7f4e487b7100000000000000000000000000000000000000000000000000000000600052603260045260246000fd5b7f4e487b7100000000000000000000000000000000000000000000000000000000600052604160045260246000fd5b600080fd5b600080fd5b600080fd5b600080fd5b6000601f19601f8301169050919050565b7f446f75626c6520766f74696e67206e6f7420616c6c6f77656400000000000000600082015250565b612a53816127f8565b8114612a5e57600080fd5b50565b612a6a8161281c565b8114612a7557600080fd5b50565b612a8181612848565b8114612a8c57600080fd5b5056fea26469706673582212208603cce6e1133a28706500cdb7ffbefa7a3e084212de31536ba25389fc7093ce64736f6c63430008070033",
  "immutableReferences": {},
  "source": "// SPDX-License-Identifier: MIT\npragma solidity ^0.8.7;\n\ncontract DAO {\n    struct Proposal {\n        uint256 id;\n        address initiator;\n        string title;\n        string description;\n        uint256 votesFor;\n        uint256 votesAgainst;\n        bool executed;\n        uint256 amount;\n        address payable beneficiary;\n        string start;\n        string end;\n    }\n    struct VotedStruct {\n        address voter;\n        uint256 timestamp;\n        bool choice;\n        string username;\n        address user_addr;\n        uint256 sum;\n    }\n\n    string public name;\n    string public description;\n    string public scope;\n    address[] public members;\n    uint256 public membersCount;\n    string public avatar;\n\n    mapping(uint256 => Proposal) public proposals;\n    uint256 public proposalCount;\n    mapping(address => uint256[]) private stakeholderVotes;\n    mapping(uint256 => VotedStruct[]) private votedOn;\n\n    constructor(string memory _name, string memory _description, string memory _scope, address _initiator) {\n        name = _name;\n        description = _description;\n        scope = _scope;\n        members.push(_initiator);\n        membersCount++;\n    }\n\n    function addMember(address _member) public {\n        members.push(_member);\n        membersCount++;\n    }\n\n    function createProposal(\n        address _initiator,\n        string memory _title,\n        string memory _description,\n        address beneficiary,\n        string memory _start,\n        string memory _end,\n        bool _executed\n    ) public {\n        proposals[proposalCount] = Proposal(\n            proposalCount,\n            _initiator,\n            _title,\n            _description,\n            0,\n            0,\n            _executed,\n            0,\n            payable(beneficiary),\n            _start,\n            _end\n        );\n        proposalCount++;\n    }\n\n    function getProposals() public view returns (Proposal[] memory) {\n        Proposal[] memory daoProposals = new Proposal[](proposalCount);\n\n        for (uint256 i = 0; i < proposalCount; i++) {\n            Proposal storage proposal = proposals[i];\n            daoProposals[i] = proposal;\n        }\n\n        return daoProposals;\n    }\n\n    function vote(uint256 _proposalId, bool choice, string memory username, address user_addr) payable public {\n        Proposal storage proposal = proposals[_proposalId];\n        uint256[] memory tempVotes = stakeholderVotes[msg.sender];\n        for (uint256 v = 0; v < tempVotes.length; v++) {\n            if (proposal.id == tempVotes[v])\n                revert(\"Double voting not allowed\");\n        }\n\n        if (msg.value > 0) {\n            proposal.votesFor++;\n            proposal.amount += msg.value;\n        } else {\n            proposal.votesAgainst++;\n        }\n        stakeholderVotes[msg.sender].push(proposal.id);\n        votedOn[proposal.id].push(\n            VotedStruct(\n                msg.sender,\n                block.timestamp,\n                choice,\n                username,\n                user_addr,\n                msg.value\n            )\n        );\n    }\n\n    function voteFake(uint256 _proposalId, bool choice, string memory username, address user_addr) payable public {\n        Proposal storage proposal = proposals[_proposalId];\n        uint256 amount;\n\n        if (choice) {\n            proposal.votesFor++;\n            amount = 3e18;\n            proposal.amount += amount;\n        } else {\n            proposal.votesAgainst++;\n            amount = 0;\n        }\n        stakeholderVotes[user_addr].push(proposal.id);\n        votedOn[proposal.id].push(\n            VotedStruct(\n                user_addr,\n                block.timestamp,\n                choice,\n                username,\n                user_addr,\n                amount\n            )\n        );\n    }\n\n    function getVotesOf(uint256 proposalId)\n        external\n        view\n        returns (VotedStruct[] memory)\n    {\n        return votedOn[proposalId];\n    }\n\n    function isMember(address _member) public view returns (bool) {\n        for (uint256 i = 0; i < membersCount; i++) {\n            if (members[i] == _member) {\n                return true;\n            }\n        }\n        return false;\n    }\n\n    function getProposalDetails(uint256 _proposalId)\n        public view returns (string memory, string memory, uint256, uint256, bool, uint256, address, string memory, string memory, VotedStruct[] memory) {\n        Proposal storage proposal = proposals[_proposalId];\n        VotedStruct[] memory votes = votedOn[_proposalId];\n        return (\n            proposal.title,\n            proposal.description,\n            proposal.votesFor,\n            proposal.votesAgainst,\n            proposal.executed,\n            proposal.amount,\n            proposal.initiator,\n            proposal.start,\n            proposal.end,\n            votes\n        );\n    }\n\n//    function executeProposal(uint256 _proposalId) public {\n//        Proposal storage proposal = proposals[_proposalId];\n//        require(!proposal.executed, \"Proposal has already been executed\");\n//        require(proposal.votesFor >= quorum, \"Proposal does not have enough support\");\n//\n//        proposal.executed = true;\n//        // execute proposal code here\n    // }\n}\n",
  "sourcePath": "/Users/ilyatorch/AragonProjects/dominionDAOV2/src/contracts/DAO.sol",
  "compiler": {
    "name": "solc",
    "version": "0.8.7+commit.e28d00a7.Emscripten.clang"
  },
  "schemaVersion": "3.4.10",
  "updatedAt": "2024-02-07T05:39:30.561Z",
  "devdoc": {
    "kind": "dev",
    "methods": {},
    "version": 1
  },
  "userdoc": {
    "kind": "user",
    "methods": {},
    "version": 1
  }
}