{
  "contractName": "DAO",
  "abi": [
    {
      "inputs": [
        {
          "internalType": "string",
          "name": "_name",
          "type": "string"
        },
        {
          "internalType": "address",
          "name": "_creator",
          "type": "address"
        }
      ],
      "stateMutability": "nonpayable",
      "type": "constructor"
    },
    {
      "inputs": [
        {
          "internalType": "uint256",
          "name": "",
          "type": "uint256"
        }
      ],
      "name": "members",
      "outputs": [
        {
          "internalType": "address",
          "name": "",
          "type": "address"
        }
      ],
      "stateMutability": "view",
      "type": "function"
    },
    {
      "inputs": [],
      "name": "membersCount",
      "outputs": [
        {
          "internalType": "uint256",
          "name": "",
          "type": "uint256"
        }
      ],
      "stateMutability": "view",
      "type": "function"
    },
    {
      "inputs": [],
      "name": "name",
      "outputs": [
        {
          "internalType": "string",
          "name": "",
          "type": "string"
        }
      ],
      "stateMutability": "view",
      "type": "function"
    },
    {
      "inputs": [],
      "name": "proposalCount",
      "outputs": [
        {
          "internalType": "uint256",
          "name": "",
          "type": "uint256"
        }
      ],
      "stateMutability": "view",
      "type": "function"
    },
    {
      "inputs": [
        {
          "internalType": "uint256",
          "name": "",
          "type": "uint256"
        }
      ],
      "name": "proposals",
      "outputs": [
        {
          "internalType": "address",
          "name": "proposer",
          "type": "address"
        },
        {
          "internalType": "string",
          "name": "title",
          "type": "string"
        },
        {
          "internalType": "string",
          "name": "description",
          "type": "string"
        },
        {
          "internalType": "uint256",
          "name": "votesFor",
          "type": "uint256"
        },
        {
          "internalType": "uint256",
          "name": "votesAgainst",
          "type": "uint256"
        },
        {
          "internalType": "bool",
          "name": "executed",
          "type": "bool"
        }
      ],
      "stateMutability": "view",
      "type": "function"
    },
    {
      "inputs": [
        {
          "internalType": "address",
          "name": "_member",
          "type": "address"
        }
      ],
      "name": "addMember",
      "outputs": [],
      "stateMutability": "nonpayable",
      "type": "function"
    }
  ],
  "bytecode": "0x60806040523480156200001157600080fd5b5060405162000c9638038062000c9683398181016040528101906200003791906200021a565b81600090805190602001906200004f929190620000d5565b506001819080600181540180825580915050600190039060005260206000200160009091909190916101000a81548173ffffffffffffffffffffffffffffffffffffffff021916908373ffffffffffffffffffffffffffffffffffffffff16021790555060026000815480929190620000c890620003bf565b91905055505050620004d9565b828054620000e39062000353565b90600052602060002090601f01602090048101928262000107576000855562000153565b82601f106200012257805160ff191683800117855562000153565b8280016001018555821562000153579182015b828111156200015257825182559160200191906001019062000135565b5b50905062000162919062000166565b5090565b5b808211156200018157600081600090555060010162000167565b5090565b60006200019c6200019684620002a9565b62000280565b905082815260208101848484011115620001bb57620001ba6200049f565b5b620001c88482856200031d565b509392505050565b600081519050620001e181620004bf565b92915050565b600082601f830112620001ff57620001fe6200049a565b5b81516200021184826020860162000185565b91505092915050565b60008060408385031215620002345762000233620004a9565b5b600083015167ffffffffffffffff811115620002555762000254620004a4565b5b6200026385828601620001e7565b92505060206200027685828601620001d0565b9150509250929050565b60006200028c6200029f565b90506200029a828262000389565b919050565b6000604051905090565b600067ffffffffffffffff821115620002c757620002c66200046b565b5b620002d282620004ae565b9050602081019050919050565b6000620002ec82620002f3565b9050919050565b600073ffffffffffffffffffffffffffffffffffffffff82169050919050565b6000819050919050565b60005b838110156200033d57808201518184015260208101905062000320565b838111156200034d576000848401525b50505050565b600060028204905060018216806200036c57607f821691505b602082108114156200038357620003826200043c565b5b50919050565b6200039482620004ae565b810181811067ffffffffffffffff82111715620003b657620003b56200046b565b5b80604052505050565b6000620003cc8262000313565b91507fffffffffffffffffffffffffffffffffffffffffffffffffffffffffffffffff8214156200040257620004016200040d565b5b600182019050919050565b7f4e487b7100000000000000000000000000000000000000000000000000000000600052601160045260246000fd5b7f4e487b7100000000000000000000000000000000000000000000000000000000600052602260045260246000fd5b7f4e487b7100000000000000000000000000000000000000000000000000000000600052604160045260246000fd5b600080fd5b600080fd5b600080fd5b600080fd5b6000601f19601f8301169050919050565b620004ca81620002df565b8114620004d657600080fd5b50565b6107ad80620004e96000396000f3fe608060405234801561001057600080fd5b50600436106100625760003560e01c8063013cf08b1461006757806306fdde031461009c578063297f9af0146100ba5780635daf08ca146100d8578063ca6d56dc14610108578063da35c66414610124575b600080fd5b610081600480360381019061007c9190610469565b610142565b60405161009396959493929190610517565b60405180910390f35b6100a46102bb565b6040516100b19190610586565b60405180910390f35b6100c2610349565b6040516100cf91906105a8565b60405180910390f35b6100f260048036038101906100ed9190610469565b61034f565b6040516100ff91906104fc565b60405180910390f35b610122600480360381019061011d919061043c565b61038e565b005b61012c61040c565b60405161013991906105a8565b60405180910390f35b60036020528060005260406000206000915090508060000160009054906101000a900473ffffffffffffffffffffffffffffffffffffffff169080600101805461018b9061065a565b80601f01602080910402602001604051908101604052809291908181526020018280546101b79061065a565b80156102045780601f106101d957610100808354040283529160200191610204565b820191906000526020600020905b8154815290600101906020018083116101e757829003601f168201915b5050505050908060020180546102199061065a565b80601f01602080910402602001604051908101604052809291908181526020018280546102459061065a565b80156102925780601f1061026757610100808354040283529160200191610292565b820191906000526020600020905b81548152906001019060200180831161027557829003601f168201915b5050505050908060030154908060040154908060050160009054906101000a900460ff16905086565b600080546102c89061065a565b80601f01602080910402602001604051908101604052809291908181526020018280546102f49061065a565b80156103415780601f1061031657610100808354040283529160200191610341565b820191906000526020600020905b81548152906001019060200180831161032457829003601f168201915b505050505081565b60025481565b6001818154811061035f57600080fd5b906000526020600020016000915054906101000a900473ffffffffffffffffffffffffffffffffffffffff1681565b6001819080600181540180825580915050600190039060005260206000200160009091909190916101000a81548173ffffffffffffffffffffffffffffffffffffffff021916908373ffffffffffffffffffffffffffffffffffffffff160217905550600260008154809291906104049061068c565b919050555050565b60045481565b60008135905061042181610749565b92915050565b60008135905061043681610760565b92915050565b60006020828403121561045257610451610733565b5b600061046084828501610412565b91505092915050565b60006020828403121561047f5761047e610733565b5b600061048d84828501610427565b91505092915050565b61049f816105df565b82525050565b6104ae816105f1565b82525050565b60006104bf826105c3565b6104c981856105ce565b93506104d9818560208601610627565b6104e281610738565b840191505092915050565b6104f68161061d565b82525050565b60006020820190506105116000830184610496565b92915050565b600060c08201905061052c6000830189610496565b818103602083015261053e81886104b4565b9050818103604083015261055281876104b4565b905061056160608301866104ed565b61056e60808301856104ed565b61057b60a08301846104a5565b979650505050505050565b600060208201905081810360008301526105a081846104b4565b905092915050565b60006020820190506105bd60008301846104ed565b92915050565b600081519050919050565b600082825260208201905092915050565b60006105ea826105fd565b9050919050565b60008115159050919050565b600073ffffffffffffffffffffffffffffffffffffffff82169050919050565b6000819050919050565b60005b8381101561064557808201518184015260208101905061062a565b83811115610654576000848401525b50505050565b6000600282049050600182168061067257607f821691505b6020821081141561068657610685610704565b5b50919050565b60006106978261061d565b91507fffffffffffffffffffffffffffffffffffffffffffffffffffffffffffffffff8214156106ca576106c96106d5565b5b600182019050919050565b7f4e487b7100000000000000000000000000000000000000000000000000000000600052601160045260246000fd5b7f4e487b7100000000000000000000000000000000000000000000000000000000600052602260045260246000fd5b600080fd5b6000601f19601f8301169050919050565b610752816105df565b811461075d57600080fd5b50565b6107698161061d565b811461077457600080fd5b5056fea2646970667358221220bfdcddc8e41abef41f429a5c962f7dc047528b0be26e53926af13889e260daed64736f6c63430008070033",
  "immutableReferences": {},
  "source": "// SPDX-License-Identifier: MIT\npragma solidity ^0.8.7;\n\ncontract DAO {\n    struct Proposal {\n        address proposer;\n        string title;\n        string description;\n        uint256 votesFor;\n        uint256 votesAgainst;\n        bool executed;\n    }\n\n    string public name;\n    address[] public members;\n    uint256 public membersCount;\n\n    mapping(uint256 => Proposal) public proposals;\n    uint256 public proposalCount;\n//    mapping(address => bool) public membersMap;\n\n    constructor(string memory _name, address _creator) {\n        name = _name;\n        members.push(_creator);\n        membersCount++;\n    }\n\n    function addMember(address _member) public {\n        members.push(_member);\n        membersCount++;\n    }\n\n//    function createProposal(string memory _description) public {\n//        require(membersMap[msg.sender], \"Only members can create proposals\");\n//        proposals[proposalCount] = Proposal(msg.sender, _description, 0, 0, false);\n//        proposalCount++;\n//    }\n\n//    function vote(uint256 _proposalId, bool _inSupport) public {\n//        require(membersMap[msg.sender], \"Only members can vote\");\n//        Proposal storage proposal = proposals[_proposalId];\n//        require(!proposal.executed, \"Proposal has already been executed\");\n//\n//        if (_inSupport) {\n//            proposal.votesFor++;\n//        } else {\n//            proposal.votesAgainst++;\n//        }\n//    }\n\n//    function executeProposal(uint256 _proposalId) public {\n//        Proposal storage proposal = proposals[_proposalId];\n//        require(!proposal.executed, \"Proposal has already been executed\");\n//        require(proposal.votesFor >= quorum, \"Proposal does not have enough support\");\n//\n//        proposal.executed = true;\n//        // execute proposal code here\n    // }\n}\n//\n//contract MultipleDAOs {\n//    mapping(address => DAO) public daos;\n//\n//    function createDAO(uint256 _quorum) public {\n//        DAO newDAO = new DAO(_quorum);\n//        daos[address(newDAO)] = newDAO;\n//    }\n//\n//    function addMember(address _dao, address _member) public {\n//        DAO dao = daos[_dao];\n//        dao.addMember(_member);\n//    }\n//\n//    function createProposal(address _dao, string memory _description) public {\n//        DAO dao = daos[_dao];\n//        dao.createProposal(_description);\n//    }\n//\n//    function vote(address _dao, uint256 _proposalId, bool _inSupport) public {\n//        DAO dao = daos[_dao];\n//        dao.vote(_proposalId, _inSupport);\n//    }\n//\n//    function executeProposal(address _dao, uint256 _proposalId) public {\n//        DAO dao = daos[_dao];\n//        dao.executeProposal(_proposalId);\n//    }\n// }\n",
  "sourcePath": "/Users/ilyatorch/AragonProjects/dominionDAOV2/src/contracts/DAO.sol",
  "compiler": {
    "name": "solc",
    "version": "0.8.7+commit.e28d00a7.Emscripten.clang"
  },
  "schemaVersion": "3.4.10",
  "updatedAt": "2023-04-02T09:18:51.365Z",
  "devdoc": {
    "kind": "dev",
    "methods": {},
    "version": 1
  },
  "userdoc": {
    "kind": "user",
    "methods": {},
    "version": 1
  }
}