{
  "contractName": "DAO",
  "abi": [
    {
      "inputs": [
        {
          "internalType": "string",
          "name": "_name",
          "type": "string"
        },
        {
          "internalType": "string",
          "name": "_description",
          "type": "string"
        },
        {
          "internalType": "address",
          "name": "_initiator",
          "type": "address"
        }
      ],
      "stateMutability": "nonpayable",
      "type": "constructor"
    },
    {
      "inputs": [],
      "name": "avatar",
      "outputs": [
        {
          "internalType": "string",
          "name": "",
          "type": "string"
        }
      ],
      "stateMutability": "view",
      "type": "function"
    },
    {
      "inputs": [],
      "name": "description",
      "outputs": [
        {
          "internalType": "string",
          "name": "",
          "type": "string"
        }
      ],
      "stateMutability": "view",
      "type": "function"
    },
    {
      "inputs": [
        {
          "internalType": "uint256",
          "name": "",
          "type": "uint256"
        }
      ],
      "name": "members",
      "outputs": [
        {
          "internalType": "address",
          "name": "",
          "type": "address"
        }
      ],
      "stateMutability": "view",
      "type": "function"
    },
    {
      "inputs": [],
      "name": "membersCount",
      "outputs": [
        {
          "internalType": "uint256",
          "name": "",
          "type": "uint256"
        }
      ],
      "stateMutability": "view",
      "type": "function"
    },
    {
      "inputs": [],
      "name": "name",
      "outputs": [
        {
          "internalType": "string",
          "name": "",
          "type": "string"
        }
      ],
      "stateMutability": "view",
      "type": "function"
    },
    {
      "inputs": [],
      "name": "proposalCount",
      "outputs": [
        {
          "internalType": "uint256",
          "name": "",
          "type": "uint256"
        }
      ],
      "stateMutability": "view",
      "type": "function"
    },
    {
      "inputs": [
        {
          "internalType": "uint256",
          "name": "",
          "type": "uint256"
        }
      ],
      "name": "proposals",
      "outputs": [
        {
          "internalType": "uint256",
          "name": "id",
          "type": "uint256"
        },
        {
          "internalType": "address",
          "name": "initiator",
          "type": "address"
        },
        {
          "internalType": "string",
          "name": "title",
          "type": "string"
        },
        {
          "internalType": "string",
          "name": "description",
          "type": "string"
        },
        {
          "internalType": "uint256",
          "name": "votesFor",
          "type": "uint256"
        },
        {
          "internalType": "uint256",
          "name": "votesAgainst",
          "type": "uint256"
        },
        {
          "internalType": "bool",
          "name": "executed",
          "type": "bool"
        },
        {
          "internalType": "uint256",
          "name": "amount",
          "type": "uint256"
        },
        {
          "internalType": "address payable",
          "name": "beneficiary",
          "type": "address"
        },
        {
          "internalType": "string",
          "name": "user_avatar",
          "type": "string"
        },
        {
          "internalType": "string",
          "name": "start",
          "type": "string"
        },
        {
          "internalType": "string",
          "name": "end",
          "type": "string"
        }
      ],
      "stateMutability": "view",
      "type": "function"
    },
    {
      "inputs": [
        {
          "internalType": "address",
          "name": "_member",
          "type": "address"
        }
      ],
      "name": "addMember",
      "outputs": [],
      "stateMutability": "nonpayable",
      "type": "function"
    },
    {
      "inputs": [
        {
          "internalType": "address",
          "name": "_initiator",
          "type": "address"
        },
        {
          "internalType": "string",
          "name": "_title",
          "type": "string"
        },
        {
          "internalType": "string",
          "name": "_description",
          "type": "string"
        },
        {
          "internalType": "address",
          "name": "beneficiary",
          "type": "address"
        },
        {
          "internalType": "string",
          "name": "_user_avatar",
          "type": "string"
        },
        {
          "internalType": "string",
          "name": "_start",
          "type": "string"
        },
        {
          "internalType": "string",
          "name": "_end",
          "type": "string"
        }
      ],
      "name": "createProposal",
      "outputs": [],
      "stateMutability": "nonpayable",
      "type": "function"
    },
    {
      "inputs": [],
      "name": "getProposals",
      "outputs": [
        {
          "components": [
            {
              "internalType": "uint256",
              "name": "id",
              "type": "uint256"
            },
            {
              "internalType": "address",
              "name": "initiator",
              "type": "address"
            },
            {
              "internalType": "string",
              "name": "title",
              "type": "string"
            },
            {
              "internalType": "string",
              "name": "description",
              "type": "string"
            },
            {
              "internalType": "uint256",
              "name": "votesFor",
              "type": "uint256"
            },
            {
              "internalType": "uint256",
              "name": "votesAgainst",
              "type": "uint256"
            },
            {
              "internalType": "bool",
              "name": "executed",
              "type": "bool"
            },
            {
              "internalType": "uint256",
              "name": "amount",
              "type": "uint256"
            },
            {
              "internalType": "address payable",
              "name": "beneficiary",
              "type": "address"
            },
            {
              "internalType": "string",
              "name": "user_avatar",
              "type": "string"
            },
            {
              "internalType": "string",
              "name": "start",
              "type": "string"
            },
            {
              "internalType": "string",
              "name": "end",
              "type": "string"
            }
          ],
          "internalType": "struct DAO.Proposal[]",
          "name": "",
          "type": "tuple[]"
        }
      ],
      "stateMutability": "view",
      "type": "function"
    },
    {
      "inputs": [
        {
          "internalType": "uint256",
          "name": "_proposalId",
          "type": "uint256"
        },
        {
          "internalType": "bool",
          "name": "choice",
          "type": "bool"
        },
        {
          "internalType": "string",
          "name": "username",
          "type": "string"
        },
        {
          "internalType": "string",
          "name": "user_avatar",
          "type": "string"
        }
      ],
      "name": "vote",
      "outputs": [],
      "stateMutability": "payable",
      "type": "function"
    },
    {
      "inputs": [
        {
          "internalType": "uint256",
          "name": "proposalId",
          "type": "uint256"
        }
      ],
      "name": "getVotesOf",
      "outputs": [
        {
          "components": [
            {
              "internalType": "address",
              "name": "voter",
              "type": "address"
            },
            {
              "internalType": "uint256",
              "name": "timestamp",
              "type": "uint256"
            },
            {
              "internalType": "bool",
              "name": "choice",
              "type": "bool"
            },
            {
              "internalType": "string",
              "name": "username",
              "type": "string"
            },
            {
              "internalType": "string",
              "name": "user_avatar",
              "type": "string"
            },
            {
              "internalType": "uint256",
              "name": "sum",
              "type": "uint256"
            }
          ],
          "internalType": "struct DAO.VotedStruct[]",
          "name": "",
          "type": "tuple[]"
        }
      ],
      "stateMutability": "view",
      "type": "function"
    },
    {
      "inputs": [
        {
          "internalType": "address",
          "name": "_member",
          "type": "address"
        }
      ],
      "name": "isMember",
      "outputs": [
        {
          "internalType": "bool",
          "name": "",
          "type": "bool"
        }
      ],
      "stateMutability": "view",
      "type": "function"
    },
    {
      "inputs": [
        {
          "internalType": "uint256",
          "name": "_proposalId",
          "type": "uint256"
        }
      ],
      "name": "getProposalDetails",
      "outputs": [
        {
          "internalType": "string",
          "name": "",
          "type": "string"
        },
        {
          "internalType": "string",
          "name": "",
          "type": "string"
        },
        {
          "internalType": "uint256",
          "name": "",
          "type": "uint256"
        },
        {
          "internalType": "uint256",
          "name": "",
          "type": "uint256"
        },
        {
          "internalType": "bool",
          "name": "",
          "type": "bool"
        },
        {
          "internalType": "uint256",
          "name": "",
          "type": "uint256"
        },
        {
          "internalType": "address",
          "name": "",
          "type": "address"
        },
        {
          "internalType": "string",
          "name": "",
          "type": "string"
        },
        {
          "internalType": "string",
          "name": "",
          "type": "string"
        },
        {
          "internalType": "string",
          "name": "",
          "type": "string"
        },
        {
          "components": [
            {
              "internalType": "address",
              "name": "voter",
              "type": "address"
            },
            {
              "internalType": "uint256",
              "name": "timestamp",
              "type": "uint256"
            },
            {
              "internalType": "bool",
              "name": "choice",
              "type": "bool"
            },
            {
              "internalType": "string",
              "name": "username",
              "type": "string"
            },
            {
              "internalType": "string",
              "name": "user_avatar",
              "type": "string"
            },
            {
              "internalType": "uint256",
              "name": "sum",
              "type": "uint256"
            }
          ],
          "internalType": "struct DAO.VotedStruct[]",
          "name": "",
          "type": "tuple[]"
        }
      ],
      "stateMutability": "view",
      "type": "function"
    }
  ],
  "bytecode": "0x60806040523480156200001157600080fd5b50604051620030da380380620030da833981810160405281019062000037919062000234565b82600090805190602001906200004f929190620000ef565b50816001908051906020019062000068929190620000ef565b506002819080600181540180825580915050600190039060005260206000200160009091909190916101000a81548173ffffffffffffffffffffffffffffffffffffffff021916908373ffffffffffffffffffffffffffffffffffffffff16021790555060036000815480929190620000e1906200040d565b919050555050505062000527565b828054620000fd90620003a1565b90600052602060002090601f0160209004810192826200012157600085556200016d565b82601f106200013c57805160ff19168380011785556200016d565b828001600101855582156200016d579182015b828111156200016c5782518255916020019190600101906200014f565b5b5090506200017c919062000180565b5090565b5b808211156200019b57600081600090555060010162000181565b5090565b6000620001b6620001b084620002f7565b620002ce565b905082815260208101848484011115620001d557620001d4620004ed565b5b620001e28482856200036b565b509392505050565b600081519050620001fb816200050d565b92915050565b600082601f830112620002195762000218620004e8565b5b81516200022b8482602086016200019f565b91505092915050565b60008060006060848603121562000250576200024f620004f7565b5b600084015167ffffffffffffffff811115620002715762000270620004f2565b5b6200027f8682870162000201565b935050602084015167ffffffffffffffff811115620002a357620002a2620004f2565b5b620002b18682870162000201565b9250506040620002c486828701620001ea565b9150509250925092565b6000620002da620002ed565b9050620002e88282620003d7565b919050565b6000604051905090565b600067ffffffffffffffff821115620003155762000314620004b9565b5b6200032082620004fc565b9050602081019050919050565b60006200033a8262000341565b9050919050565b600073ffffffffffffffffffffffffffffffffffffffff82169050919050565b6000819050919050565b60005b838110156200038b5780820151818401526020810190506200036e565b838111156200039b576000848401525b50505050565b60006002820490506001821680620003ba57607f821691505b60208210811415620003d157620003d06200048a565b5b50919050565b620003e282620004fc565b810181811067ffffffffffffffff82111715620004045762000403620004b9565b5b80604052505050565b60006200041a8262000361565b91507fffffffffffffffffffffffffffffffffffffffffffffffffffffffffffffffff82141562000450576200044f6200045b565b5b600182019050919050565b7f4e487b7100000000000000000000000000000000000000000000000000000000600052601160045260246000fd5b7f4e487b7100000000000000000000000000000000000000000000000000000000600052602260045260246000fd5b7f4e487b7100000000000000000000000000000000000000000000000000000000600052604160045260246000fd5b600080fd5b600080fd5b600080fd5b600080fd5b6000601f19601f8301169050919050565b62000518816200032d565b81146200052457600080fd5b50565b612ba380620005376000396000f3fe6080604052600436106100dd5760003560e01c806369a136dc1161007f578063a230c52411610059578063a230c524146102eb578063ca6d56dc14610328578063da35c66414610351578063e1de9dd91461037c576100dd565b806369a136dc1461025a5780637284e416146102975780639db31bac146102c2576100dd565b80633b4d01a7116100bb5780633b4d01a7146101805780635aef7de6146101c75780635daf08ca146101f257806362564c481461022f576100dd565b8063013cf08b146100e257806306fdde031461012a578063297f9af014610155575b600080fd5b3480156100ee57600080fd5b5061010960048036038101906101049190611f69565b610398565b6040516101219c9b9a99989796959493929190612636565b60405180910390f35b34801561013657600080fd5b5061013f6106ed565b60405161014c91906124c4565b60405180910390f35b34801561016157600080fd5b5061016a61077b565b604051610177919061261b565b60405180910390f35b34801561018c57600080fd5b506101a760048036038101906101a29190611f69565b610781565b6040516101be9b9a999897969594939291906124e6565b60405180910390f35b3480156101d357600080fd5b506101dc610cfd565b6040516101e991906124c4565b60405180910390f35b3480156101fe57600080fd5b5061021960048036038101906102149190611f69565b610d8b565b604051610226919061244a565b60405180910390f35b34801561023b57600080fd5b50610244610dca565b6040516102519190612465565b60405180910390f35b34801561026657600080fd5b50610281600480360381019061027c9190611f69565b61125a565b60405161028e9190612487565b60405180910390f35b3480156102a357600080fd5b506102ac611475565b6040516102b991906124c4565b60405180910390f35b3480156102ce57600080fd5b506102e960048036038101906102e49190611e3b565b611503565b005b3480156102f757600080fd5b50610312600480360381019061030d9190611e0e565b61172d565b60405161031f91906124a9565b60405180910390f35b34801561033457600080fd5b5061034f600480360381019061034a9190611e0e565b6117d9565b005b34801561035d57600080fd5b50610366611857565b604051610373919061261b565b60405180910390f35b61039660048036038101906103919190611f96565b61185d565b005b60056020528060005260406000206000915090508060000154908060010160009054906101000a900473ffffffffffffffffffffffffffffffffffffffff16908060020180546103e7906128fa565b80601f0160208091040260200160405190810160405280929190818152602001828054610413906128fa565b80156104605780601f1061043557610100808354040283529160200191610460565b820191906000526020600020905b81548152906001019060200180831161044357829003601f168201915b505050505090806003018054610475906128fa565b80601f01602080910402602001604051908101604052809291908181526020018280546104a1906128fa565b80156104ee5780601f106104c3576101008083540402835291602001916104ee565b820191906000526020600020905b8154815290600101906020018083116104d157829003601f168201915b5050505050908060040154908060050154908060060160009054906101000a900460ff16908060070154908060080160009054906101000a900473ffffffffffffffffffffffffffffffffffffffff169080600901805461054e906128fa565b80601f016020809104026020016040519081016040528092919081815260200182805461057a906128fa565b80156105c75780601f1061059c576101008083540402835291602001916105c7565b820191906000526020600020905b8154815290600101906020018083116105aa57829003601f168201915b50505050509080600a0180546105dc906128fa565b80601f0160208091040260200160405190810160405280929190818152602001828054610608906128fa565b80156106555780601f1061062a57610100808354040283529160200191610655565b820191906000526020600020905b81548152906001019060200180831161063857829003601f168201915b50505050509080600b01805461066a906128fa565b80601f0160208091040260200160405190810160405280929190818152602001828054610696906128fa565b80156106e35780601f106106b8576101008083540402835291602001916106e3565b820191906000526020600020905b8154815290600101906020018083116106c657829003601f168201915b505050505090508c565b600080546106fa906128fa565b80601f0160208091040260200160405190810160405280929190818152602001828054610726906128fa565b80156107735780601f1061074857610100808354040283529160200191610773565b820191906000526020600020905b81548152906001019060200180831161075657829003601f168201915b505050505081565b60035481565b60608060008060008060006060806060806000600560008e815260200190815260200160002090506000600860008f8152602001908152602001600020805480602002602001604051908101604052809291908181526020016000905b828210156109b957838290600052602060002090600602016040518060c00160405290816000820160009054906101000a900473ffffffffffffffffffffffffffffffffffffffff1673ffffffffffffffffffffffffffffffffffffffff1673ffffffffffffffffffffffffffffffffffffffff168152602001600182015481526020016002820160009054906101000a900460ff1615151515815260200160038201805461088c906128fa565b80601f01602080910402602001604051908101604052809291908181526020018280546108b8906128fa565b80156109055780601f106108da57610100808354040283529160200191610905565b820191906000526020600020905b8154815290600101906020018083116108e857829003601f168201915b5050505050815260200160048201805461091e906128fa565b80601f016020809104026020016040519081016040528092919081815260200182805461094a906128fa565b80156109975780601f1061096c57610100808354040283529160200191610997565b820191906000526020600020905b81548152906001019060200180831161097a57829003601f168201915b50505050508152602001600582015481525050815260200190600101906107de565b5050505090508160020182600301836004015484600501548560060160009054906101000a900460ff1686600701548760010160009054906101000a900473ffffffffffffffffffffffffffffffffffffffff168860090189600a018a600b018a8a8054610a26906128fa565b80601f0160208091040260200160405190810160405280929190818152602001828054610a52906128fa565b8015610a9f5780601f10610a7457610100808354040283529160200191610a9f565b820191906000526020600020905b815481529060010190602001808311610a8257829003601f168201915b50505050509a50898054610ab2906128fa565b80601f0160208091040260200160405190810160405280929190818152602001828054610ade906128fa565b8015610b2b5780601f10610b0057610100808354040283529160200191610b2b565b820191906000526020600020905b815481529060010190602001808311610b0e57829003601f168201915b50505050509950838054610b3e906128fa565b80601f0160208091040260200160405190810160405280929190818152602001828054610b6a906128fa565b8015610bb75780601f10610b8c57610100808354040283529160200191610bb7565b820191906000526020600020905b815481529060010190602001808311610b9a57829003601f168201915b50505050509350828054610bca906128fa565b80601f0160208091040260200160405190810160405280929190818152602001828054610bf6906128fa565b8015610c435780601f10610c1857610100808354040283529160200191610c43565b820191906000526020600020905b815481529060010190602001808311610c2657829003601f168201915b50505050509250818054610c56906128fa565b80601f0160208091040260200160405190810160405280929190818152602001828054610c82906128fa565b8015610ccf5780601f10610ca457610100808354040283529160200191610ccf565b820191906000526020600020905b815481529060010190602001808311610cb257829003601f168201915b505050505091509c509c509c509c509c509c509c509c509c509c509c50505091939597999b90929496989a50565b60048054610d0a906128fa565b80601f0160208091040260200160405190810160405280929190818152602001828054610d36906128fa565b8015610d835780601f10610d5857610100808354040283529160200191610d83565b820191906000526020600020905b815481529060010190602001808311610d6657829003601f168201915b505050505081565b60028181548110610d9b57600080fd5b906000526020600020016000915054906101000a900473ffffffffffffffffffffffffffffffffffffffff1681565b6060600060065467ffffffffffffffff811115610dea57610de9612a33565b5b604051908082528060200260200182016040528015610e2357816020015b610e10611c2d565b815260200190600190039081610e085790505b50905060005b6006548110156112525760006005600083815260200190815260200160002090508060405180610180016040529081600082015481526020016001820160009054906101000a900473ffffffffffffffffffffffffffffffffffffffff1673ffffffffffffffffffffffffffffffffffffffff1673ffffffffffffffffffffffffffffffffffffffff168152602001600282018054610ec7906128fa565b80601f0160208091040260200160405190810160405280929190818152602001828054610ef3906128fa565b8015610f405780601f10610f1557610100808354040283529160200191610f40565b820191906000526020600020905b815481529060010190602001808311610f2357829003601f168201915b50505050508152602001600382018054610f59906128fa565b80601f0160208091040260200160405190810160405280929190818152602001828054610f85906128fa565b8015610fd25780601f10610fa757610100808354040283529160200191610fd2565b820191906000526020600020905b815481529060010190602001808311610fb557829003601f168201915b5050505050815260200160048201548152602001600582015481526020016006820160009054906101000a900460ff16151515158152602001600782015481526020016008820160009054906101000a900473ffffffffffffffffffffffffffffffffffffffff1673ffffffffffffffffffffffffffffffffffffffff1673ffffffffffffffffffffffffffffffffffffffff16815260200160098201805461107a906128fa565b80601f01602080910402602001604051908101604052809291908181526020018280546110a6906128fa565b80156110f35780601f106110c8576101008083540402835291602001916110f3565b820191906000526020600020905b8154815290600101906020018083116110d657829003601f168201915b50505050508152602001600a8201805461110c906128fa565b80601f0160208091040260200160405190810160405280929190818152602001828054611138906128fa565b80156111855780601f1061115a57610100808354040283529160200191611185565b820191906000526020600020905b81548152906001019060200180831161116857829003601f168201915b50505050508152602001600b8201805461119e906128fa565b80601f01602080910402602001604051908101604052809291908181526020018280546111ca906128fa565b80156112175780601f106111ec57610100808354040283529160200191611217565b820191906000526020600020905b8154815290600101906020018083116111fa57829003601f168201915b50505050508152505083838151811061123357611232612a04565b5b602002602001018190525050808061124a9061295d565b915050610e29565b508091505090565b606060086000838152602001908152602001600020805480602002602001604051908101604052809291908181526020016000905b8282101561146a57838290600052602060002090600602016040518060c00160405290816000820160009054906101000a900473ffffffffffffffffffffffffffffffffffffffff1673ffffffffffffffffffffffffffffffffffffffff1673ffffffffffffffffffffffffffffffffffffffff168152602001600182015481526020016002820160009054906101000a900460ff1615151515815260200160038201805461133d906128fa565b80601f0160208091040260200160405190810160405280929190818152602001828054611369906128fa565b80156113b65780601f1061138b576101008083540402835291602001916113b6565b820191906000526020600020905b81548152906001019060200180831161139957829003601f168201915b505050505081526020016004820180546113cf906128fa565b80601f01602080910402602001604051908101604052809291908181526020018280546113fb906128fa565b80156114485780601f1061141d57610100808354040283529160200191611448565b820191906000526020600020905b81548152906001019060200180831161142b57829003601f168201915b505050505081526020016005820154815250508152602001906001019061128f565b505050509050919050565b60018054611482906128fa565b80601f01602080910402602001604051908101604052809291908181526020018280546114ae906128fa565b80156114fb5780601f106114d0576101008083540402835291602001916114fb565b820191906000526020600020905b8154815290600101906020018083116114de57829003601f168201915b505050505081565b60405180610180016040528060065481526020018873ffffffffffffffffffffffffffffffffffffffff1681526020018781526020018681526020016000815260200160008152602001600015158152602001600081526020018573ffffffffffffffffffffffffffffffffffffffff168152602001848152602001838152602001828152506005600060065481526020019081526020016000206000820151816000015560208201518160010160006101000a81548173ffffffffffffffffffffffffffffffffffffffff021916908373ffffffffffffffffffffffffffffffffffffffff160217905550604082015181600201908051906020019061160b929190611cbc565b506060820151816003019080519060200190611628929190611cbc565b506080820151816004015560a0820151816005015560c08201518160060160006101000a81548160ff02191690831515021790555060e082015181600701556101008201518160080160006101000a81548173ffffffffffffffffffffffffffffffffffffffff021916908373ffffffffffffffffffffffffffffffffffffffff1602179055506101208201518160090190805190602001906116cc929190611cbc565b5061014082015181600a0190805190602001906116ea929190611cbc565b5061016082015181600b019080519060200190611708929190611cbc565b509050506006600081548092919061171f9061295d565b919050555050505050505050565b600080600090505b6003548110156117ce578273ffffffffffffffffffffffffffffffffffffffff166002828154811061176a57611769612a04565b5b9060005260206000200160009054906101000a900473ffffffffffffffffffffffffffffffffffffffff1673ffffffffffffffffffffffffffffffffffffffff1614156117bb5760019150506117d4565b80806117c69061295d565b915050611735565b50600090505b919050565b6002819080600181540180825580915050600190039060005260206000200160009091909190916101000a81548173ffffffffffffffffffffffffffffffffffffffff021916908373ffffffffffffffffffffffffffffffffffffffff1602179055506003600081548092919061184f9061295d565b919050555050565b60065481565b6118663361172d565b6118a5576040517f08c379a000000000000000000000000000000000000000000000000000000000815260040161189c906125db565b60405180910390fd5b60006005600086815260200190815260200160002090508060060160009054906101000a900460ff161561190e576040517f08c379a0000000000000000000000000000000000000000000000000000000008152600401611905906125fb565b60405180910390fd5b6000600760003373ffffffffffffffffffffffffffffffffffffffff1673ffffffffffffffffffffffffffffffffffffffff16815260200190815260200160002080548060200260200160405190810160405280929190818152602001828054801561199957602002820191906000526020600020905b815481526020019060010190808311611985575b5050505050905060005b8151811015611a20578181815181106119bf576119be612a04565b5b602002602001015183600001541415611a0d576040517f08c379a0000000000000000000000000000000000000000000000000000000008152600401611a04906125bb565b60405180910390fd5b8080611a189061295d565b9150506119a3565b506000341115611a6457816004016000815480929190611a3f9061295d565b919050555034826007016000828254611a589190612808565b92505081905550611a7f565b816005016000815480929190611a799061295d565b91905055505b600760003373ffffffffffffffffffffffffffffffffffffffff1673ffffffffffffffffffffffffffffffffffffffff1681526020019081526020016000208260000154908060018154018082558091505060019003906000526020600020016000909190919091505560086000836000015481526020019081526020016000206040518060c001604052803373ffffffffffffffffffffffffffffffffffffffff168152602001428152602001871515815260200186815260200185815260200134815250908060018154018082558091505060019003906000526020600020906006020160009091909190915060008201518160000160006101000a81548173ffffffffffffffffffffffffffffffffffffffff021916908373ffffffffffffffffffffffffffffffffffffffff1602179055506020820151816001015560408201518160020160006101000a81548160ff0219169083151502179055506060820151816003019080519060200190611bfb929190611cbc565b506080820151816004019080519060200190611c18929190611cbc565b5060a082015181600501555050505050505050565b60405180610180016040528060008152602001600073ffffffffffffffffffffffffffffffffffffffff1681526020016060815260200160608152602001600081526020016000815260200160001515815260200160008152602001600073ffffffffffffffffffffffffffffffffffffffff1681526020016060815260200160608152602001606081525090565b828054611cc8906128fa565b90600052602060002090601f016020900481019282611cea5760008555611d31565b82601f10611d0357805160ff1916838001178555611d31565b82800160010185558215611d31579182015b82811115611d30578251825591602001919060010190611d15565b5b509050611d3e9190611d42565b5090565b5b80821115611d5b576000816000905550600101611d43565b5090565b6000611d72611d6d84612738565b612713565b905082815260208101848484011115611d8e57611d8d612a67565b5b611d998482856128b8565b509392505050565b600081359050611db081612b28565b92915050565b600081359050611dc581612b3f565b92915050565b600082601f830112611de057611ddf612a62565b5b8135611df0848260208601611d5f565b91505092915050565b600081359050611e0881612b56565b92915050565b600060208284031215611e2457611e23612a71565b5b6000611e3284828501611da1565b91505092915050565b600080600080600080600060e0888a031215611e5a57611e59612a71565b5b6000611e688a828b01611da1565b975050602088013567ffffffffffffffff811115611e8957611e88612a6c565b5b611e958a828b01611dcb565b965050604088013567ffffffffffffffff811115611eb657611eb5612a6c565b5b611ec28a828b01611dcb565b9550506060611ed38a828b01611da1565b945050608088013567ffffffffffffffff811115611ef457611ef3612a6c565b5b611f008a828b01611dcb565b93505060a088013567ffffffffffffffff811115611f2157611f20612a6c565b5b611f2d8a828b01611dcb565b92505060c088013567ffffffffffffffff811115611f4e57611f4d612a6c565b5b611f5a8a828b01611dcb565b91505092959891949750929550565b600060208284031215611f7f57611f7e612a71565b5b6000611f8d84828501611df9565b91505092915050565b60008060008060808587031215611fb057611faf612a71565b5b6000611fbe87828801611df9565b9450506020611fcf87828801611db6565b935050604085013567ffffffffffffffff811115611ff057611fef612a6c565b5b611ffc87828801611dcb565b925050606085013567ffffffffffffffff81111561201d5761201c612a6c565b5b61202987828801611dcb565b91505092959194509250565b6000612041838361227c565b905092915050565b6000612055838361239c565b905092915050565b61206681612870565b82525050565b61207581612870565b82525050565b6120848161285e565b82525050565b6120938161285e565b82525050565b60006120a482612789565b6120ae81856127c4565b9350836020820285016120c085612769565b8060005b858110156120fc57848403895281516120dd8582612035565b94506120e8836127aa565b925060208a019950506001810190506120c4565b50829750879550505050505092915050565b600061211982612794565b61212381856127d5565b93508360208202850161213585612779565b8060005b8581101561217157848403895281516121528582612049565b945061215d836127b7565b925060208a01995050600181019050612139565b50829750879550505050505092915050565b61218c81612882565b82525050565b61219b81612882565b82525050565b60006121ac8261279f565b6121b681856127e6565b93506121c68185602086016128c7565b6121cf81612a76565b840191505092915050565b60006121e58261279f565b6121ef81856127f7565b93506121ff8185602086016128c7565b61220881612a76565b840191505092915050565b60006122206019836127f7565b915061222b82612a87565b602082019050919050565b60006122436015836127f7565b915061224e82612ab0565b602082019050919050565b60006122666022836127f7565b915061227182612ad9565b604082019050919050565b600061018083016000830151612295600086018261242c565b5060208301516122a8602086018261207b565b50604083015184820360408601526122c082826121a1565b915050606083015184820360608601526122da82826121a1565b91505060808301516122ef608086018261242c565b5060a083015161230260a086018261242c565b5060c083015161231560c0860182612183565b5060e083015161232860e086018261242c565b5061010083015161233d61010086018261205d565b5061012083015184820361012086015261235782826121a1565b91505061014083015184820361014086015261237382826121a1565b91505061016083015184820361016086015261238f82826121a1565b9150508091505092915050565b600060c0830160008301516123b4600086018261207b565b5060208301516123c7602086018261242c565b5060408301516123da6040860182612183565b50606083015184820360608601526123f282826121a1565b9150506080830151848203608086015261240c82826121a1565b91505060a083015161242160a086018261242c565b508091505092915050565b612435816128ae565b82525050565b612444816128ae565b82525050565b600060208201905061245f600083018461208a565b92915050565b6000602082019050818103600083015261247f8184612099565b905092915050565b600060208201905081810360008301526124a1818461210e565b905092915050565b60006020820190506124be6000830184612192565b92915050565b600060208201905081810360008301526124de81846121da565b905092915050565b6000610160820190508181036000830152612501818e6121da565b90508181036020830152612515818d6121da565b9050612524604083018c61243b565b612531606083018b61243b565b61253e608083018a612192565b61254b60a083018961243b565b61255860c083018861208a565b81810360e083015261256a81876121da565b905081810361010083015261257f81866121da565b905081810361012083015261259481856121da565b90508181036101408301526125a9818461210e565b90509c9b505050505050505050505050565b600060208201905081810360008301526125d481612213565b9050919050565b600060208201905081810360008301526125f481612236565b9050919050565b6000602082019050818103600083015261261481612259565b9050919050565b6000602082019050612630600083018461243b565b92915050565b60006101808201905061264c600083018f61243b565b612659602083018e61208a565b818103604083015261266b818d6121da565b9050818103606083015261267f818c6121da565b905061268e608083018b61243b565b61269b60a083018a61243b565b6126a860c0830189612192565b6126b560e083018861243b565b6126c361010083018761206c565b8181036101208301526126d681866121da565b90508181036101408301526126eb81856121da565b905081810361016083015261270081846121da565b90509d9c50505050505050505050505050565b600061271d61272e565b9050612729828261292c565b919050565b6000604051905090565b600067ffffffffffffffff82111561275357612752612a33565b5b61275c82612a76565b9050602081019050919050565b6000819050602082019050919050565b6000819050602082019050919050565b600081519050919050565b600081519050919050565b600081519050919050565b6000602082019050919050565b6000602082019050919050565b600082825260208201905092915050565b600082825260208201905092915050565b600082825260208201905092915050565b600082825260208201905092915050565b6000612813826128ae565b915061281e836128ae565b9250827fffffffffffffffffffffffffffffffffffffffffffffffffffffffffffffffff03821115612853576128526129a6565b5b828201905092915050565b60006128698261288e565b9050919050565b600061287b8261288e565b9050919050565b60008115159050919050565b600073ffffffffffffffffffffffffffffffffffffffff82169050919050565b6000819050919050565b82818337600083830152505050565b60005b838110156128e55780820151818401526020810190506128ca565b838111156128f4576000848401525b50505050565b6000600282049050600182168061291257607f821691505b60208210811415612926576129256129d5565b5b50919050565b61293582612a76565b810181811067ffffffffffffffff8211171561295457612953612a33565b5b80604052505050565b6000612968826128ae565b91507fffffffffffffffffffffffffffffffffffffffffffffffffffffffffffffffff82141561299b5761299a6129a6565b5b600182019050919050565b7f4e487b7100000000000000000000000000000000000000000000000000000000600052601160045260246000fd5b7f4e487b7100000000000000000000000000000000000000000000000000000000600052602260045260246000fd5b7f4e487b7100000000000000000000000000000000000000000000000000000000600052603260045260246000fd5b7f4e487b7100000000000000000000000000000000000000000000000000000000600052604160045260246000fd5b600080fd5b600080fd5b600080fd5b600080fd5b6000601f19601f8301169050919050565b7f446f75626c6520766f74696e67206e6f7420616c6c6f77656400000000000000600082015250565b7f4f6e6c79206d656d626572732063616e20766f74650000000000000000000000600082015250565b7f50726f706f73616c2068617320616c7265616479206265656e2065786563757460008201527f6564000000000000000000000000000000000000000000000000000000000000602082015250565b612b318161285e565b8114612b3c57600080fd5b50565b612b4881612882565b8114612b5357600080fd5b50565b612b5f816128ae565b8114612b6a57600080fd5b5056fea264697066735822122026a716789c519ad4f6e70abeae60070e866b7ea11712566a66ca1ec843f30fe364736f6c63430008070033",
  "immutableReferences": {},
  "source": "// SPDX-License-Identifier: MIT\npragma solidity ^0.8.7;\n\ncontract DAO {\n    struct Proposal {\n        uint256 id;\n        address initiator;\n        string title;\n        string description;\n        uint256 votesFor;\n        uint256 votesAgainst;\n        bool executed;\n        uint256 amount;\n        address payable beneficiary;\n        string user_avatar;\n        string start;\n        string end;\n    }\n    struct VotedStruct {\n        address voter;\n        uint256 timestamp;\n        bool choice;\n        string username;\n        string user_avatar;\n        uint256 sum;\n    }\n\n    string public name;\n    string public description;\n    address[] public members;\n    uint256 public membersCount;\n    string public avatar;\n\n    mapping(uint256 => Proposal) public proposals;\n    uint256 public proposalCount;\n    mapping(address => uint256[]) private stakeholderVotes;\n    mapping(uint256 => VotedStruct[]) private votedOn;\n\n    constructor(string memory _name, string memory _description, address _initiator) {\n        name = _name;\n        description = _description;\n        members.push(_initiator);\n        membersCount++;\n    }\n\n    function addMember(address _member) public {\n        members.push(_member);\n        membersCount++;\n    }\n\n    function createProposal(\n        address _initiator,\n        string memory _title,\n        string memory _description,\n        address beneficiary,\n        string memory _user_avatar,\n        string memory _start,\n        string memory _end\n    ) public {\n        proposals[proposalCount] = Proposal(\n            proposalCount,\n            _initiator,\n            _title,\n            _description,\n            0,\n            0,\n            false,\n            0,\n            payable(beneficiary),\n            _user_avatar,\n            _start,\n            _end\n        );\n        proposalCount++;\n    }\n\n    function getProposals() public view returns (Proposal[] memory) {\n        Proposal[] memory daoProposals = new Proposal[](proposalCount);\n\n        for (uint256 i = 0; i < proposalCount; i++) {\n            Proposal storage proposal = proposals[i];\n            daoProposals[i] = proposal;\n        }\n\n        return daoProposals;\n    }\n\n    function vote(uint256 _proposalId, bool choice, string memory username, string memory user_avatar) payable public {\n        require(isMember(msg.sender), \"Only members can vote\");\n        Proposal storage proposal = proposals[_proposalId];\n        require(!proposal.executed, \"Proposal has already been executed\");\n        uint256[] memory tempVotes = stakeholderVotes[msg.sender];\n        for (uint256 v = 0; v < tempVotes.length; v++) {\n            if (proposal.id == tempVotes[v])\n                revert(\"Double voting not allowed\");\n        }\n\n        if (msg.value > 0) {\n            proposal.votesFor++;\n            proposal.amount += msg.value;\n        } else {\n            proposal.votesAgainst++;\n        }\n        stakeholderVotes[msg.sender].push(proposal.id);\n        votedOn[proposal.id].push(\n            VotedStruct(\n                msg.sender,\n                block.timestamp,\n                choice,\n                username,\n                user_avatar,\n                msg.value\n            )\n        );\n    }\n\n    function getVotesOf(uint256 proposalId)\n        external\n        view\n        returns (VotedStruct[] memory)\n    {\n        return votedOn[proposalId];\n    }\n\n    function isMember(address _member) public view returns (bool) {\n        for (uint256 i = 0; i < membersCount; i++) {\n            if (members[i] == _member) {\n                return true;\n            }\n        }\n        return false;\n    }\n\n    function getProposalDetails(uint256 _proposalId)\n        public view returns (string memory, string memory, uint256, uint256, bool, uint256, address, string memory, string memory, string memory, VotedStruct[] memory) {\n        Proposal storage proposal = proposals[_proposalId];\n        VotedStruct[] memory votes = votedOn[_proposalId];\n        return (\n            proposal.title,\n            proposal.description,\n            proposal.votesFor,\n            proposal.votesAgainst,\n            proposal.executed,\n            proposal.amount,\n            proposal.initiator,\n            proposal.user_avatar,\n            proposal.start,\n            proposal.end,\n            votes\n        );\n    }\n\n//    function executeProposal(uint256 _proposalId) public {\n//        Proposal storage proposal = proposals[_proposalId];\n//        require(!proposal.executed, \"Proposal has already been executed\");\n//        require(proposal.votesFor >= quorum, \"Proposal does not have enough support\");\n//\n//        proposal.executed = true;\n//        // execute proposal code here\n    // }\n}\n",
  "sourcePath": "/Users/ilyatorch/AragonProjects/dominionDAOV2/src/contracts/DAO.sol",
  "compiler": {
    "name": "solc",
    "version": "0.8.7+commit.e28d00a7.Emscripten.clang"
  },
  "schemaVersion": "3.4.10",
  "updatedAt": "2023-10-15T14:04:39.806Z",
  "devdoc": {
    "kind": "dev",
    "methods": {},
    "version": 1
  },
  "userdoc": {
    "kind": "user",
    "methods": {},
    "version": 1
  }
}