{
  "contractName": "DAO",
  "abi": [
    {
      "inputs": [
        {
          "internalType": "string",
          "name": "_name",
          "type": "string"
        },
        {
          "internalType": "string",
          "name": "_description",
          "type": "string"
        },
        {
          "internalType": "string",
          "name": "_scope",
          "type": "string"
        },
        {
          "internalType": "address",
          "name": "_initiator",
          "type": "address"
        },
        {
          "internalType": "string",
          "name": "_start",
          "type": "string"
        },
        {
          "internalType": "string",
          "name": "_end",
          "type": "string"
        }
      ],
      "stateMutability": "nonpayable",
      "type": "constructor"
    },
    {
      "inputs": [],
      "name": "avatar",
      "outputs": [
        {
          "internalType": "string",
          "name": "",
          "type": "string"
        }
      ],
      "stateMutability": "view",
      "type": "function"
    },
    {
      "inputs": [],
      "name": "description",
      "outputs": [
        {
          "internalType": "string",
          "name": "",
          "type": "string"
        }
      ],
      "stateMutability": "view",
      "type": "function"
    },
    {
      "inputs": [
        {
          "internalType": "uint256",
          "name": "",
          "type": "uint256"
        }
      ],
      "name": "members",
      "outputs": [
        {
          "internalType": "address",
          "name": "",
          "type": "address"
        }
      ],
      "stateMutability": "view",
      "type": "function"
    },
    {
      "inputs": [],
      "name": "membersCount",
      "outputs": [
        {
          "internalType": "uint256",
          "name": "",
          "type": "uint256"
        }
      ],
      "stateMutability": "view",
      "type": "function"
    },
    {
      "inputs": [],
      "name": "name",
      "outputs": [
        {
          "internalType": "string",
          "name": "",
          "type": "string"
        }
      ],
      "stateMutability": "view",
      "type": "function"
    },
    {
      "inputs": [],
      "name": "proposalCount",
      "outputs": [
        {
          "internalType": "uint256",
          "name": "",
          "type": "uint256"
        }
      ],
      "stateMutability": "view",
      "type": "function"
    },
    {
      "inputs": [
        {
          "internalType": "uint256",
          "name": "",
          "type": "uint256"
        }
      ],
      "name": "proposals",
      "outputs": [
        {
          "internalType": "uint256",
          "name": "id",
          "type": "uint256"
        },
        {
          "internalType": "address",
          "name": "initiator",
          "type": "address"
        },
        {
          "internalType": "string",
          "name": "title",
          "type": "string"
        },
        {
          "internalType": "string",
          "name": "description",
          "type": "string"
        },
        {
          "internalType": "uint256",
          "name": "votesFor",
          "type": "uint256"
        },
        {
          "internalType": "uint256",
          "name": "votesAgainst",
          "type": "uint256"
        },
        {
          "internalType": "bool",
          "name": "executed",
          "type": "bool"
        },
        {
          "internalType": "uint256",
          "name": "amount",
          "type": "uint256"
        },
        {
          "internalType": "address payable",
          "name": "beneficiary",
          "type": "address"
        },
        {
          "internalType": "string",
          "name": "start",
          "type": "string"
        },
        {
          "internalType": "string",
          "name": "end",
          "type": "string"
        },
        {
          "internalType": "uint256",
          "name": "state",
          "type": "uint256"
        }
      ],
      "stateMutability": "view",
      "type": "function"
    },
    {
      "inputs": [],
      "name": "scope",
      "outputs": [
        {
          "internalType": "string",
          "name": "",
          "type": "string"
        }
      ],
      "stateMutability": "view",
      "type": "function"
    },
    {
      "inputs": [
        {
          "internalType": "address",
          "name": "_member",
          "type": "address"
        }
      ],
      "name": "addMember",
      "outputs": [],
      "stateMutability": "nonpayable",
      "type": "function"
    },
    {
      "inputs": [
        {
          "internalType": "address",
          "name": "_initiator",
          "type": "address"
        },
        {
          "internalType": "string",
          "name": "_title",
          "type": "string"
        },
        {
          "internalType": "string",
          "name": "_description",
          "type": "string"
        },
        {
          "internalType": "address",
          "name": "beneficiary",
          "type": "address"
        },
        {
          "internalType": "string",
          "name": "_start",
          "type": "string"
        },
        {
          "internalType": "string",
          "name": "_end",
          "type": "string"
        },
        {
          "internalType": "bool",
          "name": "_executed",
          "type": "bool"
        }
      ],
      "name": "createProposal",
      "outputs": [],
      "stateMutability": "nonpayable",
      "type": "function"
    },
    {
      "inputs": [],
      "name": "getProposals",
      "outputs": [
        {
          "components": [
            {
              "internalType": "uint256",
              "name": "id",
              "type": "uint256"
            },
            {
              "internalType": "address",
              "name": "initiator",
              "type": "address"
            },
            {
              "internalType": "string",
              "name": "title",
              "type": "string"
            },
            {
              "internalType": "string",
              "name": "description",
              "type": "string"
            },
            {
              "internalType": "uint256",
              "name": "votesFor",
              "type": "uint256"
            },
            {
              "internalType": "uint256",
              "name": "votesAgainst",
              "type": "uint256"
            },
            {
              "internalType": "bool",
              "name": "executed",
              "type": "bool"
            },
            {
              "internalType": "uint256",
              "name": "amount",
              "type": "uint256"
            },
            {
              "internalType": "address payable",
              "name": "beneficiary",
              "type": "address"
            },
            {
              "internalType": "string",
              "name": "start",
              "type": "string"
            },
            {
              "internalType": "string",
              "name": "end",
              "type": "string"
            },
            {
              "internalType": "uint256",
              "name": "state",
              "type": "uint256"
            }
          ],
          "internalType": "struct DAO.Proposal[]",
          "name": "",
          "type": "tuple[]"
        }
      ],
      "stateMutability": "view",
      "type": "function"
    },
    {
      "inputs": [
        {
          "internalType": "uint256",
          "name": "_proposalId",
          "type": "uint256"
        },
        {
          "internalType": "bool",
          "name": "choice",
          "type": "bool"
        },
        {
          "internalType": "string",
          "name": "username",
          "type": "string"
        },
        {
          "internalType": "address",
          "name": "user_addr",
          "type": "address"
        }
      ],
      "name": "vote",
      "outputs": [],
      "stateMutability": "payable",
      "type": "function"
    },
    {
      "inputs": [
        {
          "internalType": "uint256",
          "name": "_proposalId",
          "type": "uint256"
        },
        {
          "internalType": "bool",
          "name": "choice",
          "type": "bool"
        },
        {
          "internalType": "string",
          "name": "username",
          "type": "string"
        },
        {
          "internalType": "address",
          "name": "user_addr",
          "type": "address"
        }
      ],
      "name": "voteFake",
      "outputs": [],
      "stateMutability": "payable",
      "type": "function"
    },
    {
      "inputs": [
        {
          "internalType": "uint256",
          "name": "proposalId",
          "type": "uint256"
        }
      ],
      "name": "getVotesOf",
      "outputs": [
        {
          "components": [
            {
              "internalType": "address",
              "name": "voter",
              "type": "address"
            },
            {
              "internalType": "uint256",
              "name": "timestamp",
              "type": "uint256"
            },
            {
              "internalType": "bool",
              "name": "choice",
              "type": "bool"
            },
            {
              "internalType": "string",
              "name": "username",
              "type": "string"
            },
            {
              "internalType": "address",
              "name": "user_addr",
              "type": "address"
            },
            {
              "internalType": "uint256",
              "name": "sum",
              "type": "uint256"
            }
          ],
          "internalType": "struct DAO.VotedStruct[]",
          "name": "",
          "type": "tuple[]"
        }
      ],
      "stateMutability": "view",
      "type": "function"
    },
    {
      "inputs": [
        {
          "internalType": "address",
          "name": "_member",
          "type": "address"
        }
      ],
      "name": "isMember",
      "outputs": [
        {
          "internalType": "bool",
          "name": "",
          "type": "bool"
        }
      ],
      "stateMutability": "view",
      "type": "function"
    },
    {
      "inputs": [
        {
          "internalType": "uint256",
          "name": "_proposalId",
          "type": "uint256"
        }
      ],
      "name": "getProposalDetails",
      "outputs": [
        {
          "internalType": "string",
          "name": "",
          "type": "string"
        },
        {
          "internalType": "string",
          "name": "",
          "type": "string"
        },
        {
          "internalType": "uint256",
          "name": "",
          "type": "uint256"
        },
        {
          "internalType": "uint256",
          "name": "",
          "type": "uint256"
        },
        {
          "internalType": "bool",
          "name": "",
          "type": "bool"
        },
        {
          "internalType": "uint256",
          "name": "",
          "type": "uint256"
        },
        {
          "internalType": "address",
          "name": "",
          "type": "address"
        },
        {
          "internalType": "string",
          "name": "",
          "type": "string"
        },
        {
          "internalType": "string",
          "name": "",
          "type": "string"
        },
        {
          "internalType": "uint256",
          "name": "",
          "type": "uint256"
        },
        {
          "components": [
            {
              "internalType": "address",
              "name": "voter",
              "type": "address"
            },
            {
              "internalType": "uint256",
              "name": "timestamp",
              "type": "uint256"
            },
            {
              "internalType": "bool",
              "name": "choice",
              "type": "bool"
            },
            {
              "internalType": "string",
              "name": "username",
              "type": "string"
            },
            {
              "internalType": "address",
              "name": "user_addr",
              "type": "address"
            },
            {
              "internalType": "uint256",
              "name": "sum",
              "type": "uint256"
            }
          ],
          "internalType": "struct DAO.VotedStruct[]",
          "name": "",
          "type": "tuple[]"
        }
      ],
      "stateMutability": "view",
      "type": "function"
    },
    {
      "inputs": [
        {
          "internalType": "uint256",
          "name": "_proposalId",
          "type": "uint256"
        },
        {
          "internalType": "uint256",
          "name": "_state",
          "type": "uint256"
        }
      ],
      "name": "setProposalState",
      "outputs": [],
      "stateMutability": "nonpayable",
      "type": "function"
    }
  ],
  "bytecode": "0x60806040523480156200001157600080fd5b50604051620033d0380380620033d0833981810160405281019062000037919062000469565b85600090805190602001906200004f92919062000324565b5084600190805190602001906200006892919062000324565b5083600290805190602001906200008192919062000324565b506003839080600181540180825580915050600190039060005260206000200160009091909190916101000a81548173ffffffffffffffffffffffffffffffffffffffff021916908373ffffffffffffffffffffffffffffffffffffffff16021790555060046000815480929190620000fa90620006df565b919050555060405180610180016040528060075481526020018473ffffffffffffffffffffffffffffffffffffffff1681526020018781526020018681526020016000815260200160008152602001600015158152602001600081526020018473ffffffffffffffffffffffffffffffffffffffff16815260200183815260200182815260200160008152506006600060075481526020019081526020016000206000820151816000015560208201518160010160006101000a81548173ffffffffffffffffffffffffffffffffffffffff021916908373ffffffffffffffffffffffffffffffffffffffff16021790555060408201518160020190805190602001906200020a92919062000324565b5060608201518160030190805190602001906200022992919062000324565b506080820151816004015560a0820151816005015560c08201518160060160006101000a81548160ff02191690831515021790555060e082015181600701556101008201518160080160006101000a81548173ffffffffffffffffffffffffffffffffffffffff021916908373ffffffffffffffffffffffffffffffffffffffff160217905550610120820151816009019080519060200190620002cf92919062000324565b5061014082015181600a019080519060200190620002ef92919062000324565b5061016082015181600b0155905050600760008154809291906200031390620006df565b9190505550505050505050620007f9565b828054620003329062000673565b90600052602060002090601f016020900481019282620003565760008555620003a2565b82601f106200037157805160ff1916838001178555620003a2565b82800160010185558215620003a2579182015b82811115620003a157825182559160200191906001019062000384565b5b509050620003b19190620003b5565b5090565b5b80821115620003d0576000816000905550600101620003b6565b5090565b6000620003eb620003e584620005c9565b620005a0565b9050828152602081018484840111156200040a5762000409620007bf565b5b620004178482856200063d565b509392505050565b6000815190506200043081620007df565b92915050565b600082601f8301126200044e576200044d620007ba565b5b815162000460848260208601620003d4565b91505092915050565b60008060008060008060c08789031215620004895762000488620007c9565b5b600087015167ffffffffffffffff811115620004aa57620004a9620007c4565b5b620004b889828a0162000436565b965050602087015167ffffffffffffffff811115620004dc57620004db620007c4565b5b620004ea89828a0162000436565b955050604087015167ffffffffffffffff8111156200050e576200050d620007c4565b5b6200051c89828a0162000436565b94505060606200052f89828a016200041f565b935050608087015167ffffffffffffffff811115620005535762000552620007c4565b5b6200056189828a0162000436565b92505060a087015167ffffffffffffffff811115620005855762000584620007c4565b5b6200059389828a0162000436565b9150509295509295509295565b6000620005ac620005bf565b9050620005ba8282620006a9565b919050565b6000604051905090565b600067ffffffffffffffff821115620005e757620005e66200078b565b5b620005f282620007ce565b9050602081019050919050565b60006200060c8262000613565b9050919050565b600073ffffffffffffffffffffffffffffffffffffffff82169050919050565b6000819050919050565b60005b838110156200065d57808201518184015260208101905062000640565b838111156200066d576000848401525b50505050565b600060028204905060018216806200068c57607f821691505b60208210811415620006a357620006a26200075c565b5b50919050565b620006b482620007ce565b810181811067ffffffffffffffff82111715620006d657620006d56200078b565b5b80604052505050565b6000620006ec8262000633565b91507fffffffffffffffffffffffffffffffffffffffffffffffffffffffffffffffff8214156200072257620007216200072d565b5b600182019050919050565b7f4e487b7100000000000000000000000000000000000000000000000000000000600052601160045260246000fd5b7f4e487b7100000000000000000000000000000000000000000000000000000000600052602260045260246000fd5b7f4e487b7100000000000000000000000000000000000000000000000000000000600052604160045260246000fd5b600080fd5b600080fd5b600080fd5b600080fd5b6000601f19601f8301169050919050565b620007ea81620005ff565b8114620007f657600080fd5b50565b612bc780620008096000396000f3fe6080604052600436106100fe5760003560e01c806369a136dc116100955780639339a8b8116100645780639339a8b814610360578063a230c5241461037c578063ca6d56dc146103b9578063da35c664146103e2578063f5fe72ff1461040d576100fe565b806369a136dc146102a45780636e62d0a8146102e15780637284e4161461030c5780638b027c4714610337576100fe565b80633b4d01a7116100d15780633b4d01a7146101ca5780635aef7de6146102115780635daf08ca1461023c57806362564c4814610279576100fe565b8063013cf08b1461010357806306fdde031461014b5780631e9608a814610176578063297f9af01461019f575b600080fd5b34801561010f57600080fd5b5061012a60048036038101906101259190612083565b610429565b6040516101429c9b9a999897969594939291906126d9565b60405180910390f35b34801561015757600080fd5b506101606106f6565b60405161016d91906125ae565b60405180910390f35b34801561018257600080fd5b5061019d60048036038101906101989190612133565b610784565b005b3480156101ab57600080fd5b506101b46107a9565b6040516101c191906126be565b60405180910390f35b3480156101d657600080fd5b506101f160048036038101906101ec9190612083565b6107af565b6040516102089b9a999897969594939291906125d0565b60405180910390f35b34801561021d57600080fd5b50610226610c65565b60405161023391906125ae565b60405180910390f35b34801561024857600080fd5b50610263600480360381019061025e9190612083565b610cf3565b6040516102709190612534565b60405180910390f35b34801561028557600080fd5b5061028e610d32565b60405161029b919061254f565b60405180910390f35b3480156102b057600080fd5b506102cb60048036038101906102c69190612083565b61113a565b6040516102d89190612571565b60405180910390f35b3480156102ed57600080fd5b506102f6611319565b60405161030391906125ae565b60405180910390f35b34801561031857600080fd5b506103216113a7565b60405161032e91906125ae565b60405180910390f35b34801561034357600080fd5b5061035e60048036038101906103599190611f71565b611435565b005b61037a600480360381019061037591906120b0565b61164c565b005b34801561038857600080fd5b506103a3600480360381019061039e9190611f44565b6118bd565b6040516103b09190612593565b60405180910390f35b3480156103c557600080fd5b506103e060048036038101906103db9190611f44565b611969565b005b3480156103ee57600080fd5b506103f76119e7565b60405161040491906126be565b60405180910390f35b610427600480360381019061042291906120b0565b6119ed565b005b60066020528060005260406000206000915090508060000154908060010160009054906101000a900473ffffffffffffffffffffffffffffffffffffffff169080600201805461047890612996565b80601f01602080910402602001604051908101604052809291908181526020018280546104a490612996565b80156104f15780601f106104c6576101008083540402835291602001916104f1565b820191906000526020600020905b8154815290600101906020018083116104d457829003601f168201915b50505050509080600301805461050690612996565b80601f016020809104026020016040519081016040528092919081815260200182805461053290612996565b801561057f5780601f106105545761010080835404028352916020019161057f565b820191906000526020600020905b81548152906001019060200180831161056257829003601f168201915b5050505050908060040154908060050154908060060160009054906101000a900460ff16908060070154908060080160009054906101000a900473ffffffffffffffffffffffffffffffffffffffff16908060090180546105df90612996565b80601f016020809104026020016040519081016040528092919081815260200182805461060b90612996565b80156106585780601f1061062d57610100808354040283529160200191610658565b820191906000526020600020905b81548152906001019060200180831161063b57829003601f168201915b50505050509080600a01805461066d90612996565b80601f016020809104026020016040519081016040528092919081815260200182805461069990612996565b80156106e65780601f106106bb576101008083540402835291602001916106e6565b820191906000526020600020905b8154815290600101906020018083116106c957829003601f168201915b50505050509080600b015490508c565b6000805461070390612996565b80601f016020809104026020016040519081016040528092919081815260200182805461072f90612996565b801561077c5780601f106107515761010080835404028352916020019161077c565b820191906000526020600020905b81548152906001019060200180831161075f57829003601f168201915b505050505081565b60006006600084815260200190815260200160002090508181600b0181905550505050565b60045481565b6060806000806000806000606080600060606000600660008e815260200190815260200160002090506000600960008f8152602001908152602001600020805480602002602001604051908101604052809291908181526020016000905b828210156109ac57838290600052602060002090600602016040518060c00160405290816000820160009054906101000a900473ffffffffffffffffffffffffffffffffffffffff1673ffffffffffffffffffffffffffffffffffffffff1673ffffffffffffffffffffffffffffffffffffffff168152602001600182015481526020016002820160009054906101000a900460ff161515151581526020016003820180546108bb90612996565b80601f01602080910402602001604051908101604052809291908181526020018280546108e790612996565b80156109345780601f1061090957610100808354040283529160200191610934565b820191906000526020600020905b81548152906001019060200180831161091757829003601f168201915b505050505081526020016004820160009054906101000a900473ffffffffffffffffffffffffffffffffffffffff1673ffffffffffffffffffffffffffffffffffffffff1673ffffffffffffffffffffffffffffffffffffffff1681526020016005820154815250508152602001906001019061080d565b5050505090508160020182600301836004015484600501548560060160009054906101000a900460ff1686600701548760010160009054906101000a900473ffffffffffffffffffffffffffffffffffffffff168860090189600a018a600b01548a8a8054610a1a90612996565b80601f0160208091040260200160405190810160405280929190818152602001828054610a4690612996565b8015610a935780601f10610a6857610100808354040283529160200191610a93565b820191906000526020600020905b815481529060010190602001808311610a7657829003601f168201915b50505050509a50898054610aa690612996565b80601f0160208091040260200160405190810160405280929190818152602001828054610ad290612996565b8015610b1f5780601f10610af457610100808354040283529160200191610b1f565b820191906000526020600020905b815481529060010190602001808311610b0257829003601f168201915b50505050509950838054610b3290612996565b80601f0160208091040260200160405190810160405280929190818152602001828054610b5e90612996565b8015610bab5780601f10610b8057610100808354040283529160200191610bab565b820191906000526020600020905b815481529060010190602001808311610b8e57829003601f168201915b50505050509350828054610bbe90612996565b80601f0160208091040260200160405190810160405280929190818152602001828054610bea90612996565b8015610c375780601f10610c0c57610100808354040283529160200191610c37565b820191906000526020600020905b815481529060010190602001808311610c1a57829003601f168201915b505050505092509c509c509c509c509c509c509c509c509c509c509c50505091939597999b90929496989a50565b60058054610c7290612996565b80601f0160208091040260200160405190810160405280929190818152602001828054610c9e90612996565b8015610ceb5780601f10610cc057610100808354040283529160200191610ceb565b820191906000526020600020905b815481529060010190602001808311610cce57829003601f168201915b505050505081565b60038181548110610d0357600080fd5b906000526020600020016000915054906101000a900473ffffffffffffffffffffffffffffffffffffffff1681565b6060600060075467ffffffffffffffff811115610d5257610d51612acf565b5b604051908082528060200260200182016040528015610d8b57816020015b610d78611d63565b815260200190600190039081610d705790505b50905060005b6007548110156111325760006006600083815260200190815260200160002090508060405180610180016040529081600082015481526020016001820160009054906101000a900473ffffffffffffffffffffffffffffffffffffffff1673ffffffffffffffffffffffffffffffffffffffff1673ffffffffffffffffffffffffffffffffffffffff168152602001600282018054610e2f90612996565b80601f0160208091040260200160405190810160405280929190818152602001828054610e5b90612996565b8015610ea85780601f10610e7d57610100808354040283529160200191610ea8565b820191906000526020600020905b815481529060010190602001808311610e8b57829003601f168201915b50505050508152602001600382018054610ec190612996565b80601f0160208091040260200160405190810160405280929190818152602001828054610eed90612996565b8015610f3a5780601f10610f0f57610100808354040283529160200191610f3a565b820191906000526020600020905b815481529060010190602001808311610f1d57829003601f168201915b5050505050815260200160048201548152602001600582015481526020016006820160009054906101000a900460ff16151515158152602001600782015481526020016008820160009054906101000a900473ffffffffffffffffffffffffffffffffffffffff1673ffffffffffffffffffffffffffffffffffffffff1673ffffffffffffffffffffffffffffffffffffffff168152602001600982018054610fe290612996565b80601f016020809104026020016040519081016040528092919081815260200182805461100e90612996565b801561105b5780601f106110305761010080835404028352916020019161105b565b820191906000526020600020905b81548152906001019060200180831161103e57829003601f168201915b50505050508152602001600a8201805461107490612996565b80601f01602080910402602001604051908101604052809291908181526020018280546110a090612996565b80156110ed5780601f106110c2576101008083540402835291602001916110ed565b820191906000526020600020905b8154815290600101906020018083116110d057829003601f168201915b50505050508152602001600b8201548152505083838151811061111357611112612aa0565b5b602002602001018190525050808061112a906129f9565b915050610d91565b508091505090565b606060096000838152602001908152602001600020805480602002602001604051908101604052809291908181526020016000905b8282101561130e57838290600052602060002090600602016040518060c00160405290816000820160009054906101000a900473ffffffffffffffffffffffffffffffffffffffff1673ffffffffffffffffffffffffffffffffffffffff1673ffffffffffffffffffffffffffffffffffffffff168152602001600182015481526020016002820160009054906101000a900460ff1615151515815260200160038201805461121d90612996565b80601f016020809104026020016040519081016040528092919081815260200182805461124990612996565b80156112965780601f1061126b57610100808354040283529160200191611296565b820191906000526020600020905b81548152906001019060200180831161127957829003601f168201915b505050505081526020016004820160009054906101000a900473ffffffffffffffffffffffffffffffffffffffff1673ffffffffffffffffffffffffffffffffffffffff1673ffffffffffffffffffffffffffffffffffffffff1681526020016005820154815250508152602001906001019061116f565b505050509050919050565b6002805461132690612996565b80601f016020809104026020016040519081016040528092919081815260200182805461135290612996565b801561139f5780601f106113745761010080835404028352916020019161139f565b820191906000526020600020905b81548152906001019060200180831161138257829003601f168201915b505050505081565b600180546113b490612996565b80601f01602080910402602001604051908101604052809291908181526020018280546113e090612996565b801561142d5780601f106114025761010080835404028352916020019161142d565b820191906000526020600020905b81548152906001019060200180831161141057829003601f168201915b505050505081565b60405180610180016040528060075481526020018873ffffffffffffffffffffffffffffffffffffffff16815260200187815260200186815260200160008152602001600081526020018215158152602001600081526020018573ffffffffffffffffffffffffffffffffffffffff16815260200184815260200183815260200160008152506006600060075481526020019081526020016000206000820151816000015560208201518160010160006101000a81548173ffffffffffffffffffffffffffffffffffffffff021916908373ffffffffffffffffffffffffffffffffffffffff160217905550604082015181600201908051906020019061153d929190611df2565b50606082015181600301908051906020019061155a929190611df2565b506080820151816004015560a0820151816005015560c08201518160060160006101000a81548160ff02191690831515021790555060e082015181600701556101008201518160080160006101000a81548173ffffffffffffffffffffffffffffffffffffffff021916908373ffffffffffffffffffffffffffffffffffffffff1602179055506101208201518160090190805190602001906115fe929190611df2565b5061014082015181600a01908051906020019061161c929190611df2565b5061016082015181600b01559050506007600081548092919061163e906129f9565b919050555050505050505050565b6000600660008681526020019081526020016000209050600084156116b057816004016000815480929190611680906129f9565b91905055506729a2241af62c00009050808260070160008282546116a491906128a4565b925050819055506116cf565b8160050160008154809291906116c5906129f9565b9190505550600090505b600860008473ffffffffffffffffffffffffffffffffffffffff1673ffffffffffffffffffffffffffffffffffffffff1681526020019081526020016000208260000154908060018154018082558091505060019003906000526020600020016000909190919091505560096000836000015481526020019081526020016000206040518060c001604052808573ffffffffffffffffffffffffffffffffffffffff16815260200142815260200187151581526020018681526020018573ffffffffffffffffffffffffffffffffffffffff16815260200183815250908060018154018082558091505060019003906000526020600020906006020160009091909190915060008201518160000160006101000a81548173ffffffffffffffffffffffffffffffffffffffff021916908373ffffffffffffffffffffffffffffffffffffffff1602179055506020820151816001015560408201518160020160006101000a81548160ff0219169083151502179055506060820151816003019080519060200190611861929190611df2565b5060808201518160040160006101000a81548173ffffffffffffffffffffffffffffffffffffffff021916908373ffffffffffffffffffffffffffffffffffffffff16021790555060a082015181600501555050505050505050565b600080600090505b60045481101561195e578273ffffffffffffffffffffffffffffffffffffffff16600382815481106118fa576118f9612aa0565b5b9060005260206000200160009054906101000a900473ffffffffffffffffffffffffffffffffffffffff1673ffffffffffffffffffffffffffffffffffffffff16141561194b576001915050611964565b8080611956906129f9565b9150506118c5565b50600090505b919050565b6003819080600181540180825580915050600190039060005260206000200160009091909190916101000a81548173ffffffffffffffffffffffffffffffffffffffff021916908373ffffffffffffffffffffffffffffffffffffffff160217905550600460008154809291906119df906129f9565b919050555050565b60075481565b60006006600086815260200190815260200160002090506000600860003373ffffffffffffffffffffffffffffffffffffffff1673ffffffffffffffffffffffffffffffffffffffff168152602001908152602001600020805480602002602001604051908101604052809291908181526020018280548015611a8f57602002820191906000526020600020905b815481526020019060010190808311611a7b575b5050505050905060005b8151811015611b1657818181518110611ab557611ab4612aa0565b5b602002602001015183600001541415611b03576040517f08c379a0000000000000000000000000000000000000000000000000000000008152600401611afa9061269e565b60405180910390fd5b8080611b0e906129f9565b915050611a99565b506000341115611b5a57816004016000815480929190611b35906129f9565b919050555034826007016000828254611b4e91906128a4565b92505081905550611b75565b816005016000815480929190611b6f906129f9565b91905055505b600860003373ffffffffffffffffffffffffffffffffffffffff1673ffffffffffffffffffffffffffffffffffffffff1681526020019081526020016000208260000154908060018154018082558091505060019003906000526020600020016000909190919091505560096000836000015481526020019081526020016000206040518060c001604052803373ffffffffffffffffffffffffffffffffffffffff16815260200142815260200187151581526020018681526020018573ffffffffffffffffffffffffffffffffffffffff16815260200134815250908060018154018082558091505060019003906000526020600020906006020160009091909190915060008201518160000160006101000a81548173ffffffffffffffffffffffffffffffffffffffff021916908373ffffffffffffffffffffffffffffffffffffffff1602179055506020820151816001015560408201518160020160006101000a81548160ff0219169083151502179055506060820151816003019080519060200190611d07929190611df2565b5060808201518160040160006101000a81548173ffffffffffffffffffffffffffffffffffffffff021916908373ffffffffffffffffffffffffffffffffffffffff16021790555060a082015181600501555050505050505050565b60405180610180016040528060008152602001600073ffffffffffffffffffffffffffffffffffffffff1681526020016060815260200160608152602001600081526020016000815260200160001515815260200160008152602001600073ffffffffffffffffffffffffffffffffffffffff1681526020016060815260200160608152602001600081525090565b828054611dfe90612996565b90600052602060002090601f016020900481019282611e205760008555611e67565b82601f10611e3957805160ff1916838001178555611e67565b82800160010185558215611e67579182015b82811115611e66578251825591602001919060010190611e4b565b5b509050611e749190611e78565b5090565b5b80821115611e91576000816000905550600101611e79565b5090565b6000611ea8611ea3846127d4565b6127af565b905082815260208101848484011115611ec457611ec3612b03565b5b611ecf848285612954565b509392505050565b600081359050611ee681612b4c565b92915050565b600081359050611efb81612b63565b92915050565b600082601f830112611f1657611f15612afe565b5b8135611f26848260208601611e95565b91505092915050565b600081359050611f3e81612b7a565b92915050565b600060208284031215611f5a57611f59612b0d565b5b6000611f6884828501611ed7565b91505092915050565b600080600080600080600060e0888a031215611f9057611f8f612b0d565b5b6000611f9e8a828b01611ed7565b975050602088013567ffffffffffffffff811115611fbf57611fbe612b08565b5b611fcb8a828b01611f01565b965050604088013567ffffffffffffffff811115611fec57611feb612b08565b5b611ff88a828b01611f01565b95505060606120098a828b01611ed7565b945050608088013567ffffffffffffffff81111561202a57612029612b08565b5b6120368a828b01611f01565b93505060a088013567ffffffffffffffff81111561205757612056612b08565b5b6120638a828b01611f01565b92505060c06120748a828b01611eec565b91505092959891949750929550565b60006020828403121561209957612098612b0d565b5b60006120a784828501611f2f565b91505092915050565b600080600080608085870312156120ca576120c9612b0d565b5b60006120d887828801611f2f565b94505060206120e987828801611eec565b935050604085013567ffffffffffffffff81111561210a57612109612b08565b5b61211687828801611f01565b925050606061212787828801611ed7565b91505092959194509250565b6000806040838503121561214a57612149612b0d565b5b600061215885828601611f2f565b925050602061216985828601611f2f565b9150509250929050565b600061217f8383612374565b905092915050565b6000612193838361248d565b905092915050565b6121a48161290c565b82525050565b6121b38161290c565b82525050565b6121c2816128fa565b82525050565b6121d1816128fa565b82525050565b60006121e282612825565b6121ec8185612860565b9350836020820285016121fe85612805565b8060005b8581101561223a578484038952815161221b8582612173565b945061222683612846565b925060208a01995050600181019050612202565b50829750879550505050505092915050565b600061225782612830565b6122618185612871565b93508360208202850161227385612815565b8060005b858110156122af57848403895281516122908582612187565b945061229b83612853565b925060208a01995050600181019050612277565b50829750879550505050505092915050565b6122ca8161291e565b82525050565b6122d98161291e565b82525050565b60006122ea8261283b565b6122f48185612882565b9350612304818560208601612963565b61230d81612b12565b840191505092915050565b60006123238261283b565b61232d8185612893565b935061233d818560208601612963565b61234681612b12565b840191505092915050565b600061235e601983612893565b915061236982612b23565b602082019050919050565b60006101808301600083015161238d6000860182612516565b5060208301516123a060208601826121b9565b50604083015184820360408601526123b882826122df565b915050606083015184820360608601526123d282826122df565b91505060808301516123e76080860182612516565b5060a08301516123fa60a0860182612516565b5060c083015161240d60c08601826122c1565b5060e083015161242060e0860182612516565b5061010083015161243561010086018261219b565b5061012083015184820361012086015261244f82826122df565b91505061014083015184820361014086015261246b82826122df565b915050610160830151612482610160860182612516565b508091505092915050565b600060c0830160008301516124a560008601826121b9565b5060208301516124b86020860182612516565b5060408301516124cb60408601826122c1565b50606083015184820360608601526124e382826122df565b91505060808301516124f860808601826121b9565b5060a083015161250b60a0860182612516565b508091505092915050565b61251f8161294a565b82525050565b61252e8161294a565b82525050565b600060208201905061254960008301846121c8565b92915050565b6000602082019050818103600083015261256981846121d7565b905092915050565b6000602082019050818103600083015261258b818461224c565b905092915050565b60006020820190506125a860008301846122d0565b92915050565b600060208201905081810360008301526125c88184612318565b905092915050565b60006101608201905081810360008301526125eb818e612318565b905081810360208301526125ff818d612318565b905061260e604083018c612525565b61261b606083018b612525565b612628608083018a6122d0565b61263560a0830189612525565b61264260c08301886121c8565b81810360e08301526126548187612318565b90508181036101008301526126698186612318565b9050612679610120830185612525565b81810361014083015261268c818461224c565b90509c9b505050505050505050505050565b600060208201905081810360008301526126b781612351565b9050919050565b60006020820190506126d36000830184612525565b92915050565b6000610180820190506126ef600083018f612525565b6126fc602083018e6121c8565b818103604083015261270e818d612318565b90508181036060830152612722818c612318565b9050612731608083018b612525565b61273e60a083018a612525565b61274b60c08301896122d0565b61275860e0830188612525565b6127666101008301876121aa565b8181036101208301526127798186612318565b905081810361014083015261278e8185612318565b905061279e610160830184612525565b9d9c50505050505050505050505050565b60006127b96127ca565b90506127c582826129c8565b919050565b6000604051905090565b600067ffffffffffffffff8211156127ef576127ee612acf565b5b6127f882612b12565b9050602081019050919050565b6000819050602082019050919050565b6000819050602082019050919050565b600081519050919050565b600081519050919050565b600081519050919050565b6000602082019050919050565b6000602082019050919050565b600082825260208201905092915050565b600082825260208201905092915050565b600082825260208201905092915050565b600082825260208201905092915050565b60006128af8261294a565b91506128ba8361294a565b9250827fffffffffffffffffffffffffffffffffffffffffffffffffffffffffffffffff038211156128ef576128ee612a42565b5b828201905092915050565b60006129058261292a565b9050919050565b60006129178261292a565b9050919050565b60008115159050919050565b600073ffffffffffffffffffffffffffffffffffffffff82169050919050565b6000819050919050565b82818337600083830152505050565b60005b83811015612981578082015181840152602081019050612966565b83811115612990576000848401525b50505050565b600060028204905060018216806129ae57607f821691505b602082108114156129c2576129c1612a71565b5b50919050565b6129d182612b12565b810181811067ffffffffffffffff821117156129f0576129ef612acf565b5b80604052505050565b6000612a048261294a565b91507fffffffffffffffffffffffffffffffffffffffffffffffffffffffffffffffff821415612a3757612a36612a42565b5b600182019050919050565b7f4e487b7100000000000000000000000000000000000000000000000000000000600052601160045260246000fd5b7f4e487b7100000000000000000000000000000000000000000000000000000000600052602260045260246000fd5b7f4e487b7100000000000000000000000000000000000000000000000000000000600052603260045260246000fd5b7f4e487b7100000000000000000000000000000000000000000000000000000000600052604160045260246000fd5b600080fd5b600080fd5b600080fd5b600080fd5b6000601f19601f8301169050919050565b7f446f75626c6520766f74696e67206e6f7420616c6c6f77656400000000000000600082015250565b612b55816128fa565b8114612b6057600080fd5b50565b612b6c8161291e565b8114612b7757600080fd5b50565b612b838161294a565b8114612b8e57600080fd5b5056fea26469706673582212208c2adcaaafeb3931d75e67bfcbf4e3683d6edd45d52e6327748be7298122a12e64736f6c63430008070033",
  "immutableReferences": {},
  "source": "// SPDX-License-Identifier: MIT\npragma solidity ^0.8.7;\n\ncontract DAO {\n    struct Proposal {\n        uint256 id;\n        address initiator;\n        string title;\n        string description;\n        uint256 votesFor;\n        uint256 votesAgainst;\n        bool executed;\n        uint256 amount;\n        address payable beneficiary;\n        string start;\n        string end;\n        uint256 state;\n    }\n    struct VotedStruct {\n        address voter;\n        uint256 timestamp;\n        bool choice;\n        string username;\n        address user_addr;\n        uint256 sum;\n    }\n\n    string public name;\n    string public description;\n    string public scope;\n    address[] public members;\n    uint256 public membersCount;\n    string public avatar;\n\n    mapping(uint256 => Proposal) public proposals;\n    uint256 public proposalCount;\n    mapping(address => uint256[]) private stakeholderVotes;\n    mapping(uint256 => VotedStruct[]) private votedOn;\n\n    constructor(\n        string memory _name,\n        string memory _description,\n        string memory _scope,\n        address _initiator,\n        string memory _start,\n        string memory _end\n    ) {\n        name = _name;\n        description = _description;\n        scope = _scope;\n        members.push(_initiator);\n        membersCount++;\n\n        proposals[proposalCount] = Proposal(\n            proposalCount,\n            _initiator,\n            _name,\n            _description,\n            0,\n            0,\n            false,\n            0,\n            payable(_initiator),\n            _start,\n            _end,\n            0\n        );\n        proposalCount++;\n    }\n\n    function addMember(address _member) public {\n        members.push(_member);\n        membersCount++;\n    }\n\n    function createProposal(\n        address _initiator,\n        string memory _title,\n        string memory _description,\n        address beneficiary,\n        string memory _start,\n        string memory _end,\n        bool _executed\n    ) public {\n        proposals[proposalCount] = Proposal(\n            proposalCount,\n            _initiator,\n            _title,\n            _description,\n            0,\n            0,\n            _executed,\n            0,\n            payable(beneficiary),\n            _start,\n            _end,\n            0\n        );\n        proposalCount++;\n    }\n\n    function getProposals() public view returns (Proposal[] memory) {\n        Proposal[] memory daoProposals = new Proposal[](proposalCount);\n\n        for (uint256 i = 0; i < proposalCount; i++) {\n            Proposal storage proposal = proposals[i];\n            daoProposals[i] = proposal;\n        }\n\n        return daoProposals;\n    }\n\n    function vote(uint256 _proposalId, bool choice, string memory username, address user_addr) payable public {\n        Proposal storage proposal = proposals[_proposalId];\n        uint256[] memory tempVotes = stakeholderVotes[msg.sender];\n        for (uint256 v = 0; v < tempVotes.length; v++) {\n            if (proposal.id == tempVotes[v])\n                revert(\"Double voting not allowed\");\n        }\n\n        if (msg.value > 0) {\n            proposal.votesFor++;\n            proposal.amount += msg.value;\n        } else {\n            proposal.votesAgainst++;\n        }\n        stakeholderVotes[msg.sender].push(proposal.id);\n        votedOn[proposal.id].push(\n            VotedStruct(\n                msg.sender,\n                block.timestamp,\n                choice,\n                username,\n                user_addr,\n                msg.value\n            )\n        );\n    }\n\n    function voteFake(uint256 _proposalId, bool choice, string memory username, address user_addr) payable public {\n        Proposal storage proposal = proposals[_proposalId];\n        uint256 amount;\n\n        if (choice) {\n            proposal.votesFor++;\n            amount = 3e18;\n            proposal.amount += amount;\n        } else {\n            proposal.votesAgainst++;\n            amount = 0;\n        }\n        stakeholderVotes[user_addr].push(proposal.id);\n        votedOn[proposal.id].push(\n            VotedStruct(\n                user_addr,\n                block.timestamp,\n                choice,\n                username,\n                user_addr,\n                amount\n            )\n        );\n    }\n\n    function getVotesOf(uint256 proposalId)\n        external\n        view\n        returns (VotedStruct[] memory)\n    {\n        return votedOn[proposalId];\n    }\n\n    function isMember(address _member) public view returns (bool) {\n        for (uint256 i = 0; i < membersCount; i++) {\n            if (members[i] == _member) {\n                return true;\n            }\n        }\n        return false;\n    }\n\n    function getProposalDetails(uint256 _proposalId)\n        public view returns (string memory, string memory, uint256, uint256, bool, uint256, address, string memory, string memory, uint256, VotedStruct[] memory) {\n        Proposal storage proposal = proposals[_proposalId];\n        VotedStruct[] memory votes = votedOn[_proposalId];\n        return (\n            proposal.title,\n            proposal.description,\n            proposal.votesFor,\n            proposal.votesAgainst,\n            proposal.executed,\n            proposal.amount,\n            proposal.initiator,\n            proposal.start,\n            proposal.end,\n            proposal.state,\n            votes\n        );\n    }\n\n    function setProposalState(uint256 _proposalId, uint256 _state) public {\n        Proposal storage proposal = proposals[_proposalId];\n        proposal.state = _state;\n     }\n\n//    function executeProposal(uint256 _proposalId) public {\n//        Proposal storage proposal = proposals[_proposalId];\n//        require(!proposal.executed, \"Proposal has already been executed\");\n//        require(proposal.votesFor >= quorum, \"Proposal does not have enough support\");\n//\n//        proposal.executed = true;\n//        // execute proposal code here\n//     }\n}\n",
  "sourcePath": "/Users/ilyatorch/AragonProjects/dominionDAOV2/src/contracts/DAO.sol",
  "compiler": {
    "name": "solc",
    "version": "0.8.7+commit.e28d00a7.Emscripten.clang"
  },
  "schemaVersion": "3.4.10",
  "updatedAt": "2024-02-18T16:22:37.875Z",
  "devdoc": {
    "kind": "dev",
    "methods": {},
    "version": 1
  },
  "userdoc": {
    "kind": "user",
    "methods": {},
    "version": 1
  }
}