{
  "contractName": "DefaultUsers",
  "abi": [
    {
      "inputs": [],
      "stateMutability": "nonpayable",
      "type": "constructor"
    },
    {
      "inputs": [
        {
          "internalType": "uint256",
          "name": "",
          "type": "uint256"
        }
      ],
      "name": "users",
      "outputs": [
        {
          "internalType": "string",
          "name": "username",
          "type": "string"
        },
        {
          "internalType": "address",
          "name": "userAddress",
          "type": "address"
        }
      ],
      "stateMutability": "view",
      "type": "function"
    },
    {
      "inputs": [],
      "name": "getUsers",
      "outputs": [
        {
          "components": [
            {
              "internalType": "string",
              "name": "username",
              "type": "string"
            },
            {
              "internalType": "address",
              "name": "userAddress",
              "type": "address"
            }
          ],
          "internalType": "struct DefaultUsers.User[]",
          "name": "",
          "type": "tuple[]"
        }
      ],
      "stateMutability": "view",
      "type": "function"
    }
  ],
  "bytecode": "0x608060405234801561001057600080fd5b5060006040518060400160405280600b81526020017f4d6178696d205a616d6972000000000000000000000000000000000000000000815250905060006040518060400160405280600f81526020017f416e746f6e20436865706c756b6f760000000000000000000000000000000000815250905060006040518060400160405280601281526020017f416c69616b73616e64722041736b65726b610000000000000000000000000000815250905060006040518060400160405280600b81526020017f46656c6978204c69706f76000000000000000000000000000000000000000000815250905060006040518060400160405280601481526020017f416e6173746173697961204b6f6e6f706c696e6100000000000000000000000081525090506000604051806040016040528087815260200173d87fea2184d952eeef827a190fba9d7f2f09a63873ffffffffffffffffffffffffffffffffffffffff16815250908060018154018082558091505060019003906000526020600020906002020160009091909190915060008201518160000190805190602001906101b992919061054d565b5060208201518160010160006101000a81548173ffffffffffffffffffffffffffffffffffffffff021916908373ffffffffffffffffffffffffffffffffffffffff16021790555050506000604051806040016040528086815260200173012493be86ac0107723b1e1a0acc087a42236cca73ffffffffffffffffffffffffffffffffffffffff168152509080600181540180825580915050600190039060005260206000209060020201600090919091909150600082015181600001908051906020019061028992919061054d565b5060208201518160010160006101000a81548173ffffffffffffffffffffffffffffffffffffffff021916908373ffffffffffffffffffffffffffffffffffffffff160217905550505060006040518060400160405280858152602001733d30c9631fce0b4ebf71ccfaaa2e93597949a44873ffffffffffffffffffffffffffffffffffffffff168152509080600181540180825580915050600190039060005260206000209060020201600090919091909150600082015181600001908051906020019061035992919061054d565b5060208201518160010160006101000a81548173ffffffffffffffffffffffffffffffffffffffff021916908373ffffffffffffffffffffffffffffffffffffffff160217905550505060006040518060400160405280848152602001736620bcacc17760ee0c81b1f440e8801ef8e65aef73ffffffffffffffffffffffffffffffffffffffff168152509080600181540180825580915050600190039060005260206000209060020201600090919091909150600082015181600001908051906020019061042992919061054d565b5060208201518160010160006101000a81548173ffffffffffffffffffffffffffffffffffffffff021916908373ffffffffffffffffffffffffffffffffffffffff1602179055505050600060405180604001604052808381526020017368bca109b3b6959cbc504b3cd07a81f11a9285ec73ffffffffffffffffffffffffffffffffffffffff16815250908060018154018082558091505060019003906000526020600020906002020160009091909190915060008201518160000190805190602001906104f992919061054d565b5060208201518160010160006101000a81548173ffffffffffffffffffffffffffffffffffffffff021916908373ffffffffffffffffffffffffffffffffffffffff16021790555050505050505050610651565b828054610559906105f0565b90600052602060002090601f01602090048101928261057b57600085556105c2565b82601f1061059457805160ff19168380011785556105c2565b828001600101855582156105c2579182015b828111156105c15782518255916020019190600101906105a6565b5b5090506105cf91906105d3565b5090565b5b808211156105ec5760008160009055506001016105d4565b5090565b6000600282049050600182168061060857607f821691505b6020821081141561061c5761061b610622565b5b50919050565b7f4e487b7100000000000000000000000000000000000000000000000000000000600052602260045260246000fd5b61062f806106606000396000f3fe608060405234801561001057600080fd5b50600436106100355760003560e01c8062ce8e3e1461003a578063365b98b214610058575b600080fd5b610042610089565b60405161004f9190610444565b60405180910390f35b610072600480360381019061006d91906102c1565b6101d0565b604051610080929190610466565b60405180910390f35b60606000805480602002602001604051908101604052809291908181526020016000905b828210156101c757838290600052602060002090600202016040518060400160405290816000820180546100e09061056b565b80601f016020809104026020016040519081016040528092919081815260200182805461010c9061056b565b80156101595780601f1061012e57610100808354040283529160200191610159565b820191906000526020600020905b81548152906001019060200180831161013c57829003601f168201915b505050505081526020016001820160009054906101000a900473ffffffffffffffffffffffffffffffffffffffff1673ffffffffffffffffffffffffffffffffffffffff1673ffffffffffffffffffffffffffffffffffffffff1681525050815260200190600101906100ad565b50505050905090565b600081815481106101e057600080fd5b90600052602060002090600202016000915090508060000180546102039061056b565b80601f016020809104026020016040519081016040528092919081815260200182805461022f9061056b565b801561027c5780601f106102515761010080835404028352916020019161027c565b820191906000526020600020905b81548152906001019060200180831161025f57829003601f168201915b5050505050908060010160009054906101000a900473ffffffffffffffffffffffffffffffffffffffff16905082565b6000813590506102bb816105e2565b92915050565b6000602082840312156102d7576102d66105cc565b5b60006102e5848285016102ac565b91505092915050565b60006102fa8383610407565b905092915050565b61030b816104fc565b82525050565b61031a816104fc565b82525050565b600061032b826104a6565b61033581856104c9565b93508360208202850161034785610496565b8060005b85811015610383578484038952815161036485826102ee565b945061036f836104bc565b925060208a0199505060018101905061034b565b50829750879550505050505092915050565b60006103a0826104b1565b6103aa81856104da565b93506103ba818560208601610538565b6103c3816105d1565b840191505092915050565b60006103d9826104b1565b6103e381856104eb565b93506103f3818560208601610538565b6103fc816105d1565b840191505092915050565b600060408301600083015184820360008601526104248282610395565b91505060208301516104396020860182610302565b508091505092915050565b6000602082019050818103600083015261045e8184610320565b905092915050565b6000604082019050818103600083015261048081856103ce565b905061048f6020830184610311565b9392505050565b6000819050602082019050919050565b600081519050919050565b600081519050919050565b6000602082019050919050565b600082825260208201905092915050565b600082825260208201905092915050565b600082825260208201905092915050565b60006105078261050e565b9050919050565b600073ffffffffffffffffffffffffffffffffffffffff82169050919050565b6000819050919050565b60005b8381101561055657808201518184015260208101905061053b565b83811115610565576000848401525b50505050565b6000600282049050600182168061058357607f821691505b602082108114156105975761059661059d565b5b50919050565b7f4e487b7100000000000000000000000000000000000000000000000000000000600052602260045260246000fd5b600080fd5b6000601f19601f8301169050919050565b6105eb8161052e565b81146105f657600080fd5b5056fea264697066735822122015e5e8a910737d5292b88db80799ea4a2c4d135d4fd04314502c7b6e2ff1e8ad64736f6c63430008070033",
  "immutableReferences": {},
  "source": "pragma solidity ^0.8.0;\n\ncontract DefaultUsers {\n    struct User {\n        string username;\n        address userAddress;\n    }\n\n    User[] public users;\n\n    constructor() {\n        string memory max = \"Maxim Zamir\";\n        string memory tony = \"Anton Cheplukov\";\n        string memory alex = \"Aliaksandr Askerka\";\n        string memory felix = \"Felix Lipov\";\n        string memory nastya = \"Anastasiya Konoplina\";\n\n        users.push(User(max, 0xD87Fea2184D952eEEf827A190Fba9D7F2F09A638));\n        users.push(User(tony, 0x012493BE86AC0107723b1e1A0aCc087A42236ccA));\n        users.push(User(alex, 0x3D30c9631Fce0B4ebF71CcFAaa2e93597949A448));\n        users.push(User(felix, 0x6620bcaCC17760eE0C81b1F440e8801EF8e65aEF));\n        users.push(User(nastya, 0x68Bca109B3B6959cbc504B3cd07a81f11a9285Ec));\n    }\n\n    function getUsers() public view returns (User[] memory) {\n        return users;\n    }\n}",
  "sourcePath": "/Users/ilyatorch/AragonProjects/dominionDAOV2/src/contracts/DefaultUsers.sol",
  "compiler": {
    "name": "solc",
    "version": "0.8.7+commit.e28d00a7.Emscripten.clang"
  },
  "schemaVersion": "3.4.10",
  "updatedAt": "2024-02-18T16:22:37.884Z",
  "devdoc": {
    "kind": "dev",
    "methods": {},
    "version": 1
  },
  "userdoc": {
    "kind": "user",
    "methods": {},
    "version": 1
  }
}