{
  "contractName": "ManagerDAOs",
  "abi": [
    {
      "anonymous": false,
      "inputs": [
        {
          "indexed": false,
          "internalType": "address",
          "name": "dao",
          "type": "address"
        },
        {
          "indexed": false,
          "internalType": "string",
          "name": "name",
          "type": "string"
        }
      ],
      "name": "DAOCreated",
      "type": "event"
    },
    {
      "anonymous": false,
      "inputs": [
        {
          "indexed": false,
          "internalType": "address",
          "name": "dao",
          "type": "address"
        },
        {
          "indexed": false,
          "internalType": "address",
          "name": "member",
          "type": "address"
        }
      ],
      "name": "DAOJoined",
      "type": "event"
    },
    {
      "inputs": [
        {
          "internalType": "address",
          "name": "",
          "type": "address"
        }
      ],
      "name": "daos",
      "outputs": [
        {
          "internalType": "contract DAO",
          "name": "",
          "type": "address"
        }
      ],
      "stateMutability": "view",
      "type": "function",
      "constant": true
    },
    {
      "inputs": [
        {
          "internalType": "string",
          "name": "_name",
          "type": "string"
        },
        {
          "internalType": "string",
          "name": "_description",
          "type": "string"
        },
        {
          "internalType": "string",
          "name": "_scope",
          "type": "string"
        },
        {
          "internalType": "string",
          "name": "_start",
          "type": "string"
        },
        {
          "internalType": "string",
          "name": "_end",
          "type": "string"
        }
      ],
      "name": "createDAO",
      "outputs": [],
      "stateMutability": "nonpayable",
      "type": "function"
    },
    {
      "inputs": [
        {
          "internalType": "address",
          "name": "_dao",
          "type": "address"
        }
      ],
      "name": "joinDAO",
      "outputs": [],
      "stateMutability": "nonpayable",
      "type": "function"
    },
    {
      "inputs": [],
      "name": "addDefaultDAOs",
      "outputs": [],
      "stateMutability": "nonpayable",
      "type": "function"
    },
    {
      "inputs": [],
      "name": "createDAOs",
      "outputs": [],
      "stateMutability": "nonpayable",
      "type": "function"
    },
    {
      "inputs": [
        {
          "internalType": "address",
          "name": "_dao",
          "type": "address"
        },
        {
          "internalType": "address",
          "name": "_member",
          "type": "address"
        }
      ],
      "name": "isMember",
      "outputs": [
        {
          "internalType": "bool",
          "name": "",
          "type": "bool"
        }
      ],
      "stateMutability": "view",
      "type": "function",
      "constant": true
    },
    {
      "inputs": [
        {
          "internalType": "address",
          "name": "_dao",
          "type": "address"
        }
      ],
      "name": "getDAO",
      "outputs": [
        {
          "internalType": "address",
          "name": "",
          "type": "address"
        },
        {
          "internalType": "string",
          "name": "",
          "type": "string"
        },
        {
          "internalType": "string",
          "name": "",
          "type": "string"
        },
        {
          "internalType": "string",
          "name": "",
          "type": "string"
        },
        {
          "internalType": "uint256",
          "name": "",
          "type": "uint256"
        },
        {
          "internalType": "address[]",
          "name": "",
          "type": "address[]"
        }
      ],
      "stateMutability": "view",
      "type": "function",
      "constant": true
    },
    {
      "inputs": [],
      "name": "getAllDAOs",
      "outputs": [
        {
          "internalType": "address[]",
          "name": "",
          "type": "address[]"
        }
      ],
      "stateMutability": "view",
      "type": "function",
      "constant": true
    }
  ],
  "bytecode": "0x608060405234801561001057600080fd5b5061569d806100206000396000f3fe60806040523480156200001157600080fd5b5060043610620000945760003560e01c80637f9ba63211620000635780637f9ba632146200014c578063c25f3cf6146200016c578063e299f37e14620001a2578063eaa0309c14620001ae5762000094565b80631c67b9cc1462000099578063273b614914620000b957806339ac7a0814620000f45780633cb2c68a146200012a575b600080fd5b620000b76004803603810190620000b19190620011f7565b620001ba565b005b620000d76004803603810190620000d19190620010fb565b62000323565b604051620000eb96959493929190620016c6565b60405180910390f35b6200011260048036038101906200010c91906200115f565b62000816565b60405162000121919062001773565b60405180910390f35b62000134620009f9565b6040516200014391906200174f565b60405180910390f35b6200016a6004803603810190620001649190620010fb565b62000a89565b005b6200018a6004803603810190620001849190620010fb565b62000be9565b60405162000199919062001790565b60405180910390f35b620001ac62000c1c565b005b620001b862000f68565b005b6000858585338686604051620001d09062000fac565b620001e19695949392919062001807565b604051809103906000f080158015620001fe573d6000803e3d6000fd5b509050806000808373ffffffffffffffffffffffffffffffffffffffff1673ffffffffffffffffffffffffffffffffffffffff16815260200190815260200160002060006101000a81548173ffffffffffffffffffffffffffffffffffffffff021916908373ffffffffffffffffffffffffffffffffffffffff1602179055506001819080600181540180825580915050600190039060005260206000200160009091909190916101000a81548173ffffffffffffffffffffffffffffffffffffffff021916908373ffffffffffffffffffffffffffffffffffffffff1602179055507e1d639484c46792ffbaa78827c6f9e6563478dac823f4e2a8ece68cf4d4867381876040516200031392919062001692565b60405180910390a1505050505050565b600060608060606000606060008060008973ffffffffffffffffffffffffffffffffffffffff1673ffffffffffffffffffffffffffffffffffffffff16815260200190815260200160002060009054906101000a900473ffffffffffffffffffffffffffffffffffffffff16905060008173ffffffffffffffffffffffffffffffffffffffff1663297f9af06040518163ffffffff1660e01b815260040160206040518083038186803b158015620003da57600080fd5b505afa158015620003ef573d6000803e3d6000fd5b505050506040513d601f19601f820116820180604052508101906200041591906200131a565b67ffffffffffffffff81111562000431576200043062001c7f565b5b604051908082528060200260200182016040528015620004605781602001602082028036833780820191505090505b50905060005b8273ffffffffffffffffffffffffffffffffffffffff1663297f9af06040518163ffffffff1660e01b815260040160206040518083038186803b158015620004ad57600080fd5b505afa158015620004c2573d6000803e3d6000fd5b505050506040513d601f19601f82011682018060405250810190620004e891906200131a565b811015620005e5578273ffffffffffffffffffffffffffffffffffffffff16635daf08ca826040518263ffffffff1660e01b81526004016200052b9190620019c5565b60206040518083038186803b1580156200054457600080fd5b505afa15801562000559573d6000803e3d6000fd5b505050506040513d601f19601f820116820180604052508101906200057f91906200112d565b82828151811062000595576200059462001c50565b5b602002602001019073ffffffffffffffffffffffffffffffffffffffff16908173ffffffffffffffffffffffffffffffffffffffff16815250508080620005dc9062001bd3565b91505062000466565b50888273ffffffffffffffffffffffffffffffffffffffff166306fdde036040518163ffffffff1660e01b815260040160006040518083038186803b1580156200062e57600080fd5b505afa15801562000643573d6000803e3d6000fd5b505050506040513d6000823e3d601f19601f820116820180604052508101906200066e9190620011a6565b8373ffffffffffffffffffffffffffffffffffffffff16637284e4166040518163ffffffff1660e01b815260040160006040518083038186803b158015620006b557600080fd5b505afa158015620006ca573d6000803e3d6000fd5b505050506040513d6000823e3d601f19601f82011682018060405250810190620006f59190620011a6565b8473ffffffffffffffffffffffffffffffffffffffff16636e62d0a86040518163ffffffff1660e01b815260040160006040518083038186803b1580156200073c57600080fd5b505afa15801562000751573d6000803e3d6000fd5b505050506040513d6000823e3d601f19601f820116820180604052508101906200077c9190620011a6565b8573ffffffffffffffffffffffffffffffffffffffff1663297f9af06040518163ffffffff1660e01b815260040160206040518083038186803b158015620007c357600080fd5b505afa158015620007d8573d6000803e3d6000fd5b505050506040513d601f19601f82011682018060405250810190620007fe91906200131a565b85975097509750975097509750505091939550919395565b6000806000808573ffffffffffffffffffffffffffffffffffffffff1673ffffffffffffffffffffffffffffffffffffffff16815260200190815260200160002060009054906101000a900473ffffffffffffffffffffffffffffffffffffffff16905060005b8173ffffffffffffffffffffffffffffffffffffffff1663297f9af06040518163ffffffff1660e01b815260040160206040518083038186803b158015620008c457600080fd5b505afa158015620008d9573d6000803e3d6000fd5b505050506040513d601f19601f82011682018060405250810190620008ff91906200131a565b811015620009ec578373ffffffffffffffffffffffffffffffffffffffff168273ffffffffffffffffffffffffffffffffffffffff16635daf08ca836040518263ffffffff1660e01b8152600401620009599190620019c5565b60206040518083038186803b1580156200097257600080fd5b505afa15801562000987573d6000803e3d6000fd5b505050506040513d601f19601f82011682018060405250810190620009ad91906200112d565b73ffffffffffffffffffffffffffffffffffffffff161415620009d657600192505050620009f3565b8080620009e39062001bd3565b9150506200087d565b5060009150505b92915050565b6060600180548060200260200160405190810160405280929190818152602001828054801562000a7f57602002820191906000526020600020905b8160009054906101000a900473ffffffffffffffffffffffffffffffffffffffff1673ffffffffffffffffffffffffffffffffffffffff168152602001906001019080831162000a34575b5050505050905090565b60008060008373ffffffffffffffffffffffffffffffffffffffff1673ffffffffffffffffffffffffffffffffffffffff16815260200190815260200160002060009054906101000a900473ffffffffffffffffffffffffffffffffffffffff16905062000af8823362000816565b1562000b3b576040517f08c379a000000000000000000000000000000000000000000000000000000000815260040162000b329062001897565b60405180910390fd5b8073ffffffffffffffffffffffffffffffffffffffff1663ca6d56dc336040518263ffffffff1660e01b815260040162000b76919062001648565b600060405180830381600087803b15801562000b9157600080fd5b505af115801562000ba6573d6000803e3d6000fd5b505050507f19c2cee09470d9f5934cb6d3839371932a4999f4d3ab1423e43465bb26858634823360405162000bdd92919062001665565b60405180910390a15050565b60006020528060005260406000206000915054906101000a900473ffffffffffffffffffffffffffffffffffffffff1681565b60007365f13bbfd0c98fc01b8a7a17bf619ec2cfeb7d9a60405162000c419062000fac565b62000c4d9190620018b9565b604051809103906000f08015801562000c6a573d6000803e3d6000fd5b509050806000808373ffffffffffffffffffffffffffffffffffffffff1673ffffffffffffffffffffffffffffffffffffffff16815260200190815260200160002060006101000a81548173ffffffffffffffffffffffffffffffffffffffff021916908373ffffffffffffffffffffffffffffffffffffffff1602179055506001819080600181540180825580915050600190039060005260206000200160009091909190916101000a81548173ffffffffffffffffffffffffffffffffffffffff021916908373ffffffffffffffffffffffffffffffffffffffff16021790555060007365f13bbfd0c98fc01b8a7a17bf619ec2cfeb7d9a60405162000d729062000fac565b62000d7e91906200193f565b604051809103906000f08015801562000d9b573d6000803e3d6000fd5b509050806000808373ffffffffffffffffffffffffffffffffffffffff1673ffffffffffffffffffffffffffffffffffffffff16815260200190815260200160002060006101000a81548173ffffffffffffffffffffffffffffffffffffffff021916908373ffffffffffffffffffffffffffffffffffffffff1602179055506001819080600181540180825580915050600190039060005260206000200160009091909190916101000a81548173ffffffffffffffffffffffffffffffffffffffff021916908373ffffffffffffffffffffffffffffffffffffffff1602179055508173ffffffffffffffffffffffffffffffffffffffff16631e9608a8600060016040518363ffffffff1660e01b815260040162000ebd929190620017ad565b600060405180830381600087803b15801562000ed857600080fd5b505af115801562000eed573d6000803e3d6000fd5b505050508073ffffffffffffffffffffffffffffffffffffffff16631e9608a8600060026040518363ffffffff1660e01b815260040162000f30929190620017da565b600060405180830381600087803b15801562000f4b57600080fd5b505af115801562000f60573d6000803e3d6000fd5b505050505050565b600260009054906101000a900460ff161562000f845762000faa565b6001600260006101000a81548160ff02191690831515021790555062000fa962000c1c565b5b565b6134a080620021c883390190565b600062000fd162000fcb8462001a0b565b620019e2565b90508281526020810184848401111562000ff05762000fef62001cb3565b5b62000ffd84828562001b58565b509392505050565b60006200101c620010168462001a0b565b620019e2565b9050828152602081018484840111156200103b576200103a62001cb3565b5b6200104884828562001b67565b509392505050565b600081359050620010618162002193565b92915050565b600081519050620010788162002193565b92915050565b600082601f83011262001096576200109562001cae565b5b8135620010a884826020860162000fba565b91505092915050565b600082601f830112620010c957620010c862001cae565b5b8151620010db84826020860162001005565b91505092915050565b600081519050620010f581620021ad565b92915050565b60006020828403121562001114576200111362001cbd565b5b6000620011248482850162001050565b91505092915050565b60006020828403121562001146576200114562001cbd565b5b6000620011568482850162001067565b91505092915050565b6000806040838503121562001179576200117862001cbd565b5b6000620011898582860162001050565b92505060206200119c8582860162001050565b9150509250929050565b600060208284031215620011bf57620011be62001cbd565b5b600082015167ffffffffffffffff811115620011e057620011df62001cb8565b5b620011ee84828501620010b1565b91505092915050565b600080600080600060a0868803121562001216576200121562001cbd565b5b600086013567ffffffffffffffff81111562001237576200123662001cb8565b5b62001245888289016200107e565b955050602086013567ffffffffffffffff81111562001269576200126862001cb8565b5b62001277888289016200107e565b945050604086013567ffffffffffffffff8111156200129b576200129a62001cb8565b5b620012a9888289016200107e565b935050606086013567ffffffffffffffff811115620012cd57620012cc62001cb8565b5b620012db888289016200107e565b925050608086013567ffffffffffffffff811115620012ff57620012fe62001cb8565b5b6200130d888289016200107e565b9150509295509295909350565b60006020828403121562001333576200133262001cbd565b5b60006200134384828501620010e4565b91505092915050565b60006200135a838362001366565b60208301905092915050565b620013718162001a96565b82525050565b620013828162001a96565b82525050565b6000620013958262001a51565b620013a1818562001a74565b9350620013ae8362001a41565b8060005b83811015620013e5578151620013c988826200134c565b9750620013d68362001a67565b925050600181019050620013b2565b5085935050505092915050565b620013fd8162001aaa565b82525050565b6200140e8162001ae0565b82525050565b6200141f8162001af4565b82525050565b620014308162001b08565b82525050565b620014418162001b1c565b82525050565b6000620014548262001a5c565b62001460818562001a85565b93506200147281856020860162001b67565b6200147d8162001cc2565b840191505092915050565b60006200149760098362001a85565b9150620014a48262001cd3565b602082019050919050565b6000620014be60d18362001a85565b9150620014cb8262001cfc565b60e082019050919050565b6000620014e560068362001a85565b9150620014f28262001e09565b602082019050919050565b60006200150c601c8362001a85565b9150620015198262001e32565b602082019050919050565b600062001533600a8362001a85565b9150620015408262001e5b565b602082019050919050565b60006200155b61018a8362001a85565b9150620015688262001e84565b6101a082019050919050565b60006200158360028362001a85565b915062001590826200207a565b602082019050919050565b6000620015aa60468362001a85565b9150620015b782620020a3565b606082019050919050565b6000620015d1600a8362001a85565b9150620015de8262002118565b602082019050919050565b6000620015f8600a8362001a85565b9150620016058262002141565b602082019050919050565b60006200161f600a8362001a85565b91506200162c826200216a565b602082019050919050565b620016428162001ad6565b82525050565b60006020820190506200165f600083018462001377565b92915050565b60006040820190506200167c600083018562001377565b6200168b602083018462001377565b9392505050565b6000604082019050620016a9600083018562001377565b8181036020830152620016bd818462001447565b90509392505050565b600060c082019050620016dd600083018962001377565b8181036020830152620016f1818862001447565b9050818103604083015262001707818762001447565b905081810360608301526200171d818662001447565b90506200172e608083018562001637565b81810360a083015262001742818462001388565b9050979650505050505050565b600060208201905081810360008301526200176b818462001388565b905092915050565b60006020820190506200178a6000830184620013f2565b92915050565b6000602082019050620017a7600083018462001403565b92915050565b6000604082019050620017c4600083018562001414565b620017d3602083018462001425565b9392505050565b6000604082019050620017f1600083018562001414565b62001800602083018462001436565b9392505050565b600060c082019050818103600083015262001823818962001447565b9050818103602083015262001839818862001447565b905081810360408301526200184f818762001447565b905062001860606083018662001377565b818103608083015262001874818562001447565b905081810360a08301526200188a818462001447565b9050979650505050505050565b60006020820190508181036000830152620018b281620014d6565b9050919050565b600060c0820190508181036000830152620018d481620014fd565b90508181036020830152620018e9816200154b565b90508181036040830152620018fe8162001574565b90506200190f606083018462001377565b81810360808301526200192281620015e9565b905081810360a08301526200193781620015c2565b905092915050565b600060c08201905081810360008301526200195a816200159b565b905081810360208301526200196f81620014af565b90508181036040830152620019848162001488565b905062001995606083018462001377565b8181036080830152620019a88162001524565b905081810360a0830152620019bd8162001610565b905092915050565b6000602082019050620019dc600083018462001637565b92915050565b6000620019ee62001a01565b9050620019fc828262001b9d565b919050565b6000604051905090565b600067ffffffffffffffff82111562001a295762001a2862001c7f565b5b62001a348262001cc2565b9050602081019050919050565b6000819050602082019050919050565b600081519050919050565b600081519050919050565b6000602082019050919050565b600082825260208201905092915050565b600082825260208201905092915050565b600062001aa38262001ab6565b9050919050565b60008115159050919050565b600073ffffffffffffffffffffffffffffffffffffffff82169050919050565b6000819050919050565b600062001aed8262001b30565b9050919050565b600062001b018262001ad6565b9050919050565b600062001b158262001ad6565b9050919050565b600062001b298262001ad6565b9050919050565b600062001b3d8262001b44565b9050919050565b600062001b518262001ab6565b9050919050565b82818337600083830152505050565b60005b8381101562001b8757808201518184015260208101905062001b6a565b8381111562001b97576000848401525b50505050565b62001ba88262001cc2565b810181811067ffffffffffffffff8211171562001bca5762001bc962001c7f565b5b80604052505050565b600062001be08262001ad6565b91507fffffffffffffffffffffffffffffffffffffffffffffffffffffffffffffffff82141562001c165762001c1562001c21565b5b600182019050919050565b7f4e487b7100000000000000000000000000000000000000000000000000000000600052601160045260246000fd5b7f4e487b7100000000000000000000000000000000000000000000000000000000600052603260045260246000fd5b7f4e487b7100000000000000000000000000000000000000000000000000000000600052604160045260246000fd5b600080fd5b600080fd5b600080fd5b600080fd5b6000601f19601f8301169050919050565b7f656475636174696f6e0000000000000000000000000000000000000000000000600082015250565b7f566973697420746f207468652042656c6172757369616e20537461746520556e60008201527f69766572736974792063616d7075733a205468652073747564656e747320636f60208201527f756c64207669736974207468652063616d70757320616e64206c6561726e206160408201527f626f75742074686520686973746f72792c20666163696c69746965732c20616e60608201527f642061636164656d69632070726f6772616d73206f666665726564206279207460808201527f686520756e69766572736974792e20546f7572206f662042656c61727573696160a08201527f6e2063756c747572616c2073697465732e00000000000000000000000000000060c082015250565b7f6d656d6265720000000000000000000000000000000000000000000000000000600082015250565b7f42726f777365722070726f6772616d6d696e67206c616e677561676500000000600082015250565b7f323032342d30332d303900000000000000000000000000000000000000000000600082015250565b7f4974206973206e656365737361727920746f20637265617465206120636f6d7060008201527f6c65746520746f6f6c20666f72206372656174696e6720776562206170706c6960208201527f636174696f6e7320746861742077696c6c20616c6c6f7720646576656c6f706560408201527f727320746f206d616e616765207468652062726f7773657220616e642069747360608201527f20696e746572666163652e20546869732070726f6772616d6d696e67206c616e60808201527f6775616765206d7573742070726f7669646520746865206162696c697479207460a08201527f6f20696e7465726163742077697468206120776562207365727665722c20637260c08201527f6561746520616e696d6174696f6e732c2067616d65732c206d61707320616e6460e08201527f206f74686572207765622073657276696365732e204173206120726573756c746101008201527f206f6620646576656c6f706d656e742c2075736572732077696c6c20626520616101208201527f626c6520746f207573652074686973206c616e677561676520746f20637265616101408201527f746520756e6971756520616e642066756e6374696f6e616c20776562206170706101608201527f6c69636174696f6e732e0000000000000000000000000000000000000000000061018082015250565b7f6974000000000000000000000000000000000000000000000000000000000000600082015250565b7f54776f2d7765656b20746f757220666f72204f6c796d7069616420737475646560008201527f6e7473206f66207468652042656c6172757369616e20537461746520556e697660208201527f6572736974790000000000000000000000000000000000000000000000000000604082015250565b7f323032342d30322d323500000000000000000000000000000000000000000000600082015250565b7f323032342d30322d313800000000000000000000000000000000000000000000600082015250565b7f323032342d30332d323300000000000000000000000000000000000000000000600082015250565b6200219e8162001a96565b8114620021aa57600080fd5b50565b620021b88162001ad6565b8114620021c457600080fd5b5056fe60806040523480156200001157600080fd5b50604051620034a0380380620034a0833981810160405281019062000037919062000469565b85600090805190602001906200004f92919062000324565b5084600190805190602001906200006892919062000324565b5083600290805190602001906200008192919062000324565b506003839080600181540180825580915050600190039060005260206000200160009091909190916101000a81548173ffffffffffffffffffffffffffffffffffffffff021916908373ffffffffffffffffffffffffffffffffffffffff16021790555060046000815480929190620000fa90620006df565b919050555060405180610180016040528060075481526020018473ffffffffffffffffffffffffffffffffffffffff1681526020018781526020018681526020016000815260200160008152602001600015158152602001600081526020018473ffffffffffffffffffffffffffffffffffffffff16815260200183815260200182815260200160008152506006600060075481526020019081526020016000206000820151816000015560208201518160010160006101000a81548173ffffffffffffffffffffffffffffffffffffffff021916908373ffffffffffffffffffffffffffffffffffffffff16021790555060408201518160020190805190602001906200020a92919062000324565b5060608201518160030190805190602001906200022992919062000324565b506080820151816004015560a0820151816005015560c08201518160060160006101000a81548160ff02191690831515021790555060e082015181600701556101008201518160080160006101000a81548173ffffffffffffffffffffffffffffffffffffffff021916908373ffffffffffffffffffffffffffffffffffffffff160217905550610120820151816009019080519060200190620002cf92919062000324565b5061014082015181600a019080519060200190620002ef92919062000324565b5061016082015181600b0155905050600760008154809291906200031390620006df565b9190505550505050505050620007f9565b828054620003329062000673565b90600052602060002090601f016020900481019282620003565760008555620003a2565b82601f106200037157805160ff1916838001178555620003a2565b82800160010185558215620003a2579182015b82811115620003a157825182559160200191906001019062000384565b5b509050620003b19190620003b5565b5090565b5b80821115620003d0576000816000905550600101620003b6565b5090565b6000620003eb620003e584620005c9565b620005a0565b9050828152602081018484840111156200040a5762000409620007bf565b5b620004178482856200063d565b509392505050565b6000815190506200043081620007df565b92915050565b600082601f8301126200044e576200044d620007ba565b5b815162000460848260208601620003d4565b91505092915050565b60008060008060008060c08789031215620004895762000488620007c9565b5b600087015167ffffffffffffffff811115620004aa57620004a9620007c4565b5b620004b889828a0162000436565b965050602087015167ffffffffffffffff811115620004dc57620004db620007c4565b5b620004ea89828a0162000436565b955050604087015167ffffffffffffffff8111156200050e576200050d620007c4565b5b6200051c89828a0162000436565b94505060606200052f89828a016200041f565b935050608087015167ffffffffffffffff811115620005535762000552620007c4565b5b6200056189828a0162000436565b92505060a087015167ffffffffffffffff811115620005855762000584620007c4565b5b6200059389828a0162000436565b9150509295509295509295565b6000620005ac620005bf565b9050620005ba8282620006a9565b919050565b6000604051905090565b600067ffffffffffffffff821115620005e757620005e66200078b565b5b620005f282620007ce565b9050602081019050919050565b60006200060c8262000613565b9050919050565b600073ffffffffffffffffffffffffffffffffffffffff82169050919050565b6000819050919050565b60005b838110156200065d57808201518184015260208101905062000640565b838111156200066d576000848401525b50505050565b600060028204905060018216806200068c57607f821691505b60208210811415620006a357620006a26200075c565b5b50919050565b620006b482620007ce565b810181811067ffffffffffffffff82111715620006d657620006d56200078b565b5b80604052505050565b6000620006ec8262000633565b91507fffffffffffffffffffffffffffffffffffffffffffffffffffffffffffffffff8214156200072257620007216200072d565b5b600182019050919050565b7f4e487b7100000000000000000000000000000000000000000000000000000000600052601160045260246000fd5b7f4e487b7100000000000000000000000000000000000000000000000000000000600052602260045260246000fd5b7f4e487b7100000000000000000000000000000000000000000000000000000000600052604160045260246000fd5b600080fd5b600080fd5b600080fd5b600080fd5b6000601f19601f8301169050919050565b620007ea81620005ff565b8114620007f657600080fd5b50565b612c9780620008096000396000f3fe6080604052600436106101095760003560e01c806369a136dc116100955780639339a8b8116100645780639339a8b814610387578063ca6d56dc146103a3578063da35c664146103cc578063ea08e4e9146103f7578063f5fe72ff1461040157610109565b806369a136dc146102cb5780636e62d0a8146103085780637284e416146103335780638b027c471461035e57610109565b80632a7548e9116100dc5780632a7548e9146101d55780633b4d01a7146101f15780635aef7de6146102385780635daf08ca1461026357806362564c48146102a057610109565b8063013cf08b1461010e57806306fdde03146101565780631e9608a814610181578063297f9af0146101aa575b600080fd5b34801561011a57600080fd5b5061013560048036038101906101309190612111565b61041d565b60405161014d9c9b9a99989796959493929190612784565b60405180910390f35b34801561016257600080fd5b5061016b6106ea565b6040516101789190612659565b60405180910390f35b34801561018d57600080fd5b506101a860048036038101906101a391906121c1565b610778565b005b3480156101b657600080fd5b506101bf61079d565b6040516101cc9190612769565b60405180910390f35b6101ef60048036038101906101ea9190611fd2565b6107a3565b005b3480156101fd57600080fd5b5061021860048036038101906102139190612111565b610878565b60405161022f9b9a9998979695949392919061267b565b60405180910390f35b34801561024457600080fd5b5061024d610d2e565b60405161025a9190612659565b60405180910390f35b34801561026f57600080fd5b5061028a60048036038101906102859190612111565b610dbc565b60405161029791906125fa565b60405180910390f35b3480156102ac57600080fd5b506102b5610dfb565b6040516102c29190612615565b60405180910390f35b3480156102d757600080fd5b506102f260048036038101906102ed9190612111565b611203565b6040516102ff9190612637565b60405180910390f35b34801561031457600080fd5b5061031d6113e2565b60405161032a9190612659565b60405180910390f35b34801561033f57600080fd5b50610348611470565b6040516103559190612659565b60405180910390f35b34801561036a57600080fd5b5061038560048036038101906103809190611fff565b6114fe565b005b6103a1600480360381019061039c919061213e565b611715565b005b3480156103af57600080fd5b506103ca60048036038101906103c59190611fa5565b611986565b005b3480156103d857600080fd5b506103e1611a04565b6040516103ee9190612769565b60405180910390f35b6103ff611a0a565b005b61041b6004803603810190610416919061213e565b611a39565b005b60066020528060005260406000206000915090508060000154908060010160009054906101000a900473ffffffffffffffffffffffffffffffffffffffff169080600201805461046c90612a4c565b80601f016020809104026020016040519081016040528092919081815260200182805461049890612a4c565b80156104e55780601f106104ba576101008083540402835291602001916104e5565b820191906000526020600020905b8154815290600101906020018083116104c857829003601f168201915b5050505050908060030180546104fa90612a4c565b80601f016020809104026020016040519081016040528092919081815260200182805461052690612a4c565b80156105735780601f1061054857610100808354040283529160200191610573565b820191906000526020600020905b81548152906001019060200180831161055657829003601f168201915b5050505050908060040154908060050154908060060160009054906101000a900460ff16908060070154908060080160009054906101000a900473ffffffffffffffffffffffffffffffffffffffff16908060090180546105d390612a4c565b80601f01602080910402602001604051908101604052809291908181526020018280546105ff90612a4c565b801561064c5780601f106106215761010080835404028352916020019161064c565b820191906000526020600020905b81548152906001019060200180831161062f57829003601f168201915b50505050509080600a01805461066190612a4c565b80601f016020809104026020016040519081016040528092919081815260200182805461068d90612a4c565b80156106da5780601f106106af576101008083540402835291602001916106da565b820191906000526020600020905b8154815290600101906020018083116106bd57829003601f168201915b50505050509080600b015490508c565b600080546106f790612a4c565b80601f016020809104026020016040519081016040528092919081815260200182805461072390612a4c565b80156107705780601f1061074557610100808354040283529160200191610770565b820191906000526020600020905b81548152906001019060200180831161075357829003601f168201915b505050505081565b60006006600084815260200190815260200160002090508181600b0181905550505050565b60045481565b8073ffffffffffffffffffffffffffffffffffffffff16346040516107c7906125e5565b60006040518083038185875af1925050503d8060008114610804576040519150601f19603f3d011682016040523d82523d6000602084013e610809565b606091505b5050503373ffffffffffffffffffffffffffffffffffffffff1634604051610830906125e5565b60006040518083038185875af1925050503d806000811461086d576040519150601f19603f3d011682016040523d82523d6000602084013e610872565b606091505b50505050565b6060806000806000806000606080600060606000600660008e815260200190815260200160002090506000600960008f8152602001908152602001600020805480602002602001604051908101604052809291908181526020016000905b82821015610a7557838290600052602060002090600602016040518060c00160405290816000820160009054906101000a900473ffffffffffffffffffffffffffffffffffffffff1673ffffffffffffffffffffffffffffffffffffffff1673ffffffffffffffffffffffffffffffffffffffff168152602001600182015481526020016002820160009054906101000a900460ff1615151515815260200160038201805461098490612a4c565b80601f01602080910402602001604051908101604052809291908181526020018280546109b090612a4c565b80156109fd5780601f106109d2576101008083540402835291602001916109fd565b820191906000526020600020905b8154815290600101906020018083116109e057829003601f168201915b505050505081526020016004820160009054906101000a900473ffffffffffffffffffffffffffffffffffffffff1673ffffffffffffffffffffffffffffffffffffffff1673ffffffffffffffffffffffffffffffffffffffff168152602001600582015481525050815260200190600101906108d6565b5050505090508160020182600301836004015484600501548560060160009054906101000a900460ff1686600701548760010160009054906101000a900473ffffffffffffffffffffffffffffffffffffffff168860090189600a018a600b01548a8a8054610ae390612a4c565b80601f0160208091040260200160405190810160405280929190818152602001828054610b0f90612a4c565b8015610b5c5780601f10610b3157610100808354040283529160200191610b5c565b820191906000526020600020905b815481529060010190602001808311610b3f57829003601f168201915b50505050509a50898054610b6f90612a4c565b80601f0160208091040260200160405190810160405280929190818152602001828054610b9b90612a4c565b8015610be85780601f10610bbd57610100808354040283529160200191610be8565b820191906000526020600020905b815481529060010190602001808311610bcb57829003601f168201915b50505050509950838054610bfb90612a4c565b80601f0160208091040260200160405190810160405280929190818152602001828054610c2790612a4c565b8015610c745780601f10610c4957610100808354040283529160200191610c74565b820191906000526020600020905b815481529060010190602001808311610c5757829003601f168201915b50505050509350828054610c8790612a4c565b80601f0160208091040260200160405190810160405280929190818152602001828054610cb390612a4c565b8015610d005780601f10610cd557610100808354040283529160200191610d00565b820191906000526020600020905b815481529060010190602001808311610ce357829003601f168201915b505050505092509c509c509c509c509c509c509c509c509c509c509c50505091939597999b90929496989a50565b60058054610d3b90612a4c565b80601f0160208091040260200160405190810160405280929190818152602001828054610d6790612a4c565b8015610db45780601f10610d8957610100808354040283529160200191610db4565b820191906000526020600020905b815481529060010190602001808311610d9757829003601f168201915b505050505081565b60038181548110610dcc57600080fd5b906000526020600020016000915054906101000a900473ffffffffffffffffffffffffffffffffffffffff1681565b6060600060075467ffffffffffffffff811115610e1b57610e1a612b85565b5b604051908082528060200260200182016040528015610e5457816020015b610e41611daf565b815260200190600190039081610e395790505b50905060005b6007548110156111fb5760006006600083815260200190815260200160002090508060405180610180016040529081600082015481526020016001820160009054906101000a900473ffffffffffffffffffffffffffffffffffffffff1673ffffffffffffffffffffffffffffffffffffffff1673ffffffffffffffffffffffffffffffffffffffff168152602001600282018054610ef890612a4c565b80601f0160208091040260200160405190810160405280929190818152602001828054610f2490612a4c565b8015610f715780601f10610f4657610100808354040283529160200191610f71565b820191906000526020600020905b815481529060010190602001808311610f5457829003601f168201915b50505050508152602001600382018054610f8a90612a4c565b80601f0160208091040260200160405190810160405280929190818152602001828054610fb690612a4c565b80156110035780601f10610fd857610100808354040283529160200191611003565b820191906000526020600020905b815481529060010190602001808311610fe657829003601f168201915b5050505050815260200160048201548152602001600582015481526020016006820160009054906101000a900460ff16151515158152602001600782015481526020016008820160009054906101000a900473ffffffffffffffffffffffffffffffffffffffff1673ffffffffffffffffffffffffffffffffffffffff1673ffffffffffffffffffffffffffffffffffffffff1681526020016009820180546110ab90612a4c565b80601f01602080910402602001604051908101604052809291908181526020018280546110d790612a4c565b80156111245780601f106110f957610100808354040283529160200191611124565b820191906000526020600020905b81548152906001019060200180831161110757829003601f168201915b50505050508152602001600a8201805461113d90612a4c565b80601f016020809104026020016040519081016040528092919081815260200182805461116990612a4c565b80156111b65780601f1061118b576101008083540402835291602001916111b6565b820191906000526020600020905b81548152906001019060200180831161119957829003601f168201915b50505050508152602001600b820154815250508383815181106111dc576111db612b56565b5b60200260200101819052505080806111f390612aaf565b915050610e5a565b508091505090565b606060096000838152602001908152602001600020805480602002602001604051908101604052809291908181526020016000905b828210156113d757838290600052602060002090600602016040518060c00160405290816000820160009054906101000a900473ffffffffffffffffffffffffffffffffffffffff1673ffffffffffffffffffffffffffffffffffffffff1673ffffffffffffffffffffffffffffffffffffffff168152602001600182015481526020016002820160009054906101000a900460ff161515151581526020016003820180546112e690612a4c565b80601f016020809104026020016040519081016040528092919081815260200182805461131290612a4c565b801561135f5780601f106113345761010080835404028352916020019161135f565b820191906000526020600020905b81548152906001019060200180831161134257829003601f168201915b505050505081526020016004820160009054906101000a900473ffffffffffffffffffffffffffffffffffffffff1673ffffffffffffffffffffffffffffffffffffffff1673ffffffffffffffffffffffffffffffffffffffff16815260200160058201548152505081526020019060010190611238565b505050509050919050565b600280546113ef90612a4c565b80601f016020809104026020016040519081016040528092919081815260200182805461141b90612a4c565b80156114685780601f1061143d57610100808354040283529160200191611468565b820191906000526020600020905b81548152906001019060200180831161144b57829003601f168201915b505050505081565b6001805461147d90612a4c565b80601f01602080910402602001604051908101604052809291908181526020018280546114a990612a4c565b80156114f65780601f106114cb576101008083540402835291602001916114f6565b820191906000526020600020905b8154815290600101906020018083116114d957829003601f168201915b505050505081565b60405180610180016040528060075481526020018873ffffffffffffffffffffffffffffffffffffffff16815260200187815260200186815260200160008152602001600081526020018215158152602001600081526020018573ffffffffffffffffffffffffffffffffffffffff16815260200184815260200183815260200160008152506006600060075481526020019081526020016000206000820151816000015560208201518160010160006101000a81548173ffffffffffffffffffffffffffffffffffffffff021916908373ffffffffffffffffffffffffffffffffffffffff1602179055506040820151816002019080519060200190611606929190611e3e565b506060820151816003019080519060200190611623929190611e3e565b506080820151816004015560a0820151816005015560c08201518160060160006101000a81548160ff02191690831515021790555060e082015181600701556101008201518160080160006101000a81548173ffffffffffffffffffffffffffffffffffffffff021916908373ffffffffffffffffffffffffffffffffffffffff1602179055506101208201518160090190805190602001906116c7929190611e3e565b5061014082015181600a0190805190602001906116e5929190611e3e565b5061016082015181600b01559050506007600081548092919061170790612aaf565b919050555050505050505050565b6000600660008681526020019081526020016000209050600084156117795781600401600081548092919061174990612aaf565b91905055506729a2241af62c000090508082600701600082825461176d919061295a565b92505081905550611798565b81600501600081548092919061178e90612aaf565b9190505550600090505b600860008473ffffffffffffffffffffffffffffffffffffffff1673ffffffffffffffffffffffffffffffffffffffff1681526020019081526020016000208260000154908060018154018082558091505060019003906000526020600020016000909190919091505560096000836000015481526020019081526020016000206040518060c001604052808573ffffffffffffffffffffffffffffffffffffffff16815260200142815260200187151581526020018681526020018573ffffffffffffffffffffffffffffffffffffffff16815260200183815250908060018154018082558091505060019003906000526020600020906006020160009091909190915060008201518160000160006101000a81548173ffffffffffffffffffffffffffffffffffffffff021916908373ffffffffffffffffffffffffffffffffffffffff1602179055506020820151816001015560408201518160020160006101000a81548160ff021916908315150217905550606082015181600301908051906020019061192a929190611e3e565b5060808201518160040160006101000a81548173ffffffffffffffffffffffffffffffffffffffff021916908373ffffffffffffffffffffffffffffffffffffffff16021790555060a082015181600501555050505050505050565b6003819080600181540180825580915050600190039060005260206000200160009091909190916101000a81548173ffffffffffffffffffffffffffffffffffffffff021916908373ffffffffffffffffffffffffffffffffffffffff160217905550600460008154809291906119fc90612aaf565b919050555050565b60075481565b34600660008081526020019081526020016000206007016000828254611a30919061295a565b92505081905550565b60006006600086815260200190815260200160002090506000600860003373ffffffffffffffffffffffffffffffffffffffff1673ffffffffffffffffffffffffffffffffffffffff168152602001908152602001600020805480602002602001604051908101604052809291908181526020018280548015611adb57602002820191906000526020600020905b815481526020019060010190808311611ac7575b5050505050905060005b8151811015611b6257818181518110611b0157611b00612b56565b5b602002602001015183600001541415611b4f576040517f08c379a0000000000000000000000000000000000000000000000000000000008152600401611b4690612749565b60405180910390fd5b8080611b5a90612aaf565b915050611ae5565b506000341115611ba657816004016000815480929190611b8190612aaf565b919050555034826007016000828254611b9a919061295a565b92505081905550611bc1565b816005016000815480929190611bbb90612aaf565b91905055505b600860003373ffffffffffffffffffffffffffffffffffffffff1673ffffffffffffffffffffffffffffffffffffffff1681526020019081526020016000208260000154908060018154018082558091505060019003906000526020600020016000909190919091505560096000836000015481526020019081526020016000206040518060c001604052803373ffffffffffffffffffffffffffffffffffffffff16815260200142815260200187151581526020018681526020018573ffffffffffffffffffffffffffffffffffffffff16815260200134815250908060018154018082558091505060019003906000526020600020906006020160009091909190915060008201518160000160006101000a81548173ffffffffffffffffffffffffffffffffffffffff021916908373ffffffffffffffffffffffffffffffffffffffff1602179055506020820151816001015560408201518160020160006101000a81548160ff0219169083151502179055506060820151816003019080519060200190611d53929190611e3e565b5060808201518160040160006101000a81548173ffffffffffffffffffffffffffffffffffffffff021916908373ffffffffffffffffffffffffffffffffffffffff16021790555060a082015181600501555050505050505050565b60405180610180016040528060008152602001600073ffffffffffffffffffffffffffffffffffffffff1681526020016060815260200160608152602001600081526020016000815260200160001515815260200160008152602001600073ffffffffffffffffffffffffffffffffffffffff1681526020016060815260200160608152602001600081525090565b828054611e4a90612a4c565b90600052602060002090601f016020900481019282611e6c5760008555611eb3565b82601f10611e8557805160ff1916838001178555611eb3565b82800160010185558215611eb3579182015b82811115611eb2578251825591602001919060010190611e97565b5b509050611ec09190611ec4565b5090565b5b80821115611edd576000816000905550600101611ec5565b5090565b6000611ef4611eef8461287f565b61285a565b905082815260208101848484011115611f1057611f0f612bb9565b5b611f1b848285612a0a565b509392505050565b600081359050611f3281612c05565b92915050565b600081359050611f4781612c1c565b92915050565b600081359050611f5c81612c33565b92915050565b600082601f830112611f7757611f76612bb4565b5b8135611f87848260208601611ee1565b91505092915050565b600081359050611f9f81612c4a565b92915050565b600060208284031215611fbb57611fba612bc3565b5b6000611fc984828501611f23565b91505092915050565b600060208284031215611fe857611fe7612bc3565b5b6000611ff684828501611f38565b91505092915050565b600080600080600080600060e0888a03121561201e5761201d612bc3565b5b600061202c8a828b01611f23565b975050602088013567ffffffffffffffff81111561204d5761204c612bbe565b5b6120598a828b01611f62565b965050604088013567ffffffffffffffff81111561207a57612079612bbe565b5b6120868a828b01611f62565b95505060606120978a828b01611f23565b945050608088013567ffffffffffffffff8111156120b8576120b7612bbe565b5b6120c48a828b01611f62565b93505060a088013567ffffffffffffffff8111156120e5576120e4612bbe565b5b6120f18a828b01611f62565b92505060c06121028a828b01611f4d565b91505092959891949750929550565b60006020828403121561212757612126612bc3565b5b600061213584828501611f90565b91505092915050565b6000806000806080858703121561215857612157612bc3565b5b600061216687828801611f90565b945050602061217787828801611f4d565b935050604085013567ffffffffffffffff81111561219857612197612bbe565b5b6121a487828801611f62565b92505060606121b587828801611f23565b91505092959194509250565b600080604083850312156121d8576121d7612bc3565b5b60006121e685828601611f90565b92505060206121f785828601611f90565b9150509250929050565b600061220d8383612425565b905092915050565b6000612221838361253e565b905092915050565b612232816129c2565b82525050565b612241816129c2565b82525050565b612250816129b0565b82525050565b61225f816129b0565b82525050565b6000612270826128d0565b61227a818561290b565b93508360208202850161228c856128b0565b8060005b858110156122c857848403895281516122a98582612201565b94506122b4836128f1565b925060208a01995050600181019050612290565b50829750879550505050505092915050565b60006122e5826128db565b6122ef818561291c565b935083602082028501612301856128c0565b8060005b8581101561233d578484038952815161231e8582612215565b9450612329836128fe565b925060208a01995050600181019050612305565b50829750879550505050505092915050565b612358816129d4565b82525050565b612367816129d4565b82525050565b6000612378826128e6565b6123828185612938565b9350612392818560208601612a19565b61239b81612bc8565b840191505092915050565b60006123b1826128e6565b6123bb8185612949565b93506123cb818560208601612a19565b6123d481612bc8565b840191505092915050565b60006123ec601983612949565b91506123f782612bd9565b602082019050919050565b600061240f60008361292d565b915061241a82612c02565b600082019050919050565b60006101808301600083015161243e60008601826125c7565b5060208301516124516020860182612247565b5060408301518482036040860152612469828261236d565b91505060608301518482036060860152612483828261236d565b915050608083015161249860808601826125c7565b5060a08301516124ab60a08601826125c7565b5060c08301516124be60c086018261234f565b5060e08301516124d160e08601826125c7565b506101008301516124e6610100860182612229565b50610120830151848203610120860152612500828261236d565b91505061014083015184820361014086015261251c828261236d565b9150506101608301516125336101608601826125c7565b508091505092915050565b600060c0830160008301516125566000860182612247565b50602083015161256960208601826125c7565b50604083015161257c604086018261234f565b5060608301518482036060860152612594828261236d565b91505060808301516125a96080860182612247565b5060a08301516125bc60a08601826125c7565b508091505092915050565b6125d081612a00565b82525050565b6125df81612a00565b82525050565b60006125f082612402565b9150819050919050565b600060208201905061260f6000830184612256565b92915050565b6000602082019050818103600083015261262f8184612265565b905092915050565b6000602082019050818103600083015261265181846122da565b905092915050565b6000602082019050818103600083015261267381846123a6565b905092915050565b6000610160820190508181036000830152612696818e6123a6565b905081810360208301526126aa818d6123a6565b90506126b9604083018c6125d6565b6126c6606083018b6125d6565b6126d3608083018a61235e565b6126e060a08301896125d6565b6126ed60c0830188612256565b81810360e08301526126ff81876123a6565b905081810361010083015261271481866123a6565b90506127246101208301856125d6565b81810361014083015261273781846122da565b90509c9b505050505050505050505050565b60006020820190508181036000830152612762816123df565b9050919050565b600060208201905061277e60008301846125d6565b92915050565b60006101808201905061279a600083018f6125d6565b6127a7602083018e612256565b81810360408301526127b9818d6123a6565b905081810360608301526127cd818c6123a6565b90506127dc608083018b6125d6565b6127e960a083018a6125d6565b6127f660c083018961235e565b61280360e08301886125d6565b612811610100830187612238565b81810361012083015261282481866123a6565b905081810361014083015261283981856123a6565b90506128496101608301846125d6565b9d9c50505050505050505050505050565b6000612864612875565b90506128708282612a7e565b919050565b6000604051905090565b600067ffffffffffffffff82111561289a57612899612b85565b5b6128a382612bc8565b9050602081019050919050565b6000819050602082019050919050565b6000819050602082019050919050565b600081519050919050565b600081519050919050565b600081519050919050565b6000602082019050919050565b6000602082019050919050565b600082825260208201905092915050565b600082825260208201905092915050565b600081905092915050565b600082825260208201905092915050565b600082825260208201905092915050565b600061296582612a00565b915061297083612a00565b9250827fffffffffffffffffffffffffffffffffffffffffffffffffffffffffffffffff038211156129a5576129a4612af8565b5b828201905092915050565b60006129bb826129e0565b9050919050565b60006129cd826129e0565b9050919050565b60008115159050919050565b600073ffffffffffffffffffffffffffffffffffffffff82169050919050565b6000819050919050565b82818337600083830152505050565b60005b83811015612a37578082015181840152602081019050612a1c565b83811115612a46576000848401525b50505050565b60006002820490506001821680612a6457607f821691505b60208210811415612a7857612a77612b27565b5b50919050565b612a8782612bc8565b810181811067ffffffffffffffff82111715612aa657612aa5612b85565b5b80604052505050565b6000612aba82612a00565b91507fffffffffffffffffffffffffffffffffffffffffffffffffffffffffffffffff821415612aed57612aec612af8565b5b600182019050919050565b7f4e487b7100000000000000000000000000000000000000000000000000000000600052601160045260246000fd5b7f4e487b7100000000000000000000000000000000000000000000000000000000600052602260045260246000fd5b7f4e487b7100000000000000000000000000000000000000000000000000000000600052603260045260246000fd5b7f4e487b7100000000000000000000000000000000000000000000000000000000600052604160045260246000fd5b600080fd5b600080fd5b600080fd5b600080fd5b6000601f19601f8301169050919050565b7f446f75626c6520766f74696e67206e6f7420616c6c6f77656400000000000000600082015250565b50565b612c0e816129b0565b8114612c1957600080fd5b50565b612c25816129c2565b8114612c3057600080fd5b50565b612c3c816129d4565b8114612c4757600080fd5b50565b612c5381612a00565b8114612c5e57600080fd5b5056fea2646970667358221220cf0a20e2808c62ea57c2f5cd980a876c974800b5516d69516cd3b244e027481c64736f6c63430008070033a2646970667358221220c9f95b494b8884ad0efbd66c1d87e28c7f9878048d36d665dd8866603720e59564736f6c63430008070033",
  "immutableReferences": {},
  "source": "// SPDX-License-Identifier: MIT\npragma solidity ^0.8.7;\n\nimport './DAO.sol';\nimport './DefaultUsers.sol';\n\n\ncontract ManagerDAOs {\n    mapping(address => DAO) public daos;\n    address[] daoAddresses;\n    bool daoCreated;\n\n    event DAOCreated(address dao, string name);\n    event DAOJoined(address dao, address member);\n\n    function createDAO(\n        string memory _name,\n        string memory _description,\n        string memory _scope,\n        string memory _start,\n        string memory _end\n    ) public {\n        DAO newDAO = new DAO(_name, _description, _scope, msg.sender, _start, _end);\n        daos[address(newDAO)] = newDAO;\n        daoAddresses.push(address(newDAO));\n\n        emit DAOCreated(address(newDAO), _name);\n    }\n\n    function joinDAO(address _dao) public {\n        DAO dao = daos[_dao];\n        require(!isMember(_dao, msg.sender), \"member\");\n        dao.addMember(msg.sender);\n\n        emit DAOJoined(_dao, msg.sender);\n    }\n\n    function addDefaultDAOs() public {\n        if (daoCreated) {\n            return;\n        }\n        daoCreated = true;\n        createDAOs();\n    }\n\n    function createDAOs() public {\n        DAO rejected = new DAO(\n            \"Browser programming language\",\n            \"It is necessary to create a complete tool for creating web applications that will allow developers to manage the browser and its interface. This programming language must provide the ability to interact with a web server, create animations, games, maps and other web services. As a result of development, users will be able to use this language to create unique and functional web applications.\",\n            \"it\",\n            0x65f13BBFd0c98fc01B8a7A17bf619eC2CFeb7D9a,\n            \"2024-02-18\",\n            \"2024-02-25\"\n        );\n        daos[address(rejected)] = rejected;\n        daoAddresses.push(address(rejected));\n        DAO contract_in_progress = new DAO(\n            \"Two-week tour for Olympiad students of the Belarusian State University\",\n            \"Visit to the Belarusian State University campus: The students could visit the campus and learn about the history, facilities, and academic programs offered by the university. Tour of Belarusian cultural sites.\",\n            \"education\",\n            0x65f13BBFd0c98fc01B8a7A17bf619eC2CFeb7D9a,\n            \"2024-03-09\",\n            \"2024-03-23\"\n        );\n        daos[address(contract_in_progress)] = contract_in_progress;\n        daoAddresses.push(address(contract_in_progress));\n\n        rejected.setProposalState(0, 1); // rejected\n        contract_in_progress.setProposalState(0, 2); // work on contract\n    }\n\n    function isMember(address _dao, address _member) public view returns (bool) {\n        DAO dao = daos[_dao];\n        for (uint256 i = 0; i < dao.membersCount(); i++) {\n            if (dao.members(i) == _member) {\n                return true;\n            }\n        }\n        return false;\n    }\n\n    function getDAO(address _dao) public view returns (address, string memory, string memory, string memory, uint256, address[] memory) {\n        DAO dao = daos[_dao];\n        address[] memory daoMemers = new address[](dao.membersCount());\n\n        for (uint256 i = 0; i < dao.membersCount(); i++) {\n            daoMemers[i] = dao.members(i);\n        }\n\n        return (_dao, dao.name(), dao.description(), dao.scope(), dao.membersCount(), daoMemers);\n    }\n\n    function getAllDAOs() public view returns (address[] memory) {\n        return daoAddresses;\n    }\n}\n",
  "sourcePath": "/Users/ilyatorch/AragonProjects/dominionDAOV2/src/contracts/ManagerDAOs.sol",
  "compiler": {
    "name": "solc",
    "version": "0.8.7+commit.e28d00a7.Emscripten.clang"
  },
  "schemaVersion": "3.4.10",
  "updatedAt": "2024-04-01T19:29:34.168Z",
  "networkType": "ethereum",
  "devdoc": {
    "kind": "dev",
    "methods": {},
    "version": 1
  },
  "userdoc": {
    "kind": "user",
    "methods": {},
    "version": 1
  }
}