{
  "contractName": "ManagerDefaultUsers",
  "abi": [
    {
      "inputs": [
        {
          "internalType": "address",
          "name": "rej",
          "type": "address"
        },
        {
          "internalType": "address",
          "name": "in_progr",
          "type": "address"
        }
      ],
      "name": "addDefaultUserAndVotes",
      "outputs": [],
      "stateMutability": "nonpayable",
      "type": "function"
    }
  ],
  "bytecode": "0x608060405234801561001057600080fd5b5061165e806100206000396000f3fe60806040523480156200001157600080fd5b50600436106200002e5760003560e01c8063152bb8e31462000033575b600080fd5b6200005160048036038101906200004b91906200057f565b62000053565b005b60008054906101000a900460ff16156200006d576200037a565b60016000806101000a81548160ff021916908315150217905550600082905060008290506000604051620000a1906200037e565b604051809103906000f080158015620000be573d6000803e3d6000fd5b50905060008173ffffffffffffffffffffffffffffffffffffffff1662ce8e3e6040518163ffffffff1660e01b815260040160006040518083038186803b1580156200010957600080fd5b505afa1580156200011e573d6000803e3d6000fd5b505050506040513d6000823e3d601f19601f82011682018060405250810190620001499190620005c6565b905060005b81518110156200037457600082828151811062000170576200016f620008ed565b5b602002602001015190508573ffffffffffffffffffffffffffffffffffffffff16639339a8b8600080846000015185602001516040518563ffffffff1660e01b8152600401620001c49493929190620006a8565b600060405180830381600087803b158015620001df57600080fd5b505af1158015620001f4573d6000803e3d6000fd5b505050508573ffffffffffffffffffffffffffffffffffffffff1663ca6d56dc82602001516040518263ffffffff1660e01b81526004016200023791906200068b565b600060405180830381600087803b1580156200025257600080fd5b505af115801562000267573d6000803e3d6000fd5b505050508473ffffffffffffffffffffffffffffffffffffffff16639339a8b860006001846000015185602001516040518563ffffffff1660e01b8152600401620002b69493929190620006a8565b600060405180830381600087803b158015620002d157600080fd5b505af1158015620002e6573d6000803e3d6000fd5b505050508473ffffffffffffffffffffffffffffffffffffffff1663ca6d56dc82602001516040518263ffffffff1660e01b81526004016200032991906200068b565b600060405180830381600087803b1580156200034457600080fd5b505af115801562000359573d6000803e3d6000fd5b505050505080806200036b9062000870565b9150506200014e565b50505050505b5050565b610c8f806200099a83390190565b6000620003a36200039d8462000725565b620006fc565b90508083825260208201905082856020860282011115620003c957620003c86200095a565b5b60005b858110156200041e57815167ffffffffffffffff811115620003f357620003f26200094b565b5b80860162000402898262000507565b85526020850194506020840193505050600181019050620003cc565b5050509392505050565b60006200043f620004398462000754565b620006fc565b9050828152602081018484840111156200045e576200045d6200095f565b5b6200046b84828562000804565b509392505050565b60008135905062000484816200097f565b92915050565b6000815190506200049b816200097f565b92915050565b600082601f830112620004b957620004b86200094b565b5b8151620004cb8482602086016200038c565b91505092915050565b600082601f830112620004ec57620004eb6200094b565b5b8151620004fe84826020860162000428565b91505092915050565b60006040828403121562000520576200051f62000950565b5b6200052c6040620006fc565b9050600082015167ffffffffffffffff8111156200054f576200054e62000955565b5b6200055d84828501620004d4565b600083015250602062000573848285016200048a565b60208301525092915050565b6000806040838503121562000599576200059862000969565b5b6000620005a98582860162000473565b9250506020620005bc8582860162000473565b9150509250929050565b600060208284031215620005df57620005de62000969565b5b600082015167ffffffffffffffff8111156200060057620005ff62000964565b5b6200060e84828501620004a1565b91505092915050565b6200062281620007a6565b82525050565b6200063381620007ba565b82525050565b6200064481620007f0565b82525050565b600062000657826200078a565b62000663818562000795565b93506200067581856020860162000804565b62000680816200096e565b840191505092915050565b6000602082019050620006a2600083018462000617565b92915050565b6000608082019050620006bf600083018762000639565b620006ce602083018662000628565b8181036040830152620006e281856200064a565b9050620006f3606083018462000617565b95945050505050565b6000620007086200071b565b90506200071682826200083a565b919050565b6000604051905090565b600067ffffffffffffffff8211156200074357620007426200091c565b5b602082029050602081019050919050565b600067ffffffffffffffff8211156200077257620007716200091c565b5b6200077d826200096e565b9050602081019050919050565b600081519050919050565b600082825260208201905092915050565b6000620007b382620007c6565b9050919050565b60008115159050919050565b600073ffffffffffffffffffffffffffffffffffffffff82169050919050565b6000819050919050565b6000620007fd82620007e6565b9050919050565b60005b838110156200082457808201518184015260208101905062000807565b8381111562000834576000848401525b50505050565b62000845826200096e565b810181811067ffffffffffffffff821117156200086757620008666200091c565b5b80604052505050565b60006200087d82620007e6565b91507fffffffffffffffffffffffffffffffffffffffffffffffffffffffffffffffff821415620008b357620008b2620008be565b5b600182019050919050565b7f4e487b7100000000000000000000000000000000000000000000000000000000600052601160045260246000fd5b7f4e487b7100000000000000000000000000000000000000000000000000000000600052603260045260246000fd5b7f4e487b7100000000000000000000000000000000000000000000000000000000600052604160045260246000fd5b600080fd5b600080fd5b600080fd5b600080fd5b600080fd5b600080fd5b600080fd5b6000601f19601f8301169050919050565b6200098a81620007a6565b81146200099657600080fd5b5056fe608060405234801561001057600080fd5b5060006040518060400160405280600b81526020017f4d6178696d205a616d6972000000000000000000000000000000000000000000815250905060006040518060400160405280600f81526020017f416e746f6e20436865706c756b6f760000000000000000000000000000000000815250905060006040518060400160405280601281526020017f416c69616b73616e64722041736b65726b610000000000000000000000000000815250905060006040518060400160405280600b81526020017f46656c6978204c69706f76000000000000000000000000000000000000000000815250905060006040518060400160405280601481526020017f416e6173746173697961204b6f6e6f706c696e6100000000000000000000000081525090506000604051806040016040528087815260200173d87fea2184d952eeef827a190fba9d7f2f09a63873ffffffffffffffffffffffffffffffffffffffff16815250908060018154018082558091505060019003906000526020600020906002020160009091909190915060008201518160000190805190602001906101b992919061054d565b5060208201518160010160006101000a81548173ffffffffffffffffffffffffffffffffffffffff021916908373ffffffffffffffffffffffffffffffffffffffff16021790555050506000604051806040016040528086815260200173012493be86ac0107723b1e1a0acc087a42236cca73ffffffffffffffffffffffffffffffffffffffff168152509080600181540180825580915050600190039060005260206000209060020201600090919091909150600082015181600001908051906020019061028992919061054d565b5060208201518160010160006101000a81548173ffffffffffffffffffffffffffffffffffffffff021916908373ffffffffffffffffffffffffffffffffffffffff160217905550505060006040518060400160405280858152602001733d30c9631fce0b4ebf71ccfaaa2e93597949a44873ffffffffffffffffffffffffffffffffffffffff168152509080600181540180825580915050600190039060005260206000209060020201600090919091909150600082015181600001908051906020019061035992919061054d565b5060208201518160010160006101000a81548173ffffffffffffffffffffffffffffffffffffffff021916908373ffffffffffffffffffffffffffffffffffffffff160217905550505060006040518060400160405280848152602001736620bcacc17760ee0c81b1f440e8801ef8e65aef73ffffffffffffffffffffffffffffffffffffffff168152509080600181540180825580915050600190039060005260206000209060020201600090919091909150600082015181600001908051906020019061042992919061054d565b5060208201518160010160006101000a81548173ffffffffffffffffffffffffffffffffffffffff021916908373ffffffffffffffffffffffffffffffffffffffff1602179055505050600060405180604001604052808381526020017368bca109b3b6959cbc504b3cd07a81f11a9285ec73ffffffffffffffffffffffffffffffffffffffff16815250908060018154018082558091505060019003906000526020600020906002020160009091909190915060008201518160000190805190602001906104f992919061054d565b5060208201518160010160006101000a81548173ffffffffffffffffffffffffffffffffffffffff021916908373ffffffffffffffffffffffffffffffffffffffff16021790555050505050505050610651565b828054610559906105f0565b90600052602060002090601f01602090048101928261057b57600085556105c2565b82601f1061059457805160ff19168380011785556105c2565b828001600101855582156105c2579182015b828111156105c15782518255916020019190600101906105a6565b5b5090506105cf91906105d3565b5090565b5b808211156105ec5760008160009055506001016105d4565b5090565b6000600282049050600182168061060857607f821691505b6020821081141561061c5761061b610622565b5b50919050565b7f4e487b7100000000000000000000000000000000000000000000000000000000600052602260045260246000fd5b61062f806106606000396000f3fe608060405234801561001057600080fd5b50600436106100355760003560e01c8062ce8e3e1461003a578063365b98b214610058575b600080fd5b610042610089565b60405161004f9190610444565b60405180910390f35b610072600480360381019061006d91906102c1565b6101d0565b604051610080929190610466565b60405180910390f35b60606000805480602002602001604051908101604052809291908181526020016000905b828210156101c757838290600052602060002090600202016040518060400160405290816000820180546100e09061056b565b80601f016020809104026020016040519081016040528092919081815260200182805461010c9061056b565b80156101595780601f1061012e57610100808354040283529160200191610159565b820191906000526020600020905b81548152906001019060200180831161013c57829003601f168201915b505050505081526020016001820160009054906101000a900473ffffffffffffffffffffffffffffffffffffffff1673ffffffffffffffffffffffffffffffffffffffff1673ffffffffffffffffffffffffffffffffffffffff1681525050815260200190600101906100ad565b50505050905090565b600081815481106101e057600080fd5b90600052602060002090600202016000915090508060000180546102039061056b565b80601f016020809104026020016040519081016040528092919081815260200182805461022f9061056b565b801561027c5780601f106102515761010080835404028352916020019161027c565b820191906000526020600020905b81548152906001019060200180831161025f57829003601f168201915b5050505050908060010160009054906101000a900473ffffffffffffffffffffffffffffffffffffffff16905082565b6000813590506102bb816105e2565b92915050565b6000602082840312156102d7576102d66105cc565b5b60006102e5848285016102ac565b91505092915050565b60006102fa8383610407565b905092915050565b61030b816104fc565b82525050565b61031a816104fc565b82525050565b600061032b826104a6565b61033581856104c9565b93508360208202850161034785610496565b8060005b85811015610383578484038952815161036485826102ee565b945061036f836104bc565b925060208a0199505060018101905061034b565b50829750879550505050505092915050565b60006103a0826104b1565b6103aa81856104da565b93506103ba818560208601610538565b6103c3816105d1565b840191505092915050565b60006103d9826104b1565b6103e381856104eb565b93506103f3818560208601610538565b6103fc816105d1565b840191505092915050565b600060408301600083015184820360008601526104248282610395565b91505060208301516104396020860182610302565b508091505092915050565b6000602082019050818103600083015261045e8184610320565b905092915050565b6000604082019050818103600083015261048081856103ce565b905061048f6020830184610311565b9392505050565b6000819050602082019050919050565b600081519050919050565b600081519050919050565b6000602082019050919050565b600082825260208201905092915050565b600082825260208201905092915050565b600082825260208201905092915050565b60006105078261050e565b9050919050565b600073ffffffffffffffffffffffffffffffffffffffff82169050919050565b6000819050919050565b60005b8381101561055657808201518184015260208101905061053b565b83811115610565576000848401525b50505050565b6000600282049050600182168061058357607f821691505b602082108114156105975761059661059d565b5b50919050565b7f4e487b7100000000000000000000000000000000000000000000000000000000600052602260045260246000fd5b600080fd5b6000601f19601f8301169050919050565b6105eb8161052e565b81146105f657600080fd5b5056fea264697066735822122015e5e8a910737d5292b88db80799ea4a2c4d135d4fd04314502c7b6e2ff1e8ad64736f6c63430008070033a26469706673582212200ceecd4a756e594c75f0a973673cb23f164a886f89e79b7c59a2a5696665772b64736f6c63430008070033",
  "immutableReferences": {},
  "source": "// SPDX-License-Identifier: MIT\r\npragma solidity ^0.8.7;\r\n\r\nimport './DAO.sol';\r\nimport './DefaultUsers.sol';\r\n\r\n\r\ncontract ManagerDefaultUsers {\r\n    bool usersAdded;\r\n\r\n    function addDefaultUserAndVotes(address rej, address in_progr) public {\r\n        if (usersAdded) {\r\n            return;\r\n        }\r\n        usersAdded = true;\r\n\r\n        DAO rejected = DAO(rej);\r\n        DAO contract_in_progress = DAO(in_progr);\r\n\r\n        DefaultUsers usersDefault = new DefaultUsers();\r\n        DefaultUsers.User[] memory users = usersDefault.getUsers();\r\n        for (uint i = 0; i < users.length; i++) {\r\n            DefaultUsers.User memory currentUser = users[i];\r\n            rejected.voteFake(0, false, currentUser.username, currentUser.userAddress);\r\n            rejected.addMember(currentUser.userAddress);\r\n            contract_in_progress.voteFake(0, true, currentUser.username, currentUser.userAddress);\r\n            contract_in_progress.addMember(currentUser.userAddress);\r\n        }\r\n    }\r\n}\r\n",
  "sourcePath": "/Users/ilyatorch/AragonProjects/dominionDAOV2/src/contracts/ManagerDefaultUsers.sol",
  "compiler": {
    "name": "solc",
    "version": "0.8.7+commit.e28d00a7.Emscripten.clang"
  },
  "schemaVersion": "3.4.10",
  "updatedAt": "2024-03-07T06:33:21.621Z",
  "networkType": "ethereum",
  "devdoc": {
    "kind": "dev",
    "methods": {},
    "version": 1
  },
  "userdoc": {
    "kind": "user",
    "methods": {},
    "version": 1
  }
}