{
  "contractName": "ManagerDAOs",
  "abi": [
    {
      "anonymous": false,
      "inputs": [
        {
          "indexed": false,
          "internalType": "address",
          "name": "dao",
          "type": "address"
        },
        {
          "indexed": false,
          "internalType": "string",
          "name": "name",
          "type": "string"
        }
      ],
      "name": "DAOCreated",
      "type": "event"
    },
    {
      "anonymous": false,
      "inputs": [
        {
          "indexed": false,
          "internalType": "address",
          "name": "dao",
          "type": "address"
        },
        {
          "indexed": false,
          "internalType": "address",
          "name": "member",
          "type": "address"
        }
      ],
      "name": "DAOJoined",
      "type": "event"
    },
    {
      "inputs": [
        {
          "internalType": "address",
          "name": "",
          "type": "address"
        }
      ],
      "name": "daos",
      "outputs": [
        {
          "internalType": "contract DAO",
          "name": "",
          "type": "address"
        }
      ],
      "stateMutability": "view",
      "type": "function",
      "constant": true
    },
    {
      "inputs": [
        {
          "internalType": "string",
          "name": "_name",
          "type": "string"
        },
        {
          "internalType": "string",
          "name": "_description",
          "type": "string"
        }
      ],
      "name": "createDAO",
      "outputs": [],
      "stateMutability": "nonpayable",
      "type": "function"
    },
    {
      "inputs": [
        {
          "internalType": "address",
          "name": "_dao",
          "type": "address"
        }
      ],
      "name": "joinDAO",
      "outputs": [],
      "stateMutability": "nonpayable",
      "type": "function"
    },
    {
      "inputs": [
        {
          "internalType": "address",
          "name": "_dao",
          "type": "address"
        }
      ],
      "name": "addDefaultMembersToDAO",
      "outputs": [],
      "stateMutability": "nonpayable",
      "type": "function"
    },
    {
      "inputs": [
        {
          "internalType": "address",
          "name": "_dao",
          "type": "address"
        },
        {
          "internalType": "address",
          "name": "_member",
          "type": "address"
        }
      ],
      "name": "isMember",
      "outputs": [
        {
          "internalType": "bool",
          "name": "",
          "type": "bool"
        }
      ],
      "stateMutability": "view",
      "type": "function",
      "constant": true
    },
    {
      "inputs": [
        {
          "internalType": "address",
          "name": "_dao",
          "type": "address"
        }
      ],
      "name": "getDAO",
      "outputs": [
        {
          "internalType": "string",
          "name": "",
          "type": "string"
        },
        {
          "internalType": "string",
          "name": "",
          "type": "string"
        },
        {
          "internalType": "uint256",
          "name": "",
          "type": "uint256"
        },
        {
          "internalType": "address[]",
          "name": "",
          "type": "address[]"
        }
      ],
      "stateMutability": "view",
      "type": "function",
      "constant": true
    },
    {
      "inputs": [],
      "name": "getAllDAOs",
      "outputs": [
        {
          "internalType": "address[]",
          "name": "",
          "type": "address[]"
        }
      ],
      "stateMutability": "view",
      "type": "function",
      "constant": true
    }
  ],
  "bytecode": "0x608060405234801561001057600080fd5b50613b01806100206000396000f3fe60806040523480156200001157600080fd5b5060043610620000885760003560e01c80633cb2c68a11620000635780633cb2c68a146200011c5780637f9ba632146200013e578063c25f3cf6146200015e578063e22ac15014620001945762000088565b8063273b6149146200008d57806336c6d99114620000c657806339ac7a0814620000e6575b600080fd5b620000ab6004803603810190620000a59190620010fc565b620001b4565b604051620000bd949392919062001517565b60405180910390f35b620000e46004803603810190620000de9190620010fc565b62000615565b005b620001046004803603810190620000fe919062001160565b62000a47565b60405162000113919062001492565b60405180910390f35b6200012662000c2a565b6040516200013591906200146e565b60405180910390f35b6200015c6004803603810190620001569190620010fc565b62000cba565b005b6200017c6004803603810190620001769190620010fc565b62000e1a565b6040516200018b9190620014af565b60405180910390f35b620001b26004803603810190620001ac9190620011f8565b62000e4d565b005b6060806000606060008060008773ffffffffffffffffffffffffffffffffffffffff1673ffffffffffffffffffffffffffffffffffffffff16815260200190815260200160002060009054906101000a900473ffffffffffffffffffffffffffffffffffffffff16905060008173ffffffffffffffffffffffffffffffffffffffff1663297f9af06040518163ffffffff1660e01b815260040160206040518083038186803b1580156200026757600080fd5b505afa1580156200027c573d6000803e3d6000fd5b505050506040513d601f19601f82011682018060405250810190620002a291906200127d565b67ffffffffffffffff811115620002be57620002bd62001819565b5b604051908082528060200260200182016040528015620002ed5781602001602082028036833780820191505090505b50905060005b8273ffffffffffffffffffffffffffffffffffffffff1663297f9af06040518163ffffffff1660e01b815260040160206040518083038186803b1580156200033a57600080fd5b505afa1580156200034f573d6000803e3d6000fd5b505050506040513d601f19601f820116820180604052508101906200037591906200127d565b81101562000472578273ffffffffffffffffffffffffffffffffffffffff16635daf08ca826040518263ffffffff1660e01b8152600401620003b891906200159b565b60206040518083038186803b158015620003d157600080fd5b505afa158015620003e6573d6000803e3d6000fd5b505050506040513d601f19601f820116820180604052508101906200040c91906200112e565b828281518110620004225762000421620017ea565b5b602002602001019073ffffffffffffffffffffffffffffffffffffffff16908173ffffffffffffffffffffffffffffffffffffffff1681525050808062000469906200176d565b915050620002f3565b508173ffffffffffffffffffffffffffffffffffffffff166306fdde036040518163ffffffff1660e01b815260040160006040518083038186803b158015620004ba57600080fd5b505afa158015620004cf573d6000803e3d6000fd5b505050506040513d6000823e3d601f19601f82011682018060405250810190620004fa9190620011a7565b8273ffffffffffffffffffffffffffffffffffffffff16637284e4166040518163ffffffff1660e01b815260040160006040518083038186803b1580156200054157600080fd5b505afa15801562000556573d6000803e3d6000fd5b505050506040513d6000823e3d601f19601f82011682018060405250810190620005819190620011a7565b8373ffffffffffffffffffffffffffffffffffffffff1663297f9af06040518163ffffffff1660e01b815260040160206040518083038186803b158015620005c857600080fd5b505afa158015620005dd573d6000803e3d6000fd5b505050506040513d601f19601f820116820180604052508101906200060391906200127d565b83955095509550955050509193509193565b60008060008373ffffffffffffffffffffffffffffffffffffffff1673ffffffffffffffffffffffffffffffffffffffff16815260200190815260200160002060009054906101000a900473ffffffffffffffffffffffffffffffffffffffff169050600060405180610140016040528073da50c3aa3f935b3fc1830f476e2c245b5f45e64b73ffffffffffffffffffffffffffffffffffffffff1673ffffffffffffffffffffffffffffffffffffffff16815260200173017f648856d2ad665c6ebb577e8bff9c29ad735173ffffffffffffffffffffffffffffffffffffffff1673ffffffffffffffffffffffffffffffffffffffff16815260200173591c472ff1c891a3c79df047266c41e7dc8dd30773ffffffffffffffffffffffffffffffffffffffff1673ffffffffffffffffffffffffffffffffffffffff16815260200173f4221d5c37f470939801ef4a3baa9f4d460a042b73ffffffffffffffffffffffffffffffffffffffff1673ffffffffffffffffffffffffffffffffffffffff16815260200173bbb205ecf75829f13b6109189ee1861cc38e63f173ffffffffffffffffffffffffffffffffffffffff1673ffffffffffffffffffffffffffffffffffffffff168152602001731f3bdf7c4756892c7f03d15a875b8af5069045fd73ffffffffffffffffffffffffffffffffffffffff1673ffffffffffffffffffffffffffffffffffffffff1681526020017323d049c5886089f9f7746217d745b41d3f939a7b73ffffffffffffffffffffffffffffffffffffffff1673ffffffffffffffffffffffffffffffffffffffff1681526020017307c3b02d1a22d9fe02750eb2d6a1f0be677c151d73ffffffffffffffffffffffffffffffffffffffff1673ffffffffffffffffffffffffffffffffffffffff168152602001737add452e82f9ea945ebaac8f8f32168cba9f14d873ffffffffffffffffffffffffffffffffffffffff1673ffffffffffffffffffffffffffffffffffffffff1681526020017382a9f8f87568eba3ad798e61e693b35cbc8c4fe173ffffffffffffffffffffffffffffffffffffffff1673ffffffffffffffffffffffffffffffffffffffff16815250905060005b600a81101562000a415760008282600a8110620009675762000966620017ea565b5b602002015190506200097a858262000a47565b62000a2a578373ffffffffffffffffffffffffffffffffffffffff1663ca6d56dc826040518263ffffffff1660e01b8152600401620009ba9190620013f0565b600060405180830381600087803b158015620009d557600080fd5b505af1158015620009ea573d6000803e3d6000fd5b505050507f19c2cee09470d9f5934cb6d3839371932a4999f4d3ab1423e43465bb26858634858260405162000a219291906200140d565b60405180910390a15b50808062000a38906200176d565b91505062000945565b50505050565b6000806000808573ffffffffffffffffffffffffffffffffffffffff1673ffffffffffffffffffffffffffffffffffffffff16815260200190815260200160002060009054906101000a900473ffffffffffffffffffffffffffffffffffffffff16905060005b8173ffffffffffffffffffffffffffffffffffffffff1663297f9af06040518163ffffffff1660e01b815260040160206040518083038186803b15801562000af557600080fd5b505afa15801562000b0a573d6000803e3d6000fd5b505050506040513d601f19601f8201168201806040525081019062000b3091906200127d565b81101562000c1d578373ffffffffffffffffffffffffffffffffffffffff168273ffffffffffffffffffffffffffffffffffffffff16635daf08ca836040518263ffffffff1660e01b815260040162000b8a91906200159b565b60206040518083038186803b15801562000ba357600080fd5b505afa15801562000bb8573d6000803e3d6000fd5b505050506040513d601f19601f8201168201806040525081019062000bde91906200112e565b73ffffffffffffffffffffffffffffffffffffffff16141562000c075760019250505062000c24565b808062000c14906200176d565b91505062000aae565b5060009150505b92915050565b6060600180548060200260200160405190810160405280929190818152602001828054801562000cb057602002820191906000526020600020905b8160009054906101000a900473ffffffffffffffffffffffffffffffffffffffff1673ffffffffffffffffffffffffffffffffffffffff168152602001906001019080831162000c65575b5050505050905090565b60008060008373ffffffffffffffffffffffffffffffffffffffff1673ffffffffffffffffffffffffffffffffffffffff16815260200190815260200160002060009054906101000a900473ffffffffffffffffffffffffffffffffffffffff16905062000d29823362000a47565b1562000d6c576040517f08c379a000000000000000000000000000000000000000000000000000000000815260040162000d639062001579565b60405180910390fd5b8073ffffffffffffffffffffffffffffffffffffffff1663ca6d56dc336040518263ffffffff1660e01b815260040162000da79190620013f0565b600060405180830381600087803b15801562000dc257600080fd5b505af115801562000dd7573d6000803e3d6000fd5b505050507f19c2cee09470d9f5934cb6d3839371932a4999f4d3ab1423e43465bb26858634823360405162000e0e9291906200140d565b60405180910390a15050565b60006020528060005260406000206000915054906101000a900473ffffffffffffffffffffffffffffffffffffffff1681565b600082823360405162000e609062000fad565b62000e6e93929190620014cc565b604051809103906000f08015801562000e8b573d6000803e3d6000fd5b509050806000808373ffffffffffffffffffffffffffffffffffffffff1673ffffffffffffffffffffffffffffffffffffffff16815260200190815260200160002060006101000a81548173ffffffffffffffffffffffffffffffffffffffff021916908373ffffffffffffffffffffffffffffffffffffffff1602179055506001819080600181540180825580915050600190039060005260206000200160009091909190916101000a81548173ffffffffffffffffffffffffffffffffffffffff021916908373ffffffffffffffffffffffffffffffffffffffff1602179055507e1d639484c46792ffbaa78827c6f9e6563478dac823f4e2a8ece68cf4d48673818460405162000fa09291906200143a565b60405180910390a1505050565b61220180620018cb83390190565b600062000fd262000fcc84620015e1565b620015b8565b90508281526020810184848401111562000ff15762000ff06200184d565b5b62000ffe848285620016f2565b509392505050565b60006200101d6200101784620015e1565b620015b8565b9050828152602081018484840111156200103c576200103b6200184d565b5b6200104984828562001701565b509392505050565b600081359050620010628162001896565b92915050565b600081519050620010798162001896565b92915050565b600082601f83011262001097576200109662001848565b5b8135620010a984826020860162000fbb565b91505092915050565b600082601f830112620010ca57620010c962001848565b5b8151620010dc84826020860162001006565b91505092915050565b600081519050620010f681620018b0565b92915050565b60006020828403121562001115576200111462001857565b5b6000620011258482850162001051565b91505092915050565b60006020828403121562001147576200114662001857565b5b6000620011578482850162001068565b91505092915050565b600080604083850312156200117a576200117962001857565b5b60006200118a8582860162001051565b92505060206200119d8582860162001051565b9150509250929050565b600060208284031215620011c057620011bf62001857565b5b600082015167ffffffffffffffff811115620011e157620011e062001852565b5b620011ef84828501620010b2565b91505092915050565b6000806040838503121562001212576200121162001857565b5b600083013567ffffffffffffffff81111562001233576200123262001852565b5b62001241858286016200107f565b925050602083013567ffffffffffffffff81111562001265576200126462001852565b5b62001273858286016200107f565b9150509250929050565b60006020828403121562001296576200129562001857565b5b6000620012a684828501620010e5565b91505092915050565b6000620012bd8383620012c9565b60208301905092915050565b620012d4816200166c565b82525050565b620012e5816200166c565b82525050565b6000620012f88262001627565b6200130481856200164a565b9350620013118362001617565b8060005b83811015620013485781516200132c8882620012af565b975062001339836200163d565b92505060018101905062001315565b5085935050505092915050565b620013608162001680565b82525050565b6200137181620016b6565b82525050565b6000620013848262001632565b6200139081856200165b565b9350620013a281856020860162001701565b620013ad816200185c565b840191505092915050565b6000620013c7601b836200165b565b9150620013d4826200186d565b602082019050919050565b620013ea81620016ac565b82525050565b6000602082019050620014076000830184620012da565b92915050565b6000604082019050620014246000830185620012da565b620014336020830184620012da565b9392505050565b6000604082019050620014516000830185620012da565b818103602083015262001465818462001377565b90509392505050565b600060208201905081810360008301526200148a8184620012eb565b905092915050565b6000602082019050620014a9600083018462001355565b92915050565b6000602082019050620014c6600083018462001366565b92915050565b60006060820190508181036000830152620014e8818662001377565b90508181036020830152620014fe818562001377565b90506200150f6040830184620012da565b949350505050565b6000608082019050818103600083015262001533818762001377565b9050818103602083015262001549818662001377565b90506200155a6040830185620013df565b81810360608301526200156e8184620012eb565b905095945050505050565b600060208201905081810360008301526200159481620013b8565b9050919050565b6000602082019050620015b26000830184620013df565b92915050565b6000620015c4620015d7565b9050620015d2828262001737565b919050565b6000604051905090565b600067ffffffffffffffff821115620015ff57620015fe62001819565b5b6200160a826200185c565b9050602081019050919050565b6000819050602082019050919050565b600081519050919050565b600081519050919050565b6000602082019050919050565b600082825260208201905092915050565b600082825260208201905092915050565b600062001679826200168c565b9050919050565b60008115159050919050565b600073ffffffffffffffffffffffffffffffffffffffff82169050919050565b6000819050919050565b6000620016c382620016ca565b9050919050565b6000620016d782620016de565b9050919050565b6000620016eb826200168c565b9050919050565b82818337600083830152505050565b60005b838110156200172157808201518184015260208101905062001704565b8381111562001731576000848401525b50505050565b62001742826200185c565b810181811067ffffffffffffffff8211171562001764576200176362001819565b5b80604052505050565b60006200177a82620016ac565b91507fffffffffffffffffffffffffffffffffffffffffffffffffffffffffffffffff821415620017b057620017af620017bb565b5b600182019050919050565b7f4e487b7100000000000000000000000000000000000000000000000000000000600052601160045260246000fd5b7f4e487b7100000000000000000000000000000000000000000000000000000000600052603260045260246000fd5b7f4e487b7100000000000000000000000000000000000000000000000000000000600052604160045260246000fd5b600080fd5b600080fd5b600080fd5b600080fd5b6000601f19601f8301169050919050565b7f416c72656164792061206d656d626572206f66207468652044414f0000000000600082015250565b620018a1816200166c565b8114620018ad57600080fd5b50565b620018bb81620016ac565b8114620018c757600080fd5b5056fe60806040523480156200001157600080fd5b506040516200220138038062002201833981810160405281019062000037919062000234565b82600090805190602001906200004f929190620000ef565b50816001908051906020019062000068929190620000ef565b506002819080600181540180825580915050600190039060005260206000200160009091909190916101000a81548173ffffffffffffffffffffffffffffffffffffffff021916908373ffffffffffffffffffffffffffffffffffffffff16021790555060036000815480929190620000e1906200040d565b919050555050505062000527565b828054620000fd90620003a1565b90600052602060002090601f0160209004810192826200012157600085556200016d565b82601f106200013c57805160ff19168380011785556200016d565b828001600101855582156200016d579182015b828111156200016c5782518255916020019190600101906200014f565b5b5090506200017c919062000180565b5090565b5b808211156200019b57600081600090555060010162000181565b5090565b6000620001b6620001b084620002f7565b620002ce565b905082815260208101848484011115620001d557620001d4620004ed565b5b620001e28482856200036b565b509392505050565b600081519050620001fb816200050d565b92915050565b600082601f830112620002195762000218620004e8565b5b81516200022b8482602086016200019f565b91505092915050565b60008060006060848603121562000250576200024f620004f7565b5b600084015167ffffffffffffffff811115620002715762000270620004f2565b5b6200027f8682870162000201565b935050602084015167ffffffffffffffff811115620002a357620002a2620004f2565b5b620002b18682870162000201565b9250506040620002c486828701620001ea565b9150509250925092565b6000620002da620002ed565b9050620002e88282620003d7565b919050565b6000604051905090565b600067ffffffffffffffff821115620003155762000314620004b9565b5b6200032082620004fc565b9050602081019050919050565b60006200033a8262000341565b9050919050565b600073ffffffffffffffffffffffffffffffffffffffff82169050919050565b6000819050919050565b60005b838110156200038b5780820151818401526020810190506200036e565b838111156200039b576000848401525b50505050565b60006002820490506001821680620003ba57607f821691505b60208210811415620003d157620003d06200048a565b5b50919050565b620003e282620004fc565b810181811067ffffffffffffffff82111715620004045762000403620004b9565b5b80604052505050565b60006200041a8262000361565b91507fffffffffffffffffffffffffffffffffffffffffffffffffffffffffffffffff82141562000450576200044f6200045b565b5b600182019050919050565b7f4e487b7100000000000000000000000000000000000000000000000000000000600052601160045260246000fd5b7f4e487b7100000000000000000000000000000000000000000000000000000000600052602260045260246000fd5b7f4e487b7100000000000000000000000000000000000000000000000000000000600052604160045260246000fd5b600080fd5b600080fd5b600080fd5b600080fd5b6000601f19601f8301169050919050565b62000518816200032d565b81146200052457600080fd5b50565b611cca80620005376000396000f3fe6080604052600436106100a75760003560e01c80637284e416116100645780637284e416146101ec578063a230c52414610217578063c9d27afe14610254578063ca6d56dc14610270578063d23f135014610299578063da35c664146102c2576100a7565b8063013cf08b146100ac57806306fdde03146100f1578063297f9af01461011c5780635daf08ca1461014757806362564c481461018457806369a136dc146101af575b600080fd5b3480156100b857600080fd5b506100d360048036038101906100ce91906112bb565b6102ed565b6040516100e89998979695949392919061179f565b60405180910390f35b3480156100fd57600080fd5b50610106610498565b6040516101139190611702565b60405180910390f35b34801561012857600080fd5b50610131610526565b60405161013e9190611784565b60405180910390f35b34801561015357600080fd5b5061016e600480360381019061016991906112bb565b61052c565b60405161017b9190611688565b60405180910390f35b34801561019057600080fd5b5061019961056b565b6040516101a691906116a3565b60405180910390f35b3480156101bb57600080fd5b506101d660048036038101906101d191906112bb565b610845565b6040516101e391906116c5565b60405180910390f35b3480156101f857600080fd5b50610201610932565b60405161020e9190611702565b60405180910390f35b34801561022357600080fd5b5061023e600480360381019061023991906111ef565b6109c0565b60405161024b91906116e7565b60405180910390f35b61026e600480360381019061026991906112e8565b610a6c565b005b34801561027c57600080fd5b50610297600480360381019061029291906111ef565b610de4565b005b3480156102a557600080fd5b506102c060048036038101906102bb919061121c565b610e62565b005b3480156102ce57600080fd5b506102d761101d565b6040516102e49190611784565b60405180910390f35b60046020528060005260406000206000915090508060000154908060010160009054906101000a900473ffffffffffffffffffffffffffffffffffffffff169080600201805461033c90611a21565b80601f016020809104026020016040519081016040528092919081815260200182805461036890611a21565b80156103b55780601f1061038a576101008083540402835291602001916103b5565b820191906000526020600020905b81548152906001019060200180831161039857829003601f168201915b5050505050908060030180546103ca90611a21565b80601f01602080910402602001604051908101604052809291908181526020018280546103f690611a21565b80156104435780601f1061041857610100808354040283529160200191610443565b820191906000526020600020905b81548152906001019060200180831161042657829003601f168201915b5050505050908060040154908060050154908060060160009054906101000a900460ff16908060070154908060080160009054906101000a900473ffffffffffffffffffffffffffffffffffffffff16905089565b600080546104a590611a21565b80601f01602080910402602001604051908101604052809291908181526020018280546104d190611a21565b801561051e5780601f106104f35761010080835404028352916020019161051e565b820191906000526020600020905b81548152906001019060200180831161050157829003601f168201915b505050505081565b60035481565b6002818154811061053c57600080fd5b906000526020600020016000915054906101000a900473ffffffffffffffffffffffffffffffffffffffff1681565b6060600060055467ffffffffffffffff81111561058b5761058a611b5a565b5b6040519080825280602002602001820160405280156105c457816020015b6105b1611023565b8152602001906001900390816105a95790505b50905060005b60055481101561083d5760006004600083815260200190815260200160002090508060405180610120016040529081600082015481526020016001820160009054906101000a900473ffffffffffffffffffffffffffffffffffffffff1673ffffffffffffffffffffffffffffffffffffffff1673ffffffffffffffffffffffffffffffffffffffff16815260200160028201805461066890611a21565b80601f016020809104026020016040519081016040528092919081815260200182805461069490611a21565b80156106e15780601f106106b6576101008083540402835291602001916106e1565b820191906000526020600020905b8154815290600101906020018083116106c457829003601f168201915b505050505081526020016003820180546106fa90611a21565b80601f016020809104026020016040519081016040528092919081815260200182805461072690611a21565b80156107735780601f1061074857610100808354040283529160200191610773565b820191906000526020600020905b81548152906001019060200180831161075657829003601f168201915b5050505050815260200160048201548152602001600582015481526020016006820160009054906101000a900460ff16151515158152602001600782015481526020016008820160009054906101000a900473ffffffffffffffffffffffffffffffffffffffff1673ffffffffffffffffffffffffffffffffffffffff1673ffffffffffffffffffffffffffffffffffffffff168152505083838151811061081e5761081d611b2b565b5b602002602001018190525050808061083590611a84565b9150506105ca565b508091505090565b606060076000838152602001908152602001600020805480602002602001604051908101604052809291908181526020016000905b8282101561092757838290600052602060002090600302016040518060600160405290816000820160009054906101000a900473ffffffffffffffffffffffffffffffffffffffff1673ffffffffffffffffffffffffffffffffffffffff1673ffffffffffffffffffffffffffffffffffffffff168152602001600182015481526020016002820160009054906101000a900460ff1615151515815250508152602001906001019061087a565b505050509050919050565b6001805461093f90611a21565b80601f016020809104026020016040519081016040528092919081815260200182805461096b90611a21565b80156109b85780601f1061098d576101008083540402835291602001916109b8565b820191906000526020600020905b81548152906001019060200180831161099b57829003601f168201915b505050505081565b600080600090505b600354811015610a61578273ffffffffffffffffffffffffffffffffffffffff16600282815481106109fd576109fc611b2b565b5b9060005260206000200160009054906101000a900473ffffffffffffffffffffffffffffffffffffffff1673ffffffffffffffffffffffffffffffffffffffff161415610a4e576001915050610a67565b8080610a5990611a84565b9150506109c8565b50600090505b919050565b610a75336109c0565b610ab4576040517f08c379a0000000000000000000000000000000000000000000000000000000008152600401610aab90611744565b60405180910390fd5b60006004600084815260200190815260200160002090508060060160009054906101000a900460ff1615610b1d576040517f08c379a0000000000000000000000000000000000000000000000000000000008152600401610b1490611764565b60405180910390fd5b6000600660003373ffffffffffffffffffffffffffffffffffffffff1673ffffffffffffffffffffffffffffffffffffffff168152602001908152602001600020805480602002602001604051908101604052809291908181526020018280548015610ba857602002820191906000526020600020905b815481526020019060010190808311610b94575b5050505050905060005b8151811015610c2f57818181518110610bce57610bcd611b2b565b5b602002602001015183600001541415610c1c576040517f08c379a0000000000000000000000000000000000000000000000000000000008152600401610c1390611724565b60405180910390fd5b8080610c2790611a84565b915050610bb2565b506000341115610c7357816004016000815480929190610c4e90611a84565b919050555034826007016000828254610c67919061192f565b92505081905550610c8e565b816005016000815480929190610c8890611a84565b91905055505b600660003373ffffffffffffffffffffffffffffffffffffffff1673ffffffffffffffffffffffffffffffffffffffff16815260200190815260200160002082600001549080600181540180825580915050600190039060005260206000200160009091909190915055600760008360000154815260200190815260200160002060405180606001604052803373ffffffffffffffffffffffffffffffffffffffff168152602001428152602001851515815250908060018154018082558091505060019003906000526020600020906003020160009091909190915060008201518160000160006101000a81548173ffffffffffffffffffffffffffffffffffffffff021916908373ffffffffffffffffffffffffffffffffffffffff1602179055506020820151816001015560408201518160020160006101000a81548160ff021916908315150217905550505050505050565b6002819080600181540180825580915050600190039060005260206000200160009091909190916101000a81548173ffffffffffffffffffffffffffffffffffffffff021916908373ffffffffffffffffffffffffffffffffffffffff16021790555060036000815480929190610e5a90611a84565b919050555050565b60405180610120016040528060055481526020018573ffffffffffffffffffffffffffffffffffffffff1681526020018481526020018381526020016000815260200160008152602001600015158152602001600081526020018273ffffffffffffffffffffffffffffffffffffffff168152506004600060055481526020019081526020016000206000820151816000015560208201518160010160006101000a81548173ffffffffffffffffffffffffffffffffffffffff021916908373ffffffffffffffffffffffffffffffffffffffff1602179055506040820151816002019080519060200190610f5892919061109d565b506060820151816003019080519060200190610f7592919061109d565b506080820151816004015560a0820151816005015560c08201518160060160006101000a81548160ff02191690831515021790555060e082015181600701556101008201518160080160006101000a81548173ffffffffffffffffffffffffffffffffffffffff021916908373ffffffffffffffffffffffffffffffffffffffff1602179055509050506005600081548092919061101290611a84565b919050555050505050565b60055481565b60405180610120016040528060008152602001600073ffffffffffffffffffffffffffffffffffffffff1681526020016060815260200160608152602001600081526020016000815260200160001515815260200160008152602001600073ffffffffffffffffffffffffffffffffffffffff1681525090565b8280546110a990611a21565b90600052602060002090601f0160209004810192826110cb5760008555611112565b82601f106110e457805160ff1916838001178555611112565b82800160010185558215611112579182015b828111156111115782518255916020019190600101906110f6565b5b50905061111f9190611123565b5090565b5b8082111561113c576000816000905550600101611124565b5090565b600061115361114e8461185f565b61183a565b90508281526020810184848401111561116f5761116e611b8e565b5b61117a8482856119df565b509392505050565b60008135905061119181611c4f565b92915050565b6000813590506111a681611c66565b92915050565b600082601f8301126111c1576111c0611b89565b5b81356111d1848260208601611140565b91505092915050565b6000813590506111e981611c7d565b92915050565b60006020828403121561120557611204611b98565b5b600061121384828501611182565b91505092915050565b6000806000806080858703121561123657611235611b98565b5b600061124487828801611182565b945050602085013567ffffffffffffffff81111561126557611264611b93565b5b611271878288016111ac565b935050604085013567ffffffffffffffff81111561129257611291611b93565b5b61129e878288016111ac565b92505060606112af87828801611182565b91505092959194509250565b6000602082840312156112d1576112d0611b98565b5b60006112df848285016111da565b91505092915050565b600080604083850312156112ff576112fe611b98565b5b600061130d858286016111da565b925050602061131e85828601611197565b9150509250929050565b6000611334838361155c565b905092915050565b60006113488383611628565b60608301905092915050565b61135d81611997565b82525050565b61136c81611997565b82525050565b61137b81611985565b82525050565b61138a81611985565b82525050565b600061139b826118b0565b6113a581856118eb565b9350836020820285016113b785611890565b8060005b858110156113f357848403895281516113d48582611328565b94506113df836118d1565b925060208a019950506001810190506113bb565b50829750879550505050505092915050565b6000611410826118bb565b61141a81856118fc565b9350611425836118a0565b8060005b8381101561145657815161143d888261133c565b9750611448836118de565b925050600181019050611429565b5085935050505092915050565b61146c816119a9565b82525050565b61147b816119a9565b82525050565b600061148c826118c6565b611496818561190d565b93506114a68185602086016119ee565b6114af81611b9d565b840191505092915050565b60006114c5826118c6565b6114cf818561191e565b93506114df8185602086016119ee565b6114e881611b9d565b840191505092915050565b600061150060198361191e565b915061150b82611bae565b602082019050919050565b600061152360158361191e565b915061152e82611bd7565b602082019050919050565b600061154660228361191e565b915061155182611c00565b604082019050919050565b600061012083016000830151611575600086018261166a565b5060208301516115886020860182611372565b50604083015184820360408601526115a08282611481565b915050606083015184820360608601526115ba8282611481565b91505060808301516115cf608086018261166a565b5060a08301516115e260a086018261166a565b5060c08301516115f560c0860182611463565b5060e083015161160860e086018261166a565b5061010083015161161d610100860182611354565b508091505092915050565b60608201600082015161163e6000850182611372565b506020820151611651602085018261166a565b5060408201516116646040850182611463565b50505050565b611673816119d5565b82525050565b611682816119d5565b82525050565b600060208201905061169d6000830184611381565b92915050565b600060208201905081810360008301526116bd8184611390565b905092915050565b600060208201905081810360008301526116df8184611405565b905092915050565b60006020820190506116fc6000830184611472565b92915050565b6000602082019050818103600083015261171c81846114ba565b905092915050565b6000602082019050818103600083015261173d816114f3565b9050919050565b6000602082019050818103600083015261175d81611516565b9050919050565b6000602082019050818103600083015261177d81611539565b9050919050565b60006020820190506117996000830184611679565b92915050565b6000610120820190506117b5600083018c611679565b6117c2602083018b611381565b81810360408301526117d4818a6114ba565b905081810360608301526117e881896114ba565b90506117f76080830188611679565b61180460a0830187611679565b61181160c0830186611472565b61181e60e0830185611679565b61182c610100830184611363565b9a9950505050505050505050565b6000611844611855565b90506118508282611a53565b919050565b6000604051905090565b600067ffffffffffffffff82111561187a57611879611b5a565b5b61188382611b9d565b9050602081019050919050565b6000819050602082019050919050565b6000819050602082019050919050565b600081519050919050565b600081519050919050565b600081519050919050565b6000602082019050919050565b6000602082019050919050565b600082825260208201905092915050565b600082825260208201905092915050565b600082825260208201905092915050565b600082825260208201905092915050565b600061193a826119d5565b9150611945836119d5565b9250827fffffffffffffffffffffffffffffffffffffffffffffffffffffffffffffffff0382111561197a57611979611acd565b5b828201905092915050565b6000611990826119b5565b9050919050565b60006119a2826119b5565b9050919050565b60008115159050919050565b600073ffffffffffffffffffffffffffffffffffffffff82169050919050565b6000819050919050565b82818337600083830152505050565b60005b83811015611a0c5780820151818401526020810190506119f1565b83811115611a1b576000848401525b50505050565b60006002820490506001821680611a3957607f821691505b60208210811415611a4d57611a4c611afc565b5b50919050565b611a5c82611b9d565b810181811067ffffffffffffffff82111715611a7b57611a7a611b5a565b5b80604052505050565b6000611a8f826119d5565b91507fffffffffffffffffffffffffffffffffffffffffffffffffffffffffffffffff821415611ac257611ac1611acd565b5b600182019050919050565b7f4e487b7100000000000000000000000000000000000000000000000000000000600052601160045260246000fd5b7f4e487b7100000000000000000000000000000000000000000000000000000000600052602260045260246000fd5b7f4e487b7100000000000000000000000000000000000000000000000000000000600052603260045260246000fd5b7f4e487b7100000000000000000000000000000000000000000000000000000000600052604160045260246000fd5b600080fd5b600080fd5b600080fd5b600080fd5b6000601f19601f8301169050919050565b7f446f75626c6520766f74696e67206e6f7420616c6c6f77656400000000000000600082015250565b7f4f6e6c79206d656d626572732063616e20766f74650000000000000000000000600082015250565b7f50726f706f73616c2068617320616c7265616479206265656e2065786563757460008201527f6564000000000000000000000000000000000000000000000000000000000000602082015250565b611c5881611985565b8114611c6357600080fd5b50565b611c6f816119a9565b8114611c7a57600080fd5b50565b611c86816119d5565b8114611c9157600080fd5b5056fea26469706673582212208c41822406367fe04be5e90ce3a0bbfdb85dd2139bcb203d1f707189e85fd68a64736f6c63430008070033a264697066735822122066bc794be95e3f7c049ef0e9e6a220ecc8c37898371c38572eb34d81af709ce064736f6c63430008070033",
  "immutableReferences": {},
  "source": "// SPDX-License-Identifier: MIT\r\npragma solidity ^0.8.7;\r\n\r\nimport './DAO.sol';\r\n\r\n\r\ncontract ManagerDAOs {\r\n    mapping(address => DAO) public daos;\r\n    address[] daoAddresses;\r\n\r\n    event DAOCreated(address dao, string name);\r\n    event DAOJoined(address dao, address member);\r\n\r\n    function createDAO(string memory _name, string memory _description) public {\r\n        DAO newDAO = new DAO(_name, _description, msg.sender);\r\n        daos[address(newDAO)] = newDAO;\r\n        daoAddresses.push(address(newDAO));\r\n\r\n        emit DAOCreated(address(newDAO), _name);\r\n    }\r\n\r\n    function joinDAO(address _dao) public {\r\n        DAO dao = daos[_dao];\r\n        require(!isMember(_dao, msg.sender), \"Already a member of the DAO\");\r\n        dao.addMember(msg.sender);\r\n\r\n        emit DAOJoined(_dao, msg.sender);\r\n    }\r\n\r\n    function addDefaultMembersToDAO(address _dao) public {\r\n        DAO dao = daos[_dao];\r\n        address[10] memory accounts = [\r\n            0xdA50C3AA3F935B3FC1830f476e2c245b5f45e64B,\r\n            0x017F648856D2aD665c6eBB577E8bff9c29ad7351,\r\n            0x591c472ff1c891A3C79dF047266C41e7DC8dD307,\r\n            0xf4221d5C37F470939801ef4A3BaA9F4d460A042B,\r\n            0xBbb205Ecf75829F13b6109189Ee1861cc38e63F1,\r\n            0x1F3bDf7C4756892C7F03D15a875b8af5069045Fd,\r\n            0x23D049c5886089F9f7746217D745B41d3F939A7b,\r\n            0x07c3B02D1A22D9fE02750EB2d6A1f0Be677C151D,\r\n            0x7add452E82f9eA945eBaAc8f8F32168cba9f14D8,\r\n            0x82a9F8F87568ebA3aD798E61E693b35cbc8c4FE1\r\n        ];\r\n        for (uint256 i = 0; i < 10; i++) {\r\n            address _account = accounts[i];\r\n            if (!isMember(_dao, _account)) {\r\n                dao.addMember(_account);\r\n                emit DAOJoined(_dao, _account);\r\n            }\r\n        }\r\n    }\r\n\r\n\r\n    function isMember(address _dao, address _member) public view returns (bool) {\r\n        DAO dao = daos[_dao];\r\n        for (uint256 i = 0; i < dao.membersCount(); i++) {\r\n            if (dao.members(i) == _member) {\r\n                return true;\r\n            }\r\n        }\r\n        return false;\r\n    }\r\n\r\n    function getDAO(address _dao) public view returns (string memory, string memory, uint256, address[] memory) {\r\n        DAO dao = daos[_dao];\r\n        address[] memory daoMemers = new address[](dao.membersCount());\r\n\r\n        for (uint256 i = 0; i < dao.membersCount(); i++) {\r\n            daoMemers[i] = dao.members(i);\r\n        }\r\n\r\n        return (dao.name(), dao.description(), dao.membersCount(), daoMemers);\r\n    }\r\n\r\n    function getAllDAOs() public view returns (address[] memory) {\r\n        return daoAddresses;\r\n    }\r\n\r\n}\r\n",
  "sourcePath": "/Users/ilyatorch/AragonProjects/dominionDAOV2/src/contracts/ManagerDAOs.sol",
  "compiler": {
    "name": "solc",
    "version": "0.8.7+commit.e28d00a7.Emscripten.clang"
  },
  "schemaVersion": "3.4.10",
  "updatedAt": "2023-10-02T18:41:27.036Z",
  "networkType": "ethereum",
  "devdoc": {
    "kind": "dev",
    "methods": {},
    "version": 1
  },
  "userdoc": {
    "kind": "user",
    "methods": {},
    "version": 1
  }
}