{
  "contractName": "ManagerDAOs",
  "abi": [
    {
      "anonymous": false,
      "inputs": [
        {
          "indexed": false,
          "internalType": "address",
          "name": "dao",
          "type": "address"
        },
        {
          "indexed": false,
          "internalType": "string",
          "name": "name",
          "type": "string"
        }
      ],
      "name": "DAOCreated",
      "type": "event"
    },
    {
      "anonymous": false,
      "inputs": [
        {
          "indexed": false,
          "internalType": "address",
          "name": "dao",
          "type": "address"
        },
        {
          "indexed": false,
          "internalType": "address",
          "name": "member",
          "type": "address"
        }
      ],
      "name": "DAOJoined",
      "type": "event"
    },
    {
      "inputs": [
        {
          "internalType": "address",
          "name": "",
          "type": "address"
        }
      ],
      "name": "daos",
      "outputs": [
        {
          "internalType": "contract DAO",
          "name": "",
          "type": "address"
        }
      ],
      "stateMutability": "view",
      "type": "function",
      "constant": true
    },
    {
      "inputs": [
        {
          "internalType": "string",
          "name": "_name",
          "type": "string"
        },
        {
          "internalType": "string",
          "name": "_description",
          "type": "string"
        }
      ],
      "name": "createDAO",
      "outputs": [],
      "stateMutability": "nonpayable",
      "type": "function"
    },
    {
      "inputs": [
        {
          "internalType": "address",
          "name": "_dao",
          "type": "address"
        }
      ],
      "name": "joinDAO",
      "outputs": [],
      "stateMutability": "nonpayable",
      "type": "function"
    },
    {
      "inputs": [
        {
          "internalType": "address",
          "name": "_dao",
          "type": "address"
        }
      ],
      "name": "addDefaultMembersToDAO",
      "outputs": [],
      "stateMutability": "nonpayable",
      "type": "function"
    },
    {
      "inputs": [
        {
          "internalType": "address",
          "name": "_dao",
          "type": "address"
        },
        {
          "internalType": "address",
          "name": "_member",
          "type": "address"
        }
      ],
      "name": "isMember",
      "outputs": [
        {
          "internalType": "bool",
          "name": "",
          "type": "bool"
        }
      ],
      "stateMutability": "view",
      "type": "function",
      "constant": true
    },
    {
      "inputs": [
        {
          "internalType": "address",
          "name": "_dao",
          "type": "address"
        }
      ],
      "name": "getDAO",
      "outputs": [
        {
          "internalType": "string",
          "name": "",
          "type": "string"
        },
        {
          "internalType": "string",
          "name": "",
          "type": "string"
        },
        {
          "internalType": "uint256",
          "name": "",
          "type": "uint256"
        },
        {
          "internalType": "address[]",
          "name": "",
          "type": "address[]"
        }
      ],
      "stateMutability": "view",
      "type": "function",
      "constant": true
    },
    {
      "inputs": [],
      "name": "getAllDAOs",
      "outputs": [
        {
          "internalType": "address[]",
          "name": "",
          "type": "address[]"
        }
      ],
      "stateMutability": "view",
      "type": "function",
      "constant": true
    }
  ],
  "bytecode": "0x608060405234801561001057600080fd5b506149da806100206000396000f3fe60806040523480156200001157600080fd5b5060043610620000885760003560e01c80633cb2c68a11620000635780633cb2c68a146200011c5780637f9ba632146200013e578063c25f3cf6146200015e578063e22ac15014620001945762000088565b8063273b6149146200008d57806336c6d99114620000c657806339ac7a0814620000e6575b600080fd5b620000ab6004803603810190620000a59190620010fc565b620001b4565b604051620000bd949392919062001517565b60405180910390f35b620000e46004803603810190620000de9190620010fc565b62000615565b005b620001046004803603810190620000fe919062001160565b62000a47565b60405162000113919062001492565b60405180910390f35b6200012662000c2a565b6040516200013591906200146e565b60405180910390f35b6200015c6004803603810190620001569190620010fc565b62000cba565b005b6200017c6004803603810190620001769190620010fc565b62000e1a565b6040516200018b9190620014af565b60405180910390f35b620001b26004803603810190620001ac9190620011f8565b62000e4d565b005b6060806000606060008060008773ffffffffffffffffffffffffffffffffffffffff1673ffffffffffffffffffffffffffffffffffffffff16815260200190815260200160002060009054906101000a900473ffffffffffffffffffffffffffffffffffffffff16905060008173ffffffffffffffffffffffffffffffffffffffff1663297f9af06040518163ffffffff1660e01b815260040160206040518083038186803b1580156200026757600080fd5b505afa1580156200027c573d6000803e3d6000fd5b505050506040513d601f19601f82011682018060405250810190620002a291906200127d565b67ffffffffffffffff811115620002be57620002bd62001819565b5b604051908082528060200260200182016040528015620002ed5781602001602082028036833780820191505090505b50905060005b8273ffffffffffffffffffffffffffffffffffffffff1663297f9af06040518163ffffffff1660e01b815260040160206040518083038186803b1580156200033a57600080fd5b505afa1580156200034f573d6000803e3d6000fd5b505050506040513d601f19601f820116820180604052508101906200037591906200127d565b81101562000472578273ffffffffffffffffffffffffffffffffffffffff16635daf08ca826040518263ffffffff1660e01b8152600401620003b891906200159b565b60206040518083038186803b158015620003d157600080fd5b505afa158015620003e6573d6000803e3d6000fd5b505050506040513d601f19601f820116820180604052508101906200040c91906200112e565b828281518110620004225762000421620017ea565b5b602002602001019073ffffffffffffffffffffffffffffffffffffffff16908173ffffffffffffffffffffffffffffffffffffffff1681525050808062000469906200176d565b915050620002f3565b508173ffffffffffffffffffffffffffffffffffffffff166306fdde036040518163ffffffff1660e01b815260040160006040518083038186803b158015620004ba57600080fd5b505afa158015620004cf573d6000803e3d6000fd5b505050506040513d6000823e3d601f19601f82011682018060405250810190620004fa9190620011a7565b8273ffffffffffffffffffffffffffffffffffffffff16637284e4166040518163ffffffff1660e01b815260040160006040518083038186803b1580156200054157600080fd5b505afa15801562000556573d6000803e3d6000fd5b505050506040513d6000823e3d601f19601f82011682018060405250810190620005819190620011a7565b8373ffffffffffffffffffffffffffffffffffffffff1663297f9af06040518163ffffffff1660e01b815260040160206040518083038186803b158015620005c857600080fd5b505afa158015620005dd573d6000803e3d6000fd5b505050506040513d601f19601f820116820180604052508101906200060391906200127d565b83955095509550955050509193509193565b60008060008373ffffffffffffffffffffffffffffffffffffffff1673ffffffffffffffffffffffffffffffffffffffff16815260200190815260200160002060009054906101000a900473ffffffffffffffffffffffffffffffffffffffff169050600060405180610140016040528073da50c3aa3f935b3fc1830f476e2c245b5f45e64b73ffffffffffffffffffffffffffffffffffffffff1673ffffffffffffffffffffffffffffffffffffffff16815260200173017f648856d2ad665c6ebb577e8bff9c29ad735173ffffffffffffffffffffffffffffffffffffffff1673ffffffffffffffffffffffffffffffffffffffff16815260200173591c472ff1c891a3c79df047266c41e7dc8dd30773ffffffffffffffffffffffffffffffffffffffff1673ffffffffffffffffffffffffffffffffffffffff16815260200173f4221d5c37f470939801ef4a3baa9f4d460a042b73ffffffffffffffffffffffffffffffffffffffff1673ffffffffffffffffffffffffffffffffffffffff16815260200173bbb205ecf75829f13b6109189ee1861cc38e63f173ffffffffffffffffffffffffffffffffffffffff1673ffffffffffffffffffffffffffffffffffffffff168152602001731f3bdf7c4756892c7f03d15a875b8af5069045fd73ffffffffffffffffffffffffffffffffffffffff1673ffffffffffffffffffffffffffffffffffffffff1681526020017323d049c5886089f9f7746217d745b41d3f939a7b73ffffffffffffffffffffffffffffffffffffffff1673ffffffffffffffffffffffffffffffffffffffff1681526020017307c3b02d1a22d9fe02750eb2d6a1f0be677c151d73ffffffffffffffffffffffffffffffffffffffff1673ffffffffffffffffffffffffffffffffffffffff168152602001737add452e82f9ea945ebaac8f8f32168cba9f14d873ffffffffffffffffffffffffffffffffffffffff1673ffffffffffffffffffffffffffffffffffffffff1681526020017382a9f8f87568eba3ad798e61e693b35cbc8c4fe173ffffffffffffffffffffffffffffffffffffffff1673ffffffffffffffffffffffffffffffffffffffff16815250905060005b600a81101562000a415760008282600a8110620009675762000966620017ea565b5b602002015190506200097a858262000a47565b62000a2a578373ffffffffffffffffffffffffffffffffffffffff1663ca6d56dc826040518263ffffffff1660e01b8152600401620009ba9190620013f0565b600060405180830381600087803b158015620009d557600080fd5b505af1158015620009ea573d6000803e3d6000fd5b505050507f19c2cee09470d9f5934cb6d3839371932a4999f4d3ab1423e43465bb26858634858260405162000a219291906200140d565b60405180910390a15b50808062000a38906200176d565b91505062000945565b50505050565b6000806000808573ffffffffffffffffffffffffffffffffffffffff1673ffffffffffffffffffffffffffffffffffffffff16815260200190815260200160002060009054906101000a900473ffffffffffffffffffffffffffffffffffffffff16905060005b8173ffffffffffffffffffffffffffffffffffffffff1663297f9af06040518163ffffffff1660e01b815260040160206040518083038186803b15801562000af557600080fd5b505afa15801562000b0a573d6000803e3d6000fd5b505050506040513d601f19601f8201168201806040525081019062000b3091906200127d565b81101562000c1d578373ffffffffffffffffffffffffffffffffffffffff168273ffffffffffffffffffffffffffffffffffffffff16635daf08ca836040518263ffffffff1660e01b815260040162000b8a91906200159b565b60206040518083038186803b15801562000ba357600080fd5b505afa15801562000bb8573d6000803e3d6000fd5b505050506040513d601f19601f8201168201806040525081019062000bde91906200112e565b73ffffffffffffffffffffffffffffffffffffffff16141562000c075760019250505062000c24565b808062000c14906200176d565b91505062000aae565b5060009150505b92915050565b6060600180548060200260200160405190810160405280929190818152602001828054801562000cb057602002820191906000526020600020905b8160009054906101000a900473ffffffffffffffffffffffffffffffffffffffff1673ffffffffffffffffffffffffffffffffffffffff168152602001906001019080831162000c65575b5050505050905090565b60008060008373ffffffffffffffffffffffffffffffffffffffff1673ffffffffffffffffffffffffffffffffffffffff16815260200190815260200160002060009054906101000a900473ffffffffffffffffffffffffffffffffffffffff16905062000d29823362000a47565b1562000d6c576040517f08c379a000000000000000000000000000000000000000000000000000000000815260040162000d639062001579565b60405180910390fd5b8073ffffffffffffffffffffffffffffffffffffffff1663ca6d56dc336040518263ffffffff1660e01b815260040162000da79190620013f0565b600060405180830381600087803b15801562000dc257600080fd5b505af115801562000dd7573d6000803e3d6000fd5b505050507f19c2cee09470d9f5934cb6d3839371932a4999f4d3ab1423e43465bb26858634823360405162000e0e9291906200140d565b60405180910390a15050565b60006020528060005260406000206000915054906101000a900473ffffffffffffffffffffffffffffffffffffffff1681565b600082823360405162000e609062000fad565b62000e6e93929190620014cc565b604051809103906000f08015801562000e8b573d6000803e3d6000fd5b509050806000808373ffffffffffffffffffffffffffffffffffffffff1673ffffffffffffffffffffffffffffffffffffffff16815260200190815260200160002060006101000a81548173ffffffffffffffffffffffffffffffffffffffff021916908373ffffffffffffffffffffffffffffffffffffffff1602179055506001819080600181540180825580915050600190039060005260206000200160009091909190916101000a81548173ffffffffffffffffffffffffffffffffffffffff021916908373ffffffffffffffffffffffffffffffffffffffff1602179055507e1d639484c46792ffbaa78827c6f9e6563478dac823f4e2a8ece68cf4d48673818460405162000fa09291906200143a565b60405180910390a1505050565b6130da80620018cb83390190565b600062000fd262000fcc84620015e1565b620015b8565b90508281526020810184848401111562000ff15762000ff06200184d565b5b62000ffe848285620016f2565b509392505050565b60006200101d6200101784620015e1565b620015b8565b9050828152602081018484840111156200103c576200103b6200184d565b5b6200104984828562001701565b509392505050565b600081359050620010628162001896565b92915050565b600081519050620010798162001896565b92915050565b600082601f83011262001097576200109662001848565b5b8135620010a984826020860162000fbb565b91505092915050565b600082601f830112620010ca57620010c962001848565b5b8151620010dc84826020860162001006565b91505092915050565b600081519050620010f681620018b0565b92915050565b60006020828403121562001115576200111462001857565b5b6000620011258482850162001051565b91505092915050565b60006020828403121562001147576200114662001857565b5b6000620011578482850162001068565b91505092915050565b600080604083850312156200117a576200117962001857565b5b60006200118a8582860162001051565b92505060206200119d8582860162001051565b9150509250929050565b600060208284031215620011c057620011bf62001857565b5b600082015167ffffffffffffffff811115620011e157620011e062001852565b5b620011ef84828501620010b2565b91505092915050565b6000806040838503121562001212576200121162001857565b5b600083013567ffffffffffffffff81111562001233576200123262001852565b5b62001241858286016200107f565b925050602083013567ffffffffffffffff81111562001265576200126462001852565b5b62001273858286016200107f565b9150509250929050565b60006020828403121562001296576200129562001857565b5b6000620012a684828501620010e5565b91505092915050565b6000620012bd8383620012c9565b60208301905092915050565b620012d4816200166c565b82525050565b620012e5816200166c565b82525050565b6000620012f88262001627565b6200130481856200164a565b9350620013118362001617565b8060005b83811015620013485781516200132c8882620012af565b975062001339836200163d565b92505060018101905062001315565b5085935050505092915050565b620013608162001680565b82525050565b6200137181620016b6565b82525050565b6000620013848262001632565b6200139081856200165b565b9350620013a281856020860162001701565b620013ad816200185c565b840191505092915050565b6000620013c7601b836200165b565b9150620013d4826200186d565b602082019050919050565b620013ea81620016ac565b82525050565b6000602082019050620014076000830184620012da565b92915050565b6000604082019050620014246000830185620012da565b620014336020830184620012da565b9392505050565b6000604082019050620014516000830185620012da565b818103602083015262001465818462001377565b90509392505050565b600060208201905081810360008301526200148a8184620012eb565b905092915050565b6000602082019050620014a9600083018462001355565b92915050565b6000602082019050620014c6600083018462001366565b92915050565b60006060820190508181036000830152620014e8818662001377565b90508181036020830152620014fe818562001377565b90506200150f6040830184620012da565b949350505050565b6000608082019050818103600083015262001533818762001377565b9050818103602083015262001549818662001377565b90506200155a6040830185620013df565b81810360608301526200156e8184620012eb565b905095945050505050565b600060208201905081810360008301526200159481620013b8565b9050919050565b6000602082019050620015b26000830184620013df565b92915050565b6000620015c4620015d7565b9050620015d2828262001737565b919050565b6000604051905090565b600067ffffffffffffffff821115620015ff57620015fe62001819565b5b6200160a826200185c565b9050602081019050919050565b6000819050602082019050919050565b600081519050919050565b600081519050919050565b6000602082019050919050565b600082825260208201905092915050565b600082825260208201905092915050565b600062001679826200168c565b9050919050565b60008115159050919050565b600073ffffffffffffffffffffffffffffffffffffffff82169050919050565b6000819050919050565b6000620016c382620016ca565b9050919050565b6000620016d782620016de565b9050919050565b6000620016eb826200168c565b9050919050565b82818337600083830152505050565b60005b838110156200172157808201518184015260208101905062001704565b8381111562001731576000848401525b50505050565b62001742826200185c565b810181811067ffffffffffffffff8211171562001764576200176362001819565b5b80604052505050565b60006200177a82620016ac565b91507fffffffffffffffffffffffffffffffffffffffffffffffffffffffffffffffff821415620017b057620017af620017bb565b5b600182019050919050565b7f4e487b7100000000000000000000000000000000000000000000000000000000600052601160045260246000fd5b7f4e487b7100000000000000000000000000000000000000000000000000000000600052603260045260246000fd5b7f4e487b7100000000000000000000000000000000000000000000000000000000600052604160045260246000fd5b600080fd5b600080fd5b600080fd5b600080fd5b6000601f19601f8301169050919050565b7f416c72656164792061206d656d626572206f66207468652044414f0000000000600082015250565b620018a1816200166c565b8114620018ad57600080fd5b50565b620018bb81620016ac565b8114620018c757600080fd5b5056fe60806040523480156200001157600080fd5b50604051620030da380380620030da833981810160405281019062000037919062000234565b82600090805190602001906200004f929190620000ef565b50816001908051906020019062000068929190620000ef565b506002819080600181540180825580915050600190039060005260206000200160009091909190916101000a81548173ffffffffffffffffffffffffffffffffffffffff021916908373ffffffffffffffffffffffffffffffffffffffff16021790555060036000815480929190620000e1906200040d565b919050555050505062000527565b828054620000fd90620003a1565b90600052602060002090601f0160209004810192826200012157600085556200016d565b82601f106200013c57805160ff19168380011785556200016d565b828001600101855582156200016d579182015b828111156200016c5782518255916020019190600101906200014f565b5b5090506200017c919062000180565b5090565b5b808211156200019b57600081600090555060010162000181565b5090565b6000620001b6620001b084620002f7565b620002ce565b905082815260208101848484011115620001d557620001d4620004ed565b5b620001e28482856200036b565b509392505050565b600081519050620001fb816200050d565b92915050565b600082601f830112620002195762000218620004e8565b5b81516200022b8482602086016200019f565b91505092915050565b60008060006060848603121562000250576200024f620004f7565b5b600084015167ffffffffffffffff811115620002715762000270620004f2565b5b6200027f8682870162000201565b935050602084015167ffffffffffffffff811115620002a357620002a2620004f2565b5b620002b18682870162000201565b9250506040620002c486828701620001ea565b9150509250925092565b6000620002da620002ed565b9050620002e88282620003d7565b919050565b6000604051905090565b600067ffffffffffffffff821115620003155762000314620004b9565b5b6200032082620004fc565b9050602081019050919050565b60006200033a8262000341565b9050919050565b600073ffffffffffffffffffffffffffffffffffffffff82169050919050565b6000819050919050565b60005b838110156200038b5780820151818401526020810190506200036e565b838111156200039b576000848401525b50505050565b60006002820490506001821680620003ba57607f821691505b60208210811415620003d157620003d06200048a565b5b50919050565b620003e282620004fc565b810181811067ffffffffffffffff82111715620004045762000403620004b9565b5b80604052505050565b60006200041a8262000361565b91507fffffffffffffffffffffffffffffffffffffffffffffffffffffffffffffffff82141562000450576200044f6200045b565b5b600182019050919050565b7f4e487b7100000000000000000000000000000000000000000000000000000000600052601160045260246000fd5b7f4e487b7100000000000000000000000000000000000000000000000000000000600052602260045260246000fd5b7f4e487b7100000000000000000000000000000000000000000000000000000000600052604160045260246000fd5b600080fd5b600080fd5b600080fd5b600080fd5b6000601f19601f8301169050919050565b62000518816200032d565b81146200052457600080fd5b50565b612ba380620005376000396000f3fe6080604052600436106100dd5760003560e01c806369a136dc1161007f578063a230c52411610059578063a230c524146102eb578063ca6d56dc14610328578063da35c66414610351578063e1de9dd91461037c576100dd565b806369a136dc1461025a5780637284e416146102975780639db31bac146102c2576100dd565b80633b4d01a7116100bb5780633b4d01a7146101805780635aef7de6146101c75780635daf08ca146101f257806362564c481461022f576100dd565b8063013cf08b146100e257806306fdde031461012a578063297f9af014610155575b600080fd5b3480156100ee57600080fd5b5061010960048036038101906101049190611f69565b610398565b6040516101219c9b9a99989796959493929190612636565b60405180910390f35b34801561013657600080fd5b5061013f6106ed565b60405161014c91906124c4565b60405180910390f35b34801561016157600080fd5b5061016a61077b565b604051610177919061261b565b60405180910390f35b34801561018c57600080fd5b506101a760048036038101906101a29190611f69565b610781565b6040516101be9b9a999897969594939291906124e6565b60405180910390f35b3480156101d357600080fd5b506101dc610cfd565b6040516101e991906124c4565b60405180910390f35b3480156101fe57600080fd5b5061021960048036038101906102149190611f69565b610d8b565b604051610226919061244a565b60405180910390f35b34801561023b57600080fd5b50610244610dca565b6040516102519190612465565b60405180910390f35b34801561026657600080fd5b50610281600480360381019061027c9190611f69565b61125a565b60405161028e9190612487565b60405180910390f35b3480156102a357600080fd5b506102ac611475565b6040516102b991906124c4565b60405180910390f35b3480156102ce57600080fd5b506102e960048036038101906102e49190611e3b565b611503565b005b3480156102f757600080fd5b50610312600480360381019061030d9190611e0e565b61172d565b60405161031f91906124a9565b60405180910390f35b34801561033457600080fd5b5061034f600480360381019061034a9190611e0e565b6117d9565b005b34801561035d57600080fd5b50610366611857565b604051610373919061261b565b60405180910390f35b61039660048036038101906103919190611f96565b61185d565b005b60056020528060005260406000206000915090508060000154908060010160009054906101000a900473ffffffffffffffffffffffffffffffffffffffff16908060020180546103e7906128fa565b80601f0160208091040260200160405190810160405280929190818152602001828054610413906128fa565b80156104605780601f1061043557610100808354040283529160200191610460565b820191906000526020600020905b81548152906001019060200180831161044357829003601f168201915b505050505090806003018054610475906128fa565b80601f01602080910402602001604051908101604052809291908181526020018280546104a1906128fa565b80156104ee5780601f106104c3576101008083540402835291602001916104ee565b820191906000526020600020905b8154815290600101906020018083116104d157829003601f168201915b5050505050908060040154908060050154908060060160009054906101000a900460ff16908060070154908060080160009054906101000a900473ffffffffffffffffffffffffffffffffffffffff169080600901805461054e906128fa565b80601f016020809104026020016040519081016040528092919081815260200182805461057a906128fa565b80156105c75780601f1061059c576101008083540402835291602001916105c7565b820191906000526020600020905b8154815290600101906020018083116105aa57829003601f168201915b50505050509080600a0180546105dc906128fa565b80601f0160208091040260200160405190810160405280929190818152602001828054610608906128fa565b80156106555780601f1061062a57610100808354040283529160200191610655565b820191906000526020600020905b81548152906001019060200180831161063857829003601f168201915b50505050509080600b01805461066a906128fa565b80601f0160208091040260200160405190810160405280929190818152602001828054610696906128fa565b80156106e35780601f106106b8576101008083540402835291602001916106e3565b820191906000526020600020905b8154815290600101906020018083116106c657829003601f168201915b505050505090508c565b600080546106fa906128fa565b80601f0160208091040260200160405190810160405280929190818152602001828054610726906128fa565b80156107735780601f1061074857610100808354040283529160200191610773565b820191906000526020600020905b81548152906001019060200180831161075657829003601f168201915b505050505081565b60035481565b60608060008060008060006060806060806000600560008e815260200190815260200160002090506000600860008f8152602001908152602001600020805480602002602001604051908101604052809291908181526020016000905b828210156109b957838290600052602060002090600602016040518060c00160405290816000820160009054906101000a900473ffffffffffffffffffffffffffffffffffffffff1673ffffffffffffffffffffffffffffffffffffffff1673ffffffffffffffffffffffffffffffffffffffff168152602001600182015481526020016002820160009054906101000a900460ff1615151515815260200160038201805461088c906128fa565b80601f01602080910402602001604051908101604052809291908181526020018280546108b8906128fa565b80156109055780601f106108da57610100808354040283529160200191610905565b820191906000526020600020905b8154815290600101906020018083116108e857829003601f168201915b5050505050815260200160048201805461091e906128fa565b80601f016020809104026020016040519081016040528092919081815260200182805461094a906128fa565b80156109975780601f1061096c57610100808354040283529160200191610997565b820191906000526020600020905b81548152906001019060200180831161097a57829003601f168201915b50505050508152602001600582015481525050815260200190600101906107de565b5050505090508160020182600301836004015484600501548560060160009054906101000a900460ff1686600701548760010160009054906101000a900473ffffffffffffffffffffffffffffffffffffffff168860090189600a018a600b018a8a8054610a26906128fa565b80601f0160208091040260200160405190810160405280929190818152602001828054610a52906128fa565b8015610a9f5780601f10610a7457610100808354040283529160200191610a9f565b820191906000526020600020905b815481529060010190602001808311610a8257829003601f168201915b50505050509a50898054610ab2906128fa565b80601f0160208091040260200160405190810160405280929190818152602001828054610ade906128fa565b8015610b2b5780601f10610b0057610100808354040283529160200191610b2b565b820191906000526020600020905b815481529060010190602001808311610b0e57829003601f168201915b50505050509950838054610b3e906128fa565b80601f0160208091040260200160405190810160405280929190818152602001828054610b6a906128fa565b8015610bb75780601f10610b8c57610100808354040283529160200191610bb7565b820191906000526020600020905b815481529060010190602001808311610b9a57829003601f168201915b50505050509350828054610bca906128fa565b80601f0160208091040260200160405190810160405280929190818152602001828054610bf6906128fa565b8015610c435780601f10610c1857610100808354040283529160200191610c43565b820191906000526020600020905b815481529060010190602001808311610c2657829003601f168201915b50505050509250818054610c56906128fa565b80601f0160208091040260200160405190810160405280929190818152602001828054610c82906128fa565b8015610ccf5780601f10610ca457610100808354040283529160200191610ccf565b820191906000526020600020905b815481529060010190602001808311610cb257829003601f168201915b505050505091509c509c509c509c509c509c509c509c509c509c509c50505091939597999b90929496989a50565b60048054610d0a906128fa565b80601f0160208091040260200160405190810160405280929190818152602001828054610d36906128fa565b8015610d835780601f10610d5857610100808354040283529160200191610d83565b820191906000526020600020905b815481529060010190602001808311610d6657829003601f168201915b505050505081565b60028181548110610d9b57600080fd5b906000526020600020016000915054906101000a900473ffffffffffffffffffffffffffffffffffffffff1681565b6060600060065467ffffffffffffffff811115610dea57610de9612a33565b5b604051908082528060200260200182016040528015610e2357816020015b610e10611c2d565b815260200190600190039081610e085790505b50905060005b6006548110156112525760006005600083815260200190815260200160002090508060405180610180016040529081600082015481526020016001820160009054906101000a900473ffffffffffffffffffffffffffffffffffffffff1673ffffffffffffffffffffffffffffffffffffffff1673ffffffffffffffffffffffffffffffffffffffff168152602001600282018054610ec7906128fa565b80601f0160208091040260200160405190810160405280929190818152602001828054610ef3906128fa565b8015610f405780601f10610f1557610100808354040283529160200191610f40565b820191906000526020600020905b815481529060010190602001808311610f2357829003601f168201915b50505050508152602001600382018054610f59906128fa565b80601f0160208091040260200160405190810160405280929190818152602001828054610f85906128fa565b8015610fd25780601f10610fa757610100808354040283529160200191610fd2565b820191906000526020600020905b815481529060010190602001808311610fb557829003601f168201915b5050505050815260200160048201548152602001600582015481526020016006820160009054906101000a900460ff16151515158152602001600782015481526020016008820160009054906101000a900473ffffffffffffffffffffffffffffffffffffffff1673ffffffffffffffffffffffffffffffffffffffff1673ffffffffffffffffffffffffffffffffffffffff16815260200160098201805461107a906128fa565b80601f01602080910402602001604051908101604052809291908181526020018280546110a6906128fa565b80156110f35780601f106110c8576101008083540402835291602001916110f3565b820191906000526020600020905b8154815290600101906020018083116110d657829003601f168201915b50505050508152602001600a8201805461110c906128fa565b80601f0160208091040260200160405190810160405280929190818152602001828054611138906128fa565b80156111855780601f1061115a57610100808354040283529160200191611185565b820191906000526020600020905b81548152906001019060200180831161116857829003601f168201915b50505050508152602001600b8201805461119e906128fa565b80601f01602080910402602001604051908101604052809291908181526020018280546111ca906128fa565b80156112175780601f106111ec57610100808354040283529160200191611217565b820191906000526020600020905b8154815290600101906020018083116111fa57829003601f168201915b50505050508152505083838151811061123357611232612a04565b5b602002602001018190525050808061124a9061295d565b915050610e29565b508091505090565b606060086000838152602001908152602001600020805480602002602001604051908101604052809291908181526020016000905b8282101561146a57838290600052602060002090600602016040518060c00160405290816000820160009054906101000a900473ffffffffffffffffffffffffffffffffffffffff1673ffffffffffffffffffffffffffffffffffffffff1673ffffffffffffffffffffffffffffffffffffffff168152602001600182015481526020016002820160009054906101000a900460ff1615151515815260200160038201805461133d906128fa565b80601f0160208091040260200160405190810160405280929190818152602001828054611369906128fa565b80156113b65780601f1061138b576101008083540402835291602001916113b6565b820191906000526020600020905b81548152906001019060200180831161139957829003601f168201915b505050505081526020016004820180546113cf906128fa565b80601f01602080910402602001604051908101604052809291908181526020018280546113fb906128fa565b80156114485780601f1061141d57610100808354040283529160200191611448565b820191906000526020600020905b81548152906001019060200180831161142b57829003601f168201915b505050505081526020016005820154815250508152602001906001019061128f565b505050509050919050565b60018054611482906128fa565b80601f01602080910402602001604051908101604052809291908181526020018280546114ae906128fa565b80156114fb5780601f106114d0576101008083540402835291602001916114fb565b820191906000526020600020905b8154815290600101906020018083116114de57829003601f168201915b505050505081565b60405180610180016040528060065481526020018873ffffffffffffffffffffffffffffffffffffffff1681526020018781526020018681526020016000815260200160008152602001600015158152602001600081526020018573ffffffffffffffffffffffffffffffffffffffff168152602001848152602001838152602001828152506005600060065481526020019081526020016000206000820151816000015560208201518160010160006101000a81548173ffffffffffffffffffffffffffffffffffffffff021916908373ffffffffffffffffffffffffffffffffffffffff160217905550604082015181600201908051906020019061160b929190611cbc565b506060820151816003019080519060200190611628929190611cbc565b506080820151816004015560a0820151816005015560c08201518160060160006101000a81548160ff02191690831515021790555060e082015181600701556101008201518160080160006101000a81548173ffffffffffffffffffffffffffffffffffffffff021916908373ffffffffffffffffffffffffffffffffffffffff1602179055506101208201518160090190805190602001906116cc929190611cbc565b5061014082015181600a0190805190602001906116ea929190611cbc565b5061016082015181600b019080519060200190611708929190611cbc565b509050506006600081548092919061171f9061295d565b919050555050505050505050565b600080600090505b6003548110156117ce578273ffffffffffffffffffffffffffffffffffffffff166002828154811061176a57611769612a04565b5b9060005260206000200160009054906101000a900473ffffffffffffffffffffffffffffffffffffffff1673ffffffffffffffffffffffffffffffffffffffff1614156117bb5760019150506117d4565b80806117c69061295d565b915050611735565b50600090505b919050565b6002819080600181540180825580915050600190039060005260206000200160009091909190916101000a81548173ffffffffffffffffffffffffffffffffffffffff021916908373ffffffffffffffffffffffffffffffffffffffff1602179055506003600081548092919061184f9061295d565b919050555050565b60065481565b6118663361172d565b6118a5576040517f08c379a000000000000000000000000000000000000000000000000000000000815260040161189c906125db565b60405180910390fd5b60006005600086815260200190815260200160002090508060060160009054906101000a900460ff161561190e576040517f08c379a0000000000000000000000000000000000000000000000000000000008152600401611905906125fb565b60405180910390fd5b6000600760003373ffffffffffffffffffffffffffffffffffffffff1673ffffffffffffffffffffffffffffffffffffffff16815260200190815260200160002080548060200260200160405190810160405280929190818152602001828054801561199957602002820191906000526020600020905b815481526020019060010190808311611985575b5050505050905060005b8151811015611a20578181815181106119bf576119be612a04565b5b602002602001015183600001541415611a0d576040517f08c379a0000000000000000000000000000000000000000000000000000000008152600401611a04906125bb565b60405180910390fd5b8080611a189061295d565b9150506119a3565b506000341115611a6457816004016000815480929190611a3f9061295d565b919050555034826007016000828254611a589190612808565b92505081905550611a7f565b816005016000815480929190611a799061295d565b91905055505b600760003373ffffffffffffffffffffffffffffffffffffffff1673ffffffffffffffffffffffffffffffffffffffff1681526020019081526020016000208260000154908060018154018082558091505060019003906000526020600020016000909190919091505560086000836000015481526020019081526020016000206040518060c001604052803373ffffffffffffffffffffffffffffffffffffffff168152602001428152602001871515815260200186815260200185815260200134815250908060018154018082558091505060019003906000526020600020906006020160009091909190915060008201518160000160006101000a81548173ffffffffffffffffffffffffffffffffffffffff021916908373ffffffffffffffffffffffffffffffffffffffff1602179055506020820151816001015560408201518160020160006101000a81548160ff0219169083151502179055506060820151816003019080519060200190611bfb929190611cbc565b506080820151816004019080519060200190611c18929190611cbc565b5060a082015181600501555050505050505050565b60405180610180016040528060008152602001600073ffffffffffffffffffffffffffffffffffffffff1681526020016060815260200160608152602001600081526020016000815260200160001515815260200160008152602001600073ffffffffffffffffffffffffffffffffffffffff1681526020016060815260200160608152602001606081525090565b828054611cc8906128fa565b90600052602060002090601f016020900481019282611cea5760008555611d31565b82601f10611d0357805160ff1916838001178555611d31565b82800160010185558215611d31579182015b82811115611d30578251825591602001919060010190611d15565b5b509050611d3e9190611d42565b5090565b5b80821115611d5b576000816000905550600101611d43565b5090565b6000611d72611d6d84612738565b612713565b905082815260208101848484011115611d8e57611d8d612a67565b5b611d998482856128b8565b509392505050565b600081359050611db081612b28565b92915050565b600081359050611dc581612b3f565b92915050565b600082601f830112611de057611ddf612a62565b5b8135611df0848260208601611d5f565b91505092915050565b600081359050611e0881612b56565b92915050565b600060208284031215611e2457611e23612a71565b5b6000611e3284828501611da1565b91505092915050565b600080600080600080600060e0888a031215611e5a57611e59612a71565b5b6000611e688a828b01611da1565b975050602088013567ffffffffffffffff811115611e8957611e88612a6c565b5b611e958a828b01611dcb565b965050604088013567ffffffffffffffff811115611eb657611eb5612a6c565b5b611ec28a828b01611dcb565b9550506060611ed38a828b01611da1565b945050608088013567ffffffffffffffff811115611ef457611ef3612a6c565b5b611f008a828b01611dcb565b93505060a088013567ffffffffffffffff811115611f2157611f20612a6c565b5b611f2d8a828b01611dcb565b92505060c088013567ffffffffffffffff811115611f4e57611f4d612a6c565b5b611f5a8a828b01611dcb565b91505092959891949750929550565b600060208284031215611f7f57611f7e612a71565b5b6000611f8d84828501611df9565b91505092915050565b60008060008060808587031215611fb057611faf612a71565b5b6000611fbe87828801611df9565b9450506020611fcf87828801611db6565b935050604085013567ffffffffffffffff811115611ff057611fef612a6c565b5b611ffc87828801611dcb565b925050606085013567ffffffffffffffff81111561201d5761201c612a6c565b5b61202987828801611dcb565b91505092959194509250565b6000612041838361227c565b905092915050565b6000612055838361239c565b905092915050565b61206681612870565b82525050565b61207581612870565b82525050565b6120848161285e565b82525050565b6120938161285e565b82525050565b60006120a482612789565b6120ae81856127c4565b9350836020820285016120c085612769565b8060005b858110156120fc57848403895281516120dd8582612035565b94506120e8836127aa565b925060208a019950506001810190506120c4565b50829750879550505050505092915050565b600061211982612794565b61212381856127d5565b93508360208202850161213585612779565b8060005b8581101561217157848403895281516121528582612049565b945061215d836127b7565b925060208a01995050600181019050612139565b50829750879550505050505092915050565b61218c81612882565b82525050565b61219b81612882565b82525050565b60006121ac8261279f565b6121b681856127e6565b93506121c68185602086016128c7565b6121cf81612a76565b840191505092915050565b60006121e58261279f565b6121ef81856127f7565b93506121ff8185602086016128c7565b61220881612a76565b840191505092915050565b60006122206019836127f7565b915061222b82612a87565b602082019050919050565b60006122436015836127f7565b915061224e82612ab0565b602082019050919050565b60006122666022836127f7565b915061227182612ad9565b604082019050919050565b600061018083016000830151612295600086018261242c565b5060208301516122a8602086018261207b565b50604083015184820360408601526122c082826121a1565b915050606083015184820360608601526122da82826121a1565b91505060808301516122ef608086018261242c565b5060a083015161230260a086018261242c565b5060c083015161231560c0860182612183565b5060e083015161232860e086018261242c565b5061010083015161233d61010086018261205d565b5061012083015184820361012086015261235782826121a1565b91505061014083015184820361014086015261237382826121a1565b91505061016083015184820361016086015261238f82826121a1565b9150508091505092915050565b600060c0830160008301516123b4600086018261207b565b5060208301516123c7602086018261242c565b5060408301516123da6040860182612183565b50606083015184820360608601526123f282826121a1565b9150506080830151848203608086015261240c82826121a1565b91505060a083015161242160a086018261242c565b508091505092915050565b612435816128ae565b82525050565b612444816128ae565b82525050565b600060208201905061245f600083018461208a565b92915050565b6000602082019050818103600083015261247f8184612099565b905092915050565b600060208201905081810360008301526124a1818461210e565b905092915050565b60006020820190506124be6000830184612192565b92915050565b600060208201905081810360008301526124de81846121da565b905092915050565b6000610160820190508181036000830152612501818e6121da565b90508181036020830152612515818d6121da565b9050612524604083018c61243b565b612531606083018b61243b565b61253e608083018a612192565b61254b60a083018961243b565b61255860c083018861208a565b81810360e083015261256a81876121da565b905081810361010083015261257f81866121da565b905081810361012083015261259481856121da565b90508181036101408301526125a9818461210e565b90509c9b505050505050505050505050565b600060208201905081810360008301526125d481612213565b9050919050565b600060208201905081810360008301526125f481612236565b9050919050565b6000602082019050818103600083015261261481612259565b9050919050565b6000602082019050612630600083018461243b565b92915050565b60006101808201905061264c600083018f61243b565b612659602083018e61208a565b818103604083015261266b818d6121da565b9050818103606083015261267f818c6121da565b905061268e608083018b61243b565b61269b60a083018a61243b565b6126a860c0830189612192565b6126b560e083018861243b565b6126c361010083018761206c565b8181036101208301526126d681866121da565b90508181036101408301526126eb81856121da565b905081810361016083015261270081846121da565b90509d9c50505050505050505050505050565b600061271d61272e565b9050612729828261292c565b919050565b6000604051905090565b600067ffffffffffffffff82111561275357612752612a33565b5b61275c82612a76565b9050602081019050919050565b6000819050602082019050919050565b6000819050602082019050919050565b600081519050919050565b600081519050919050565b600081519050919050565b6000602082019050919050565b6000602082019050919050565b600082825260208201905092915050565b600082825260208201905092915050565b600082825260208201905092915050565b600082825260208201905092915050565b6000612813826128ae565b915061281e836128ae565b9250827fffffffffffffffffffffffffffffffffffffffffffffffffffffffffffffffff03821115612853576128526129a6565b5b828201905092915050565b60006128698261288e565b9050919050565b600061287b8261288e565b9050919050565b60008115159050919050565b600073ffffffffffffffffffffffffffffffffffffffff82169050919050565b6000819050919050565b82818337600083830152505050565b60005b838110156128e55780820151818401526020810190506128ca565b838111156128f4576000848401525b50505050565b6000600282049050600182168061291257607f821691505b60208210811415612926576129256129d5565b5b50919050565b61293582612a76565b810181811067ffffffffffffffff8211171561295457612953612a33565b5b80604052505050565b6000612968826128ae565b91507fffffffffffffffffffffffffffffffffffffffffffffffffffffffffffffffff82141561299b5761299a6129a6565b5b600182019050919050565b7f4e487b7100000000000000000000000000000000000000000000000000000000600052601160045260246000fd5b7f4e487b7100000000000000000000000000000000000000000000000000000000600052602260045260246000fd5b7f4e487b7100000000000000000000000000000000000000000000000000000000600052603260045260246000fd5b7f4e487b7100000000000000000000000000000000000000000000000000000000600052604160045260246000fd5b600080fd5b600080fd5b600080fd5b600080fd5b6000601f19601f8301169050919050565b7f446f75626c6520766f74696e67206e6f7420616c6c6f77656400000000000000600082015250565b7f4f6e6c79206d656d626572732063616e20766f74650000000000000000000000600082015250565b7f50726f706f73616c2068617320616c7265616479206265656e2065786563757460008201527f6564000000000000000000000000000000000000000000000000000000000000602082015250565b612b318161285e565b8114612b3c57600080fd5b50565b612b4881612882565b8114612b5357600080fd5b50565b612b5f816128ae565b8114612b6a57600080fd5b5056fea264697066735822122026a716789c519ad4f6e70abeae60070e866b7ea11712566a66ca1ec843f30fe364736f6c63430008070033a26469706673582212209fef0ae47fe73efcd134e67d9af8d8c1be9803dd33955bd62cb9678051165db964736f6c63430008070033",
  "immutableReferences": {},
  "source": "// SPDX-License-Identifier: MIT\r\npragma solidity ^0.8.7;\r\n\r\nimport './DAO.sol';\r\n\r\n\r\ncontract ManagerDAOs {\r\n    mapping(address => DAO) public daos;\r\n    address[] daoAddresses;\r\n\r\n    event DAOCreated(address dao, string name);\r\n    event DAOJoined(address dao, address member);\r\n\r\n    function createDAO(string memory _name, string memory _description) public {\r\n        DAO newDAO = new DAO(_name, _description, msg.sender);\r\n        daos[address(newDAO)] = newDAO;\r\n        daoAddresses.push(address(newDAO));\r\n\r\n        emit DAOCreated(address(newDAO), _name);\r\n    }\r\n\r\n    function joinDAO(address _dao) public {\r\n        DAO dao = daos[_dao];\r\n        require(!isMember(_dao, msg.sender), \"Already a member of the DAO\");\r\n        dao.addMember(msg.sender);\r\n\r\n        emit DAOJoined(_dao, msg.sender);\r\n    }\r\n\r\n    function addDefaultMembersToDAO(address _dao) public {\r\n        DAO dao = daos[_dao];\r\n        address[10] memory accounts = [\r\n            0xdA50C3AA3F935B3FC1830f476e2c245b5f45e64B,\r\n            0x017F648856D2aD665c6eBB577E8bff9c29ad7351,\r\n            0x591c472ff1c891A3C79dF047266C41e7DC8dD307,\r\n            0xf4221d5C37F470939801ef4A3BaA9F4d460A042B,\r\n            0xBbb205Ecf75829F13b6109189Ee1861cc38e63F1,\r\n            0x1F3bDf7C4756892C7F03D15a875b8af5069045Fd,\r\n            0x23D049c5886089F9f7746217D745B41d3F939A7b,\r\n            0x07c3B02D1A22D9fE02750EB2d6A1f0Be677C151D,\r\n            0x7add452E82f9eA945eBaAc8f8F32168cba9f14D8,\r\n            0x82a9F8F87568ebA3aD798E61E693b35cbc8c4FE1\r\n        ];\r\n        for (uint256 i = 0; i < 10; i++) {\r\n            address _account = accounts[i];\r\n            if (!isMember(_dao, _account)) {\r\n                dao.addMember(_account);\r\n                emit DAOJoined(_dao, _account);\r\n            }\r\n        }\r\n    }\r\n\r\n\r\n    function isMember(address _dao, address _member) public view returns (bool) {\r\n        DAO dao = daos[_dao];\r\n        for (uint256 i = 0; i < dao.membersCount(); i++) {\r\n            if (dao.members(i) == _member) {\r\n                return true;\r\n            }\r\n        }\r\n        return false;\r\n    }\r\n\r\n    function getDAO(address _dao) public view returns (string memory, string memory, uint256, address[] memory) {\r\n        DAO dao = daos[_dao];\r\n        address[] memory daoMemers = new address[](dao.membersCount());\r\n\r\n        for (uint256 i = 0; i < dao.membersCount(); i++) {\r\n            daoMemers[i] = dao.members(i);\r\n        }\r\n\r\n        return (dao.name(), dao.description(), dao.membersCount(), daoMemers);\r\n    }\r\n\r\n    function getAllDAOs() public view returns (address[] memory) {\r\n        return daoAddresses;\r\n    }\r\n\r\n}\r\n",
  "sourcePath": "/Users/ilyatorch/AragonProjects/dominionDAOV2/src/contracts/ManagerDAOs.sol",
  "compiler": {
    "name": "solc",
    "version": "0.8.7+commit.e28d00a7.Emscripten.clang"
  },
  "schemaVersion": "3.4.10",
  "updatedAt": "2023-10-15T14:17:47.922Z",
  "networkType": "ethereum",
  "devdoc": {
    "kind": "dev",
    "methods": {},
    "version": 1
  },
  "userdoc": {
    "kind": "user",
    "methods": {},
    "version": 1
  }
}