{
  "contractName": "ManagerDAOs",
  "abi": [
    {
      "anonymous": false,
      "inputs": [
        {
          "indexed": false,
          "internalType": "address",
          "name": "dao",
          "type": "address"
        },
        {
          "indexed": false,
          "internalType": "string",
          "name": "name",
          "type": "string"
        }
      ],
      "name": "DAOCreated",
      "type": "event"
    },
    {
      "anonymous": false,
      "inputs": [
        {
          "indexed": false,
          "internalType": "address",
          "name": "dao",
          "type": "address"
        },
        {
          "indexed": false,
          "internalType": "address",
          "name": "member",
          "type": "address"
        }
      ],
      "name": "DAOJoined",
      "type": "event"
    },
    {
      "inputs": [
        {
          "internalType": "address",
          "name": "",
          "type": "address"
        }
      ],
      "name": "daos",
      "outputs": [
        {
          "internalType": "contract DAO",
          "name": "",
          "type": "address"
        }
      ],
      "stateMutability": "view",
      "type": "function",
      "constant": true
    },
    {
      "inputs": [
        {
          "internalType": "string",
          "name": "_name",
          "type": "string"
        },
        {
          "internalType": "string",
          "name": "_description",
          "type": "string"
        },
        {
          "internalType": "string",
          "name": "_scope",
          "type": "string"
        }
      ],
      "name": "createDAO",
      "outputs": [],
      "stateMutability": "nonpayable",
      "type": "function"
    },
    {
      "inputs": [
        {
          "internalType": "address",
          "name": "_dao",
          "type": "address"
        }
      ],
      "name": "joinDAO",
      "outputs": [],
      "stateMutability": "nonpayable",
      "type": "function"
    },
    {
      "inputs": [
        {
          "internalType": "address",
          "name": "_dao",
          "type": "address"
        }
      ],
      "name": "addDefaultMembersToDAO",
      "outputs": [],
      "stateMutability": "nonpayable",
      "type": "function"
    },
    {
      "inputs": [],
      "name": "addDefaultDAOs",
      "outputs": [],
      "stateMutability": "nonpayable",
      "type": "function"
    },
    {
      "inputs": [
        {
          "internalType": "address",
          "name": "_dao",
          "type": "address"
        },
        {
          "internalType": "address",
          "name": "_member",
          "type": "address"
        }
      ],
      "name": "isMember",
      "outputs": [
        {
          "internalType": "bool",
          "name": "",
          "type": "bool"
        }
      ],
      "stateMutability": "view",
      "type": "function",
      "constant": true
    },
    {
      "inputs": [
        {
          "internalType": "address",
          "name": "_dao",
          "type": "address"
        }
      ],
      "name": "getDAO",
      "outputs": [
        {
          "internalType": "address",
          "name": "",
          "type": "address"
        },
        {
          "internalType": "string",
          "name": "",
          "type": "string"
        },
        {
          "internalType": "string",
          "name": "",
          "type": "string"
        },
        {
          "internalType": "string",
          "name": "",
          "type": "string"
        },
        {
          "internalType": "uint256",
          "name": "",
          "type": "uint256"
        },
        {
          "internalType": "address[]",
          "name": "",
          "type": "address[]"
        }
      ],
      "stateMutability": "view",
      "type": "function",
      "constant": true
    },
    {
      "inputs": [],
      "name": "getAllDAOs",
      "outputs": [
        {
          "internalType": "address[]",
          "name": "",
          "type": "address[]"
        }
      ],
      "stateMutability": "view",
      "type": "function",
      "constant": true
    }
  ],
  "bytecode": "0x608060405234801561001057600080fd5b50615872806100206000396000f3fe60806040523480156200001157600080fd5b5060043610620000945760003560e01c80637f9ba63211620000635780637f9ba632146200014c578063c25f3cf6146200016c578063cfb83a8d14620001a2578063eaa0309c14620001c25762000094565b8063273b6149146200009957806336c6d99114620000d457806339ac7a0814620000f45780633cb2c68a146200012a575b600080fd5b620000b76004803603810190620000b1919062001866565b620001ce565b604051620000cb9695949392919062001d7e565b60405180910390f35b620000f26004803603810190620000ec919062001866565b620006c1565b005b6200011260048036038101906200010c9190620018ca565b62000af3565b60405162000121919062001ebc565b60405180910390f35b6200013462000cd6565b60405162000143919062001e98565b60405180910390f35b6200016a600480360381019062000164919062001866565b62000d66565b005b6200018a600480360381019062000184919062001866565b62000ec6565b60405162000199919062001ed9565b60405180910390f35b620001c06004803603810190620001ba919062001962565b62000ef9565b005b620001cc6200105c565b005b600060608060606000606060008060008973ffffffffffffffffffffffffffffffffffffffff1673ffffffffffffffffffffffffffffffffffffffff16815260200190815260200160002060009054906101000a900473ffffffffffffffffffffffffffffffffffffffff16905060008173ffffffffffffffffffffffffffffffffffffffff1663297f9af06040518163ffffffff1660e01b815260040160206040518083038186803b1580156200028557600080fd5b505afa1580156200029a573d6000803e3d6000fd5b505050506040513d601f19601f82011682018060405250810190620002c0919062001a1b565b67ffffffffffffffff811115620002dc57620002db62002402565b5b6040519080825280602002602001820160405280156200030b5781602001602082028036833780820191505090505b50905060005b8273ffffffffffffffffffffffffffffffffffffffff1663297f9af06040518163ffffffff1660e01b815260040160206040518083038186803b1580156200035857600080fd5b505afa1580156200036d573d6000803e3d6000fd5b505050506040513d601f19601f8201168201806040525081019062000393919062001a1b565b81101562000490578273ffffffffffffffffffffffffffffffffffffffff16635daf08ca826040518263ffffffff1660e01b8152600401620003d6919062002170565b60206040518083038186803b158015620003ef57600080fd5b505afa15801562000404573d6000803e3d6000fd5b505050506040513d601f19601f820116820180604052508101906200042a919062001898565b82828151811062000440576200043f620023d3565b5b602002602001019073ffffffffffffffffffffffffffffffffffffffff16908173ffffffffffffffffffffffffffffffffffffffff16815250508080620004879062002356565b91505062000311565b50888273ffffffffffffffffffffffffffffffffffffffff166306fdde036040518163ffffffff1660e01b815260040160006040518083038186803b158015620004d957600080fd5b505afa158015620004ee573d6000803e3d6000fd5b505050506040513d6000823e3d601f19601f8201168201806040525081019062000519919062001911565b8373ffffffffffffffffffffffffffffffffffffffff16637284e4166040518163ffffffff1660e01b815260040160006040518083038186803b1580156200056057600080fd5b505afa15801562000575573d6000803e3d6000fd5b505050506040513d6000823e3d601f19601f82011682018060405250810190620005a0919062001911565b8473ffffffffffffffffffffffffffffffffffffffff16636e62d0a86040518163ffffffff1660e01b815260040160006040518083038186803b158015620005e757600080fd5b505afa158015620005fc573d6000803e3d6000fd5b505050506040513d6000823e3d601f19601f8201168201806040525081019062000627919062001911565b8573ffffffffffffffffffffffffffffffffffffffff1663297f9af06040518163ffffffff1660e01b815260040160206040518083038186803b1580156200066e57600080fd5b505afa15801562000683573d6000803e3d6000fd5b505050506040513d601f19601f82011682018060405250810190620006a9919062001a1b565b85975097509750975097509750505091939550919395565b60008060008373ffffffffffffffffffffffffffffffffffffffff1673ffffffffffffffffffffffffffffffffffffffff16815260200190815260200160002060009054906101000a900473ffffffffffffffffffffffffffffffffffffffff169050600060405180610140016040528073da50c3aa3f935b3fc1830f476e2c245b5f45e64b73ffffffffffffffffffffffffffffffffffffffff1673ffffffffffffffffffffffffffffffffffffffff16815260200173017f648856d2ad665c6ebb577e8bff9c29ad735173ffffffffffffffffffffffffffffffffffffffff1673ffffffffffffffffffffffffffffffffffffffff16815260200173591c472ff1c891a3c79df047266c41e7dc8dd30773ffffffffffffffffffffffffffffffffffffffff1673ffffffffffffffffffffffffffffffffffffffff16815260200173f4221d5c37f470939801ef4a3baa9f4d460a042b73ffffffffffffffffffffffffffffffffffffffff1673ffffffffffffffffffffffffffffffffffffffff16815260200173bbb205ecf75829f13b6109189ee1861cc38e63f173ffffffffffffffffffffffffffffffffffffffff1673ffffffffffffffffffffffffffffffffffffffff168152602001731f3bdf7c4756892c7f03d15a875b8af5069045fd73ffffffffffffffffffffffffffffffffffffffff1673ffffffffffffffffffffffffffffffffffffffff1681526020017323d049c5886089f9f7746217d745b41d3f939a7b73ffffffffffffffffffffffffffffffffffffffff1673ffffffffffffffffffffffffffffffffffffffff1681526020017307c3b02d1a22d9fe02750eb2d6a1f0be677c151d73ffffffffffffffffffffffffffffffffffffffff1673ffffffffffffffffffffffffffffffffffffffff168152602001737add452e82f9ea945ebaac8f8f32168cba9f14d873ffffffffffffffffffffffffffffffffffffffff1673ffffffffffffffffffffffffffffffffffffffff1681526020017382a9f8f87568eba3ad798e61e693b35cbc8c4fe173ffffffffffffffffffffffffffffffffffffffff1673ffffffffffffffffffffffffffffffffffffffff16815250905060005b600a81101562000aed5760008282600a811062000a135762000a12620023d3565b5b6020020151905062000a26858262000af3565b62000ad6578373ffffffffffffffffffffffffffffffffffffffff1663ca6d56dc826040518263ffffffff1660e01b815260040162000a66919062001d00565b600060405180830381600087803b15801562000a8157600080fd5b505af115801562000a96573d6000803e3d6000fd5b505050507f19c2cee09470d9f5934cb6d3839371932a4999f4d3ab1423e43465bb26858634858260405162000acd92919062001d1d565b60405180910390a15b50808062000ae49062002356565b915050620009f1565b50505050565b6000806000808573ffffffffffffffffffffffffffffffffffffffff1673ffffffffffffffffffffffffffffffffffffffff16815260200190815260200160002060009054906101000a900473ffffffffffffffffffffffffffffffffffffffff16905060005b8173ffffffffffffffffffffffffffffffffffffffff1663297f9af06040518163ffffffff1660e01b815260040160206040518083038186803b15801562000ba157600080fd5b505afa15801562000bb6573d6000803e3d6000fd5b505050506040513d601f19601f8201168201806040525081019062000bdc919062001a1b565b81101562000cc9578373ffffffffffffffffffffffffffffffffffffffff168273ffffffffffffffffffffffffffffffffffffffff16635daf08ca836040518263ffffffff1660e01b815260040162000c36919062002170565b60206040518083038186803b15801562000c4f57600080fd5b505afa15801562000c64573d6000803e3d6000fd5b505050506040513d601f19601f8201168201806040525081019062000c8a919062001898565b73ffffffffffffffffffffffffffffffffffffffff16141562000cb35760019250505062000cd0565b808062000cc09062002356565b91505062000b5a565b5060009150505b92915050565b6060600180548060200260200160405190810160405280929190818152602001828054801562000d5c57602002820191906000526020600020905b8160009054906101000a900473ffffffffffffffffffffffffffffffffffffffff1673ffffffffffffffffffffffffffffffffffffffff168152602001906001019080831162000d11575b5050505050905090565b60008060008373ffffffffffffffffffffffffffffffffffffffff1673ffffffffffffffffffffffffffffffffffffffff16815260200190815260200160002060009054906101000a900473ffffffffffffffffffffffffffffffffffffffff16905062000dd5823362000af3565b1562000e18576040517f08c379a000000000000000000000000000000000000000000000000000000000815260040162000e0f906200214e565b60405180910390fd5b8073ffffffffffffffffffffffffffffffffffffffff1663ca6d56dc336040518263ffffffff1660e01b815260040162000e53919062001d00565b600060405180830381600087803b15801562000e6e57600080fd5b505af115801562000e83573d6000803e3d6000fd5b505050507f19c2cee09470d9f5934cb6d3839371932a4999f4d3ab1423e43465bb26858634823360405162000eba92919062001d1d565b60405180910390a15050565b60006020528060005260406000206000915054906101000a900473ffffffffffffffffffffffffffffffffffffffff1681565b60008383833360405162000f0d9062001717565b62000f1c949392919062002090565b604051809103906000f08015801562000f39573d6000803e3d6000fd5b509050806000808373ffffffffffffffffffffffffffffffffffffffff1673ffffffffffffffffffffffffffffffffffffffff16815260200190815260200160002060006101000a81548173ffffffffffffffffffffffffffffffffffffffff021916908373ffffffffffffffffffffffffffffffffffffffff1602179055506001819080600181540180825580915050600190039060005260206000200160009091909190916101000a81548173ffffffffffffffffffffffffffffffffffffffff021916908373ffffffffffffffffffffffffffffffffffffffff1602179055507e1d639484c46792ffbaa78827c6f9e6563478dac823f4e2a8ece68cf4d4867381856040516200104e92919062001d4a565b60405180910390a150505050565b600260009054906101000a900460ff1615620010785762001715565b6001600260006101000a81548160ff021916908315150217905550600073cfdde8452921d5c60e3fda3a29f2cb9437f509d6604051620010b89062001717565b620010c49190620020f2565b604051809103906000f080158015620010e1573d6000803e3d6000fd5b509050806000808373ffffffffffffffffffffffffffffffffffffffff1673ffffffffffffffffffffffffffffffffffffffff16815260200190815260200160002060006101000a81548173ffffffffffffffffffffffffffffffffffffffff021916908373ffffffffffffffffffffffffffffffffffffffff1602179055506001819080600181540180825580915050600190039060005260206000200160009091909190916101000a81548173ffffffffffffffffffffffffffffffffffffffff021916908373ffffffffffffffffffffffffffffffffffffffff1602179055508073ffffffffffffffffffffffffffffffffffffffff16638b027c4773cfdde8452921d5c60e3fda3a29f2cb9437f509d68060016040518463ffffffff1660e01b8152600401620012189392919062001e07565b600060405180830381600087803b1580156200123357600080fd5b505af115801562001248573d6000803e3d6000fd5b505050508073ffffffffffffffffffffffffffffffffffffffff16639339a8b860008073d87fea2184d952eeef827a190fba9d7f2f09a6386040518463ffffffff1660e01b8152600401620012a09392919062001f9a565b600060405180830381600087803b158015620012bb57600080fd5b505af1158015620012d0573d6000803e3d6000fd5b505050508073ffffffffffffffffffffffffffffffffffffffff16639339a8b860008073012493be86ac0107723b1e1a0acc087a42236cca6040518463ffffffff1660e01b8152600401620013289392919062001ef6565b600060405180830381600087803b1580156200134357600080fd5b505af115801562001358573d6000803e3d6000fd5b505050508073ffffffffffffffffffffffffffffffffffffffff16639339a8b8600080733d30c9631fce0b4ebf71ccfaaa2e93597949a4486040518463ffffffff1660e01b8152600401620013b09392919062001fec565b600060405180830381600087803b158015620013cb57600080fd5b505af1158015620013e0573d6000803e3d6000fd5b505050508073ffffffffffffffffffffffffffffffffffffffff16639339a8b8600080736620bcacc17760ee0c81b1f440e8801ef8e65aef6040518463ffffffff1660e01b815260040162001438939291906200203e565b600060405180830381600087803b1580156200145357600080fd5b505af115801562001468573d6000803e3d6000fd5b505050508073ffffffffffffffffffffffffffffffffffffffff16639339a8b86000807368bca109b3b6959cbc504b3cd07a81f11a9285ec6040518463ffffffff1660e01b8152600401620014c09392919062001f48565b600060405180830381600087803b158015620014db57600080fd5b505af1158015620014f0573d6000803e3d6000fd5b5050505060006040518060a0016040528073d87fea2184d952eeef827a190fba9d7f2f09a63873ffffffffffffffffffffffffffffffffffffffff1673ffffffffffffffffffffffffffffffffffffffff16815260200173012493be86ac0107723b1e1a0acc087a42236cca73ffffffffffffffffffffffffffffffffffffffff1673ffffffffffffffffffffffffffffffffffffffff168152602001733d30c9631fce0b4ebf71ccfaaa2e93597949a44873ffffffffffffffffffffffffffffffffffffffff1673ffffffffffffffffffffffffffffffffffffffff168152602001736620bcacc17760ee0c81b1f440e8801ef8e65aef73ffffffffffffffffffffffffffffffffffffffff1673ffffffffffffffffffffffffffffffffffffffff1681526020017368bca109b3b6959cbc504b3cd07a81f11a9285ec73ffffffffffffffffffffffffffffffffffffffff1673ffffffffffffffffffffffffffffffffffffffff16815250905060005b600581101562001711576000828260058110620016845762001683620023d3565b5b602002015190508373ffffffffffffffffffffffffffffffffffffffff1663ca6d56dc826040518263ffffffff1660e01b8152600401620016c6919062001d00565b600060405180830381600087803b158015620016e157600080fd5b505af1158015620016f6573d6000803e3d6000fd5b50505050508080620017089062002356565b91505062001662565b5050505b565b61304b80620027f283390190565b60006200173c6200173684620021b6565b6200218d565b9050828152602081018484840111156200175b576200175a62002436565b5b62001768848285620022db565b509392505050565b6000620017876200178184620021b6565b6200218d565b905082815260208101848484011115620017a657620017a562002436565b5b620017b3848285620022ea565b509392505050565b600081359050620017cc81620027bd565b92915050565b600081519050620017e381620027bd565b92915050565b600082601f83011262001801576200180062002431565b5b81356200181384826020860162001725565b91505092915050565b600082601f83011262001834576200183362002431565b5b81516200184684826020860162001770565b91505092915050565b6000815190506200186081620027d7565b92915050565b6000602082840312156200187f576200187e62002440565b5b60006200188f84828501620017bb565b91505092915050565b600060208284031215620018b157620018b062002440565b5b6000620018c184828501620017d2565b91505092915050565b60008060408385031215620018e457620018e362002440565b5b6000620018f485828601620017bb565b92505060206200190785828601620017bb565b9150509250929050565b6000602082840312156200192a576200192962002440565b5b600082015167ffffffffffffffff8111156200194b576200194a6200243b565b5b62001959848285016200181c565b91505092915050565b6000806000606084860312156200197e576200197d62002440565b5b600084013567ffffffffffffffff8111156200199f576200199e6200243b565b5b620019ad86828701620017e9565b935050602084013567ffffffffffffffff811115620019d157620019d06200243b565b5b620019df86828701620017e9565b925050604084013567ffffffffffffffff81111562001a035762001a026200243b565b5b62001a1186828701620017e9565b9150509250925092565b60006020828403121562001a345762001a3362002440565b5b600062001a44848285016200184f565b91505092915050565b600062001a5b838362001a67565b60208301905092915050565b62001a728162002241565b82525050565b62001a838162002241565b82525050565b600062001a9682620021fc565b62001aa281856200221f565b935062001aaf83620021ec565b8060005b8381101562001ae657815162001aca888262001a4d565b975062001ad78362002212565b92505060018101905062001ab3565b5085935050505092915050565b62001afe8162002255565b82525050565b62001b0f816200228b565b82525050565b62001b20816200229f565b82525050565b600062001b338262002207565b62001b3f818562002230565b935062001b51818560208601620022ea565b62001b5c8162002445565b840191505092915050565b600062001b76600f8362002230565b915062001b838262002456565b602082019050919050565b600062001b9d601c8362002230565b915062001baa826200247f565b602082019050919050565b600062001bc460148362002230565b915062001bd182620024a8565b602082019050919050565b600062001bec61018a8362002230565b915062001bf982620024d1565b6101a082019050919050565b600062001c1460028362002230565b915062001c2182620026c7565b602082019050919050565b600062001c3b600b8362002230565b915062001c4882620026f0565b602082019050919050565b600062001c62600a8362002230565b915062001c6f8262002719565b602082019050919050565b600062001c89601b8362002230565b915062001c968262002742565b602082019050919050565b600062001cb060128362002230565b915062001cbd826200276b565b602082019050919050565b600062001cd7600b8362002230565b915062001ce48262002794565b602082019050919050565b62001cfa8162002281565b82525050565b600060208201905062001d17600083018462001a78565b92915050565b600060408201905062001d34600083018562001a78565b62001d43602083018462001a78565b9392505050565b600060408201905062001d61600083018562001a78565b818103602083015262001d75818462001b26565b90509392505050565b600060c08201905062001d95600083018962001a78565b818103602083015262001da9818862001b26565b9050818103604083015262001dbf818762001b26565b9050818103606083015262001dd5818662001b26565b905062001de6608083018562001cef565b81810360a083015262001dfa818462001a89565b9050979650505050505050565b600060e08201905062001e1e600083018662001a78565b818103602083015262001e318162001b8e565b9050818103604083015262001e468162001bdc565b905062001e57606083018562001a78565b818103608083015262001e6a8162001c53565b905081810360a083015262001e7f8162001c53565b905062001e9060c083018462001af3565b949350505050565b6000602082019050818103600083015262001eb4818462001a89565b905092915050565b600060208201905062001ed3600083018462001af3565b92915050565b600060208201905062001ef0600083018462001b04565b92915050565b600060808201905062001f0d600083018662001b15565b62001f1c602083018562001af3565b818103604083015262001f2f8162001b67565b905062001f40606083018462001a78565b949350505050565b600060808201905062001f5f600083018662001b15565b62001f6e602083018562001af3565b818103604083015262001f818162001bb5565b905062001f92606083018462001a78565b949350505050565b600060808201905062001fb1600083018662001b15565b62001fc0602083018562001af3565b818103604083015262001fd38162001c2c565b905062001fe4606083018462001a78565b949350505050565b600060808201905062002003600083018662001b15565b62002012602083018562001af3565b8181036040830152620020258162001ca1565b905062002036606083018462001a78565b949350505050565b600060808201905062002055600083018662001b15565b62002064602083018562001af3565b8181036040830152620020778162001cc8565b905062002088606083018462001a78565b949350505050565b60006080820190508181036000830152620020ac818762001b26565b90508181036020830152620020c2818662001b26565b90508181036040830152620020d8818562001b26565b9050620020e9606083018462001a78565b95945050505050565b600060808201905081810360008301526200210d8162001b8e565b90508181036020830152620021228162001bdc565b90508181036040830152620021378162001c05565b905062002148606083018462001a78565b92915050565b60006020820190508181036000830152620021698162001c7a565b9050919050565b600060208201905062002187600083018462001cef565b92915050565b600062002199620021ac565b9050620021a7828262002320565b919050565b6000604051905090565b600067ffffffffffffffff821115620021d457620021d362002402565b5b620021df8262002445565b9050602081019050919050565b6000819050602082019050919050565b600081519050919050565b600081519050919050565b6000602082019050919050565b600082825260208201905092915050565b600082825260208201905092915050565b60006200224e8262002261565b9050919050565b60008115159050919050565b600073ffffffffffffffffffffffffffffffffffffffff82169050919050565b6000819050919050565b60006200229882620022b3565b9050919050565b6000620022ac8262002281565b9050919050565b6000620022c082620022c7565b9050919050565b6000620022d48262002261565b9050919050565b82818337600083830152505050565b60005b838110156200230a578082015181840152602081019050620022ed565b838111156200231a576000848401525b50505050565b6200232b8262002445565b810181811067ffffffffffffffff821117156200234d576200234c62002402565b5b80604052505050565b6000620023638262002281565b91507fffffffffffffffffffffffffffffffffffffffffffffffffffffffffffffffff821415620023995762002398620023a4565b5b600182019050919050565b7f4e487b7100000000000000000000000000000000000000000000000000000000600052601160045260246000fd5b7f4e487b7100000000000000000000000000000000000000000000000000000000600052603260045260246000fd5b7f4e487b7100000000000000000000000000000000000000000000000000000000600052604160045260246000fd5b600080fd5b600080fd5b600080fd5b600080fd5b6000601f19601f8301169050919050565b7f416e746f6e20436865706c756b6f760000000000000000000000000000000000600082015250565b7f42726f777365722070726f6772616d6d696e67206c616e677561676500000000600082015250565b7f416e6173746173697961204b6f6e6f706c696e61000000000000000000000000600082015250565b7f4974206973206e656365737361727920746f20637265617465206120636f6d7060008201527f6c65746520746f6f6c20666f72206372656174696e6720776562206170706c6960208201527f636174696f6e7320746861742077696c6c20616c6c6f7720646576656c6f706560408201527f727320746f206d616e616765207468652062726f7773657220616e642069747360608201527f20696e746572666163652e20546869732070726f6772616d6d696e67206c616e60808201527f6775616765206d7573742070726f7669646520746865206162696c697479207460a08201527f6f20696e7465726163742077697468206120776562207365727665722c20637260c08201527f6561746520616e696d6174696f6e732c2067616d65732c206d61707320616e6460e08201527f206f74686572207765622073657276696365732e204173206120726573756c746101008201527f206f6620646576656c6f706d656e742c2075736572732077696c6c20626520616101208201527f626c6520746f207573652074686973206c616e677561676520746f20637265616101408201527f746520756e6971756520616e642066756e6374696f6e616c20776562206170706101608201527f6c69636174696f6e732e0000000000000000000000000000000000000000000061018082015250565b7f6974000000000000000000000000000000000000000000000000000000000000600082015250565b7f4d6178696d205a616d6972000000000000000000000000000000000000000000600082015250565b7f323032332d31302d323500000000000000000000000000000000000000000000600082015250565b7f416c72656164792061206d656d626572206f66207468652044414f0000000000600082015250565b7f416c69616b73616e64722041736b65726b610000000000000000000000000000600082015250565b7f46656c6978204c69706f76000000000000000000000000000000000000000000600082015250565b620027c88162002241565b8114620027d457600080fd5b50565b620027e28162002281565b8114620027ee57600080fd5b5056fe60806040523480156200001157600080fd5b506040516200304b3803806200304b83398181016040528101906200003791906200024e565b83600090805190602001906200004f92919062000109565b5082600190805190602001906200006892919062000109565b5081600290805190602001906200008192919062000109565b506003819080600181540180825580915050600190039060005260206000200160009091909190916101000a81548173ffffffffffffffffffffffffffffffffffffffff021916908373ffffffffffffffffffffffffffffffffffffffff16021790555060046000815480929190620000fa906200045c565b91905055505050505062000576565b8280546200011790620003f0565b90600052602060002090601f0160209004810192826200013b576000855562000187565b82601f106200015657805160ff191683800117855562000187565b8280016001018555821562000187579182015b828111156200018657825182559160200191906001019062000169565b5b5090506200019691906200019a565b5090565b5b80821115620001b55760008160009055506001016200019b565b5090565b6000620001d0620001ca8462000346565b6200031d565b905082815260208101848484011115620001ef57620001ee6200053c565b5b620001fc848285620003ba565b509392505050565b60008151905062000215816200055c565b92915050565b600082601f83011262000233576200023262000537565b5b815162000245848260208601620001b9565b91505092915050565b600080600080608085870312156200026b576200026a62000546565b5b600085015167ffffffffffffffff8111156200028c576200028b62000541565b5b6200029a878288016200021b565b945050602085015167ffffffffffffffff811115620002be57620002bd62000541565b5b620002cc878288016200021b565b935050604085015167ffffffffffffffff811115620002f057620002ef62000541565b5b620002fe878288016200021b565b9250506060620003118782880162000204565b91505092959194509250565b6000620003296200033c565b905062000337828262000426565b919050565b6000604051905090565b600067ffffffffffffffff82111562000364576200036362000508565b5b6200036f826200054b565b9050602081019050919050565b6000620003898262000390565b9050919050565b600073ffffffffffffffffffffffffffffffffffffffff82169050919050565b6000819050919050565b60005b83811015620003da578082015181840152602081019050620003bd565b83811115620003ea576000848401525b50505050565b600060028204905060018216806200040957607f821691505b6020821081141562000420576200041f620004d9565b5b50919050565b62000431826200054b565b810181811067ffffffffffffffff8211171562000453576200045262000508565b5b80604052505050565b60006200046982620003b0565b91507fffffffffffffffffffffffffffffffffffffffffffffffffffffffffffffffff8214156200049f576200049e620004aa565b5b600182019050919050565b7f4e487b7100000000000000000000000000000000000000000000000000000000600052601160045260246000fd5b7f4e487b7100000000000000000000000000000000000000000000000000000000600052602260045260246000fd5b7f4e487b7100000000000000000000000000000000000000000000000000000000600052604160045260246000fd5b600080fd5b600080fd5b600080fd5b600080fd5b6000601f19601f8301169050919050565b62000567816200037c565b81146200057357600080fd5b50565b612ac580620005866000396000f3fe6080604052600436106100f35760003560e01c80636e62d0a81161008a578063a230c52411610059578063a230c52414610346578063ca6d56dc14610383578063da35c664146103ac578063f5fe72ff146103d7576100f3565b80636e62d0a8146102ab5780637284e416146102d65780638b027c47146103015780639339a8b81461032a576100f3565b80635aef7de6116100c65780635aef7de6146101db5780635daf08ca1461020657806362564c481461024357806369a136dc1461026e576100f3565b8063013cf08b146100f857806306fdde031461013f578063297f9af01461016a5780633b4d01a714610195575b600080fd5b34801561010457600080fd5b5061011f600480360381019061011a9190611ff4565b6103f3565b6040516101369b9a999897969594939291906125e6565b60405180910390f35b34801561014b57600080fd5b506101546106ba565b60405161016191906124ca565b60405180910390f35b34801561017657600080fd5b5061017f610748565b60405161018c91906125cb565b60405180910390f35b3480156101a157600080fd5b506101bc60048036038101906101b79190611ff4565b61074e565b6040516101d29a999897969594939291906124ec565b60405180910390f35b3480156101e757600080fd5b506101f0610bf9565b6040516101fd91906124ca565b60405180910390f35b34801561021257600080fd5b5061022d60048036038101906102289190611ff4565b610c87565b60405161023a9190612450565b60405180910390f35b34801561024f57600080fd5b50610258610cc6565b604051610265919061246b565b60405180910390f35b34801561027a57600080fd5b5061029560048036038101906102909190611ff4565b6110c4565b6040516102a2919061248d565b60405180910390f35b3480156102b757600080fd5b506102c06112a3565b6040516102cd91906124ca565b60405180910390f35b3480156102e257600080fd5b506102eb611331565b6040516102f891906124ca565b60405180910390f35b34801561030d57600080fd5b5061032860048036038101906103239190611ee2565b6113bf565b005b610344600480360381019061033f9190612021565b6115c4565b005b34801561035257600080fd5b5061036d60048036038101906103689190611eb5565b611835565b60405161037a91906124af565b60405180910390f35b34801561038f57600080fd5b506103aa60048036038101906103a59190611eb5565b6118e1565b005b3480156103b857600080fd5b506103c161195f565b6040516103ce91906125cb565b60405180910390f35b6103f160048036038101906103ec9190612021565b611965565b005b60066020528060005260406000206000915090508060000154908060010160009054906101000a900473ffffffffffffffffffffffffffffffffffffffff169080600201805461044290612894565b80601f016020809104026020016040519081016040528092919081815260200182805461046e90612894565b80156104bb5780601f10610490576101008083540402835291602001916104bb565b820191906000526020600020905b81548152906001019060200180831161049e57829003601f168201915b5050505050908060030180546104d090612894565b80601f01602080910402602001604051908101604052809291908181526020018280546104fc90612894565b80156105495780601f1061051e57610100808354040283529160200191610549565b820191906000526020600020905b81548152906001019060200180831161052c57829003601f168201915b5050505050908060040154908060050154908060060160009054906101000a900460ff16908060070154908060080160009054906101000a900473ffffffffffffffffffffffffffffffffffffffff16908060090180546105a990612894565b80601f01602080910402602001604051908101604052809291908181526020018280546105d590612894565b80156106225780601f106105f757610100808354040283529160200191610622565b820191906000526020600020905b81548152906001019060200180831161060557829003601f168201915b50505050509080600a01805461063790612894565b80601f016020809104026020016040519081016040528092919081815260200182805461066390612894565b80156106b05780601f10610685576101008083540402835291602001916106b0565b820191906000526020600020905b81548152906001019060200180831161069357829003601f168201915b505050505090508b565b600080546106c790612894565b80601f01602080910402602001604051908101604052809291908181526020018280546106f390612894565b80156107405780601f1061071557610100808354040283529160200191610740565b820191906000526020600020905b81548152906001019060200180831161072357829003601f168201915b505050505081565b60045481565b606080600080600080600060608060606000600660008d815260200190815260200160002090506000600960008e8152602001908152602001600020805480602002602001604051908101604052809291908181526020016000905b8282101561094957838290600052602060002090600602016040518060c00160405290816000820160009054906101000a900473ffffffffffffffffffffffffffffffffffffffff1673ffffffffffffffffffffffffffffffffffffffff1673ffffffffffffffffffffffffffffffffffffffff168152602001600182015481526020016002820160009054906101000a900460ff1615151515815260200160038201805461085890612894565b80601f016020809104026020016040519081016040528092919081815260200182805461088490612894565b80156108d15780601f106108a6576101008083540402835291602001916108d1565b820191906000526020600020905b8154815290600101906020018083116108b457829003601f168201915b505050505081526020016004820160009054906101000a900473ffffffffffffffffffffffffffffffffffffffff1673ffffffffffffffffffffffffffffffffffffffff1673ffffffffffffffffffffffffffffffffffffffff168152602001600582015481525050815260200190600101906107aa565b5050505090508160020182600301836004015484600501548560060160009054906101000a900460ff1686600701548760010160009054906101000a900473ffffffffffffffffffffffffffffffffffffffff168860090189600a01898980546109b290612894565b80601f01602080910402602001604051908101604052809291908181526020018280546109de90612894565b8015610a2b5780601f10610a0057610100808354040283529160200191610a2b565b820191906000526020600020905b815481529060010190602001808311610a0e57829003601f168201915b50505050509950888054610a3e90612894565b80601f0160208091040260200160405190810160405280929190818152602001828054610a6a90612894565b8015610ab75780601f10610a8c57610100808354040283529160200191610ab7565b820191906000526020600020905b815481529060010190602001808311610a9a57829003601f168201915b50505050509850828054610aca90612894565b80601f0160208091040260200160405190810160405280929190818152602001828054610af690612894565b8015610b435780601f10610b1857610100808354040283529160200191610b43565b820191906000526020600020905b815481529060010190602001808311610b2657829003601f168201915b50505050509250818054610b5690612894565b80601f0160208091040260200160405190810160405280929190818152602001828054610b8290612894565b8015610bcf5780601f10610ba457610100808354040283529160200191610bcf565b820191906000526020600020905b815481529060010190602001808311610bb257829003601f168201915b505050505091509b509b509b509b509b509b509b509b509b509b5050509193959799509193959799565b60058054610c0690612894565b80601f0160208091040260200160405190810160405280929190818152602001828054610c3290612894565b8015610c7f5780601f10610c5457610100808354040283529160200191610c7f565b820191906000526020600020905b815481529060010190602001808311610c6257829003601f168201915b505050505081565b60038181548110610c9757600080fd5b906000526020600020016000915054906101000a900473ffffffffffffffffffffffffffffffffffffffff1681565b6060600060075467ffffffffffffffff811115610ce657610ce56129cd565b5b604051908082528060200260200182016040528015610d1f57816020015b610d0c611cdb565b815260200190600190039081610d045790505b50905060005b6007548110156110bc5760006006600083815260200190815260200160002090508060405180610160016040529081600082015481526020016001820160009054906101000a900473ffffffffffffffffffffffffffffffffffffffff1673ffffffffffffffffffffffffffffffffffffffff1673ffffffffffffffffffffffffffffffffffffffff168152602001600282018054610dc390612894565b80601f0160208091040260200160405190810160405280929190818152602001828054610def90612894565b8015610e3c5780601f10610e1157610100808354040283529160200191610e3c565b820191906000526020600020905b815481529060010190602001808311610e1f57829003601f168201915b50505050508152602001600382018054610e5590612894565b80601f0160208091040260200160405190810160405280929190818152602001828054610e8190612894565b8015610ece5780601f10610ea357610100808354040283529160200191610ece565b820191906000526020600020905b815481529060010190602001808311610eb157829003601f168201915b5050505050815260200160048201548152602001600582015481526020016006820160009054906101000a900460ff16151515158152602001600782015481526020016008820160009054906101000a900473ffffffffffffffffffffffffffffffffffffffff1673ffffffffffffffffffffffffffffffffffffffff1673ffffffffffffffffffffffffffffffffffffffff168152602001600982018054610f7690612894565b80601f0160208091040260200160405190810160405280929190818152602001828054610fa290612894565b8015610fef5780601f10610fc457610100808354040283529160200191610fef565b820191906000526020600020905b815481529060010190602001808311610fd257829003601f168201915b50505050508152602001600a8201805461100890612894565b80601f016020809104026020016040519081016040528092919081815260200182805461103490612894565b80156110815780601f1061105657610100808354040283529160200191611081565b820191906000526020600020905b81548152906001019060200180831161106457829003601f168201915b50505050508152505083838151811061109d5761109c61299e565b5b60200260200101819052505080806110b4906128f7565b915050610d25565b508091505090565b606060096000838152602001908152602001600020805480602002602001604051908101604052809291908181526020016000905b8282101561129857838290600052602060002090600602016040518060c00160405290816000820160009054906101000a900473ffffffffffffffffffffffffffffffffffffffff1673ffffffffffffffffffffffffffffffffffffffff1673ffffffffffffffffffffffffffffffffffffffff168152602001600182015481526020016002820160009054906101000a900460ff161515151581526020016003820180546111a790612894565b80601f01602080910402602001604051908101604052809291908181526020018280546111d390612894565b80156112205780601f106111f557610100808354040283529160200191611220565b820191906000526020600020905b81548152906001019060200180831161120357829003601f168201915b505050505081526020016004820160009054906101000a900473ffffffffffffffffffffffffffffffffffffffff1673ffffffffffffffffffffffffffffffffffffffff1673ffffffffffffffffffffffffffffffffffffffff168152602001600582015481525050815260200190600101906110f9565b505050509050919050565b600280546112b090612894565b80601f01602080910402602001604051908101604052809291908181526020018280546112dc90612894565b80156113295780601f106112fe57610100808354040283529160200191611329565b820191906000526020600020905b81548152906001019060200180831161130c57829003601f168201915b505050505081565b6001805461133e90612894565b80601f016020809104026020016040519081016040528092919081815260200182805461136a90612894565b80156113b75780601f1061138c576101008083540402835291602001916113b7565b820191906000526020600020905b81548152906001019060200180831161139a57829003601f168201915b505050505081565b60405180610160016040528060075481526020018873ffffffffffffffffffffffffffffffffffffffff16815260200187815260200186815260200160008152602001600081526020018215158152602001600081526020018573ffffffffffffffffffffffffffffffffffffffff168152602001848152602001838152506006600060075481526020019081526020016000206000820151816000015560208201518160010160006101000a81548173ffffffffffffffffffffffffffffffffffffffff021916908373ffffffffffffffffffffffffffffffffffffffff16021790555060408201518160020190805190602001906114c0929190611d63565b5060608201518160030190805190602001906114dd929190611d63565b506080820151816004015560a0820151816005015560c08201518160060160006101000a81548160ff02191690831515021790555060e082015181600701556101008201518160080160006101000a81548173ffffffffffffffffffffffffffffffffffffffff021916908373ffffffffffffffffffffffffffffffffffffffff160217905550610120820151816009019080519060200190611581929190611d63565b5061014082015181600a01908051906020019061159f929190611d63565b50905050600760008154809291906115b6906128f7565b919050555050505050505050565b600060066000868152602001908152602001600020905060008415611628578160040160008154809291906115f8906128f7565b91905055506729a2241af62c000090508082600701600082825461161c91906127a2565b92505081905550611647565b81600501600081548092919061163d906128f7565b9190505550600090505b600860008473ffffffffffffffffffffffffffffffffffffffff1673ffffffffffffffffffffffffffffffffffffffff1681526020019081526020016000208260000154908060018154018082558091505060019003906000526020600020016000909190919091505560096000836000015481526020019081526020016000206040518060c001604052808573ffffffffffffffffffffffffffffffffffffffff16815260200142815260200187151581526020018681526020018573ffffffffffffffffffffffffffffffffffffffff16815260200183815250908060018154018082558091505060019003906000526020600020906006020160009091909190915060008201518160000160006101000a81548173ffffffffffffffffffffffffffffffffffffffff021916908373ffffffffffffffffffffffffffffffffffffffff1602179055506020820151816001015560408201518160020160006101000a81548160ff02191690831515021790555060608201518160030190805190602001906117d9929190611d63565b5060808201518160040160006101000a81548173ffffffffffffffffffffffffffffffffffffffff021916908373ffffffffffffffffffffffffffffffffffffffff16021790555060a082015181600501555050505050505050565b600080600090505b6004548110156118d6578273ffffffffffffffffffffffffffffffffffffffff16600382815481106118725761187161299e565b5b9060005260206000200160009054906101000a900473ffffffffffffffffffffffffffffffffffffffff1673ffffffffffffffffffffffffffffffffffffffff1614156118c35760019150506118dc565b80806118ce906128f7565b91505061183d565b50600090505b919050565b6003819080600181540180825580915050600190039060005260206000200160009091909190916101000a81548173ffffffffffffffffffffffffffffffffffffffff021916908373ffffffffffffffffffffffffffffffffffffffff16021790555060046000815480929190611957906128f7565b919050555050565b60075481565b60006006600086815260200190815260200160002090506000600860003373ffffffffffffffffffffffffffffffffffffffff1673ffffffffffffffffffffffffffffffffffffffff168152602001908152602001600020805480602002602001604051908101604052809291908181526020018280548015611a0757602002820191906000526020600020905b8154815260200190600101908083116119f3575b5050505050905060005b8151811015611a8e57818181518110611a2d57611a2c61299e565b5b602002602001015183600001541415611a7b576040517f08c379a0000000000000000000000000000000000000000000000000000000008152600401611a72906125ab565b60405180910390fd5b8080611a86906128f7565b915050611a11565b506000341115611ad257816004016000815480929190611aad906128f7565b919050555034826007016000828254611ac691906127a2565b92505081905550611aed565b816005016000815480929190611ae7906128f7565b91905055505b600860003373ffffffffffffffffffffffffffffffffffffffff1673ffffffffffffffffffffffffffffffffffffffff1681526020019081526020016000208260000154908060018154018082558091505060019003906000526020600020016000909190919091505560096000836000015481526020019081526020016000206040518060c001604052803373ffffffffffffffffffffffffffffffffffffffff16815260200142815260200187151581526020018681526020018573ffffffffffffffffffffffffffffffffffffffff16815260200134815250908060018154018082558091505060019003906000526020600020906006020160009091909190915060008201518160000160006101000a81548173ffffffffffffffffffffffffffffffffffffffff021916908373ffffffffffffffffffffffffffffffffffffffff1602179055506020820151816001015560408201518160020160006101000a81548160ff0219169083151502179055506060820151816003019080519060200190611c7f929190611d63565b5060808201518160040160006101000a81548173ffffffffffffffffffffffffffffffffffffffff021916908373ffffffffffffffffffffffffffffffffffffffff16021790555060a082015181600501555050505050505050565b60405180610160016040528060008152602001600073ffffffffffffffffffffffffffffffffffffffff1681526020016060815260200160608152602001600081526020016000815260200160001515815260200160008152602001600073ffffffffffffffffffffffffffffffffffffffff16815260200160608152602001606081525090565b828054611d6f90612894565b90600052602060002090601f016020900481019282611d915760008555611dd8565b82601f10611daa57805160ff1916838001178555611dd8565b82800160010185558215611dd8579182015b82811115611dd7578251825591602001919060010190611dbc565b5b509050611de59190611de9565b5090565b5b80821115611e02576000816000905550600101611dea565b5090565b6000611e19611e14846126d2565b6126ad565b905082815260208101848484011115611e3557611e34612a01565b5b611e40848285612852565b509392505050565b600081359050611e5781612a4a565b92915050565b600081359050611e6c81612a61565b92915050565b600082601f830112611e8757611e866129fc565b5b8135611e97848260208601611e06565b91505092915050565b600081359050611eaf81612a78565b92915050565b600060208284031215611ecb57611eca612a0b565b5b6000611ed984828501611e48565b91505092915050565b600080600080600080600060e0888a031215611f0157611f00612a0b565b5b6000611f0f8a828b01611e48565b975050602088013567ffffffffffffffff811115611f3057611f2f612a06565b5b611f3c8a828b01611e72565b965050604088013567ffffffffffffffff811115611f5d57611f5c612a06565b5b611f698a828b01611e72565b9550506060611f7a8a828b01611e48565b945050608088013567ffffffffffffffff811115611f9b57611f9a612a06565b5b611fa78a828b01611e72565b93505060a088013567ffffffffffffffff811115611fc857611fc7612a06565b5b611fd48a828b01611e72565b92505060c0611fe58a828b01611e5d565b91505092959891949750929550565b60006020828403121561200a57612009612a0b565b5b600061201884828501611ea0565b91505092915050565b6000806000806080858703121561203b5761203a612a0b565b5b600061204987828801611ea0565b945050602061205a87828801611e5d565b935050604085013567ffffffffffffffff81111561207b5761207a612a06565b5b61208787828801611e72565b925050606061209887828801611e48565b91505092959194509250565b60006120b083836122a5565b905092915050565b60006120c483836123a9565b905092915050565b6120d58161280a565b82525050565b6120e48161280a565b82525050565b6120f3816127f8565b82525050565b612102816127f8565b82525050565b600061211382612723565b61211d818561275e565b93508360208202850161212f85612703565b8060005b8581101561216b578484038952815161214c85826120a4565b945061215783612744565b925060208a01995050600181019050612133565b50829750879550505050505092915050565b60006121888261272e565b612192818561276f565b9350836020820285016121a485612713565b8060005b858110156121e057848403895281516121c185826120b8565b94506121cc83612751565b925060208a019950506001810190506121a8565b50829750879550505050505092915050565b6121fb8161281c565b82525050565b61220a8161281c565b82525050565b600061221b82612739565b6122258185612780565b9350612235818560208601612861565b61223e81612a10565b840191505092915050565b600061225482612739565b61225e8185612791565b935061226e818560208601612861565b61227781612a10565b840191505092915050565b600061228f601983612791565b915061229a82612a21565b602082019050919050565b6000610160830160008301516122be6000860182612432565b5060208301516122d160208601826120ea565b50604083015184820360408601526122e98282612210565b915050606083015184820360608601526123038282612210565b91505060808301516123186080860182612432565b5060a083015161232b60a0860182612432565b5060c083015161233e60c08601826121f2565b5060e083015161235160e0860182612432565b506101008301516123666101008601826120cc565b506101208301518482036101208601526123808282612210565b91505061014083015184820361014086015261239c8282612210565b9150508091505092915050565b600060c0830160008301516123c160008601826120ea565b5060208301516123d46020860182612432565b5060408301516123e760408601826121f2565b50606083015184820360608601526123ff8282612210565b915050608083015161241460808601826120ea565b5060a083015161242760a0860182612432565b508091505092915050565b61243b81612848565b82525050565b61244a81612848565b82525050565b600060208201905061246560008301846120f9565b92915050565b600060208201905081810360008301526124858184612108565b905092915050565b600060208201905081810360008301526124a7818461217d565b905092915050565b60006020820190506124c46000830184612201565b92915050565b600060208201905081810360008301526124e48184612249565b905092915050565b6000610140820190508181036000830152612507818d612249565b9050818103602083015261251b818c612249565b905061252a604083018b612441565b612537606083018a612441565b6125446080830189612201565b61255160a0830188612441565b61255e60c08301876120f9565b81810360e08301526125708186612249565b90508181036101008301526125858185612249565b905081810361012083015261259a818461217d565b90509b9a5050505050505050505050565b600060208201905081810360008301526125c481612282565b9050919050565b60006020820190506125e06000830184612441565b92915050565b6000610160820190506125fc600083018e612441565b612609602083018d6120f9565b818103604083015261261b818c612249565b9050818103606083015261262f818b612249565b905061263e608083018a612441565b61264b60a0830189612441565b61265860c0830188612201565b61266560e0830187612441565b6126736101008301866120db565b8181036101208301526126868185612249565b905081810361014083015261269b8184612249565b90509c9b505050505050505050505050565b60006126b76126c8565b90506126c382826128c6565b919050565b6000604051905090565b600067ffffffffffffffff8211156126ed576126ec6129cd565b5b6126f682612a10565b9050602081019050919050565b6000819050602082019050919050565b6000819050602082019050919050565b600081519050919050565b600081519050919050565b600081519050919050565b6000602082019050919050565b6000602082019050919050565b600082825260208201905092915050565b600082825260208201905092915050565b600082825260208201905092915050565b600082825260208201905092915050565b60006127ad82612848565b91506127b883612848565b9250827fffffffffffffffffffffffffffffffffffffffffffffffffffffffffffffffff038211156127ed576127ec612940565b5b828201905092915050565b600061280382612828565b9050919050565b600061281582612828565b9050919050565b60008115159050919050565b600073ffffffffffffffffffffffffffffffffffffffff82169050919050565b6000819050919050565b82818337600083830152505050565b60005b8381101561287f578082015181840152602081019050612864565b8381111561288e576000848401525b50505050565b600060028204905060018216806128ac57607f821691505b602082108114156128c0576128bf61296f565b5b50919050565b6128cf82612a10565b810181811067ffffffffffffffff821117156128ee576128ed6129cd565b5b80604052505050565b600061290282612848565b91507fffffffffffffffffffffffffffffffffffffffffffffffffffffffffffffffff82141561293557612934612940565b5b600182019050919050565b7f4e487b7100000000000000000000000000000000000000000000000000000000600052601160045260246000fd5b7f4e487b7100000000000000000000000000000000000000000000000000000000600052602260045260246000fd5b7f4e487b7100000000000000000000000000000000000000000000000000000000600052603260045260246000fd5b7f4e487b7100000000000000000000000000000000000000000000000000000000600052604160045260246000fd5b600080fd5b600080fd5b600080fd5b600080fd5b6000601f19601f8301169050919050565b7f446f75626c6520766f74696e67206e6f7420616c6c6f77656400000000000000600082015250565b612a53816127f8565b8114612a5e57600080fd5b50565b612a6a8161281c565b8114612a7557600080fd5b50565b612a8181612848565b8114612a8c57600080fd5b5056fea26469706673582212208603cce6e1133a28706500cdb7ffbefa7a3e084212de31536ba25389fc7093ce64736f6c63430008070033a26469706673582212206481e1ecd4c6b5f761016ab59660ed977c8c6887e7383b40530f93dd6724392164736f6c63430008070033",
  "immutableReferences": {},
  "source": "// SPDX-License-Identifier: MIT\r\npragma solidity ^0.8.7;\r\n\r\nimport './DAO.sol';\r\n\r\n\r\ncontract ManagerDAOs {\r\n    mapping(address => DAO) public daos;\r\n    address[] daoAddresses;\r\n    bool daoCreated;\r\n\r\n    event DAOCreated(address dao, string name);\r\n    event DAOJoined(address dao, address member);\r\n\r\n    function createDAO(string memory _name, string memory _description, string memory _scope) public {\r\n        DAO newDAO = new DAO(_name, _description, _scope, msg.sender);\r\n        daos[address(newDAO)] = newDAO;\r\n        daoAddresses.push(address(newDAO));\r\n\r\n        emit DAOCreated(address(newDAO), _name);\r\n    }\r\n\r\n    function joinDAO(address _dao) public {\r\n        DAO dao = daos[_dao];\r\n        require(!isMember(_dao, msg.sender), \"Already a member of the DAO\");\r\n        dao.addMember(msg.sender);\r\n\r\n        emit DAOJoined(_dao, msg.sender);\r\n    }\r\n\r\n    function addDefaultMembersToDAO(address _dao) public {\r\n        DAO dao = daos[_dao];\r\n        address[10] memory accounts = [\r\n            0xdA50C3AA3F935B3FC1830f476e2c245b5f45e64B,\r\n            0x017F648856D2aD665c6eBB577E8bff9c29ad7351,\r\n            0x591c472ff1c891A3C79dF047266C41e7DC8dD307,\r\n            0xf4221d5C37F470939801ef4A3BaA9F4d460A042B,\r\n            0xBbb205Ecf75829F13b6109189Ee1861cc38e63F1,\r\n            0x1F3bDf7C4756892C7F03D15a875b8af5069045Fd,\r\n            0x23D049c5886089F9f7746217D745B41d3F939A7b,\r\n            0x07c3B02D1A22D9fE02750EB2d6A1f0Be677C151D,\r\n            0x7add452E82f9eA945eBaAc8f8F32168cba9f14D8,\r\n            0x82a9F8F87568ebA3aD798E61E693b35cbc8c4FE1\r\n        ];\r\n        for (uint256 i = 0; i < 10; i++) {\r\n            address _account = accounts[i];\r\n            if (!isMember(_dao, _account)) {\r\n                dao.addMember(_account);\r\n                emit DAOJoined(_dao, _account);\r\n            }\r\n        }\r\n    }\r\n\r\n    function addDefaultDAOs() public {\r\n        if (daoCreated) {\r\n            return;\r\n        }\r\n        daoCreated = true;\r\n\r\n        DAO newDAO = new DAO(\r\n            \"Browser programming language\",\r\n            \"It is necessary to create a complete tool for creating web applications that will allow developers to manage the browser and its interface. This programming language must provide the ability to interact with a web server, create animations, games, maps and other web services. As a result of development, users will be able to use this language to create unique and functional web applications.\",\r\n            \"it\",\r\n            0xCFDDe8452921D5C60E3Fda3A29f2Cb9437f509D6\r\n        );\r\n        daos[address(newDAO)] = newDAO;\r\n        daoAddresses.push(address(newDAO));\r\n        newDAO.createProposal(\r\n            0xCFDDe8452921D5C60E3Fda3A29f2Cb9437f509D6,\r\n            \"Browser programming language\",\r\n            \"It is necessary to create a complete tool for creating web applications that will allow developers to manage the browser and its interface. This programming language must provide the ability to interact with a web server, create animations, games, maps and other web services. As a result of development, users will be able to use this language to create unique and functional web applications.\",\r\n            0xCFDDe8452921D5C60E3Fda3A29f2Cb9437f509D6,\r\n            \"2023-10-25\",\r\n            \"2023-10-25\",\r\n            true\r\n        );\r\n        newDAO.voteFake(0, false, \"Maxim Zamir\", 0xD87Fea2184D952eEEf827A190Fba9D7F2F09A638);\r\n        newDAO.voteFake(0, false, \"Anton Cheplukov\", 0x012493BE86AC0107723b1e1A0aCc087A42236ccA);\r\n        newDAO.voteFake(0, false, \"Aliaksandr Askerka\", 0x3D30c9631Fce0B4ebF71CcFAaa2e93597949A448);\r\n        newDAO.voteFake(0, false, \"Felix Lipov\", 0x6620bcaCC17760eE0C81b1F440e8801EF8e65aEF);\r\n        newDAO.voteFake(0, false, \"Anastasiya Konoplina\", 0x68Bca109B3B6959cbc504B3cd07a81f11a9285Ec);\r\n\r\n        address[5] memory accounts = [\r\n            0xD87Fea2184D952eEEf827A190Fba9D7F2F09A638,\r\n            0x012493BE86AC0107723b1e1A0aCc087A42236ccA,\r\n            0x3D30c9631Fce0B4ebF71CcFAaa2e93597949A448,\r\n            0x6620bcaCC17760eE0C81b1F440e8801EF8e65aEF,\r\n            0x68Bca109B3B6959cbc504B3cd07a81f11a9285Ec\r\n        ];\r\n        for (uint256 i = 0; i < 5; i++) {\r\n            address _account = accounts[i];\r\n            newDAO.addMember(_account);\r\n        }\r\n    }\r\n\r\n    function isMember(address _dao, address _member) public view returns (bool) {\r\n        DAO dao = daos[_dao];\r\n        for (uint256 i = 0; i < dao.membersCount(); i++) {\r\n            if (dao.members(i) == _member) {\r\n                return true;\r\n            }\r\n        }\r\n        return false;\r\n    }\r\n\r\n    function getDAO(address _dao) public view returns (address, string memory, string memory, string memory, uint256, address[] memory) {\r\n        DAO dao = daos[_dao];\r\n        address[] memory daoMemers = new address[](dao.membersCount());\r\n\r\n        for (uint256 i = 0; i < dao.membersCount(); i++) {\r\n            daoMemers[i] = dao.members(i);\r\n        }\r\n\r\n        return (_dao, dao.name(), dao.description(), dao.scope(), dao.membersCount(), daoMemers);\r\n    }\r\n\r\n    function getAllDAOs() public view returns (address[] memory) {\r\n        return daoAddresses;\r\n    }\r\n\r\n}\r\n",
  "sourcePath": "/Users/ilyatorch/AragonProjects/dominionDAOV2/src/contracts/ManagerDAOs.sol",
  "compiler": {
    "name": "solc",
    "version": "0.8.7+commit.e28d00a7.Emscripten.clang"
  },
  "schemaVersion": "3.4.10",
  "updatedAt": "2024-02-11T08:05:26.028Z",
  "networkType": "ethereum",
  "devdoc": {
    "kind": "dev",
    "methods": {},
    "version": 1
  },
  "userdoc": {
    "kind": "user",
    "methods": {},
    "version": 1
  }
}