{
  "contractName": "ManagerDAOs",
  "abi": [
    {
      "anonymous": false,
      "inputs": [
        {
          "indexed": false,
          "internalType": "address",
          "name": "dao",
          "type": "address"
        },
        {
          "indexed": false,
          "internalType": "string",
          "name": "name",
          "type": "string"
        }
      ],
      "name": "DAOCreated",
      "type": "event"
    },
    {
      "anonymous": false,
      "inputs": [
        {
          "indexed": false,
          "internalType": "address",
          "name": "dao",
          "type": "address"
        },
        {
          "indexed": false,
          "internalType": "address",
          "name": "member",
          "type": "address"
        }
      ],
      "name": "DAOJoined",
      "type": "event"
    },
    {
      "inputs": [
        {
          "internalType": "address",
          "name": "",
          "type": "address"
        }
      ],
      "name": "daos",
      "outputs": [
        {
          "internalType": "contract DAO",
          "name": "",
          "type": "address"
        }
      ],
      "stateMutability": "view",
      "type": "function",
      "constant": true
    },
    {
      "inputs": [
        {
          "internalType": "string",
          "name": "_name",
          "type": "string"
        }
      ],
      "name": "createDAO",
      "outputs": [],
      "stateMutability": "nonpayable",
      "type": "function"
    },
    {
      "inputs": [
        {
          "internalType": "address",
          "name": "_dao",
          "type": "address"
        }
      ],
      "name": "joinDAO",
      "outputs": [],
      "stateMutability": "nonpayable",
      "type": "function"
    },
    {
      "inputs": [
        {
          "internalType": "address",
          "name": "_dao",
          "type": "address"
        },
        {
          "internalType": "address",
          "name": "_member",
          "type": "address"
        }
      ],
      "name": "isMember",
      "outputs": [
        {
          "internalType": "bool",
          "name": "",
          "type": "bool"
        }
      ],
      "stateMutability": "view",
      "type": "function",
      "constant": true
    },
    {
      "inputs": [
        {
          "internalType": "address",
          "name": "_dao",
          "type": "address"
        }
      ],
      "name": "getDAO",
      "outputs": [
        {
          "internalType": "string",
          "name": "",
          "type": "string"
        },
        {
          "internalType": "uint256",
          "name": "",
          "type": "uint256"
        },
        {
          "internalType": "address[]",
          "name": "",
          "type": "address[]"
        }
      ],
      "stateMutability": "view",
      "type": "function",
      "constant": true
    },
    {
      "inputs": [],
      "name": "getAllDAOs",
      "outputs": [
        {
          "internalType": "address[]",
          "name": "",
          "type": "address[]"
        }
      ],
      "stateMutability": "view",
      "type": "function",
      "constant": true
    }
  ],
  "bytecode": "0x608060405234801561001057600080fd5b50612036806100206000396000f3fe60806040523480156200001157600080fd5b50600436106200006a5760003560e01c8063273b6149146200006f57806339ac7a0814620000a75780633cb2c68a14620000dd5780634830ebcf14620000ff5780637f9ba632146200011f578063c25f3cf6146200013f575b600080fd5b6200008d600480360381019062000087919062000bfe565b62000175565b6040516200009e9392919062000fce565b60405180910390f35b620000c56004803603810190620000bf919062000c62565b6200054c565b604051620000d4919062000f60565b60405180910390f35b620000e76200072f565b604051620000f6919062000f3c565b60405180910390f35b6200011d600480360381019062000117919062000ca9565b620007bf565b005b6200013d600480360381019062000137919062000bfe565b6200091c565b005b6200015d600480360381019062000157919062000bfe565b62000a7c565b6040516200016c919062000f7d565b60405180910390f35b60606000606060008060008673ffffffffffffffffffffffffffffffffffffffff1673ffffffffffffffffffffffffffffffffffffffff16815260200190815260200160002060009054906101000a900473ffffffffffffffffffffffffffffffffffffffff16905060008173ffffffffffffffffffffffffffffffffffffffff1663297f9af06040518163ffffffff1660e01b815260040160206040518083038186803b1580156200022757600080fd5b505afa1580156200023c573d6000803e3d6000fd5b505050506040513d601f19601f8201168201806040525081019062000262919062000d4b565b67ffffffffffffffff8111156200027e576200027d620012b9565b5b604051908082528060200260200182016040528015620002ad5781602001602082028036833780820191505090505b50905060005b8273ffffffffffffffffffffffffffffffffffffffff1663297f9af06040518163ffffffff1660e01b815260040160206040518083038186803b158015620002fa57600080fd5b505afa1580156200030f573d6000803e3d6000fd5b505050506040513d601f19601f8201168201806040525081019062000335919062000d4b565b81101562000432578273ffffffffffffffffffffffffffffffffffffffff16635daf08ca826040518263ffffffff1660e01b81526004016200037891906200103b565b60206040518083038186803b1580156200039157600080fd5b505afa158015620003a6573d6000803e3d6000fd5b505050506040513d601f19601f82011682018060405250810190620003cc919062000c30565b828281518110620003e257620003e16200128a565b5b602002602001019073ffffffffffffffffffffffffffffffffffffffff16908173ffffffffffffffffffffffffffffffffffffffff1681525050808062000429906200120d565b915050620002b3565b508173ffffffffffffffffffffffffffffffffffffffff166306fdde036040518163ffffffff1660e01b815260040160006040518083038186803b1580156200047a57600080fd5b505afa1580156200048f573d6000803e3d6000fd5b505050506040513d6000823e3d601f19601f82011682018060405250810190620004ba919062000cfa565b8273ffffffffffffffffffffffffffffffffffffffff1663297f9af06040518163ffffffff1660e01b815260040160206040518083038186803b1580156200050157600080fd5b505afa15801562000516573d6000803e3d6000fd5b505050506040513d601f19601f820116820180604052508101906200053c919062000d4b565b8294509450945050509193909250565b6000806000808573ffffffffffffffffffffffffffffffffffffffff1673ffffffffffffffffffffffffffffffffffffffff16815260200190815260200160002060009054906101000a900473ffffffffffffffffffffffffffffffffffffffff16905060005b8173ffffffffffffffffffffffffffffffffffffffff1663297f9af06040518163ffffffff1660e01b815260040160206040518083038186803b158015620005fa57600080fd5b505afa1580156200060f573d6000803e3d6000fd5b505050506040513d601f19601f8201168201806040525081019062000635919062000d4b565b81101562000722578373ffffffffffffffffffffffffffffffffffffffff168273ffffffffffffffffffffffffffffffffffffffff16635daf08ca836040518263ffffffff1660e01b81526004016200068f91906200103b565b60206040518083038186803b158015620006a857600080fd5b505afa158015620006bd573d6000803e3d6000fd5b505050506040513d601f19601f82011682018060405250810190620006e3919062000c30565b73ffffffffffffffffffffffffffffffffffffffff1614156200070c5760019250505062000729565b808062000719906200120d565b915050620005b3565b5060009150505b92915050565b60606001805480602002602001604051908101604052809291908181526020018280548015620007b557602002820191906000526020600020905b8160009054906101000a900473ffffffffffffffffffffffffffffffffffffffff1673ffffffffffffffffffffffffffffffffffffffff16815260200190600101908083116200076a575b5050505050905090565b60008133604051620007d19062000aaf565b620007de92919062000f9a565b604051809103906000f080158015620007fb573d6000803e3d6000fd5b509050806000808373ffffffffffffffffffffffffffffffffffffffff1673ffffffffffffffffffffffffffffffffffffffff16815260200190815260200160002060006101000a81548173ffffffffffffffffffffffffffffffffffffffff021916908373ffffffffffffffffffffffffffffffffffffffff1602179055506001819080600181540180825580915050600190039060005260206000200160009091909190916101000a81548173ffffffffffffffffffffffffffffffffffffffff021916908373ffffffffffffffffffffffffffffffffffffffff1602179055507e1d639484c46792ffbaa78827c6f9e6563478dac823f4e2a8ece68cf4d4867381836040516200091092919062000f08565b60405180910390a15050565b60008060008373ffffffffffffffffffffffffffffffffffffffff1673ffffffffffffffffffffffffffffffffffffffff16815260200190815260200160002060009054906101000a900473ffffffffffffffffffffffffffffffffffffffff1690506200098b82336200054c565b15620009ce576040517f08c379a0000000000000000000000000000000000000000000000000000000008152600401620009c59062001019565b60405180910390fd5b8073ffffffffffffffffffffffffffffffffffffffff1663ca6d56dc336040518263ffffffff1660e01b815260040162000a09919062000ebe565b600060405180830381600087803b15801562000a2457600080fd5b505af115801562000a39573d6000803e3d6000fd5b505050507f19c2cee09470d9f5934cb6d3839371932a4999f4d3ab1423e43465bb26858634823360405162000a7092919062000edb565b60405180910390a15050565b60006020528060005260406000206000915054906101000a900473ffffffffffffffffffffffffffffffffffffffff1681565b610c96806200136b83390190565b600062000ad462000ace8462001081565b62001058565b90508281526020810184848401111562000af35762000af2620012ed565b5b62000b0084828562001192565b509392505050565b600062000b1f62000b198462001081565b62001058565b90508281526020810184848401111562000b3e5762000b3d620012ed565b5b62000b4b848285620011a1565b509392505050565b60008135905062000b648162001336565b92915050565b60008151905062000b7b8162001336565b92915050565b600082601f83011262000b995762000b98620012e8565b5b813562000bab84826020860162000abd565b91505092915050565b600082601f83011262000bcc5762000bcb620012e8565b5b815162000bde84826020860162000b08565b91505092915050565b60008151905062000bf88162001350565b92915050565b60006020828403121562000c175762000c16620012f7565b5b600062000c278482850162000b53565b91505092915050565b60006020828403121562000c495762000c48620012f7565b5b600062000c598482850162000b6a565b91505092915050565b6000806040838503121562000c7c5762000c7b620012f7565b5b600062000c8c8582860162000b53565b925050602062000c9f8582860162000b53565b9150509250929050565b60006020828403121562000cc25762000cc1620012f7565b5b600082013567ffffffffffffffff81111562000ce35762000ce2620012f2565b5b62000cf18482850162000b81565b91505092915050565b60006020828403121562000d135762000d12620012f7565b5b600082015167ffffffffffffffff81111562000d345762000d33620012f2565b5b62000d428482850162000bb4565b91505092915050565b60006020828403121562000d645762000d63620012f7565b5b600062000d748482850162000be7565b91505092915050565b600062000d8b838362000d97565b60208301905092915050565b62000da2816200110c565b82525050565b62000db3816200110c565b82525050565b600062000dc682620010c7565b62000dd28185620010ea565b935062000ddf83620010b7565b8060005b8381101562000e1657815162000dfa888262000d7d565b975062000e0783620010dd565b92505060018101905062000de3565b5085935050505092915050565b62000e2e8162001120565b82525050565b62000e3f8162001156565b82525050565b600062000e5282620010d2565b62000e5e8185620010fb565b935062000e70818560208601620011a1565b62000e7b81620012fc565b840191505092915050565b600062000e95601b83620010fb565b915062000ea2826200130d565b602082019050919050565b62000eb8816200114c565b82525050565b600060208201905062000ed5600083018462000da8565b92915050565b600060408201905062000ef2600083018562000da8565b62000f01602083018462000da8565b9392505050565b600060408201905062000f1f600083018562000da8565b818103602083015262000f33818462000e45565b90509392505050565b6000602082019050818103600083015262000f58818462000db9565b905092915050565b600060208201905062000f77600083018462000e23565b92915050565b600060208201905062000f94600083018462000e34565b92915050565b6000604082019050818103600083015262000fb6818562000e45565b905062000fc7602083018462000da8565b9392505050565b6000606082019050818103600083015262000fea818662000e45565b905062000ffb602083018562000ead565b81810360408301526200100f818462000db9565b9050949350505050565b60006020820190508181036000830152620010348162000e86565b9050919050565b600060208201905062001052600083018462000ead565b92915050565b60006200106462001077565b9050620010728282620011d7565b919050565b6000604051905090565b600067ffffffffffffffff8211156200109f576200109e620012b9565b5b620010aa82620012fc565b9050602081019050919050565b6000819050602082019050919050565b600081519050919050565b600081519050919050565b6000602082019050919050565b600082825260208201905092915050565b600082825260208201905092915050565b600062001119826200112c565b9050919050565b60008115159050919050565b600073ffffffffffffffffffffffffffffffffffffffff82169050919050565b6000819050919050565b600062001163826200116a565b9050919050565b600062001177826200117e565b9050919050565b60006200118b826200112c565b9050919050565b82818337600083830152505050565b60005b83811015620011c1578082015181840152602081019050620011a4565b83811115620011d1576000848401525b50505050565b620011e282620012fc565b810181811067ffffffffffffffff82111715620012045762001203620012b9565b5b80604052505050565b60006200121a826200114c565b91507fffffffffffffffffffffffffffffffffffffffffffffffffffffffffffffffff82141562001250576200124f6200125b565b5b600182019050919050565b7f4e487b7100000000000000000000000000000000000000000000000000000000600052601160045260246000fd5b7f4e487b7100000000000000000000000000000000000000000000000000000000600052603260045260246000fd5b7f4e487b7100000000000000000000000000000000000000000000000000000000600052604160045260246000fd5b600080fd5b600080fd5b600080fd5b600080fd5b6000601f19601f8301169050919050565b7f416c72656164792061206d656d626572206f66207468652044414f0000000000600082015250565b62001341816200110c565b81146200134d57600080fd5b50565b6200135b816200114c565b81146200136757600080fd5b5056fe60806040523480156200001157600080fd5b5060405162000c9638038062000c9683398181016040528101906200003791906200021a565b81600090805190602001906200004f929190620000d5565b506001819080600181540180825580915050600190039060005260206000200160009091909190916101000a81548173ffffffffffffffffffffffffffffffffffffffff021916908373ffffffffffffffffffffffffffffffffffffffff16021790555060026000815480929190620000c890620003bf565b91905055505050620004d9565b828054620000e39062000353565b90600052602060002090601f01602090048101928262000107576000855562000153565b82601f106200012257805160ff191683800117855562000153565b8280016001018555821562000153579182015b828111156200015257825182559160200191906001019062000135565b5b50905062000162919062000166565b5090565b5b808211156200018157600081600090555060010162000167565b5090565b60006200019c6200019684620002a9565b62000280565b905082815260208101848484011115620001bb57620001ba6200049f565b5b620001c88482856200031d565b509392505050565b600081519050620001e181620004bf565b92915050565b600082601f830112620001ff57620001fe6200049a565b5b81516200021184826020860162000185565b91505092915050565b60008060408385031215620002345762000233620004a9565b5b600083015167ffffffffffffffff811115620002555762000254620004a4565b5b6200026385828601620001e7565b92505060206200027685828601620001d0565b9150509250929050565b60006200028c6200029f565b90506200029a828262000389565b919050565b6000604051905090565b600067ffffffffffffffff821115620002c757620002c66200046b565b5b620002d282620004ae565b9050602081019050919050565b6000620002ec82620002f3565b9050919050565b600073ffffffffffffffffffffffffffffffffffffffff82169050919050565b6000819050919050565b60005b838110156200033d57808201518184015260208101905062000320565b838111156200034d576000848401525b50505050565b600060028204905060018216806200036c57607f821691505b602082108114156200038357620003826200043c565b5b50919050565b6200039482620004ae565b810181811067ffffffffffffffff82111715620003b657620003b56200046b565b5b80604052505050565b6000620003cc8262000313565b91507fffffffffffffffffffffffffffffffffffffffffffffffffffffffffffffffff8214156200040257620004016200040d565b5b600182019050919050565b7f4e487b7100000000000000000000000000000000000000000000000000000000600052601160045260246000fd5b7f4e487b7100000000000000000000000000000000000000000000000000000000600052602260045260246000fd5b7f4e487b7100000000000000000000000000000000000000000000000000000000600052604160045260246000fd5b600080fd5b600080fd5b600080fd5b600080fd5b6000601f19601f8301169050919050565b620004ca81620002df565b8114620004d657600080fd5b50565b6107ad80620004e96000396000f3fe608060405234801561001057600080fd5b50600436106100625760003560e01c8063013cf08b1461006757806306fdde031461009c578063297f9af0146100ba5780635daf08ca146100d8578063ca6d56dc14610108578063da35c66414610124575b600080fd5b610081600480360381019061007c9190610469565b610142565b60405161009396959493929190610517565b60405180910390f35b6100a46102bb565b6040516100b19190610586565b60405180910390f35b6100c2610349565b6040516100cf91906105a8565b60405180910390f35b6100f260048036038101906100ed9190610469565b61034f565b6040516100ff91906104fc565b60405180910390f35b610122600480360381019061011d919061043c565b61038e565b005b61012c61040c565b60405161013991906105a8565b60405180910390f35b60036020528060005260406000206000915090508060000160009054906101000a900473ffffffffffffffffffffffffffffffffffffffff169080600101805461018b9061065a565b80601f01602080910402602001604051908101604052809291908181526020018280546101b79061065a565b80156102045780601f106101d957610100808354040283529160200191610204565b820191906000526020600020905b8154815290600101906020018083116101e757829003601f168201915b5050505050908060020180546102199061065a565b80601f01602080910402602001604051908101604052809291908181526020018280546102459061065a565b80156102925780601f1061026757610100808354040283529160200191610292565b820191906000526020600020905b81548152906001019060200180831161027557829003601f168201915b5050505050908060030154908060040154908060050160009054906101000a900460ff16905086565b600080546102c89061065a565b80601f01602080910402602001604051908101604052809291908181526020018280546102f49061065a565b80156103415780601f1061031657610100808354040283529160200191610341565b820191906000526020600020905b81548152906001019060200180831161032457829003601f168201915b505050505081565b60025481565b6001818154811061035f57600080fd5b906000526020600020016000915054906101000a900473ffffffffffffffffffffffffffffffffffffffff1681565b6001819080600181540180825580915050600190039060005260206000200160009091909190916101000a81548173ffffffffffffffffffffffffffffffffffffffff021916908373ffffffffffffffffffffffffffffffffffffffff160217905550600260008154809291906104049061068c565b919050555050565b60045481565b60008135905061042181610749565b92915050565b60008135905061043681610760565b92915050565b60006020828403121561045257610451610733565b5b600061046084828501610412565b91505092915050565b60006020828403121561047f5761047e610733565b5b600061048d84828501610427565b91505092915050565b61049f816105df565b82525050565b6104ae816105f1565b82525050565b60006104bf826105c3565b6104c981856105ce565b93506104d9818560208601610627565b6104e281610738565b840191505092915050565b6104f68161061d565b82525050565b60006020820190506105116000830184610496565b92915050565b600060c08201905061052c6000830189610496565b818103602083015261053e81886104b4565b9050818103604083015261055281876104b4565b905061056160608301866104ed565b61056e60808301856104ed565b61057b60a08301846104a5565b979650505050505050565b600060208201905081810360008301526105a081846104b4565b905092915050565b60006020820190506105bd60008301846104ed565b92915050565b600081519050919050565b600082825260208201905092915050565b60006105ea826105fd565b9050919050565b60008115159050919050565b600073ffffffffffffffffffffffffffffffffffffffff82169050919050565b6000819050919050565b60005b8381101561064557808201518184015260208101905061062a565b83811115610654576000848401525b50505050565b6000600282049050600182168061067257607f821691505b6020821081141561068657610685610704565b5b50919050565b60006106978261061d565b91507fffffffffffffffffffffffffffffffffffffffffffffffffffffffffffffffff8214156106ca576106c96106d5565b5b600182019050919050565b7f4e487b7100000000000000000000000000000000000000000000000000000000600052601160045260246000fd5b7f4e487b7100000000000000000000000000000000000000000000000000000000600052602260045260246000fd5b600080fd5b6000601f19601f8301169050919050565b610752816105df565b811461075d57600080fd5b50565b6107698161061d565b811461077457600080fd5b5056fea2646970667358221220bfdcddc8e41abef41f429a5c962f7dc047528b0be26e53926af13889e260daed64736f6c63430008070033a2646970667358221220e5c6531a7f1042b8003961e472228a5fd1b0e8e92df6de8324f77b84d8f03fce64736f6c63430008070033",
  "immutableReferences": {},
  "source": "// SPDX-License-Identifier: MIT\r\npragma solidity ^0.8.7;\r\n\r\nimport './DAO.sol';\r\n\r\n\r\ncontract ManagerDAOs {\r\n    mapping(address => DAO) public daos;\r\n    address[] daoAddresses;\r\n\r\n    event DAOCreated(address dao, string name);\r\n    event DAOJoined(address dao, address member);\r\n\r\n    function createDAO(string memory _name) public {\r\n        DAO newDAO = new DAO(_name, msg.sender);\r\n        daos[address(newDAO)] = newDAO;\r\n        daoAddresses.push(address(newDAO));\r\n\r\n        emit DAOCreated(address(newDAO), _name);\r\n    }\r\n\r\n    function joinDAO(address _dao) public {\r\n        DAO dao = daos[_dao];\r\n        require(!isMember(_dao, msg.sender), \"Already a member of the DAO\");\r\n        dao.addMember(msg.sender);\r\n\r\n        emit DAOJoined(_dao, msg.sender);\r\n    }\r\n\r\n    function isMember(address _dao, address _member) public view returns (bool) {\r\n        DAO dao = daos[_dao];\r\n        for (uint256 i = 0; i < dao.membersCount(); i++) {\r\n            if (dao.members(i) == _member) {\r\n                return true;\r\n            }\r\n        }\r\n        return false;\r\n    }\r\n\r\n    function getDAO(address _dao) public view returns (string memory, uint256, address[] memory) {\r\n        DAO dao = daos[_dao];\r\n        address[] memory daoMemers = new address[](dao.membersCount());\r\n\r\n        for (uint256 i = 0; i < dao.membersCount(); i++) {\r\n            daoMemers[i] = dao.members(i);\r\n        }\r\n\r\n        return (dao.name(), dao.membersCount(), daoMemers);\r\n    }\r\n\r\n    function getAllDAOs() public view returns (address[] memory) {\r\n        return daoAddresses;\r\n    }\r\n\r\n}\r\n",
  "sourcePath": "/Users/ilyatorch/AragonProjects/dominionDAOV2/src/contracts/ManagerDAOs.sol",
  "compiler": {
    "name": "solc",
    "version": "0.8.7+commit.e28d00a7.Emscripten.clang"
  },
  "schemaVersion": "3.4.10",
  "updatedAt": "2023-04-02T09:20:56.928Z",
  "networkType": "ethereum",
  "devdoc": {
    "kind": "dev",
    "methods": {},
    "version": 1
  },
  "userdoc": {
    "kind": "user",
    "methods": {},
    "version": 1
  }
}