{
  "contractName": "PosteconomyDAO",
  "abi": [
    {
      "anonymous": false,
      "inputs": [
        {
          "indexed": true,
          "internalType": "uint256",
          "name": "daoId",
          "type": "uint256"
        },
        {
          "indexed": false,
          "internalType": "string",
          "name": "name",
          "type": "string"
        }
      ],
      "name": "DAOCreated",
      "type": "event"
    },
    {
      "anonymous": false,
      "inputs": [
        {
          "indexed": true,
          "internalType": "uint256",
          "name": "daoId",
          "type": "uint256"
        },
        {
          "indexed": false,
          "internalType": "address",
          "name": "member",
          "type": "address"
        }
      ],
      "name": "DAOJoined",
      "type": "event"
    },
    {
      "inputs": [
        {
          "internalType": "uint256",
          "name": "",
          "type": "uint256"
        }
      ],
      "name": "daos",
      "outputs": [
        {
          "internalType": "string",
          "name": "name",
          "type": "string"
        }
      ],
      "stateMutability": "view",
      "type": "function",
      "constant": true
    },
    {
      "inputs": [
        {
          "internalType": "string",
          "name": "_name",
          "type": "string"
        }
      ],
      "name": "createDAO",
      "outputs": [],
      "stateMutability": "nonpayable",
      "type": "function"
    },
    {
      "inputs": [
        {
          "internalType": "uint256",
          "name": "_daoId",
          "type": "uint256"
        }
      ],
      "name": "joinDAO",
      "outputs": [],
      "stateMutability": "nonpayable",
      "type": "function"
    },
    {
      "inputs": [
        {
          "internalType": "uint256",
          "name": "_daoId",
          "type": "uint256"
        },
        {
          "internalType": "address",
          "name": "_member",
          "type": "address"
        }
      ],
      "name": "isMember",
      "outputs": [
        {
          "internalType": "bool",
          "name": "",
          "type": "bool"
        }
      ],
      "stateMutability": "view",
      "type": "function",
      "constant": true
    },
    {
      "inputs": [],
      "name": "getDAOsCount",
      "outputs": [
        {
          "internalType": "uint256",
          "name": "",
          "type": "uint256"
        }
      ],
      "stateMutability": "view",
      "type": "function",
      "constant": true
    },
    {
      "inputs": [
        {
          "internalType": "uint256",
          "name": "_daoId",
          "type": "uint256"
        }
      ],
      "name": "getDAO",
      "outputs": [
        {
          "internalType": "address[]",
          "name": "",
          "type": "address[]"
        },
        {
          "internalType": "string",
          "name": "",
          "type": "string"
        }
      ],
      "stateMutability": "view",
      "type": "function",
      "constant": true
    },
    {
      "inputs": [],
      "name": "getAllDAOs",
      "outputs": [
        {
          "internalType": "string[]",
          "name": "",
          "type": "string[]"
        }
      ],
      "stateMutability": "view",
      "type": "function",
      "constant": true
    }
  ],
  "bytecode": "0x608060405234801561001057600080fd5b506111ce806100206000396000f3fe608060405234801561001057600080fd5b506004361061007d5760003560e01c80634830ebcf1161005b5780634830ebcf146100da5780635a29426c146100f65780637d9e10f514610127578063ccbbd260146101575761007d565b8063165aaad1146100825780633cb2c68a146100a05780633fbdf32c146100be575b600080fd5b61008a610187565b6040516100979190610dbd565b60405180910390f35b6100a8610193565b6040516100b59190610d1e565b60405180910390f35b6100d860048036038101906100d39190610a6c565b6102e2565b005b6100f460048036038101906100ef9190610a23565b610434565b005b610110600480360381019061010b9190610a6c565b6104ff565b60405161011e929190610ce7565b60405180910390f35b610141600480360381019061013c9190610a99565b6106b0565b60405161014e9190610d40565b60405180910390f35b610171600480360381019061016c9190610a6c565b6107a6565b60405161017e9190610d5b565b60405180910390f35b60008080549050905090565b60606000808054905067ffffffffffffffff8111156101b5576101b46110c4565b5b6040519080825280602002602001820160405280156101e857816020015b60608152602001906001900390816101d35790505b50905060005b6000805490508110156102da576000818154811061020f5761020e611095565b5b9060005260206000209060020201600101805461022b90610f8b565b80601f016020809104026020016040519081016040528092919081815260200182805461025790610f8b565b80156102a45780601f10610279576101008083540402835291602001916102a4565b820191906000526020600020905b81548152906001019060200180831161028757829003601f168201915b50505050508282815181106102bc576102bb611095565b5b602002602001018190525080806102d290610fee565b9150506101ee565b508091505090565b6000805490508110610329576040517f08c379a000000000000000000000000000000000000000000000000000000000815260040161032090610d9d565b60405180910390fd5b61033381336106b0565b15610373576040517f08c379a000000000000000000000000000000000000000000000000000000000815260040161036a90610d7d565b60405180910390fd5b6000818154811061038757610386611095565b5b9060005260206000209060020201600001339080600181540180825580915050600190039060005260206000200160009091909190916101000a81548173ffffffffffffffffffffffffffffffffffffffff021916908373ffffffffffffffffffffffffffffffffffffffff160217905550807f4e27de6966e3379e2b647fa2ae373f5f246ef1be3c5b53dfe78b66a39a0295c3336040516104299190610ccc565b60405180910390a250565b606060006040518060400160405280838152602001848152509080600181540180825580915050600190039060005260206000209060020201600090919091909150600082015181600001908051906020019061049292919061085c565b5060208201518160010190805190602001906104af9291906108e6565b50505060016000805490506104c49190610ecd565b7f674299fcf9c5599109223c2918df3e4149f8076e6b98eb45c7bbc0ad179c41a6836040516104f39190610d5b565b60405180910390a25050565b6060806000805490508310610549576040517f08c379a000000000000000000000000000000000000000000000000000000000815260040161054090610d9d565b60405180910390fd5b6000838154811061055d5761055c611095565b5b90600052602060002090600202016000016000848154811061058257610581611095565b5b90600052602060002090600202016001018180548060200260200160405190810160405280929190818152602001828054801561061457602002820191906000526020600020905b8160009054906101000a900473ffffffffffffffffffffffffffffffffffffffff1673ffffffffffffffffffffffffffffffffffffffff16815260200190600101908083116105ca575b5050505050915080805461062790610f8b565b80601f016020809104026020016040519081016040528092919081815260200182805461065390610f8b565b80156106a05780601f10610675576101008083540402835291602001916106a0565b820191906000526020600020905b81548152906001019060200180831161068357829003601f168201915b5050505050905091509150915091565b600080600090505b600084815481106106cc576106cb611095565b5b90600052602060002090600202016000018054905081101561079a578273ffffffffffffffffffffffffffffffffffffffff166000858154811061071357610712611095565b5b9060005260206000209060020201600001828154811061073657610735611095565b5b9060005260206000200160009054906101000a900473ffffffffffffffffffffffffffffffffffffffff1673ffffffffffffffffffffffffffffffffffffffff1614156107875760019150506107a0565b808061079290610fee565b9150506106b8565b50600090505b92915050565b600081815481106107b657600080fd5b90600052602060002090600202016000915090508060010180546107d990610f8b565b80601f016020809104026020016040519081016040528092919081815260200182805461080590610f8b565b80156108525780601f1061082757610100808354040283529160200191610852565b820191906000526020600020905b81548152906001019060200180831161083557829003601f168201915b5050505050905081565b8280548282559060005260206000209081019282156108d5579160200282015b828111156108d45782518260006101000a81548173ffffffffffffffffffffffffffffffffffffffff021916908373ffffffffffffffffffffffffffffffffffffffff1602179055509160200191906001019061087c565b5b5090506108e2919061096c565b5090565b8280546108f290610f8b565b90600052602060002090601f016020900481019282610914576000855561095b565b82601f1061092d57805160ff191683800117855561095b565b8280016001018555821561095b579182015b8281111561095a57825182559160200191906001019061093f565b5b509050610968919061096c565b5090565b5b8082111561098557600081600090555060010161096d565b5090565b600061099c61099784610dfd565b610dd8565b9050828152602081018484840111156109b8576109b76110f8565b5b6109c3848285610f49565b509392505050565b6000813590506109da8161116a565b92915050565b600082601f8301126109f5576109f46110f3565b5b8135610a05848260208601610989565b91505092915050565b600081359050610a1d81611181565b92915050565b600060208284031215610a3957610a38611102565b5b600082013567ffffffffffffffff811115610a5757610a566110fd565b5b610a63848285016109e0565b91505092915050565b600060208284031215610a8257610a81611102565b5b6000610a9084828501610a0e565b91505092915050565b60008060408385031215610ab057610aaf611102565b5b6000610abe85828601610a0e565b9250506020610acf858286016109cb565b9150509250929050565b6000610ae58383610b05565b60208301905092915050565b6000610afd8383610c05565b905092915050565b610b0e81610f01565b82525050565b610b1d81610f01565b82525050565b6000610b2e82610e4e565b610b388185610e89565b9350610b4383610e2e565b8060005b83811015610b74578151610b5b8882610ad9565b9750610b6683610e6f565b925050600181019050610b47565b5085935050505092915050565b6000610b8c82610e59565b610b968185610e9a565b935083602082028501610ba885610e3e565b8060005b85811015610be45784840389528151610bc58582610af1565b9450610bd083610e7c565b925060208a01995050600181019050610bac565b50829750879550505050505092915050565b610bff81610f13565b82525050565b6000610c1082610e64565b610c1a8185610eab565b9350610c2a818560208601610f58565b610c3381611107565b840191505092915050565b6000610c4982610e64565b610c538185610ebc565b9350610c63818560208601610f58565b610c6c81611107565b840191505092915050565b6000610c84601783610ebc565b9150610c8f82611118565b602082019050919050565b6000610ca7601283610ebc565b9150610cb282611141565b602082019050919050565b610cc681610f3f565b82525050565b6000602082019050610ce16000830184610b14565b92915050565b60006040820190508181036000830152610d018185610b23565b90508181036020830152610d158184610c3e565b90509392505050565b60006020820190508181036000830152610d388184610b81565b905092915050565b6000602082019050610d556000830184610bf6565b92915050565b60006020820190508181036000830152610d758184610c3e565b905092915050565b60006020820190508181036000830152610d9681610c77565b9050919050565b60006020820190508181036000830152610db681610c9a565b9050919050565b6000602082019050610dd26000830184610cbd565b92915050565b6000610de2610df3565b9050610dee8282610fbd565b919050565b6000604051905090565b600067ffffffffffffffff821115610e1857610e176110c4565b5b610e2182611107565b9050602081019050919050565b6000819050602082019050919050565b6000819050602082019050919050565b600081519050919050565b600081519050919050565b600081519050919050565b6000602082019050919050565b6000602082019050919050565b600082825260208201905092915050565b600082825260208201905092915050565b600082825260208201905092915050565b600082825260208201905092915050565b6000610ed882610f3f565b9150610ee383610f3f565b925082821015610ef657610ef5611037565b5b828203905092915050565b6000610f0c82610f1f565b9050919050565b60008115159050919050565b600073ffffffffffffffffffffffffffffffffffffffff82169050919050565b6000819050919050565b82818337600083830152505050565b60005b83811015610f76578082015181840152602081019050610f5b565b83811115610f85576000848401525b50505050565b60006002820490506001821680610fa357607f821691505b60208210811415610fb757610fb6611066565b5b50919050565b610fc682611107565b810181811067ffffffffffffffff82111715610fe557610fe46110c4565b5b80604052505050565b6000610ff982610f3f565b91507fffffffffffffffffffffffffffffffffffffffffffffffffffffffffffffffff82141561102c5761102b611037565b5b600182019050919050565b7f4e487b7100000000000000000000000000000000000000000000000000000000600052601160045260246000fd5b7f4e487b7100000000000000000000000000000000000000000000000000000000600052602260045260246000fd5b7f4e487b7100000000000000000000000000000000000000000000000000000000600052603260045260246000fd5b7f4e487b7100000000000000000000000000000000000000000000000000000000600052604160045260246000fd5b600080fd5b600080fd5b600080fd5b600080fd5b6000601f19601f8301169050919050565b7f416c72656164792061206d656d626572206f662044414f000000000000000000600082015250565b7f44414f20646f6573206e6f742065786973740000000000000000000000000000600082015250565b61117381610f01565b811461117e57600080fd5b50565b61118a81610f3f565b811461119557600080fd5b5056fea26469706673582212209b5c38c448647002b394ede8e16b9d596cc93d48cdb739bc9bdd2eb6741b7a0f64736f6c63430008070033",
  "immutableReferences": {},
  "source": "// SPDX-License-Identifier: MIT\r\npragma solidity ^0.8.7;\r\n\r\ncontract PosteconomyDAO {\r\n    struct DAO {\r\n        address[] members;\r\n        string name;\r\n    }\r\n\r\n    DAO[] public daos;\r\n\r\n    event DAOCreated(uint256 indexed daoId, string name);\r\n    event DAOJoined(uint256 indexed daoId, address member);\r\n\r\n    function createDAO(string memory _name) public {\r\n        address[] memory members;\r\n        daos.push(DAO(members, _name));\r\n        emit DAOCreated(daos.length - 1, _name);\r\n    }\r\n\r\n    function joinDAO(uint256 _daoId) public {\r\n        require(_daoId < daos.length, \"DAO does not exist\");\r\n        require(!isMember(_daoId, msg.sender), \"Already a member of DAO\");\r\n        daos[_daoId].members.push(msg.sender);\r\n        emit DAOJoined(_daoId, msg.sender);\r\n    }\r\n\r\n    function isMember(uint256 _daoId, address _member) public view returns (bool) {\r\n        for (uint256 i = 0; i < daos[_daoId].members.length; i++) {\r\n            if (daos[_daoId].members[i] == _member) {\r\n                return true;\r\n            }\r\n        }\r\n        return false;\r\n    }\r\n\r\n    function getDAOsCount() public view returns (uint256) {\r\n        return daos.length;\r\n    }\r\n\r\n    function getDAO(uint256 _daoId) public view returns (address[] memory, string memory) {\r\n        require(_daoId < daos.length, \"DAO does not exist\");\r\n        return (daos[_daoId].members, daos[_daoId].name);\r\n    }\r\n\r\n    function getAllDAOs() public view returns (string[] memory) {\r\n        string[] memory daoNames = new string[](daos.length);\r\n        for (uint256 i = 0; i < daos.length; i++) {\r\n            daoNames[i] = daos[i].name;\r\n        }\r\n        return daoNames;\r\n    }\r\n\r\n}\r\n",
  "sourcePath": "/Users/ilyatorch/AragonProjects/dominionDAOV2/src/contracts/PosteconomyDAO.sol",
  "compiler": {
    "name": "solc",
    "version": "0.8.7+commit.e28d00a7.Emscripten.clang"
  },
  "schemaVersion": "3.4.10",
  "updatedAt": "2023-04-02T08:48:51.085Z",
  "networkType": "ethereum",
  "devdoc": {
    "kind": "dev",
    "methods": {},
    "version": 1
  },
  "userdoc": {
    "kind": "user",
    "methods": {},
    "version": 1
  }
}